{
	"data": {
		"bytecode": {
			"linkReferences": {},
			"object": "6080604052600f805460ff60a01b1916600560a11b17905534801562000023575f80fd5b5060405162005df238038062005df283398101604081905262000046916200012c565b828080846001600160a01b0381166200007857604051631e4fbdf760e01b81525f600482015260240160405180910390fd5b6200008381620000bf565b50600980546001600160a01b039283166001600160a01b031991821617909155600f805495909216941693909317909255506200017392505050565b600580546001600160a01b038381166001600160a01b0319831681179093556040519116919082907f8be0079c531659141344cd1fd0a4f28419497f9722a3daafe3b4186f6b6457e0905f90a35050565b80516001600160a01b038116811462000127575f80fd5b919050565b5f805f606084860312156200013f575f80fd5b6200014a8462000110565b92506200015a6020850162000110565b91506200016a6040850162000110565b90509250925092565b615c7180620001815f395ff3fe60806040526004361061030f575f3560e01c80638cfd8f5c116101a3578063c9b5ab2b116100f2578063dd6abadd11610092578063e574ffb41161006d578063e574ffb414610b64578063f2fde38b14610c75578063f5ecbdbc14610c94578063ffc9896b14610cb3575f80fd5b8063dd6abadd14610afa578063df2a5b3b14610b26578063e0e1084214610b45575f80fd5b8063d8ab8274116100cd578063d8ab82741461097a578063da25b725146109d1578063db0f4de2146109ef578063dd12d68b14610adb575f80fd5b8063c9b5ab2b14610933578063cbed8b9c14610948578063d1deba1f14610967575f80fd5b8063b353aaa71161015d578063c245527311610138578063c2455273146108ac578063c4461834146108e0578063c6328a46146108f5578063c8fbaf7214610914575f80fd5b8063b353aaa71461084f578063baf3292d1461086e578063be3576161461088d575f80fd5b80638cfd8f5c146107805780638da5cb5b146107b6578063950c8a74146107d35780639c6467c7146107f25780639cd4fd65146108115780639f38369a14610830575f80fd5b8063529dca321161025f5780636f536504116102195780637e63e29d116101f45780637e63e29d146106f857806384acd1bb146107175780638b8e3d141461074e5780638b8eb98f14610761575f80fd5b80636f53650414610699578063715018a6146106b85780637533d788146106cc575f80fd5b8063529dca321461057d578063556bca73146105905780635b8c41e6146105af57806366ad5c8a146105fc57806369511ba41461061b5780636ab0db6a1461066e575f80fd5b80632beacf88116102ca5780633f1f4fa4116102a55780633f1f4fa4146104ca57806342d65a8d146104f55780634ca68b96146105145780635244459214610533575f80fd5b80632beacf881461041957806338aca11b146104465780633d8b38f61461049b575f80fd5b80621d35671461034757806301009b101461036857806307e0db17146103875780630df37483146103a657806310ddb137146103c5578063242c38d7146103e4575f80fd5b36610343575f80805260186020525f80516020615c1c833981519152805434929061033b908490614755565b925050819055005b5f80fd5b348015610352575f80fd5b506103666103613660046147df565b610d32565b005b348015610373575f80fd5b5061036661038236600461489c565b610f48565b348015610392575f80fd5b506103666103a13660046148d3565b610fa9565b3480156103b1575f80fd5b506103666103c03660046148ee565b611011565b3480156103d0575f80fd5b506103666103df3660046148d3565b61102f565b3480156103ef575f80fd5b506104036103fe366004614918565b61106b565b6040516104109190614990565b60405180910390f35b348015610424575f80fd5b506104386104333660046149ab565b611133565b604051908152602001610410565b348015610451575f80fd5b50610438610460366004614a02565b6001600160a01b039283165f9081526017602090815260408083209490951682526007909301835283812061ffff9290921681529152205490565b3480156104a6575f80fd5b506104ba6104b5366004614a4a565b61115e565b6040519015158152602001610410565b3480156104d5575f80fd5b506104386104e43660046148d3565b600c6020525f908152604090205481565b348015610500575f80fd5b5061036661050f366004614a4a565b611227565b34801561051f575f80fd5b5061036661052e3660046148d3565b61128c565b34801561053e575f80fd5b5061043861054d366004614a9a565b6001600160a01b0382165f90815260176020908152604080832061ffff8516845260060190915290205492915050565b61036661058b366004614c12565b6112b2565b34801561059b575f80fd5b506103666105aa366004614ced565b61174f565b3480156105ba575f80fd5b506104386105c9366004614d04565b600e60209081525f9384526040808520845180860184018051928152908401958401959095209452929052825290205481565b348015610607575f80fd5b506103666106163660046147df565b6117d3565b348015610626575f80fd5b50610438610635366004614d58565b6001600160a01b0383165f908152601760209081526040808320858452600a01825280832061ffff851684529091529020549392505050565b61068161067c366004614d8c565b6118a5565b6040516001600160401b039091168152602001610410565b3480156106a4575f80fd5b506103666106b3366004614e22565b611efe565b3480156106c3575f80fd5b50610366611f53565b3480156106d7575f80fd5b506106eb6106e63660046148d3565b611f66565b6040516104109190614eb4565b348015610703575f80fd5b50610366610712366004614ec6565b611ffd565b348015610722575f80fd5b50600154610736906001600160a01b031681565b6040516001600160a01b039091168152602001610410565b61036661075c366004614ef2565b61204f565b34801561076c575f80fd5b5061036661077b366004614918565b6123ab565b34801561078b575f80fd5b5061043861079a366004614f9b565b600b60209081525f928352604080842090915290825290205481565b3480156107c1575f80fd5b506005546001600160a01b0316610736565b3480156107de575f80fd5b50600d54610736906001600160a01b031681565b3480156107fd575f80fd5b5061036661080c366004614a9a565b612475565b34801561081c575f80fd5b5061043861082b3660046148ee565b6124d0565b34801561083b575f80fd5b506106eb61084a3660046148d3565b6125e1565b34801561085a575f80fd5b50600954610736906001600160a01b031681565b348015610879575f80fd5b50610366610888366004614fb7565b6126f2565b348015610898575f80fd5b506103666108a7366004614ced565b61274e565b3480156108b7575f80fd5b506104386108c6366004614fb7565b6001600160a01b03165f9081526018602052604090205490565b3480156108eb575f80fd5b5061043861271081565b348015610900575f80fd5b50600454610736906001600160a01b031681565b34801561091f575f80fd5b5061036661092e366004614ec6565b612780565b34801561093e575f80fd5b5061043860115481565b348015610953575f80fd5b50610366610962366004614fd2565b6127d8565b6103666109753660046147df565b61284c565b348015610985575f80fd5b5061098e612a5c565b60405161041091905f60a0820190508251825260208301516020830152604083015115156040830152606083015160608301526080830151608083015292915050565b3480156109dc575f80fd5b505f54610736906001600160a01b031681565b3480156109fa575f80fd5b50610403610a09366004614d58565b6040805160e0810182525f80825260208201819052918101829052606081018290526080810182905260a0810182905260c0810191909152506001600160a01b038084165f908152601760209081526040808320868452600901825280832061ffff808716855290835292819020815160e08101835281548086168252620100008104909516938101939093526401000000009093048416908201526001820154606082015260028201549092166080830152600381015460a08301526004015460ff16151560c08201529392505050565b348015610ae6575f80fd5b50610366610af53660046148ee565b612ac5565b348015610b05575f80fd5b50610b19610b1436600461503f565b612b41565b60405161041091906150da565b348015610b31575f80fd5b50610366610b403660046150e8565b612c8c565b348015610b50575f80fd5b50610366610b5f366004615126565b612cfd565b348015610b6f575f80fd5b50610c66610b7e366004614ced565b601960209081525f9182526040918290208054835160c08082018652600184015461ffff8082168452620100009182900481168488015260028601548489015260038601546001600160a01b039081166060808701919091526004880154608080880191909152600589015460ff908116151560a0808a01919091528c5160e081018e5260068c015480881682529788049096169b86019b909b5264010000000090950483169a84019a909a5260078801549083015260088701541697810197909752600985015495870195909552600a909301548416151592850192909252919091169183565b60405161041093929190615163565b348015610c80575f80fd5b50610366610c8f366004614fb7565b612d10565b348015610c9f575f80fd5b506106eb610cae366004615187565b612d4a565b348015610cbe575f80fd5b50610cd2610ccd366004614fb7565b612dd9565b6040805183518152602080850151818301528483015192820192909252606080850151908201526080808501519082015260a093840151938101939093528151151560c084015201516001600160a01b031660e082015261010001610410565b6009546001600160a01b0316336001600160a01b031614610d9a5760405162461bcd60e51b815260206004820152601e60248201527f4c7a4170703a20696e76616c696420656e64706f696e742063616c6c6572000060448201526064015b60405180910390fd5b61ffff86165f908152600a602052604081208054610db7906151d5565b80601f0160208091040260200160405190810160405280929190818152602001828054610de3906151d5565b8015610e2e5780601f10610e0557610100808354040283529160200191610e2e565b820191905f5260205f20905b815481529060010190602001808311610e1157829003601f168201915b50505050509050805186869050148015610e4857505f8151115b8015610e70575080516020820120604051610e66908890889061520d565b6040518091039020145b610ecb5760405162461bcd60e51b815260206004820152602660248201527f4c7a4170703a20696e76616c696420736f757263652073656e64696e6720636f6044820152651b9d1c9858dd60d21b6064820152608401610d91565b610f3f8787878080601f0160208091040260200160405190810160405280939291908181526020018383808284375f9201919091525050604080516020601f8a018190048102820181019092528881528a9350915088908890819084018382808284375f92019190915250612e9892505050565b50505050505050565b600f546001600160a01b031633148015610f655750600b8160ff16105b610f6d575f80fd5b600f80546001600160a01b039093166001600160a01b031960ff909316600160a01b02929092166001600160a81b031990931692909217179055565b610fb1612f10565b6009546040516307e0db1760e01b815261ffff831660048201526001600160a01b03909116906307e0db17906024015b5f604051808303815f87803b158015610ff8575f80fd5b505af115801561100a573d5f803e3d5ffd5b5050505050565b611019612f10565b61ffff9091165f908152600c6020526040902055565b611037612f10565b6009546040516310ddb13760e01b815261ffff831660048201526001600160a01b03909116906310ddb13790602401610fe1565b6040805160e0810182525f80825260208201819052918101829052606081018290526080810182905260a0810182905260c0810191909152506001600160a01b038083165f908152601760209081526040808320858452600801825291829020825160e081018452815461ffff808216835262010000820416938201939093526401000000009092048416928201929092526001820154606082015260028201549092166080830152600381015460a08301526004015460ff16151560c08201525b92915050565b5f806111428787878787612f3d565b506015549091506111539082614755565b979650505050505050565b61ffff83165f908152600a60205260408120805482919061117e906151d5565b80601f01602080910402602001604051908101604052809291908181526020018280546111aa906151d5565b80156111f55780601f106111cc576101008083540402835291602001916111f5565b820191905f5260205f20905b8154815290600101906020018083116111d857829003601f168201915b50505050509050838360405161120c92919061520d565b60405180910390208180519060200120149150509392505050565b61122f612f10565b6009546040516342d65a8d60e01b81526001600160a01b03909116906342d65a8d9061126390869086908690600401615244565b5f604051808303815f87803b15801561127a575f80fd5b505af1158015610f3f573d5f803e3d5ffd5b611294612f10565b61ffff81165f908152600a602052604081206112af9161468a565b50565b5f84516001600160401b038111156112cc576112cc614ac6565b60405190808252806020026020018201604052801561132357816020015b6040805160a0810182525f808252602080830182905292820181905260608201819052608082015282525f199092019101816112ea5790505b5090505f5b85518110156117385760015486515f916001600160a01b03169063a9e118939089908590811061135a5761135a615261565b60200260200101516040518263ffffffff1660e01b815260040161137e9190614eb4565b5f60405180830381865afa158015611398573d5f803e3d5ffd5b505050506040513d5f823e601f3d908101601f191682016040526113bf9190810190615397565b60048054606083015160405163ad66a5f160e01b81529394506001600160a01b039091169263ad66a5f1926113ff92910161ffff91909116815260200190565b602060405180830381865afa15801561141a573d5f803e3d5ffd5b505050506040513d601f19601f8201168201806040525081019061143e91906154b5565b8160800151146114895760405162461bcd60e51b81526020600482015260166024820152754e6f74206120546f6b656e204272696467652056414160501b6044820152606401610d91565b6004805460e083015160405163ea63738d60e01b81525f936001600160a01b039093169263ea63738d926114bf92909101614eb4565b5f60405180830381865afa1580156114d9573d5f803e3d5ffd5b505050506040513d5f823e601f3d908101601f1916820160405261150091908101906154cc565b9050308160800151148015611593575060015f9054906101000a90046001600160a01b03166001600160a01b0316639a8a05926040518163ffffffff1660e01b8152600401602060405180830381865afa158015611560573d5f803e3d5ffd5b505050506040513d601f19601f82011682018060405250810190611584919061558f565b61ffff168160a0015161ffff16145b6115df5760405162461bcd60e51b815260206004820152601e60248201527f546f6b656e206e6f742073656e7420746f2074686973206164647265737300006044820152606401610d91565b60045488516001600160a01b039091169063c3f511c1908a908690811061160857611608615261565b60200260200101516040518263ffffffff1660e01b815260040161162c9190614eb4565b5f604051808303815f875af1158015611647573d5f803e3d5ffd5b505050506040513d5f823e601f3d908101601f1916820160405261166e91908101906155aa565b505f611682826060015183604001516130a0565b90505f61168e8261319d565b6020840151909150600860ff831611156116c5576116ad6008836155db565b6116b890600a6156d4565b6116c290826156e2565b90505b6040518060a0016040528085604001518152602001856060015161ffff168152602001846001600160a01b03168152602001828152602001856020015181525087878151811061171757611717615261565b6020026020010181905250505050505080611731906156f9565b9050611328565b5061174786828686868a613234565b505050505050565b611757612f10565b5f805260186020525f80516020615c1c83398151915254811115611779575f80fd5b5f80805260186020525f80516020615c1c83398151915280548392906117a0908490615711565b9091555050604051339082156108fc029083905f818181858888f193505050501580156117cf573d5f803e3d5ffd5b5050565b3330146118315760405162461bcd60e51b815260206004820152602660248201527f4e6f6e626c6f636b696e674c7a4170703a2063616c6c6572206d7573742062656044820152650204c7a4170760d41b6064820152608401610d91565b6117478686868080601f0160208091040260200160405190810160405280939291908181526020018383808284375f9201919091525050604080516020601f8901819004810282018101909252878152899350915087908790819084018382808284375f920191909152506135a692505050565b604080820151825161ffff165f9081526007602052918220546001600160a01b03161580156118d2575080155b80156118e9575060608301516001600160a01b0316155b806119035750611900835f015184608001516124d0565b34105b1561192157604051637e43b99760e01b815260040160405180910390fd5b60165460608401516040516323b872dd60e01b8152336004820152306024820152604481018490525f916001600160a01b0316906323b872dd906064016020604051808303815f875af115801561197a573d5f803e3d5ffd5b505050506040513d601f19601f8201168201806040525081019061199e9190615724565b9050806119c65760405162461bcd60e51b8152602060048201525f6024820152604401610d91565b601554156119dd576015546119da906138cd565b50505b8115611a5f576103e88286604001516119f691906156e2565b611a009190615753565b8560400151611a0f9190615711565b92506103e8828660400151611a2491906156e2565b611a2e9190615753565b60608601516001600160a01b03165f9081526018602052604081208054909190611a59908490614755565b90915550505b5f8560200151604051602001611a8491906001600160a01b0391909116815260200190565b60408051601f19818403018152828252885161ffff81165f908152600760209081528482205460808d015160608e0151600154634d4502c960e11b8a529751969950611b319895976001600160a01b03938416978b97939592948f94921692639a8a059292600480820193918290030181865afa158015611b07573d5f803e3d5ffd5b505050506040513d601f19601f82011682018060405250810190611b2b919061558f565b33613943565b600f54909550611b4d90606490600160a01b900460ff16615766565b601554611b5d9160ff16906156e2565b601554611b6a9190615711565b60105f828254611b7a9190614755565b90915550506001600160401b038516611c0757606086015160405163a9059cbb60e01b8152336004820152602481018690526001600160a01b039091169063a9059cbb906044016020604051808303815f875af1158015611bdd573d5f803e3d5ffd5b505050506040513d601f19601f82011682018060405250810190611c019190615724565b50611ef5565b6040805160e08101808352600154634d4502c960e11b90915291515f9282916001600160a01b0390911690639a8a05929060e4808501916020918187030181865afa158015611c58573d5f803e3d5ffd5b505050506040513d601f19601f82011682018060405250810190611c7c919061558f565b61ffff168152602001885f015161ffff16815260200188606001516001600160a01b0316815260200186815260200188602001516001600160a01b031681526020014281526020016001151581525090508060175f336001600160a01b03166001600160a01b031681526020019081526020015f206006016003015f60175f336001600160a01b03166001600160a01b031681526020019081526020015f205f016002015481526020019081526020015f205f895f015161ffff1661ffff1681526020019081526020015f205f820151815f015f6101000a81548161ffff021916908361ffff1602179055506020820151815f0160026101000a81548161ffff021916908361ffff1602179055506040820151815f0160046101000a8154816001600160a01b0302191690836001600160a01b03160217905550606082015181600101556080820151816002015f6101000a8154816001600160a01b0302191690836001600160a01b0316021790555060a0820151816003015560c0820151816004015f6101000a81548160ff02191690831515021790555090505060125f015460175f336001600160a01b03166001600160a01b031681526020019081526020015f205f016005015f828254611e539190614755565b9091555050601254601380545f90611e6c908490614755565b9091555050335f908152601760205260408120600201805460019290611e93908490614755565b9091555050335f90815260176020908152604080832060608b01516001600160a01b0316845260070182528083208a5161ffff16845290915281208054879290611ede908490614755565b92505081905550611ef3338860a00151613adf565b505b50505050919050565b611f06612f10565b6040805160a081018252868152602081018690529315159084018190526060840183905260809093018190526012949094556013929092556014805460ff19169091179055601555601655565b611f5b612f10565b611f645f613c57565b565b600a6020525f908152604090208054611f7e906151d5565b80601f0160208091040260200160405190810160405280929190818152602001828054611faa906151d5565b8015611ff55780601f10611fcc57610100808354040283529160200191611ff5565b820191905f5260205f20905b815481529060010190602001808311611fd857829003601f168201915b505050505081565b612005612f10565b61ffff9091165f8181526006602090815260408083206001600160a01b039095168352938152838220805460ff1916905591815260079091522080546001600160a01b0319169055565b60408101518015801561206d575060208201516001600160a01b0316155b80612092575061208f825f015183608001518385602001518660600151611133565b34105b156120b057604051637e43b99760e01b815260040160405180910390fd5b60155460165481156120c9576120c5826138cd565b5091505b80156120fe576103e88185604001516120e291906156e2565b6120ec9190615753565b84604001516120fb9190615711565b92505b5f612120855f0151866020015186886060015189608001518a60a00151613ca8565b9050806121485760405162461bcd60e51b8152602060048201525f6024820152604401610d91565b6103e882866040015161215b91906156e2565b6121659190615753565b5f80805260186020525f80516020615c1c833981519152805490919061218c908490614755565b925050819055508260105f8282546121a49190614755565b90915550506040805160c081018083526009546303408e4760e41b90915291515f9282916001600160a01b0390911690633408e4709060c4808501916020918187030181865afa1580156121fa573d5f803e3d5ffd5b505050506040513d601f19601f8201168201806040525081019061221e919061558f565b61ffff90811682528851166020808301919091526040808301899052898201516001600160a01b03166060840152426080840152600160a090930192909252601254335f908152601790925291812060050180549394509192612282908490614755565b9091555050601254601380545f9061229b908490614755565b9091555050335f81815260176020818152604080842080548552600b810183528185208c5161ffff9081168752908452828620885181548a87015191841663ffffffff19909116176201000091909316029190911781559187015160018084019190915560608801516002840180546001600160a01b0319166001600160a01b039092169190911790556080880151600384015560a08801516004909301805460ff191693151593909317909255948452919052825490929190612360908490614755565b9091555050335f908152601760209081526040808320895161ffff16845260060190915281208054879290612396908490614755565b92505081905550611747338760c00151613adf565b6123b3612f10565b6001600160a01b0382165f908152601860205260409020548111156123d6575f80fd5b6001600160a01b0382165f90815260186020526040812080548392906123fd908490615711565b909155505060405163a9059cbb60e01b8152336004820152602481018290526001600160a01b0383169063a9059cbb906044016020604051808303815f875af115801561244c573d5f803e3d5ffd5b505050506040513d601f19601f820116820180604052508101906124709190615724565b505050565b61247d612f10565b6040516bffffffffffffffffffffffff19606084811b8216602084015230901b16603482015260480160408051601f1981840301815291815261ffff83165f908152600a602052209061247090826157cc565b5f805460405163c23ee3c360e01b815261ffff85166004820152602481018390526044810184905282916001600160a01b03169063c23ee3c3906064016040805180830381865afa158015612527573d5f803e3d5ffd5b505050506040513d601f19601f8201168201806040525081019061254b9190615887565b50905060015f9054906101000a90046001600160a01b03166001600160a01b0316631a90a2196040518163ffffffff1660e01b8152600401602060405180830381865afa15801561259e573d5f803e3d5ffd5b505050506040513d601f19601f820116820180604052508101906125c291906154b5565b6015546125cf9083614755565b6125d99190614755565b949350505050565b61ffff81165f908152600a6020526040812080546060929190612603906151d5565b80601f016020809104026020016040519081016040528092919081815260200182805461262f906151d5565b801561267a5780601f106126515761010080835404028352916020019161267a565b820191905f5260205f20905b81548152906001019060200180831161265d57829003601f168201915b5050505050905080515f036126d15760405162461bcd60e51b815260206004820152601d60248201527f4c7a4170703a206e6f20747275737465642070617468207265636f72640000006044820152606401610d91565b6126eb5f601483516126e39190615711565b839190613d30565b9392505050565b6126fa612f10565b600d80546001600160a01b0319166001600160a01b0383169081179091556040519081527f5db758e995a17ec1ad84bdef7e8c3293a0bd6179bcce400dff5d4c3d87db726b9060200160405180910390a150565b612756612f10565b604051339082156108fc029083905f818181858888f193505050501580156117cf573d5f803e3d5ffd5b612788612f10565b61ffff9091165f8181526006602090815260408083206001600160a01b03909516808452948252808320805460ff19166001179055928252600790522080546001600160a01b0319169091179055565b6127e0612f10565b6009546040516332fb62e760e21b81526001600160a01b039091169063cbed8b9c9061281890889088908890889088906004016158a9565b5f604051808303815f87803b15801561282f575f80fd5b505af1158015612841573d5f803e3d5ffd5b505050505050505050565b61ffff86165f908152600e6020526040808220905161286e908890889061520d565b90815260408051602092819003830190206001600160401b0387165f90815292529020549050806128ed5760405162461bcd60e51b815260206004820152602360248201527f4e6f6e626c6f636b696e674c7a4170703a206e6f2073746f726564206d65737360448201526261676560e81b6064820152608401610d91565b8083836040516128fe92919061520d565b60405180910390201461295d5760405162461bcd60e51b815260206004820152602160248201527f4e6f6e626c6f636b696e674c7a4170703a20696e76616c6964207061796c6f616044820152601960fa1b6064820152608401610d91565b61ffff87165f908152600e6020526040808220905161297f908990899061520d565b90815260408051602092819003830181206001600160401b0389165f90815290845282902093909355601f88018290048202830182019052868252612a1491899189908990819084018382808284375f9201919091525050604080516020601f8a018190048102820181019092528881528a9350915088908890819084018382808284375f920191909152506135a692505050565b7fc264d91f3adc5588250e1551f547752ca0cfa8f6b530d243b9f9f4cab10ea8e58787878785604051612a4b9594939291906158d6565b60405180910390a150505050505050565b612a8b6040518060a001604052805f81526020015f81526020015f151581526020015f81526020015f81525090565b506040805160a0810182526012548152601354602082015260145460ff161515918101919091526015546060820152601654608082015290565b6002546001600160a01b03163314612b2b5760405162461bcd60e51b8152602060048201526024808201527f4e6f7420616c6c6f77656420746f207365742072656769737465726564207365604482015263373232b960e11b6064820152608401610d91565b61ffff9091165f90815260036020526040902055565b6040805160c0810182525f80825260208201819052918101829052606081018290526080810182905260a081019190915281612c0157506001600160a01b038085165f908152601760209081526040808320878452600b01825280832061ffff808816855290835292819020815160c0810183528154808616825262010000900490941692840192909252600182015490830152600281015490921660608201526003820154608082015260049091015460ff16151560a08201526125d9565b50506001600160a01b039283165f908152601760209081526040808320948352600c909401815283822061ffff9384168352815290839020835160c081018552815480851682526201000090049093169183019190915260018101549282019290925260028201549092166060830152600381015460808301526004015460ff16151560a082015290565b612c94612f10565b61ffff8381165f818152600b602090815260408083209487168084529482529182902085905581519283528201929092529081018290527f9d5c7c0b934da8fefa9c7760c98383778a12dfbfc0c3b3106518f43fb9508ac09060600160405180910390a1505050565b612d05612f10565b612470838383613e3c565b612d18612f10565b6001600160a01b038116612d4157604051631e4fbdf760e01b81525f6004820152602401610d91565b6112af81613c57565b600954604051633d7b2f6f60e21b815261ffff808716600483015285166024820152306044820152606481018390526060916001600160a01b03169063f5ecbdbc906084015f60405180830381865afa158015612da9573d5f803e3d5ffd5b505050506040513d5f823e601f3d908101601f19168201604052612dd091908101906155aa565b95945050505050565b612e0c6040518060c001604052805f81526020015f81526020015f81526020015f81526020015f81526020015f81525090565b506040805180820182525f80825260209182018190526001600160a01b03938416815260178252829020825160c081018452815481526001820154818401526002820154818501526003820154606082015260048201546080820152600582015460a08201528351808501909452600d9091015460ff8116151584526101009004909316908201529091565b5f80612efa5a60966366ad5c8a60e01b89898989604051602401612ebf9493929190615910565b60408051601f198184030181529190526020810180516001600160e01b03166001600160e01b03199093169290921790915230929190613e47565b9150915081611747576117478686868685613ecb565b6005546001600160a01b03163314611f645760405163118cdaa760e01b8152336004820152602401610d91565b5f805f6002848787604051602001612f58949392919061594d565b60408051601f198184030181528282526001600160a01b038816602084015290820188905291505f9060600160408051601f198184030181528282526009546303408e4760e41b845291519093506001600160a01b0390911691633408e4709160048083019260209291908290030181865afa158015612fda573d5f803e3d5ffd5b505050506040513d601f19601f82011682018060405250810190612ffe919061558f565b61ffff168961ffff16146130885760095460405163040a7bb160e41b81526001600160a01b03909116906340a7bb1090613044908c90309086908e908990600401615989565b6040805180830381865afa15801561305e573d5f803e3d5ffd5b505050506040513d601f19601f820116820180604052508101906130829190615887565b90945092505b6130928785614755565b935050509550959350505050565b60015460408051634d4502c960e11b815290515f926001600160a01b031691639a8a05929160048083019260209291908290030181865afa1580156130e7573d5f803e3d5ffd5b505050506040513d601f19601f8201168201806040525081019061310b919061558f565b61ffff168361ffff16146131945760048054604051630ff8f14360e11b815261ffff861692810192909252602482018490526001600160a01b031690631ff1e28690604401602060405180830381865afa15801561316b573d5f803e3d5ffd5b505050506040513d601f19601f8201168201806040525081019061318f91906159dc565b6126eb565b6126eb82613f65565b60408051600481526024810182526020810180516001600160e01b031663313ce56760e01b17905290515f9182916001600160a01b038516916131df916159f7565b5f60405180830381855afa9150503d805f8114613217576040519150601f19603f3d011682016040523d82523d5f602084013e61321c565b606091505b50915050808060200190518101906126eb9190615a12565b5f546001600160a01b031633146132985760405162461bcd60e51b815260206004820152602260248201527f4d73672e73656e646572206973206e6f7420576f726d686f6c652052656c617960448201526132b960f11b6064820152608401610d91565b6132a6868686868686613f90565b5f868060200190518101906132bb91906159dc565b90505f6040518060e001604052808661ffff16815260200160015f9054906101000a90046001600160a01b03166001600160a01b0316639a8a05926040518163ffffffff1660e01b8152600401602060405180830381865afa158015613323573d5f803e3d5ffd5b505050506040513d601f19601f82011682018060405250810190613347919061558f565b61ffff168152602001885f8151811061336257613362615261565b6020026020010151604001516001600160a01b03168152602001885f8151811061338e5761338e615261565b60209081029190910181015160609081015183526001600160a01b03808716848401524260408086019190915260019483018590526011545f90815260198552819020805460ff199081169096178155865160068201805489880151948a0151861664010000000002640100000000600160c01b031961ffff968716620100000263ffffffff1990931696909416959095171791909116929092179091559185015160078301556080850151600883018054919092166001600160a01b031990911617905560a0840151600982015560c0840151600a8201805491151591909416179092558551929350909161348c91600b840191908701906146c1565b50600160115f82825461349f9190614755565b90915550506001600160a01b038381165f8181526017602081815260408084208b8552600881018352818520895181548b8601518c86015161ffff93841663ffffffff1990931692909217620100009184169190910217640100000000600160c01b031916640100000000918b169190910217825560608b015160018084019190915560808c01516002840180546001600160a01b03191691909b161790995560a08b015160038084019190915560c08c01516004909301805460ff19169315159390931790925590820180548752600a9092018452828620908e16865283529084208b9055938352528154613596908490614755565b9091555050505050505050505050565b5f80828060200190518101906135bc9190615a2d565b915091505f6040518060c001604052808861ffff16815260200160095f9054906101000a90046001600160a01b03166001600160a01b0316633408e4706040518163ffffffff1660e01b8152600401602060405180830381865afa158015613626573d5f803e3d5ffd5b505050506040513d601f19601f8201168201806040525081019061364a919061558f565b61ffff168152602001838152602001846001600160a01b031681526020014281526020016001151581525090505f60195f60115481526020019081526020015f2090506001815f015f6101000a81548160ff02191690831515021790555081816001015f820151815f015f6101000a81548161ffff021916908361ffff1602179055506020820151815f0160026101000a81548161ffff021916908361ffff160217905550604082015181600101556060820151816002015f6101000a8154816001600160a01b0302191690836001600160a01b031602179055506080820151816003015560a0820151816004015f6101000a81548160ff0219169083151502179055509050508160175f866001600160a01b03166001600160a01b031681526020019081526020015f206006016006015f60175f886001600160a01b03166001600160a01b031681526020019081526020015f205f016001015481526020019081526020015f205f8a61ffff1661ffff1681526020019081526020015f205f820151815f015f6101000a81548161ffff021916908361ffff1602179055506020820151815f0160026101000a81548161ffff021916908361ffff160217905550604082015181600101556060820151816002015f6101000a8154816001600160a01b0302191690836001600160a01b031602179055506080820151816003015560a0820151816004015f6101000a81548160ff021916908315150217905550905050600160175f866001600160a01b03166001600160a01b031681526020019081526020015f205f016001015f8282546138a59190614755565b92505081905550600160115f8282546138be9190614755565b90915550505050505050505050565b600f545f90819081906064906138ed90600160a01b900460ff16866156e2565b6138f79190615753565b600f546040519192506001600160a01b03169082156108fc029083905f818181858888f1935050505015801561392f573d5f803e3d5ffd5b5061393a8185615711565b94909350915050565b6040805160018082528183019092525f91829190816020015b604080516060810182525f80825260208083018290529282015282525f1990920191018161395c5790505090506139a486868d8d60405180602001604052805f815250614119565b815f815181106139b6576139b6615261565b60209081029190910101525f805460405163c23ee3c360e01b815261ffff8e166004820152602481018b9052604481018a90526001600160a01b039091169063c23ee3c3906064016040805180830381865afa158015613a18573d5f803e3d5ffd5b505050506040513d601f19601f82011682018060405250810190613a3c9190615887565b5090505f8054906101000a90046001600160a01b03166001600160a01b03166332b2fc0e828e8e8e8e8e898d8d6040518a63ffffffff1660e01b8152600401613a8c989796959493929190615a59565b60206040518083038185885af1158015613aa8573d5f803e3d5ffd5b50505050506040513d601f19601f82011682018060405250810190613acd9190615b14565b925050505b9998505050505050505050565b6001600160a01b0382165f90815260176020526040902060010154158015613b1c57506001600160a01b0382165f90815260176020526040902054155b80613b6257506001600160a01b0382165f90815260176020526040902060030154158015613b6257506001600160a01b0382165f90815260176020526040902060020154155b8015613b8957506001600160a01b0382165f908152601760205260409020600d015460ff16155b15613be7576001600160a01b038281165f90815260176020526040808220600d01805460016001600160a81b031990911661010095871695860217811790915592825281206004018054909190613be1908490614755565b90915550505b6001600160a01b038281165f908152601760205260409020600d0154610100900416156117cf576012546001600160a01b038084165f90815260176020526040808220600d0154610100900490921681529081206005018054909190613c4e908490614755565b90915550505050565b600580546001600160a01b038381166001600160a01b0319831681179093556040519116919082907f8be0079c531659141344cd1fd0a4f28419497f9722a3daafe3b4186f6b6457e0905f90a35050565b5f806002858789604051602001613cc2949392919061594d565b60408051808303601f190181528282526001600160a01b038a166020840152828201899052815180840383018152606090930190915291505f613d078a87858561433a565b9050613d208a83338887613d1b878f614755565b614433565b5060019998505050505050505050565b606081613d3e81601f614755565b1015613d7d5760405162461bcd60e51b815260206004820152600e60248201526d736c6963655f6f766572666c6f7760901b6044820152606401610d91565b613d878284614755565b84511015613dcb5760405162461bcd60e51b8152602060048201526011602482015270736c6963655f6f75744f66426f756e647360781b6044820152606401610d91565b606082158015613de95760405191505f825260208201604052613e33565b6040519150601f8416801560200281840101858101878315602002848b0101015b81831015613e22578051835260209283019201613e0a565b5050858452601f01601f1916604052505b50949350505050565b6124708383836145b4565b5f60605f805f8661ffff166001600160401b03811115613e6957613e69614ac6565b6040519080825280601f01601f191660200182016040528015613e93576020820181803683370190505b5090505f808751602089015f8d8df191503d925086831115613eb3578692505b828152825f602083013e909890975095505050505050565b8180519060200120600e5f8761ffff1661ffff1681526020019081526020015f2085604051613efa91906159f7565b9081526040805191829003602090810183206001600160401b0388165f908152915220919091557fe183f33de2837795525b4792ca4cd60535bd77c53b7e7030060bfcf5734d6b0c90613f569087908790879087908790615b2f565b60405180910390a15050505050565b5f60a082901c15613f8c5760405163033b960d60e41b815260048101839052602401610d91565b5090565b61ffff83165f90815260086020908152604080832085845290915290205460ff1615613fba575f80fd5b8451600114613fc7575f80fd5b61ffff83165f90815260066020526040812090613fe386613f65565b6001600160a01b0316815260208101919091526040015f205460ff16151560011461400c575f80fd5b5f8680602001905181019061402191906159dc565b90505f865f8151811061403657614036615261565b6020026020010151604001516001600160a01b031663a9059cbb83895f8151811061406357614063615261565b6020026020010151606001516040518363ffffffff1660e01b81526004016140a09291906001600160a01b03929092168252602082015260400190565b6020604051808303815f875af11580156140bc573d5f803e3d5ffd5b505050506040513d601f19601f820116820180604052508101906140e09190615724565b61ffff959095165f90815260086020908152604080832096835295905293909320805460ff191694151594909417909355505050505050565b604080516060810182525f808252602082018190528183015260048054925163095ea7b360e01b81526001600160a01b039384169181019190915260248101879052909187169063095ea7b3906044016020604051808303815f875af1158015614185573d5f803e3d5ffd5b505050506040513d601f19601f820116820180604052508101906141a99190615724565b506004805460015460408051631a90a21960e01b815290515f946001600160a01b039485169463c5a5ebda941692631a90a21992818301926020928290030181865afa1580156141fb573d5f803e3d5ffd5b505050506040513d601f19601f8201168201806040525081019061421f91906154b5565b8989896001600160a01b038a165f8a6040518863ffffffff1660e01b815260040161424f96959493929190615b80565b60206040518083038185885af115801561426b573d5f803e3d5ffd5b50505050506040513d601f19601f820116820180604052508101906142909190615b14565b6040805160608101808352600154634d4502c960e11b90915291519293509182916001600160a01b031690639a8a0592906064808501916020918187030181865afa1580156142e1573d5f803e3d5ffd5b505050506040513d601f19601f82011682018060405250810190614305919061558f565b61ffff1681526004546001600160a01b031660208201526001600160401b039092166040909201919091529695505050505050565b600954604080516303408e4760e41b815290515f926001600160a01b031691633408e4709160048083019260209291908290030181865afa158015614381573d5f803e3d5ffd5b505050506040513d601f19601f820116820180604052508101906143a5919061558f565b61ffff168561ffff16146125d95760095460405163040a7bb160e41b81526001600160a01b03909116906340a7bb10906143eb908890309087908a908a90600401615989565b6040805180830381865afa158015614405573d5f803e3d5ffd5b505050506040513d601f19601f820116820180604052508101906144299190615887565b5095945050505050565b61ffff86165f908152600a602052604081208054614450906151d5565b80601f016020809104026020016040519081016040528092919081815260200182805461447c906151d5565b80156144c75780601f1061449e576101008083540402835291602001916144c7565b820191905f5260205f20905b8154815290600101906020018083116144aa57829003601f168201915b5050505050905080515f036145375760405162461bcd60e51b815260206004820152603060248201527f4c7a4170703a2064657374696e6174696f6e20636861696e206973206e6f742060448201526f61207472757374656420736f7572636560801b6064820152608401610d91565b61454287875161461a565b60095460405162c5803160e81b81526001600160a01b039091169063c580310090849061457d908b9086908c908c908c908c90600401615bc2565b5f604051808303818588803b158015614594575f80fd5b505af11580156145a6573d5f803e3d5ffd5b505050505050505050505050565b6145f683825f80546001600160a01b039384166001600160a01b0319918216179091556001805492909316918116919091179091556002805490911633179055565b50600480546001600160a01b0319166001600160a01b039290921691909117905550565b61ffff82165f908152600c60205260408120549081900361463a57506127105b808211156124705760405162461bcd60e51b815260206004820181905260248201527f4c7a4170703a207061796c6f61642073697a6520697320746f6f206c617267656044820152606401610d91565b508054614696906151d5565b5f825580601f106146a5575050565b601f0160209004905f5260205f20908101906112af9190614711565b828054828255905f5260205f20908101928215614705579160200282015b8281111561470557825182906146f590826157cc565b50916020019190600101906146df565b50613f8c929150614725565b5b80821115613f8c575f8155600101614712565b80821115613f8c575f614738828261468a565b50600101614725565b634e487b7160e01b5f52601160045260245ffd5b8082018082111561112d5761112d614741565b61ffff811681146112af575f80fd5b803561478281614768565b919050565b5f8083601f840112614797575f80fd5b5081356001600160401b038111156147ad575f80fd5b6020830191508360208285010111156147c4575f80fd5b9250929050565b6001600160401b03811681146112af575f80fd5b5f805f805f80608087890312156147f4575f80fd5b86356147ff81614768565b955060208701356001600160401b038082111561481a575f80fd5b6148268a838b01614787565b90975095506040890135915061483b826147cb565b90935060608801359080821115614850575f80fd5b5061485d89828a01614787565b979a9699509497509295939492505050565b6001600160a01b03811681146112af575f80fd5b80356147828161486f565b60ff811681146112af575f80fd5b5f80604083850312156148ad575f80fd5b82356148b88161486f565b915060208301356148c88161488e565b809150509250929050565b5f602082840312156148e3575f80fd5b81356126eb81614768565b5f80604083850312156148ff575f80fd5b823561490a81614768565b946020939093013593505050565b5f8060408385031215614929575f80fd5b823561490a8161486f565b61ffff80825116835280602083015116602084015250604081015160018060a01b03808216604085015260608301516060850152806080840151166080850152505060a081015160a083015260c0810151151560c08301525050565b60e0810161112d8284614934565b80151581146112af575f80fd5b5f805f805f60a086880312156149bf575f80fd5b85356149ca81614768565b945060208601356149da8161499e565b93506040860135925060608601356149f18161486f565b949793965091946080013592915050565b5f805f60608486031215614a14575f80fd5b8335614a1f8161486f565b92506020840135614a2f8161486f565b91506040840135614a3f81614768565b809150509250925092565b5f805f60408486031215614a5c575f80fd5b8335614a6781614768565b925060208401356001600160401b03811115614a81575f80fd5b614a8d86828701614787565b9497909650939450505050565b5f8060408385031215614aab575f80fd5b8235614ab68161486f565b915060208301356148c881614768565b634e487b7160e01b5f52604160045260245ffd5b604051608081016001600160401b0381118282101715614afc57614afc614ac6565b60405290565b60405161016081016001600160401b0381118282101715614afc57614afc614ac6565b60405161010081016001600160401b0381118282101715614afc57614afc614ac6565b604051601f8201601f191681016001600160401b0381118282101715614b7057614b70614ac6565b604052919050565b5f6001600160401b03821115614b9057614b90614ac6565b50601f01601f191660200190565b5f82601f830112614bad575f80fd5b8135614bc0614bbb82614b78565b614b48565b818152846020838601011115614bd4575f80fd5b816020850160208301375f918101602001919091529392505050565b5f6001600160401b03821115614c0857614c08614ac6565b5060051b60200190565b5f805f805f60a08688031215614c26575f80fd5b85356001600160401b0380821115614c3c575f80fd5b614c4889838a01614b9e565b9650602091508188013581811115614c5e575f80fd5b8801601f81018a13614c6e575f80fd5b8035614c7c614bbb82614bf0565b81815260059190911b8201840190848101908c831115614c9a575f80fd5b8584015b83811015614cd157803586811115614cb5575f8081fd5b614cc38f8983890101614b9e565b845250918601918601614c9e565b509850505050604088013594506149f191505060608701614777565b5f60208284031215614cfd575f80fd5b5035919050565b5f805f60608486031215614d16575f80fd5b8335614d2181614768565b925060208401356001600160401b03811115614d3b575f80fd5b614d4786828701614b9e565b9250506040840135614a3f816147cb565b5f805f60608486031215614d6a575f80fd5b8335614d758161486f565b9250602084013591506040840135614a3f81614768565b5f60c08284031215614d9c575f80fd5b60405160c081018181106001600160401b0382111715614dbe57614dbe614ac6565b6040528235614dcc81614768565b81526020830135614ddc8161486f565b6020820152604083810135908201526060830135614df98161486f565b60608201526080838101359082015260a0830135614e168161486f565b60a08201529392505050565b5f805f805f60a08688031215614e36575f80fd5b85359450602086013593506040860135614e4f8161499e565b94979396509394606081013594506080013592915050565b5f5b83811015614e81578181015183820152602001614e69565b50505f910152565b5f8151808452614ea0816020860160208601614e67565b601f01601f19169290920160200192915050565b602081525f6126eb6020830184614e89565b5f8060408385031215614ed7575f80fd5b8235614ee281614768565b915060208301356148c88161486f565b5f60e08284031215614f02575f80fd5b60405160e081018181106001600160401b0382111715614f2457614f24614ac6565b6040528235614f3281614768565b81526020830135614f428161486f565b8060208301525060408301356040820152606083013560608201526080830135614f6b8161499e565b608082015260a0830135614f7e8161486f565b60a0820152614f8f60c08401614883565b60c08201529392505050565b5f8060408385031215614fac575f80fd5b8235614ab681614768565b5f60208284031215614fc7575f80fd5b81356126eb8161486f565b5f805f805f60808688031215614fe6575f80fd5b8535614ff181614768565b9450602086013561500181614768565b93506040860135925060608601356001600160401b03811115615022575f80fd5b61502e88828901614787565b969995985093965092949392505050565b5f805f8060808587031215615052575f80fd5b843561505d8161486f565b935060208501359250604085013561507481614768565b915060608501356150848161499e565b939692955090935050565b805161ffff908116835260208083015190911690830152604080820151908301526060808201516001600160a01b0316908301526080808201519083015260a0908101511515910152565b60c0810161112d828461508f565b5f805f606084860312156150fa575f80fd5b833561510581614768565b9250602084013561511581614768565b929592945050506040919091013590565b5f805f60608486031215615138575f80fd5b83356151438161486f565b925060208401356151538161486f565b91506040840135614a3f8161486f565b83151581526101c0810161517a602083018561508f565b6125d960e0830184614934565b5f805f806080858703121561519a575f80fd5b84356151a581614768565b935060208501356151b581614768565b925060408501356151c58161486f565b9396929550929360600135925050565b600181811c908216806151e957607f821691505b60208210810361520757634e487b7160e01b5f52602260045260245ffd5b50919050565b818382375f9101908152919050565b81835281816020850137505f828201602090810191909152601f909101601f19169091010190565b61ffff84168152604060208201525f612dd060408301848661521c565b634e487b7160e01b5f52603260045260245ffd5b80516147828161488e565b805163ffffffff81168114614782575f80fd5b805161478281614768565b8051614782816147cb565b5f82601f8301126152b8575f80fd5b81516152c6614bbb82614b78565b8181528460208386010111156152da575f80fd5b6125d9826020830160208701614e67565b5f82601f8301126152fa575f80fd5b8151602061530a614bbb83614bf0565b82815260079290921b84018101918181019086841115615328575f80fd5b8286015b8481101561538c5760808189031215615344575f8081fd5b61534c614ada565b8151815284820151858201526040808301516153678161488e565b9082015260608281015161537a8161488e565b9082015283529183019160800161532c565b509695505050505050565b5f602082840312156153a7575f80fd5b81516001600160401b03808211156153bd575f80fd5b9083019061016082860312156153d1575f80fd5b6153d9614b02565b6153e283615275565b81526153f060208401615280565b602082015261540160408401615280565b604082015261541260608401615293565b60608201526080830151608082015261542d60a0840161529e565b60a082015261543e60c08401615275565b60c082015260e083015182811115615454575f80fd5b615460878286016152a9565b60e083015250610100615474818501615280565b90820152610120838101518381111561548b575f80fd5b615497888287016152eb565b91830191909152506101409283015192810192909252509392505050565b5f602082840312156154c5575f80fd5b5051919050565b5f602082840312156154dc575f80fd5b81516001600160401b03808211156154f2575f80fd5b908301906101008286031215615506575f80fd5b61550e614b25565b61551783615275565b8152602083015160208201526040830151604082015261553960608401615293565b60608201526080830151608082015261555460a08401615293565b60a082015260c083015160c082015260e083015182811115615574575f80fd5b615580878286016152a9565b60e08301525095945050505050565b5f6020828403121561559f575f80fd5b81516126eb81614768565b5f602082840312156155ba575f80fd5b81516001600160401b038111156155cf575f80fd5b6125d9848285016152a9565b60ff828116828216039081111561112d5761112d614741565b600181815b8085111561562e57815f190482111561561457615614614741565b8085161561562157918102915b93841c93908002906155f9565b509250929050565b5f826156445750600161112d565b8161565057505f61112d565b816001811461566657600281146156705761568c565b600191505061112d565b60ff84111561568157615681614741565b50506001821b61112d565b5060208310610133831016604e8410600b84101617156156af575081810a61112d565b6156b983836155f4565b805f19048211156156cc576156cc614741565b029392505050565b5f6126eb60ff841683615636565b808202811582820484141761112d5761112d614741565b5f6001820161570a5761570a614741565b5060010190565b8181038181111561112d5761112d614741565b5f60208284031215615734575f80fd5b81516126eb8161499e565b634e487b7160e01b5f52601260045260245ffd5b5f826157615761576161573f565b500490565b5f60ff8316806157785761577861573f565b8060ff84160491505092915050565b601f821115612470575f81815260208120601f850160051c810160208610156157ad5750805b601f850160051c820191505b81811015611747578281556001016157b9565b81516001600160401b038111156157e5576157e5614ac6565b6157f9816157f384546151d5565b84615787565b602080601f83116001811461582c575f84156158155750858301515b5f19600386901b1c1916600185901b178555611747565b5f85815260208120601f198616915b8281101561585a5788860151825594840194600190910190840161583b565b508582101561587757878501515f19600388901b60f8161c191681555b5050505050600190811b01905550565b5f8060408385031215615898575f80fd5b505080516020909101519092909150565b5f61ffff80881683528087166020840152508460408301526080606083015261115360808301848661521c565b61ffff86168152608060208201525f6158f360808301868861521c565b6001600160401b0394909416604083015250606001529392505050565b61ffff85168152608060208201525f61592c6080830186614e89565b6001600160401b038516604084015282810360608401526111538185614e89565b60f09490941b6001600160f01b03191684526002840192909252602283015260601b6bffffffffffffffffffffffff1916604282015260560190565b61ffff861681526001600160a01b038516602082015260a0604082018190525f906159b690830186614e89565b841515606084015282810360808401526159d08185614e89565b98975050505050505050565b5f602082840312156159ec575f80fd5b81516126eb8161486f565b5f8251615a08818460208701614e67565b9190910192915050565b5f60208284031215615a22575f80fd5b81516126eb8161488e565b5f8060408385031215615a3e575f80fd5b8251615a498161486f565b6020939093015192949293505050565b5f61010061ffff808c168452602060018060a01b038c168186015260408381870152615a878487018d614e89565b60608781018d9052608088018c905287820360a08901528a51808352848c01965090918401905f5b81811015615ae757875180518816845286810151878501528501516001600160401b0316858401529685019691830191600101615aaf565b505061ffff8a1660c08901529550615b00945050505050565b6001600160a01b03831660e0830152613ad2565b5f60208284031215615b24575f80fd5b81516126eb816147cb565b61ffff8616815260a060208201525f615b4b60a0830187614e89565b6001600160401b03861660408401528281036060840152615b6c8186614e89565b905082810360808401526159d08185614e89565b60018060a01b038716815285602082015261ffff8516604082015283606082015263ffffffff8316608082015260c060a08201525f6159d060c0830184614e89565b61ffff8716815260c060208201525f615bde60c0830188614e89565b8281036040840152615bf08188614e89565b6001600160a01b0387811660608601528616608085015283810360a08501529050613ad28185614e8956fe999d26de3473317ead3eeaf34ca78057f1439db67b6953469c3c96ce9caf6bd7a2646970667358221220046055024809fa711250f56a449fc0bd52a443984ea65bb528c536c82f75ced164736f6c63430008140033",
			"opcodes": "PUSH1 0x80 PUSH1 0x40 MSTORE PUSH1 0xF DUP1 SLOAD PUSH1 0xFF PUSH1 0xA0 SHL NOT AND PUSH1 0x5 PUSH1 0xA1 SHL OR SWAP1 SSTORE CALLVALUE DUP1 ISZERO PUSH3 0x23 JUMPI PUSH0 DUP1 REVERT JUMPDEST POP PUSH1 0x40 MLOAD PUSH3 0x5DF2 CODESIZE SUB DUP1 PUSH3 0x5DF2 DUP4 CODECOPY DUP2 ADD PUSH1 0x40 DUP2 SWAP1 MSTORE PUSH3 0x46 SWAP2 PUSH3 0x12C JUMP JUMPDEST DUP3 DUP1 DUP1 DUP5 PUSH1 0x1 PUSH1 0x1 PUSH1 0xA0 SHL SUB DUP2 AND PUSH3 0x78 JUMPI PUSH1 0x40 MLOAD PUSH4 0x1E4FBDF7 PUSH1 0xE0 SHL DUP2 MSTORE PUSH0 PUSH1 0x4 DUP3 ADD MSTORE PUSH1 0x24 ADD PUSH1 0x40 MLOAD DUP1 SWAP2 SUB SWAP1 REVERT JUMPDEST PUSH3 0x83 DUP2 PUSH3 0xBF JUMP JUMPDEST POP PUSH1 0x9 DUP1 SLOAD PUSH1 0x1 PUSH1 0x1 PUSH1 0xA0 SHL SUB SWAP3 DUP4 AND PUSH1 0x1 PUSH1 0x1 PUSH1 0xA0 SHL SUB NOT SWAP2 DUP3 AND OR SWAP1 SWAP2 SSTORE PUSH1 0xF DUP1 SLOAD SWAP6 SWAP1 SWAP3 AND SWAP5 AND SWAP4 SWAP1 SWAP4 OR SWAP1 SWAP3 SSTORE POP PUSH3 0x173 SWAP3 POP POP POP JUMP JUMPDEST PUSH1 0x5 DUP1 SLOAD PUSH1 0x1 PUSH1 0x1 PUSH1 0xA0 SHL SUB DUP4 DUP2 AND PUSH1 0x1 PUSH1 0x1 PUSH1 0xA0 SHL SUB NOT DUP4 AND DUP2 OR SWAP1 SWAP4 SSTORE PUSH1 0x40 MLOAD SWAP2 AND SWAP2 SWAP1 DUP3 SWAP1 PUSH32 0x8BE0079C531659141344CD1FD0A4F28419497F9722A3DAAFE3B4186F6B6457E0 SWAP1 PUSH0 SWAP1 LOG3 POP POP JUMP JUMPDEST DUP1 MLOAD PUSH1 0x1 PUSH1 0x1 PUSH1 0xA0 SHL SUB DUP2 AND DUP2 EQ PUSH3 0x127 JUMPI PUSH0 DUP1 REVERT JUMPDEST SWAP2 SWAP1 POP JUMP JUMPDEST PUSH0 DUP1 PUSH0 PUSH1 0x60 DUP5 DUP7 SUB SLT ISZERO PUSH3 0x13F JUMPI PUSH0 DUP1 REVERT JUMPDEST PUSH3 0x14A DUP5 PUSH3 0x110 JUMP JUMPDEST SWAP3 POP PUSH3 0x15A PUSH1 0x20 DUP6 ADD PUSH3 0x110 JUMP JUMPDEST SWAP2 POP PUSH3 0x16A PUSH1 0x40 DUP6 ADD PUSH3 0x110 JUMP JUMPDEST SWAP1 POP SWAP3 POP SWAP3 POP SWAP3 JUMP JUMPDEST PUSH2 0x5C71 DUP1 PUSH3 0x181 PUSH0 CODECOPY PUSH0 RETURN INVALID PUSH1 0x80 PUSH1 0x40 MSTORE PUSH1 0x4 CALLDATASIZE LT PUSH2 0x30F JUMPI PUSH0 CALLDATALOAD PUSH1 0xE0 SHR DUP1 PUSH4 0x8CFD8F5C GT PUSH2 0x1A3 JUMPI DUP1 PUSH4 0xC9B5AB2B GT PUSH2 0xF2 JUMPI DUP1 PUSH4 0xDD6ABADD GT PUSH2 0x92 JUMPI DUP1 PUSH4 0xE574FFB4 GT PUSH2 0x6D JUMPI DUP1 PUSH4 0xE574FFB4 EQ PUSH2 0xB64 JUMPI DUP1 PUSH4 0xF2FDE38B EQ PUSH2 0xC75 JUMPI DUP1 PUSH4 0xF5ECBDBC EQ PUSH2 0xC94 JUMPI DUP1 PUSH4 0xFFC9896B EQ PUSH2 0xCB3 JUMPI PUSH0 DUP1 REVERT JUMPDEST DUP1 PUSH4 0xDD6ABADD EQ PUSH2 0xAFA JUMPI DUP1 PUSH4 0xDF2A5B3B EQ PUSH2 0xB26 JUMPI DUP1 PUSH4 0xE0E10842 EQ PUSH2 0xB45 JUMPI PUSH0 DUP1 REVERT JUMPDEST DUP1 PUSH4 0xD8AB8274 GT PUSH2 0xCD JUMPI DUP1 PUSH4 0xD8AB8274 EQ PUSH2 0x97A JUMPI DUP1 PUSH4 0xDA25B725 EQ PUSH2 0x9D1 JUMPI DUP1 PUSH4 0xDB0F4DE2 EQ PUSH2 0x9EF JUMPI DUP1 PUSH4 0xDD12D68B EQ PUSH2 0xADB JUMPI PUSH0 DUP1 REVERT JUMPDEST DUP1 PUSH4 0xC9B5AB2B EQ PUSH2 0x933 JUMPI DUP1 PUSH4 0xCBED8B9C EQ PUSH2 0x948 JUMPI DUP1 PUSH4 0xD1DEBA1F EQ PUSH2 0x967 JUMPI PUSH0 DUP1 REVERT JUMPDEST DUP1 PUSH4 0xB353AAA7 GT PUSH2 0x15D JUMPI DUP1 PUSH4 0xC2455273 GT PUSH2 0x138 JUMPI DUP1 PUSH4 0xC2455273 EQ PUSH2 0x8AC JUMPI DUP1 PUSH4 0xC4461834 EQ PUSH2 0x8E0 JUMPI DUP1 PUSH4 0xC6328A46 EQ PUSH2 0x8F5 JUMPI DUP1 PUSH4 0xC8FBAF72 EQ PUSH2 0x914 JUMPI PUSH0 DUP1 REVERT JUMPDEST DUP1 PUSH4 0xB353AAA7 EQ PUSH2 0x84F JUMPI DUP1 PUSH4 0xBAF3292D EQ PUSH2 0x86E JUMPI DUP1 PUSH4 0xBE357616 EQ PUSH2 0x88D JUMPI PUSH0 DUP1 REVERT JUMPDEST DUP1 PUSH4 0x8CFD8F5C EQ PUSH2 0x780 JUMPI DUP1 PUSH4 0x8DA5CB5B EQ PUSH2 0x7B6 JUMPI DUP1 PUSH4 0x950C8A74 EQ PUSH2 0x7D3 JUMPI DUP1 PUSH4 0x9C6467C7 EQ PUSH2 0x7F2 JUMPI DUP1 PUSH4 0x9CD4FD65 EQ PUSH2 0x811 JUMPI DUP1 PUSH4 0x9F38369A EQ PUSH2 0x830 JUMPI PUSH0 DUP1 REVERT JUMPDEST DUP1 PUSH4 0x529DCA32 GT PUSH2 0x25F JUMPI DUP1 PUSH4 0x6F536504 GT PUSH2 0x219 JUMPI DUP1 PUSH4 0x7E63E29D GT PUSH2 0x1F4 JUMPI DUP1 PUSH4 0x7E63E29D EQ PUSH2 0x6F8 JUMPI DUP1 PUSH4 0x84ACD1BB EQ PUSH2 0x717 JUMPI DUP1 PUSH4 0x8B8E3D14 EQ PUSH2 0x74E JUMPI DUP1 PUSH4 0x8B8EB98F EQ PUSH2 0x761 JUMPI PUSH0 DUP1 REVERT JUMPDEST DUP1 PUSH4 0x6F536504 EQ PUSH2 0x699 JUMPI DUP1 PUSH4 0x715018A6 EQ PUSH2 0x6B8 JUMPI DUP1 PUSH4 0x7533D788 EQ PUSH2 0x6CC JUMPI PUSH0 DUP1 REVERT JUMPDEST DUP1 PUSH4 0x529DCA32 EQ PUSH2 0x57D JUMPI DUP1 PUSH4 0x556BCA73 EQ PUSH2 0x590 JUMPI DUP1 PUSH4 0x5B8C41E6 EQ PUSH2 0x5AF JUMPI DUP1 PUSH4 0x66AD5C8A EQ PUSH2 0x5FC JUMPI DUP1 PUSH4 0x69511BA4 EQ PUSH2 0x61B JUMPI DUP1 PUSH4 0x6AB0DB6A EQ PUSH2 0x66E JUMPI PUSH0 DUP1 REVERT JUMPDEST DUP1 PUSH4 0x2BEACF88 GT PUSH2 0x2CA JUMPI DUP1 PUSH4 0x3F1F4FA4 GT PUSH2 0x2A5 JUMPI DUP1 PUSH4 0x3F1F4FA4 EQ PUSH2 0x4CA JUMPI DUP1 PUSH4 0x42D65A8D EQ PUSH2 0x4F5 JUMPI DUP1 PUSH4 0x4CA68B96 EQ PUSH2 0x514 JUMPI DUP1 PUSH4 0x52444592 EQ PUSH2 0x533 JUMPI PUSH0 DUP1 REVERT JUMPDEST DUP1 PUSH4 0x2BEACF88 EQ PUSH2 0x419 JUMPI DUP1 PUSH4 0x38ACA11B EQ PUSH2 0x446 JUMPI DUP1 PUSH4 0x3D8B38F6 EQ PUSH2 0x49B JUMPI PUSH0 DUP1 REVERT JUMPDEST DUP1 PUSH3 0x1D3567 EQ PUSH2 0x347 JUMPI DUP1 PUSH4 0x1009B10 EQ PUSH2 0x368 JUMPI DUP1 PUSH4 0x7E0DB17 EQ PUSH2 0x387 JUMPI DUP1 PUSH4 0xDF37483 EQ PUSH2 0x3A6 JUMPI DUP1 PUSH4 0x10DDB137 EQ PUSH2 0x3C5 JUMPI DUP1 PUSH4 0x242C38D7 EQ PUSH2 0x3E4 JUMPI PUSH0 DUP1 REVERT JUMPDEST CALLDATASIZE PUSH2 0x343 JUMPI PUSH0 DUP1 DUP1 MSTORE PUSH1 0x18 PUSH1 0x20 MSTORE PUSH0 DUP1 MLOAD PUSH1 0x20 PUSH2 0x5C1C DUP4 CODECOPY DUP2 MLOAD SWAP2 MSTORE DUP1 SLOAD CALLVALUE SWAP3 SWAP1 PUSH2 0x33B SWAP1 DUP5 SWAP1 PUSH2 0x4755 JUMP JUMPDEST SWAP3 POP POP DUP2 SWAP1 SSTORE STOP JUMPDEST PUSH0 DUP1 REVERT JUMPDEST CALLVALUE DUP1 ISZERO PUSH2 0x352 JUMPI PUSH0 DUP1 REVERT JUMPDEST POP PUSH2 0x366 PUSH2 0x361 CALLDATASIZE PUSH1 0x4 PUSH2 0x47DF JUMP JUMPDEST PUSH2 0xD32 JUMP JUMPDEST STOP JUMPDEST CALLVALUE DUP1 ISZERO PUSH2 0x373 JUMPI PUSH0 DUP1 REVERT JUMPDEST POP PUSH2 0x366 PUSH2 0x382 CALLDATASIZE PUSH1 0x4 PUSH2 0x489C JUMP JUMPDEST PUSH2 0xF48 JUMP JUMPDEST CALLVALUE DUP1 ISZERO PUSH2 0x392 JUMPI PUSH0 DUP1 REVERT JUMPDEST POP PUSH2 0x366 PUSH2 0x3A1 CALLDATASIZE PUSH1 0x4 PUSH2 0x48D3 JUMP JUMPDEST PUSH2 0xFA9 JUMP JUMPDEST CALLVALUE DUP1 ISZERO PUSH2 0x3B1 JUMPI PUSH0 DUP1 REVERT JUMPDEST POP PUSH2 0x366 PUSH2 0x3C0 CALLDATASIZE PUSH1 0x4 PUSH2 0x48EE JUMP JUMPDEST PUSH2 0x1011 JUMP JUMPDEST CALLVALUE DUP1 ISZERO PUSH2 0x3D0 JUMPI PUSH0 DUP1 REVERT JUMPDEST POP PUSH2 0x366 PUSH2 0x3DF CALLDATASIZE PUSH1 0x4 PUSH2 0x48D3 JUMP JUMPDEST PUSH2 0x102F JUMP JUMPDEST CALLVALUE DUP1 ISZERO PUSH2 0x3EF JUMPI PUSH0 DUP1 REVERT JUMPDEST POP PUSH2 0x403 PUSH2 0x3FE CALLDATASIZE PUSH1 0x4 PUSH2 0x4918 JUMP JUMPDEST PUSH2 0x106B JUMP JUMPDEST PUSH1 0x40 MLOAD PUSH2 0x410 SWAP2 SWAP1 PUSH2 0x4990 JUMP JUMPDEST PUSH1 0x40 MLOAD DUP1 SWAP2 SUB SWAP1 RETURN JUMPDEST CALLVALUE DUP1 ISZERO PUSH2 0x424 JUMPI PUSH0 DUP1 REVERT JUMPDEST POP PUSH2 0x438 PUSH2 0x433 CALLDATASIZE PUSH1 0x4 PUSH2 0x49AB JUMP JUMPDEST PUSH2 0x1133 JUMP JUMPDEST PUSH1 0x40 MLOAD SWAP1 DUP2 MSTORE PUSH1 0x20 ADD PUSH2 0x410 JUMP JUMPDEST CALLVALUE DUP1 ISZERO PUSH2 0x451 JUMPI PUSH0 DUP1 REVERT JUMPDEST POP PUSH2 0x438 PUSH2 0x460 CALLDATASIZE PUSH1 0x4 PUSH2 0x4A02 JUMP JUMPDEST PUSH1 0x1 PUSH1 0x1 PUSH1 0xA0 SHL SUB SWAP3 DUP4 AND PUSH0 SWAP1 DUP2 MSTORE PUSH1 0x17 PUSH1 0x20 SWAP1 DUP2 MSTORE PUSH1 0x40 DUP1 DUP4 KECCAK256 SWAP5 SWAP1 SWAP6 AND DUP3 MSTORE PUSH1 0x7 SWAP1 SWAP4 ADD DUP4 MSTORE DUP4 DUP2 KECCAK256 PUSH2 0xFFFF SWAP3 SWAP1 SWAP3 AND DUP2 MSTORE SWAP2 MSTORE KECCAK256 SLOAD SWAP1 JUMP JUMPDEST CALLVALUE DUP1 ISZERO PUSH2 0x4A6 JUMPI PUSH0 DUP1 REVERT JUMPDEST POP PUSH2 0x4BA PUSH2 0x4B5 CALLDATASIZE PUSH1 0x4 PUSH2 0x4A4A JUMP JUMPDEST PUSH2 0x115E JUMP JUMPDEST PUSH1 0x40 MLOAD SWAP1 ISZERO ISZERO DUP2 MSTORE PUSH1 0x20 ADD PUSH2 0x410 JUMP JUMPDEST CALLVALUE DUP1 ISZERO PUSH2 0x4D5 JUMPI PUSH0 DUP1 REVERT JUMPDEST POP PUSH2 0x438 PUSH2 0x4E4 CALLDATASIZE PUSH1 0x4 PUSH2 0x48D3 JUMP JUMPDEST PUSH1 0xC PUSH1 0x20 MSTORE PUSH0 SWAP1 DUP2 MSTORE PUSH1 0x40 SWAP1 KECCAK256 SLOAD DUP2 JUMP JUMPDEST CALLVALUE DUP1 ISZERO PUSH2 0x500 JUMPI PUSH0 DUP1 REVERT JUMPDEST POP PUSH2 0x366 PUSH2 0x50F CALLDATASIZE PUSH1 0x4 PUSH2 0x4A4A JUMP JUMPDEST PUSH2 0x1227 JUMP JUMPDEST CALLVALUE DUP1 ISZERO PUSH2 0x51F JUMPI PUSH0 DUP1 REVERT JUMPDEST POP PUSH2 0x366 PUSH2 0x52E CALLDATASIZE PUSH1 0x4 PUSH2 0x48D3 JUMP JUMPDEST PUSH2 0x128C JUMP JUMPDEST CALLVALUE DUP1 ISZERO PUSH2 0x53E JUMPI PUSH0 DUP1 REVERT JUMPDEST POP PUSH2 0x438 PUSH2 0x54D CALLDATASIZE PUSH1 0x4 PUSH2 0x4A9A JUMP JUMPDEST PUSH1 0x1 PUSH1 0x1 PUSH1 0xA0 SHL SUB DUP3 AND PUSH0 SWAP1 DUP2 MSTORE PUSH1 0x17 PUSH1 0x20 SWAP1 DUP2 MSTORE PUSH1 0x40 DUP1 DUP4 KECCAK256 PUSH2 0xFFFF DUP6 AND DUP5 MSTORE PUSH1 0x6 ADD SWAP1 SWAP2 MSTORE SWAP1 KECCAK256 SLOAD SWAP3 SWAP2 POP POP JUMP JUMPDEST PUSH2 0x366 PUSH2 0x58B CALLDATASIZE PUSH1 0x4 PUSH2 0x4C12 JUMP JUMPDEST PUSH2 0x12B2 JUMP JUMPDEST CALLVALUE DUP1 ISZERO PUSH2 0x59B JUMPI PUSH0 DUP1 REVERT JUMPDEST POP PUSH2 0x366 PUSH2 0x5AA CALLDATASIZE PUSH1 0x4 PUSH2 0x4CED JUMP JUMPDEST PUSH2 0x174F JUMP JUMPDEST CALLVALUE DUP1 ISZERO PUSH2 0x5BA JUMPI PUSH0 DUP1 REVERT JUMPDEST POP PUSH2 0x438 PUSH2 0x5C9 CALLDATASIZE PUSH1 0x4 PUSH2 0x4D04 JUMP JUMPDEST PUSH1 0xE PUSH1 0x20 SWAP1 DUP2 MSTORE PUSH0 SWAP4 DUP5 MSTORE PUSH1 0x40 DUP1 DUP6 KECCAK256 DUP5 MLOAD DUP1 DUP7 ADD DUP5 ADD DUP1 MLOAD SWAP3 DUP2 MSTORE SWAP1 DUP5 ADD SWAP6 DUP5 ADD SWAP6 SWAP1 SWAP6 KECCAK256 SWAP5 MSTORE SWAP3 SWAP1 MSTORE DUP3 MSTORE SWAP1 KECCAK256 SLOAD DUP2 JUMP JUMPDEST CALLVALUE DUP1 ISZERO PUSH2 0x607 JUMPI PUSH0 DUP1 REVERT JUMPDEST POP PUSH2 0x366 PUSH2 0x616 CALLDATASIZE PUSH1 0x4 PUSH2 0x47DF JUMP JUMPDEST PUSH2 0x17D3 JUMP JUMPDEST CALLVALUE DUP1 ISZERO PUSH2 0x626 JUMPI PUSH0 DUP1 REVERT JUMPDEST POP PUSH2 0x438 PUSH2 0x635 CALLDATASIZE PUSH1 0x4 PUSH2 0x4D58 JUMP JUMPDEST PUSH1 0x1 PUSH1 0x1 PUSH1 0xA0 SHL SUB DUP4 AND PUSH0 SWAP1 DUP2 MSTORE PUSH1 0x17 PUSH1 0x20 SWAP1 DUP2 MSTORE PUSH1 0x40 DUP1 DUP4 KECCAK256 DUP6 DUP5 MSTORE PUSH1 0xA ADD DUP3 MSTORE DUP1 DUP4 KECCAK256 PUSH2 0xFFFF DUP6 AND DUP5 MSTORE SWAP1 SWAP2 MSTORE SWAP1 KECCAK256 SLOAD SWAP4 SWAP3 POP POP POP JUMP JUMPDEST PUSH2 0x681 PUSH2 0x67C CALLDATASIZE PUSH1 0x4 PUSH2 0x4D8C JUMP JUMPDEST PUSH2 0x18A5 JUMP JUMPDEST PUSH1 0x40 MLOAD PUSH1 0x1 PUSH1 0x1 PUSH1 0x40 SHL SUB SWAP1 SWAP2 AND DUP2 MSTORE PUSH1 0x20 ADD PUSH2 0x410 JUMP JUMPDEST CALLVALUE DUP1 ISZERO PUSH2 0x6A4 JUMPI PUSH0 DUP1 REVERT JUMPDEST POP PUSH2 0x366 PUSH2 0x6B3 CALLDATASIZE PUSH1 0x4 PUSH2 0x4E22 JUMP JUMPDEST PUSH2 0x1EFE JUMP JUMPDEST CALLVALUE DUP1 ISZERO PUSH2 0x6C3 JUMPI PUSH0 DUP1 REVERT JUMPDEST POP PUSH2 0x366 PUSH2 0x1F53 JUMP JUMPDEST CALLVALUE DUP1 ISZERO PUSH2 0x6D7 JUMPI PUSH0 DUP1 REVERT JUMPDEST POP PUSH2 0x6EB PUSH2 0x6E6 CALLDATASIZE PUSH1 0x4 PUSH2 0x48D3 JUMP JUMPDEST PUSH2 0x1F66 JUMP JUMPDEST PUSH1 0x40 MLOAD PUSH2 0x410 SWAP2 SWAP1 PUSH2 0x4EB4 JUMP JUMPDEST CALLVALUE DUP1 ISZERO PUSH2 0x703 JUMPI PUSH0 DUP1 REVERT JUMPDEST POP PUSH2 0x366 PUSH2 0x712 CALLDATASIZE PUSH1 0x4 PUSH2 0x4EC6 JUMP JUMPDEST PUSH2 0x1FFD JUMP JUMPDEST CALLVALUE DUP1 ISZERO PUSH2 0x722 JUMPI PUSH0 DUP1 REVERT JUMPDEST POP PUSH1 0x1 SLOAD PUSH2 0x736 SWAP1 PUSH1 0x1 PUSH1 0x1 PUSH1 0xA0 SHL SUB AND DUP2 JUMP JUMPDEST PUSH1 0x40 MLOAD PUSH1 0x1 PUSH1 0x1 PUSH1 0xA0 SHL SUB SWAP1 SWAP2 AND DUP2 MSTORE PUSH1 0x20 ADD PUSH2 0x410 JUMP JUMPDEST PUSH2 0x366 PUSH2 0x75C CALLDATASIZE PUSH1 0x4 PUSH2 0x4EF2 JUMP JUMPDEST PUSH2 0x204F JUMP JUMPDEST CALLVALUE DUP1 ISZERO PUSH2 0x76C JUMPI PUSH0 DUP1 REVERT JUMPDEST POP PUSH2 0x366 PUSH2 0x77B CALLDATASIZE PUSH1 0x4 PUSH2 0x4918 JUMP JUMPDEST PUSH2 0x23AB JUMP JUMPDEST CALLVALUE DUP1 ISZERO PUSH2 0x78B JUMPI PUSH0 DUP1 REVERT JUMPDEST POP PUSH2 0x438 PUSH2 0x79A CALLDATASIZE PUSH1 0x4 PUSH2 0x4F9B JUMP JUMPDEST PUSH1 0xB PUSH1 0x20 SWAP1 DUP2 MSTORE PUSH0 SWAP3 DUP4 MSTORE PUSH1 0x40 DUP1 DUP5 KECCAK256 SWAP1 SWAP2 MSTORE SWAP1 DUP3 MSTORE SWAP1 KECCAK256 SLOAD DUP2 JUMP JUMPDEST CALLVALUE DUP1 ISZERO PUSH2 0x7C1 JUMPI PUSH0 DUP1 REVERT JUMPDEST POP PUSH1 0x5 SLOAD PUSH1 0x1 PUSH1 0x1 PUSH1 0xA0 SHL SUB AND PUSH2 0x736 JUMP JUMPDEST CALLVALUE DUP1 ISZERO PUSH2 0x7DE JUMPI PUSH0 DUP1 REVERT JUMPDEST POP PUSH1 0xD SLOAD PUSH2 0x736 SWAP1 PUSH1 0x1 PUSH1 0x1 PUSH1 0xA0 SHL SUB AND DUP2 JUMP JUMPDEST CALLVALUE DUP1 ISZERO PUSH2 0x7FD JUMPI PUSH0 DUP1 REVERT JUMPDEST POP PUSH2 0x366 PUSH2 0x80C CALLDATASIZE PUSH1 0x4 PUSH2 0x4A9A JUMP JUMPDEST PUSH2 0x2475 JUMP JUMPDEST CALLVALUE DUP1 ISZERO PUSH2 0x81C JUMPI PUSH0 DUP1 REVERT JUMPDEST POP PUSH2 0x438 PUSH2 0x82B CALLDATASIZE PUSH1 0x4 PUSH2 0x48EE JUMP JUMPDEST PUSH2 0x24D0 JUMP JUMPDEST CALLVALUE DUP1 ISZERO PUSH2 0x83B JUMPI PUSH0 DUP1 REVERT JUMPDEST POP PUSH2 0x6EB PUSH2 0x84A CALLDATASIZE PUSH1 0x4 PUSH2 0x48D3 JUMP JUMPDEST PUSH2 0x25E1 JUMP JUMPDEST CALLVALUE DUP1 ISZERO PUSH2 0x85A JUMPI PUSH0 DUP1 REVERT JUMPDEST POP PUSH1 0x9 SLOAD PUSH2 0x736 SWAP1 PUSH1 0x1 PUSH1 0x1 PUSH1 0xA0 SHL SUB AND DUP2 JUMP JUMPDEST CALLVALUE DUP1 ISZERO PUSH2 0x879 JUMPI PUSH0 DUP1 REVERT JUMPDEST POP PUSH2 0x366 PUSH2 0x888 CALLDATASIZE PUSH1 0x4 PUSH2 0x4FB7 JUMP JUMPDEST PUSH2 0x26F2 JUMP JUMPDEST CALLVALUE DUP1 ISZERO PUSH2 0x898 JUMPI PUSH0 DUP1 REVERT JUMPDEST POP PUSH2 0x366 PUSH2 0x8A7 CALLDATASIZE PUSH1 0x4 PUSH2 0x4CED JUMP JUMPDEST PUSH2 0x274E JUMP JUMPDEST CALLVALUE DUP1 ISZERO PUSH2 0x8B7 JUMPI PUSH0 DUP1 REVERT JUMPDEST POP PUSH2 0x438 PUSH2 0x8C6 CALLDATASIZE PUSH1 0x4 PUSH2 0x4FB7 JUMP JUMPDEST PUSH1 0x1 PUSH1 0x1 PUSH1 0xA0 SHL SUB AND PUSH0 SWAP1 DUP2 MSTORE PUSH1 0x18 PUSH1 0x20 MSTORE PUSH1 0x40 SWAP1 KECCAK256 SLOAD SWAP1 JUMP JUMPDEST CALLVALUE DUP1 ISZERO PUSH2 0x8EB JUMPI PUSH0 DUP1 REVERT JUMPDEST POP PUSH2 0x438 PUSH2 0x2710 DUP2 JUMP JUMPDEST CALLVALUE DUP1 ISZERO PUSH2 0x900 JUMPI PUSH0 DUP1 REVERT JUMPDEST POP PUSH1 0x4 SLOAD PUSH2 0x736 SWAP1 PUSH1 0x1 PUSH1 0x1 PUSH1 0xA0 SHL SUB AND DUP2 JUMP JUMPDEST CALLVALUE DUP1 ISZERO PUSH2 0x91F JUMPI PUSH0 DUP1 REVERT JUMPDEST POP PUSH2 0x366 PUSH2 0x92E CALLDATASIZE PUSH1 0x4 PUSH2 0x4EC6 JUMP JUMPDEST PUSH2 0x2780 JUMP JUMPDEST CALLVALUE DUP1 ISZERO PUSH2 0x93E JUMPI PUSH0 DUP1 REVERT JUMPDEST POP PUSH2 0x438 PUSH1 0x11 SLOAD DUP2 JUMP JUMPDEST CALLVALUE DUP1 ISZERO PUSH2 0x953 JUMPI PUSH0 DUP1 REVERT JUMPDEST POP PUSH2 0x366 PUSH2 0x962 CALLDATASIZE PUSH1 0x4 PUSH2 0x4FD2 JUMP JUMPDEST PUSH2 0x27D8 JUMP JUMPDEST PUSH2 0x366 PUSH2 0x975 CALLDATASIZE PUSH1 0x4 PUSH2 0x47DF JUMP JUMPDEST PUSH2 0x284C JUMP JUMPDEST CALLVALUE DUP1 ISZERO PUSH2 0x985 JUMPI PUSH0 DUP1 REVERT JUMPDEST POP PUSH2 0x98E PUSH2 0x2A5C JUMP JUMPDEST PUSH1 0x40 MLOAD PUSH2 0x410 SWAP2 SWAP1 PUSH0 PUSH1 0xA0 DUP3 ADD SWAP1 POP DUP3 MLOAD DUP3 MSTORE PUSH1 0x20 DUP4 ADD MLOAD PUSH1 0x20 DUP4 ADD MSTORE PUSH1 0x40 DUP4 ADD MLOAD ISZERO ISZERO PUSH1 0x40 DUP4 ADD MSTORE PUSH1 0x60 DUP4 ADD MLOAD PUSH1 0x60 DUP4 ADD MSTORE PUSH1 0x80 DUP4 ADD MLOAD PUSH1 0x80 DUP4 ADD MSTORE SWAP3 SWAP2 POP POP JUMP JUMPDEST CALLVALUE DUP1 ISZERO PUSH2 0x9DC JUMPI PUSH0 DUP1 REVERT JUMPDEST POP PUSH0 SLOAD PUSH2 0x736 SWAP1 PUSH1 0x1 PUSH1 0x1 PUSH1 0xA0 SHL SUB AND DUP2 JUMP JUMPDEST CALLVALUE DUP1 ISZERO PUSH2 0x9FA JUMPI PUSH0 DUP1 REVERT JUMPDEST POP PUSH2 0x403 PUSH2 0xA09 CALLDATASIZE PUSH1 0x4 PUSH2 0x4D58 JUMP JUMPDEST PUSH1 0x40 DUP1 MLOAD PUSH1 0xE0 DUP2 ADD DUP3 MSTORE PUSH0 DUP1 DUP3 MSTORE PUSH1 0x20 DUP3 ADD DUP2 SWAP1 MSTORE SWAP2 DUP2 ADD DUP3 SWAP1 MSTORE PUSH1 0x60 DUP2 ADD DUP3 SWAP1 MSTORE PUSH1 0x80 DUP2 ADD DUP3 SWAP1 MSTORE PUSH1 0xA0 DUP2 ADD DUP3 SWAP1 MSTORE PUSH1 0xC0 DUP2 ADD SWAP2 SWAP1 SWAP2 MSTORE POP PUSH1 0x1 PUSH1 0x1 PUSH1 0xA0 SHL SUB DUP1 DUP5 AND PUSH0 SWAP1 DUP2 MSTORE PUSH1 0x17 PUSH1 0x20 SWAP1 DUP2 MSTORE PUSH1 0x40 DUP1 DUP4 KECCAK256 DUP7 DUP5 MSTORE PUSH1 0x9 ADD DUP3 MSTORE DUP1 DUP4 KECCAK256 PUSH2 0xFFFF DUP1 DUP8 AND DUP6 MSTORE SWAP1 DUP4 MSTORE SWAP3 DUP2 SWAP1 KECCAK256 DUP2 MLOAD PUSH1 0xE0 DUP2 ADD DUP4 MSTORE DUP2 SLOAD DUP1 DUP7 AND DUP3 MSTORE PUSH3 0x10000 DUP2 DIV SWAP1 SWAP6 AND SWAP4 DUP2 ADD SWAP4 SWAP1 SWAP4 MSTORE PUSH5 0x100000000 SWAP1 SWAP4 DIV DUP5 AND SWAP1 DUP3 ADD MSTORE PUSH1 0x1 DUP3 ADD SLOAD PUSH1 0x60 DUP3 ADD MSTORE PUSH1 0x2 DUP3 ADD SLOAD SWAP1 SWAP3 AND PUSH1 0x80 DUP4 ADD MSTORE PUSH1 0x3 DUP2 ADD SLOAD PUSH1 0xA0 DUP4 ADD MSTORE PUSH1 0x4 ADD SLOAD PUSH1 0xFF AND ISZERO ISZERO PUSH1 0xC0 DUP3 ADD MSTORE SWAP4 SWAP3 POP POP POP JUMP JUMPDEST CALLVALUE DUP1 ISZERO PUSH2 0xAE6 JUMPI PUSH0 DUP1 REVERT JUMPDEST POP PUSH2 0x366 PUSH2 0xAF5 CALLDATASIZE PUSH1 0x4 PUSH2 0x48EE JUMP JUMPDEST PUSH2 0x2AC5 JUMP JUMPDEST CALLVALUE DUP1 ISZERO PUSH2 0xB05 JUMPI PUSH0 DUP1 REVERT JUMPDEST POP PUSH2 0xB19 PUSH2 0xB14 CALLDATASIZE PUSH1 0x4 PUSH2 0x503F JUMP JUMPDEST PUSH2 0x2B41 JUMP JUMPDEST PUSH1 0x40 MLOAD PUSH2 0x410 SWAP2 SWAP1 PUSH2 0x50DA JUMP JUMPDEST CALLVALUE DUP1 ISZERO PUSH2 0xB31 JUMPI PUSH0 DUP1 REVERT JUMPDEST POP PUSH2 0x366 PUSH2 0xB40 CALLDATASIZE PUSH1 0x4 PUSH2 0x50E8 JUMP JUMPDEST PUSH2 0x2C8C JUMP JUMPDEST CALLVALUE DUP1 ISZERO PUSH2 0xB50 JUMPI PUSH0 DUP1 REVERT JUMPDEST POP PUSH2 0x366 PUSH2 0xB5F CALLDATASIZE PUSH1 0x4 PUSH2 0x5126 JUMP JUMPDEST PUSH2 0x2CFD JUMP JUMPDEST CALLVALUE DUP1 ISZERO PUSH2 0xB6F JUMPI PUSH0 DUP1 REVERT JUMPDEST POP PUSH2 0xC66 PUSH2 0xB7E CALLDATASIZE PUSH1 0x4 PUSH2 0x4CED JUMP JUMPDEST PUSH1 0x19 PUSH1 0x20 SWAP1 DUP2 MSTORE PUSH0 SWAP2 DUP3 MSTORE PUSH1 0x40 SWAP2 DUP3 SWAP1 KECCAK256 DUP1 SLOAD DUP4 MLOAD PUSH1 0xC0 DUP1 DUP3 ADD DUP7 MSTORE PUSH1 0x1 DUP5 ADD SLOAD PUSH2 0xFFFF DUP1 DUP3 AND DUP5 MSTORE PUSH3 0x10000 SWAP2 DUP3 SWAP1 DIV DUP2 AND DUP5 DUP9 ADD MSTORE PUSH1 0x2 DUP7 ADD SLOAD DUP5 DUP10 ADD MSTORE PUSH1 0x3 DUP7 ADD SLOAD PUSH1 0x1 PUSH1 0x1 PUSH1 0xA0 SHL SUB SWAP1 DUP2 AND PUSH1 0x60 DUP1 DUP8 ADD SWAP2 SWAP1 SWAP2 MSTORE PUSH1 0x4 DUP9 ADD SLOAD PUSH1 0x80 DUP1 DUP9 ADD SWAP2 SWAP1 SWAP2 MSTORE PUSH1 0x5 DUP10 ADD SLOAD PUSH1 0xFF SWAP1 DUP2 AND ISZERO ISZERO PUSH1 0xA0 DUP1 DUP11 ADD SWAP2 SWAP1 SWAP2 MSTORE DUP13 MLOAD PUSH1 0xE0 DUP2 ADD DUP15 MSTORE PUSH1 0x6 DUP13 ADD SLOAD DUP1 DUP9 AND DUP3 MSTORE SWAP8 DUP9 DIV SWAP1 SWAP7 AND SWAP12 DUP7 ADD SWAP12 SWAP1 SWAP12 MSTORE PUSH5 0x100000000 SWAP1 SWAP6 DIV DUP4 AND SWAP11 DUP5 ADD SWAP11 SWAP1 SWAP11 MSTORE PUSH1 0x7 DUP9 ADD SLOAD SWAP1 DUP4 ADD MSTORE PUSH1 0x8 DUP8 ADD SLOAD AND SWAP8 DUP2 ADD SWAP8 SWAP1 SWAP8 MSTORE PUSH1 0x9 DUP6 ADD SLOAD SWAP6 DUP8 ADD SWAP6 SWAP1 SWAP6 MSTORE PUSH1 0xA SWAP1 SWAP4 ADD SLOAD DUP5 AND ISZERO ISZERO SWAP3 DUP6 ADD SWAP3 SWAP1 SWAP3 MSTORE SWAP2 SWAP1 SWAP2 AND SWAP2 DUP4 JUMP JUMPDEST PUSH1 0x40 MLOAD PUSH2 0x410 SWAP4 SWAP3 SWAP2 SWAP1 PUSH2 0x5163 JUMP JUMPDEST CALLVALUE DUP1 ISZERO PUSH2 0xC80 JUMPI PUSH0 DUP1 REVERT JUMPDEST POP PUSH2 0x366 PUSH2 0xC8F CALLDATASIZE PUSH1 0x4 PUSH2 0x4FB7 JUMP JUMPDEST PUSH2 0x2D10 JUMP JUMPDEST CALLVALUE DUP1 ISZERO PUSH2 0xC9F JUMPI PUSH0 DUP1 REVERT JUMPDEST POP PUSH2 0x6EB PUSH2 0xCAE CALLDATASIZE PUSH1 0x4 PUSH2 0x5187 JUMP JUMPDEST PUSH2 0x2D4A JUMP JUMPDEST CALLVALUE DUP1 ISZERO PUSH2 0xCBE JUMPI PUSH0 DUP1 REVERT JUMPDEST POP PUSH2 0xCD2 PUSH2 0xCCD CALLDATASIZE PUSH1 0x4 PUSH2 0x4FB7 JUMP JUMPDEST PUSH2 0x2DD9 JUMP JUMPDEST PUSH1 0x40 DUP1 MLOAD DUP4 MLOAD DUP2 MSTORE PUSH1 0x20 DUP1 DUP6 ADD MLOAD DUP2 DUP4 ADD MSTORE DUP5 DUP4 ADD MLOAD SWAP3 DUP3 ADD SWAP3 SWAP1 SWAP3 MSTORE PUSH1 0x60 DUP1 DUP6 ADD MLOAD SWAP1 DUP3 ADD MSTORE PUSH1 0x80 DUP1 DUP6 ADD MLOAD SWAP1 DUP3 ADD MSTORE PUSH1 0xA0 SWAP4 DUP5 ADD MLOAD SWAP4 DUP2 ADD SWAP4 SWAP1 SWAP4 MSTORE DUP2 MLOAD ISZERO ISZERO PUSH1 0xC0 DUP5 ADD MSTORE ADD MLOAD PUSH1 0x1 PUSH1 0x1 PUSH1 0xA0 SHL SUB AND PUSH1 0xE0 DUP3 ADD MSTORE PUSH2 0x100 ADD PUSH2 0x410 JUMP JUMPDEST PUSH1 0x9 SLOAD PUSH1 0x1 PUSH1 0x1 PUSH1 0xA0 SHL SUB AND CALLER PUSH1 0x1 PUSH1 0x1 PUSH1 0xA0 SHL SUB AND EQ PUSH2 0xD9A JUMPI PUSH1 0x40 MLOAD PUSH3 0x461BCD PUSH1 0xE5 SHL DUP2 MSTORE PUSH1 0x20 PUSH1 0x4 DUP3 ADD MSTORE PUSH1 0x1E PUSH1 0x24 DUP3 ADD MSTORE PUSH32 0x4C7A4170703A20696E76616C696420656E64706F696E742063616C6C65720000 PUSH1 0x44 DUP3 ADD MSTORE PUSH1 0x64 ADD JUMPDEST PUSH1 0x40 MLOAD DUP1 SWAP2 SUB SWAP1 REVERT JUMPDEST PUSH2 0xFFFF DUP7 AND PUSH0 SWAP1 DUP2 MSTORE PUSH1 0xA PUSH1 0x20 MSTORE PUSH1 0x40 DUP2 KECCAK256 DUP1 SLOAD PUSH2 0xDB7 SWAP1 PUSH2 0x51D5 JUMP JUMPDEST DUP1 PUSH1 0x1F ADD PUSH1 0x20 DUP1 SWAP2 DIV MUL PUSH1 0x20 ADD PUSH1 0x40 MLOAD SWAP1 DUP2 ADD PUSH1 0x40 MSTORE DUP1 SWAP3 SWAP2 SWAP1 DUP2 DUP2 MSTORE PUSH1 0x20 ADD DUP3 DUP1 SLOAD PUSH2 0xDE3 SWAP1 PUSH2 0x51D5 JUMP JUMPDEST DUP1 ISZERO PUSH2 0xE2E JUMPI DUP1 PUSH1 0x1F LT PUSH2 0xE05 JUMPI PUSH2 0x100 DUP1 DUP4 SLOAD DIV MUL DUP4 MSTORE SWAP2 PUSH1 0x20 ADD SWAP2 PUSH2 0xE2E JUMP JUMPDEST DUP3 ADD SWAP2 SWAP1 PUSH0 MSTORE PUSH1 0x20 PUSH0 KECCAK256 SWAP1 JUMPDEST DUP2 SLOAD DUP2 MSTORE SWAP1 PUSH1 0x1 ADD SWAP1 PUSH1 0x20 ADD DUP1 DUP4 GT PUSH2 0xE11 JUMPI DUP3 SWAP1 SUB PUSH1 0x1F AND DUP3 ADD SWAP2 JUMPDEST POP POP POP POP POP SWAP1 POP DUP1 MLOAD DUP7 DUP7 SWAP1 POP EQ DUP1 ISZERO PUSH2 0xE48 JUMPI POP PUSH0 DUP2 MLOAD GT JUMPDEST DUP1 ISZERO PUSH2 0xE70 JUMPI POP DUP1 MLOAD PUSH1 0x20 DUP3 ADD KECCAK256 PUSH1 0x40 MLOAD PUSH2 0xE66 SWAP1 DUP9 SWAP1 DUP9 SWAP1 PUSH2 0x520D JUMP JUMPDEST PUSH1 0x40 MLOAD DUP1 SWAP2 SUB SWAP1 KECCAK256 EQ JUMPDEST PUSH2 0xECB JUMPI PUSH1 0x40 MLOAD PUSH3 0x461BCD PUSH1 0xE5 SHL DUP2 MSTORE PUSH1 0x20 PUSH1 0x4 DUP3 ADD MSTORE PUSH1 0x26 PUSH1 0x24 DUP3 ADD MSTORE PUSH32 0x4C7A4170703A20696E76616C696420736F757263652073656E64696E6720636F PUSH1 0x44 DUP3 ADD MSTORE PUSH6 0x1B9D1C9858DD PUSH1 0xD2 SHL PUSH1 0x64 DUP3 ADD MSTORE PUSH1 0x84 ADD PUSH2 0xD91 JUMP JUMPDEST PUSH2 0xF3F DUP8 DUP8 DUP8 DUP1 DUP1 PUSH1 0x1F ADD PUSH1 0x20 DUP1 SWAP2 DIV MUL PUSH1 0x20 ADD PUSH1 0x40 MLOAD SWAP1 DUP2 ADD PUSH1 0x40 MSTORE DUP1 SWAP4 SWAP3 SWAP2 SWAP1 DUP2 DUP2 MSTORE PUSH1 0x20 ADD DUP4 DUP4 DUP1 DUP3 DUP5 CALLDATACOPY PUSH0 SWAP3 ADD SWAP2 SWAP1 SWAP2 MSTORE POP POP PUSH1 0x40 DUP1 MLOAD PUSH1 0x20 PUSH1 0x1F DUP11 ADD DUP2 SWAP1 DIV DUP2 MUL DUP3 ADD DUP2 ADD SWAP1 SWAP3 MSTORE DUP9 DUP2 MSTORE DUP11 SWAP4 POP SWAP2 POP DUP9 SWAP1 DUP9 SWAP1 DUP2 SWAP1 DUP5 ADD DUP4 DUP3 DUP1 DUP3 DUP5 CALLDATACOPY PUSH0 SWAP3 ADD SWAP2 SWAP1 SWAP2 MSTORE POP PUSH2 0x2E98 SWAP3 POP POP POP JUMP JUMPDEST POP POP POP POP POP POP POP JUMP JUMPDEST PUSH1 0xF SLOAD PUSH1 0x1 PUSH1 0x1 PUSH1 0xA0 SHL SUB AND CALLER EQ DUP1 ISZERO PUSH2 0xF65 JUMPI POP PUSH1 0xB DUP2 PUSH1 0xFF AND LT JUMPDEST PUSH2 0xF6D JUMPI PUSH0 DUP1 REVERT JUMPDEST PUSH1 0xF DUP1 SLOAD PUSH1 0x1 PUSH1 0x1 PUSH1 0xA0 SHL SUB SWAP1 SWAP4 AND PUSH1 0x1 PUSH1 0x1 PUSH1 0xA0 SHL SUB NOT PUSH1 0xFF SWAP1 SWAP4 AND PUSH1 0x1 PUSH1 0xA0 SHL MUL SWAP3 SWAP1 SWAP3 AND PUSH1 0x1 PUSH1 0x1 PUSH1 0xA8 SHL SUB NOT SWAP1 SWAP4 AND SWAP3 SWAP1 SWAP3 OR OR SWAP1 SSTORE JUMP JUMPDEST PUSH2 0xFB1 PUSH2 0x2F10 JUMP JUMPDEST PUSH1 0x9 SLOAD PUSH1 0x40 MLOAD PUSH4 0x7E0DB17 PUSH1 0xE0 SHL DUP2 MSTORE PUSH2 0xFFFF DUP4 AND PUSH1 0x4 DUP3 ADD MSTORE PUSH1 0x1 PUSH1 0x1 PUSH1 0xA0 SHL SUB SWAP1 SWAP2 AND SWAP1 PUSH4 0x7E0DB17 SWAP1 PUSH1 0x24 ADD JUMPDEST PUSH0 PUSH1 0x40 MLOAD DUP1 DUP4 SUB DUP2 PUSH0 DUP8 DUP1 EXTCODESIZE ISZERO DUP1 ISZERO PUSH2 0xFF8 JUMPI PUSH0 DUP1 REVERT JUMPDEST POP GAS CALL ISZERO DUP1 ISZERO PUSH2 0x100A JUMPI RETURNDATASIZE PUSH0 DUP1 RETURNDATACOPY RETURNDATASIZE PUSH0 REVERT JUMPDEST POP POP POP POP POP JUMP JUMPDEST PUSH2 0x1019 PUSH2 0x2F10 JUMP JUMPDEST PUSH2 0xFFFF SWAP1 SWAP2 AND PUSH0 SWAP1 DUP2 MSTORE PUSH1 0xC PUSH1 0x20 MSTORE PUSH1 0x40 SWAP1 KECCAK256 SSTORE JUMP JUMPDEST PUSH2 0x1037 PUSH2 0x2F10 JUMP JUMPDEST PUSH1 0x9 SLOAD PUSH1 0x40 MLOAD PUSH4 0x10DDB137 PUSH1 0xE0 SHL DUP2 MSTORE PUSH2 0xFFFF DUP4 AND PUSH1 0x4 DUP3 ADD MSTORE PUSH1 0x1 PUSH1 0x1 PUSH1 0xA0 SHL SUB SWAP1 SWAP2 AND SWAP1 PUSH4 0x10DDB137 SWAP1 PUSH1 0x24 ADD PUSH2 0xFE1 JUMP JUMPDEST PUSH1 0x40 DUP1 MLOAD PUSH1 0xE0 DUP2 ADD DUP3 MSTORE PUSH0 DUP1 DUP3 MSTORE PUSH1 0x20 DUP3 ADD DUP2 SWAP1 MSTORE SWAP2 DUP2 ADD DUP3 SWAP1 MSTORE PUSH1 0x60 DUP2 ADD DUP3 SWAP1 MSTORE PUSH1 0x80 DUP2 ADD DUP3 SWAP1 MSTORE PUSH1 0xA0 DUP2 ADD DUP3 SWAP1 MSTORE PUSH1 0xC0 DUP2 ADD SWAP2 SWAP1 SWAP2 MSTORE POP PUSH1 0x1 PUSH1 0x1 PUSH1 0xA0 SHL SUB DUP1 DUP4 AND PUSH0 SWAP1 DUP2 MSTORE PUSH1 0x17 PUSH1 0x20 SWAP1 DUP2 MSTORE PUSH1 0x40 DUP1 DUP4 KECCAK256 DUP6 DUP5 MSTORE PUSH1 0x8 ADD DUP3 MSTORE SWAP2 DUP3 SWAP1 KECCAK256 DUP3 MLOAD PUSH1 0xE0 DUP2 ADD DUP5 MSTORE DUP2 SLOAD PUSH2 0xFFFF DUP1 DUP3 AND DUP4 MSTORE PUSH3 0x10000 DUP3 DIV AND SWAP4 DUP3 ADD SWAP4 SWAP1 SWAP4 MSTORE PUSH5 0x100000000 SWAP1 SWAP3 DIV DUP5 AND SWAP3 DUP3 ADD SWAP3 SWAP1 SWAP3 MSTORE PUSH1 0x1 DUP3 ADD SLOAD PUSH1 0x60 DUP3 ADD MSTORE PUSH1 0x2 DUP3 ADD SLOAD SWAP1 SWAP3 AND PUSH1 0x80 DUP4 ADD MSTORE PUSH1 0x3 DUP2 ADD SLOAD PUSH1 0xA0 DUP4 ADD MSTORE PUSH1 0x4 ADD SLOAD PUSH1 0xFF AND ISZERO ISZERO PUSH1 0xC0 DUP3 ADD MSTORE JUMPDEST SWAP3 SWAP2 POP POP JUMP JUMPDEST PUSH0 DUP1 PUSH2 0x1142 DUP8 DUP8 DUP8 DUP8 DUP8 PUSH2 0x2F3D JUMP JUMPDEST POP PUSH1 0x15 SLOAD SWAP1 SWAP2 POP PUSH2 0x1153 SWAP1 DUP3 PUSH2 0x4755 JUMP JUMPDEST SWAP8 SWAP7 POP POP POP POP POP POP POP JUMP JUMPDEST PUSH2 0xFFFF DUP4 AND PUSH0 SWAP1 DUP2 MSTORE PUSH1 0xA PUSH1 0x20 MSTORE PUSH1 0x40 DUP2 KECCAK256 DUP1 SLOAD DUP3 SWAP2 SWAP1 PUSH2 0x117E SWAP1 PUSH2 0x51D5 JUMP JUMPDEST DUP1 PUSH1 0x1F ADD PUSH1 0x20 DUP1 SWAP2 DIV MUL PUSH1 0x20 ADD PUSH1 0x40 MLOAD SWAP1 DUP2 ADD PUSH1 0x40 MSTORE DUP1 SWAP3 SWAP2 SWAP1 DUP2 DUP2 MSTORE PUSH1 0x20 ADD DUP3 DUP1 SLOAD PUSH2 0x11AA SWAP1 PUSH2 0x51D5 JUMP JUMPDEST DUP1 ISZERO PUSH2 0x11F5 JUMPI DUP1 PUSH1 0x1F LT PUSH2 0x11CC JUMPI PUSH2 0x100 DUP1 DUP4 SLOAD DIV MUL DUP4 MSTORE SWAP2 PUSH1 0x20 ADD SWAP2 PUSH2 0x11F5 JUMP JUMPDEST DUP3 ADD SWAP2 SWAP1 PUSH0 MSTORE PUSH1 0x20 PUSH0 KECCAK256 SWAP1 JUMPDEST DUP2 SLOAD DUP2 MSTORE SWAP1 PUSH1 0x1 ADD SWAP1 PUSH1 0x20 ADD DUP1 DUP4 GT PUSH2 0x11D8 JUMPI DUP3 SWAP1 SUB PUSH1 0x1F AND DUP3 ADD SWAP2 JUMPDEST POP POP POP POP POP SWAP1 POP DUP4 DUP4 PUSH1 0x40 MLOAD PUSH2 0x120C SWAP3 SWAP2 SWAP1 PUSH2 0x520D JUMP JUMPDEST PUSH1 0x40 MLOAD DUP1 SWAP2 SUB SWAP1 KECCAK256 DUP2 DUP1 MLOAD SWAP1 PUSH1 0x20 ADD KECCAK256 EQ SWAP2 POP POP SWAP4 SWAP3 POP POP POP JUMP JUMPDEST PUSH2 0x122F PUSH2 0x2F10 JUMP JUMPDEST PUSH1 0x9 SLOAD PUSH1 0x40 MLOAD PUSH4 0x42D65A8D PUSH1 0xE0 SHL DUP2 MSTORE PUSH1 0x1 PUSH1 0x1 PUSH1 0xA0 SHL SUB SWAP1 SWAP2 AND SWAP1 PUSH4 0x42D65A8D SWAP1 PUSH2 0x1263 SWAP1 DUP7 SWAP1 DUP7 SWAP1 DUP7 SWAP1 PUSH1 0x4 ADD PUSH2 0x5244 JUMP JUMPDEST PUSH0 PUSH1 0x40 MLOAD DUP1 DUP4 SUB DUP2 PUSH0 DUP8 DUP1 EXTCODESIZE ISZERO DUP1 ISZERO PUSH2 0x127A JUMPI PUSH0 DUP1 REVERT JUMPDEST POP GAS CALL ISZERO DUP1 ISZERO PUSH2 0xF3F JUMPI RETURNDATASIZE PUSH0 DUP1 RETURNDATACOPY RETURNDATASIZE PUSH0 REVERT JUMPDEST PUSH2 0x1294 PUSH2 0x2F10 JUMP JUMPDEST PUSH2 0xFFFF DUP2 AND PUSH0 SWAP1 DUP2 MSTORE PUSH1 0xA PUSH1 0x20 MSTORE PUSH1 0x40 DUP2 KECCAK256 PUSH2 0x12AF SWAP2 PUSH2 0x468A JUMP JUMPDEST POP JUMP JUMPDEST PUSH0 DUP5 MLOAD PUSH1 0x1 PUSH1 0x1 PUSH1 0x40 SHL SUB DUP2 GT ISZERO PUSH2 0x12CC JUMPI PUSH2 0x12CC PUSH2 0x4AC6 JUMP JUMPDEST PUSH1 0x40 MLOAD SWAP1 DUP1 DUP3 MSTORE DUP1 PUSH1 0x20 MUL PUSH1 0x20 ADD DUP3 ADD PUSH1 0x40 MSTORE DUP1 ISZERO PUSH2 0x1323 JUMPI DUP2 PUSH1 0x20 ADD JUMPDEST PUSH1 0x40 DUP1 MLOAD PUSH1 0xA0 DUP2 ADD DUP3 MSTORE PUSH0 DUP1 DUP3 MSTORE PUSH1 0x20 DUP1 DUP4 ADD DUP3 SWAP1 MSTORE SWAP3 DUP3 ADD DUP2 SWAP1 MSTORE PUSH1 0x60 DUP3 ADD DUP2 SWAP1 MSTORE PUSH1 0x80 DUP3 ADD MSTORE DUP3 MSTORE PUSH0 NOT SWAP1 SWAP3 ADD SWAP2 ADD DUP2 PUSH2 0x12EA JUMPI SWAP1 POP JUMPDEST POP SWAP1 POP PUSH0 JUMPDEST DUP6 MLOAD DUP2 LT ISZERO PUSH2 0x1738 JUMPI PUSH1 0x1 SLOAD DUP7 MLOAD PUSH0 SWAP2 PUSH1 0x1 PUSH1 0x1 PUSH1 0xA0 SHL SUB AND SWAP1 PUSH4 0xA9E11893 SWAP1 DUP10 SWAP1 DUP6 SWAP1 DUP2 LT PUSH2 0x135A JUMPI PUSH2 0x135A PUSH2 0x5261 JUMP JUMPDEST PUSH1 0x20 MUL PUSH1 0x20 ADD ADD MLOAD PUSH1 0x40 MLOAD DUP3 PUSH4 0xFFFFFFFF AND PUSH1 0xE0 SHL DUP2 MSTORE PUSH1 0x4 ADD PUSH2 0x137E SWAP2 SWAP1 PUSH2 0x4EB4 JUMP JUMPDEST PUSH0 PUSH1 0x40 MLOAD DUP1 DUP4 SUB DUP2 DUP7 GAS STATICCALL ISZERO DUP1 ISZERO PUSH2 0x1398 JUMPI RETURNDATASIZE PUSH0 DUP1 RETURNDATACOPY RETURNDATASIZE PUSH0 REVERT JUMPDEST POP POP POP POP PUSH1 0x40 MLOAD RETURNDATASIZE PUSH0 DUP3 RETURNDATACOPY PUSH1 0x1F RETURNDATASIZE SWAP1 DUP2 ADD PUSH1 0x1F NOT AND DUP3 ADD PUSH1 0x40 MSTORE PUSH2 0x13BF SWAP2 SWAP1 DUP2 ADD SWAP1 PUSH2 0x5397 JUMP JUMPDEST PUSH1 0x4 DUP1 SLOAD PUSH1 0x60 DUP4 ADD MLOAD PUSH1 0x40 MLOAD PUSH4 0xAD66A5F1 PUSH1 0xE0 SHL DUP2 MSTORE SWAP4 SWAP5 POP PUSH1 0x1 PUSH1 0x1 PUSH1 0xA0 SHL SUB SWAP1 SWAP2 AND SWAP3 PUSH4 0xAD66A5F1 SWAP3 PUSH2 0x13FF SWAP3 SWAP2 ADD PUSH2 0xFFFF SWAP2 SWAP1 SWAP2 AND DUP2 MSTORE PUSH1 0x20 ADD SWAP1 JUMP JUMPDEST PUSH1 0x20 PUSH1 0x40 MLOAD DUP1 DUP4 SUB DUP2 DUP7 GAS STATICCALL ISZERO DUP1 ISZERO PUSH2 0x141A JUMPI RETURNDATASIZE PUSH0 DUP1 RETURNDATACOPY RETURNDATASIZE PUSH0 REVERT JUMPDEST POP POP POP POP PUSH1 0x40 MLOAD RETURNDATASIZE PUSH1 0x1F NOT PUSH1 0x1F DUP3 ADD AND DUP3 ADD DUP1 PUSH1 0x40 MSTORE POP DUP2 ADD SWAP1 PUSH2 0x143E SWAP2 SWAP1 PUSH2 0x54B5 JUMP JUMPDEST DUP2 PUSH1 0x80 ADD MLOAD EQ PUSH2 0x1489 JUMPI PUSH1 0x40 MLOAD PUSH3 0x461BCD PUSH1 0xE5 SHL DUP2 MSTORE PUSH1 0x20 PUSH1 0x4 DUP3 ADD MSTORE PUSH1 0x16 PUSH1 0x24 DUP3 ADD MSTORE PUSH22 0x4E6F74206120546F6B656E2042726964676520564141 PUSH1 0x50 SHL PUSH1 0x44 DUP3 ADD MSTORE PUSH1 0x64 ADD PUSH2 0xD91 JUMP JUMPDEST PUSH1 0x4 DUP1 SLOAD PUSH1 0xE0 DUP4 ADD MLOAD PUSH1 0x40 MLOAD PUSH4 0xEA63738D PUSH1 0xE0 SHL DUP2 MSTORE PUSH0 SWAP4 PUSH1 0x1 PUSH1 0x1 PUSH1 0xA0 SHL SUB SWAP1 SWAP4 AND SWAP3 PUSH4 0xEA63738D SWAP3 PUSH2 0x14BF SWAP3 SWAP1 SWAP2 ADD PUSH2 0x4EB4 JUMP JUMPDEST PUSH0 PUSH1 0x40 MLOAD DUP1 DUP4 SUB DUP2 DUP7 GAS STATICCALL ISZERO DUP1 ISZERO PUSH2 0x14D9 JUMPI RETURNDATASIZE PUSH0 DUP1 RETURNDATACOPY RETURNDATASIZE PUSH0 REVERT JUMPDEST POP POP POP POP PUSH1 0x40 MLOAD RETURNDATASIZE PUSH0 DUP3 RETURNDATACOPY PUSH1 0x1F RETURNDATASIZE SWAP1 DUP2 ADD PUSH1 0x1F NOT AND DUP3 ADD PUSH1 0x40 MSTORE PUSH2 0x1500 SWAP2 SWAP1 DUP2 ADD SWAP1 PUSH2 0x54CC JUMP JUMPDEST SWAP1 POP ADDRESS DUP2 PUSH1 0x80 ADD MLOAD EQ DUP1 ISZERO PUSH2 0x1593 JUMPI POP PUSH1 0x1 PUSH0 SWAP1 SLOAD SWAP1 PUSH2 0x100 EXP SWAP1 DIV PUSH1 0x1 PUSH1 0x1 PUSH1 0xA0 SHL SUB AND PUSH1 0x1 PUSH1 0x1 PUSH1 0xA0 SHL SUB AND PUSH4 0x9A8A0592 PUSH1 0x40 MLOAD DUP2 PUSH4 0xFFFFFFFF AND PUSH1 0xE0 SHL DUP2 MSTORE PUSH1 0x4 ADD PUSH1 0x20 PUSH1 0x40 MLOAD DUP1 DUP4 SUB DUP2 DUP7 GAS STATICCALL ISZERO DUP1 ISZERO PUSH2 0x1560 JUMPI RETURNDATASIZE PUSH0 DUP1 RETURNDATACOPY RETURNDATASIZE PUSH0 REVERT JUMPDEST POP POP POP POP PUSH1 0x40 MLOAD RETURNDATASIZE PUSH1 0x1F NOT PUSH1 0x1F DUP3 ADD AND DUP3 ADD DUP1 PUSH1 0x40 MSTORE POP DUP2 ADD SWAP1 PUSH2 0x1584 SWAP2 SWAP1 PUSH2 0x558F JUMP JUMPDEST PUSH2 0xFFFF AND DUP2 PUSH1 0xA0 ADD MLOAD PUSH2 0xFFFF AND EQ JUMPDEST PUSH2 0x15DF JUMPI PUSH1 0x40 MLOAD PUSH3 0x461BCD PUSH1 0xE5 SHL DUP2 MSTORE PUSH1 0x20 PUSH1 0x4 DUP3 ADD MSTORE PUSH1 0x1E PUSH1 0x24 DUP3 ADD MSTORE PUSH32 0x546F6B656E206E6F742073656E7420746F207468697320616464726573730000 PUSH1 0x44 DUP3 ADD MSTORE PUSH1 0x64 ADD PUSH2 0xD91 JUMP JUMPDEST PUSH1 0x4 SLOAD DUP9 MLOAD PUSH1 0x1 PUSH1 0x1 PUSH1 0xA0 SHL SUB SWAP1 SWAP2 AND SWAP1 PUSH4 0xC3F511C1 SWAP1 DUP11 SWAP1 DUP7 SWAP1 DUP2 LT PUSH2 0x1608 JUMPI PUSH2 0x1608 PUSH2 0x5261 JUMP JUMPDEST PUSH1 0x20 MUL PUSH1 0x20 ADD ADD MLOAD PUSH1 0x40 MLOAD DUP3 PUSH4 0xFFFFFFFF AND PUSH1 0xE0 SHL DUP2 MSTORE PUSH1 0x4 ADD PUSH2 0x162C SWAP2 SWAP1 PUSH2 0x4EB4 JUMP JUMPDEST PUSH0 PUSH1 0x40 MLOAD DUP1 DUP4 SUB DUP2 PUSH0 DUP8 GAS CALL ISZERO DUP1 ISZERO PUSH2 0x1647 JUMPI RETURNDATASIZE PUSH0 DUP1 RETURNDATACOPY RETURNDATASIZE PUSH0 REVERT JUMPDEST POP POP POP POP PUSH1 0x40 MLOAD RETURNDATASIZE PUSH0 DUP3 RETURNDATACOPY PUSH1 0x1F RETURNDATASIZE SWAP1 DUP2 ADD PUSH1 0x1F NOT AND DUP3 ADD PUSH1 0x40 MSTORE PUSH2 0x166E SWAP2 SWAP1 DUP2 ADD SWAP1 PUSH2 0x55AA JUMP JUMPDEST POP PUSH0 PUSH2 0x1682 DUP3 PUSH1 0x60 ADD MLOAD DUP4 PUSH1 0x40 ADD MLOAD PUSH2 0x30A0 JUMP JUMPDEST SWAP1 POP PUSH0 PUSH2 0x168E DUP3 PUSH2 0x319D JUMP JUMPDEST PUSH1 0x20 DUP5 ADD MLOAD SWAP1 SWAP2 POP PUSH1 0x8 PUSH1 0xFF DUP4 AND GT ISZERO PUSH2 0x16C5 JUMPI PUSH2 0x16AD PUSH1 0x8 DUP4 PUSH2 0x55DB JUMP JUMPDEST PUSH2 0x16B8 SWAP1 PUSH1 0xA PUSH2 0x56D4 JUMP JUMPDEST PUSH2 0x16C2 SWAP1 DUP3 PUSH2 0x56E2 JUMP JUMPDEST SWAP1 POP JUMPDEST PUSH1 0x40 MLOAD DUP1 PUSH1 0xA0 ADD PUSH1 0x40 MSTORE DUP1 DUP6 PUSH1 0x40 ADD MLOAD DUP2 MSTORE PUSH1 0x20 ADD DUP6 PUSH1 0x60 ADD MLOAD PUSH2 0xFFFF AND DUP2 MSTORE PUSH1 0x20 ADD DUP5 PUSH1 0x1 PUSH1 0x1 PUSH1 0xA0 SHL SUB AND DUP2 MSTORE PUSH1 0x20 ADD DUP3 DUP2 MSTORE PUSH1 0x20 ADD DUP6 PUSH1 0x20 ADD MLOAD DUP2 MSTORE POP DUP8 DUP8 DUP2 MLOAD DUP2 LT PUSH2 0x1717 JUMPI PUSH2 0x1717 PUSH2 0x5261 JUMP JUMPDEST PUSH1 0x20 MUL PUSH1 0x20 ADD ADD DUP2 SWAP1 MSTORE POP POP POP POP POP POP DUP1 PUSH2 0x1731 SWAP1 PUSH2 0x56F9 JUMP JUMPDEST SWAP1 POP PUSH2 0x1328 JUMP JUMPDEST POP PUSH2 0x1747 DUP7 DUP3 DUP7 DUP7 DUP7 DUP11 PUSH2 0x3234 JUMP JUMPDEST POP POP POP POP POP POP JUMP JUMPDEST PUSH2 0x1757 PUSH2 0x2F10 JUMP JUMPDEST PUSH0 DUP1 MSTORE PUSH1 0x18 PUSH1 0x20 MSTORE PUSH0 DUP1 MLOAD PUSH1 0x20 PUSH2 0x5C1C DUP4 CODECOPY DUP2 MLOAD SWAP2 MSTORE SLOAD DUP2 GT ISZERO PUSH2 0x1779 JUMPI PUSH0 DUP1 REVERT JUMPDEST PUSH0 DUP1 DUP1 MSTORE PUSH1 0x18 PUSH1 0x20 MSTORE PUSH0 DUP1 MLOAD PUSH1 0x20 PUSH2 0x5C1C DUP4 CODECOPY DUP2 MLOAD SWAP2 MSTORE DUP1 SLOAD DUP4 SWAP3 SWAP1 PUSH2 0x17A0 SWAP1 DUP5 SWAP1 PUSH2 0x5711 JUMP JUMPDEST SWAP1 SWAP2 SSTORE POP POP PUSH1 0x40 MLOAD CALLER SWAP1 DUP3 ISZERO PUSH2 0x8FC MUL SWAP1 DUP4 SWAP1 PUSH0 DUP2 DUP2 DUP2 DUP6 DUP9 DUP9 CALL SWAP4 POP POP POP POP ISZERO DUP1 ISZERO PUSH2 0x17CF JUMPI RETURNDATASIZE PUSH0 DUP1 RETURNDATACOPY RETURNDATASIZE PUSH0 REVERT JUMPDEST POP POP JUMP JUMPDEST CALLER ADDRESS EQ PUSH2 0x1831 JUMPI PUSH1 0x40 MLOAD PUSH3 0x461BCD PUSH1 0xE5 SHL DUP2 MSTORE PUSH1 0x20 PUSH1 0x4 DUP3 ADD MSTORE PUSH1 0x26 PUSH1 0x24 DUP3 ADD MSTORE PUSH32 0x4E6F6E626C6F636B696E674C7A4170703A2063616C6C6572206D757374206265 PUSH1 0x44 DUP3 ADD MSTORE PUSH6 0x204C7A41707 PUSH1 0xD4 SHL PUSH1 0x64 DUP3 ADD MSTORE PUSH1 0x84 ADD PUSH2 0xD91 JUMP JUMPDEST PUSH2 0x1747 DUP7 DUP7 DUP7 DUP1 DUP1 PUSH1 0x1F ADD PUSH1 0x20 DUP1 SWAP2 DIV MUL PUSH1 0x20 ADD PUSH1 0x40 MLOAD SWAP1 DUP2 ADD PUSH1 0x40 MSTORE DUP1 SWAP4 SWAP3 SWAP2 SWAP1 DUP2 DUP2 MSTORE PUSH1 0x20 ADD DUP4 DUP4 DUP1 DUP3 DUP5 CALLDATACOPY PUSH0 SWAP3 ADD SWAP2 SWAP1 SWAP2 MSTORE POP POP PUSH1 0x40 DUP1 MLOAD PUSH1 0x20 PUSH1 0x1F DUP10 ADD DUP2 SWAP1 DIV DUP2 MUL DUP3 ADD DUP2 ADD SWAP1 SWAP3 MSTORE DUP8 DUP2 MSTORE DUP10 SWAP4 POP SWAP2 POP DUP8 SWAP1 DUP8 SWAP1 DUP2 SWAP1 DUP5 ADD DUP4 DUP3 DUP1 DUP3 DUP5 CALLDATACOPY PUSH0 SWAP3 ADD SWAP2 SWAP1 SWAP2 MSTORE POP PUSH2 0x35A6 SWAP3 POP POP POP JUMP JUMPDEST PUSH1 0x40 DUP1 DUP3 ADD MLOAD DUP3 MLOAD PUSH2 0xFFFF AND PUSH0 SWAP1 DUP2 MSTORE PUSH1 0x7 PUSH1 0x20 MSTORE SWAP2 DUP3 KECCAK256 SLOAD PUSH1 0x1 PUSH1 0x1 PUSH1 0xA0 SHL SUB AND ISZERO DUP1 ISZERO PUSH2 0x18D2 JUMPI POP DUP1 ISZERO JUMPDEST DUP1 ISZERO PUSH2 0x18E9 JUMPI POP PUSH1 0x60 DUP4 ADD MLOAD PUSH1 0x1 PUSH1 0x1 PUSH1 0xA0 SHL SUB AND ISZERO JUMPDEST DUP1 PUSH2 0x1903 JUMPI POP PUSH2 0x1900 DUP4 PUSH0 ADD MLOAD DUP5 PUSH1 0x80 ADD MLOAD PUSH2 0x24D0 JUMP JUMPDEST CALLVALUE LT JUMPDEST ISZERO PUSH2 0x1921 JUMPI PUSH1 0x40 MLOAD PUSH4 0x7E43B997 PUSH1 0xE0 SHL DUP2 MSTORE PUSH1 0x4 ADD PUSH1 0x40 MLOAD DUP1 SWAP2 SUB SWAP1 REVERT JUMPDEST PUSH1 0x16 SLOAD PUSH1 0x60 DUP5 ADD MLOAD PUSH1 0x40 MLOAD PUSH4 0x23B872DD PUSH1 0xE0 SHL DUP2 MSTORE CALLER PUSH1 0x4 DUP3 ADD MSTORE ADDRESS PUSH1 0x24 DUP3 ADD MSTORE PUSH1 0x44 DUP2 ADD DUP5 SWAP1 MSTORE PUSH0 SWAP2 PUSH1 0x1 PUSH1 0x1 PUSH1 0xA0 SHL SUB AND SWAP1 PUSH4 0x23B872DD SWAP1 PUSH1 0x64 ADD PUSH1 0x20 PUSH1 0x40 MLOAD DUP1 DUP4 SUB DUP2 PUSH0 DUP8 GAS CALL ISZERO DUP1 ISZERO PUSH2 0x197A JUMPI RETURNDATASIZE PUSH0 DUP1 RETURNDATACOPY RETURNDATASIZE PUSH0 REVERT JUMPDEST POP POP POP POP PUSH1 0x40 MLOAD RETURNDATASIZE PUSH1 0x1F NOT PUSH1 0x1F DUP3 ADD AND DUP3 ADD DUP1 PUSH1 0x40 MSTORE POP DUP2 ADD SWAP1 PUSH2 0x199E SWAP2 SWAP1 PUSH2 0x5724 JUMP JUMPDEST SWAP1 POP DUP1 PUSH2 0x19C6 JUMPI PUSH1 0x40 MLOAD PUSH3 0x461BCD PUSH1 0xE5 SHL DUP2 MSTORE PUSH1 0x20 PUSH1 0x4 DUP3 ADD MSTORE PUSH0 PUSH1 0x24 DUP3 ADD MSTORE PUSH1 0x44 ADD PUSH2 0xD91 JUMP JUMPDEST PUSH1 0x15 SLOAD ISZERO PUSH2 0x19DD JUMPI PUSH1 0x15 SLOAD PUSH2 0x19DA SWAP1 PUSH2 0x38CD JUMP JUMPDEST POP POP JUMPDEST DUP2 ISZERO PUSH2 0x1A5F JUMPI PUSH2 0x3E8 DUP3 DUP7 PUSH1 0x40 ADD MLOAD PUSH2 0x19F6 SWAP2 SWAP1 PUSH2 0x56E2 JUMP JUMPDEST PUSH2 0x1A00 SWAP2 SWAP1 PUSH2 0x5753 JUMP JUMPDEST DUP6 PUSH1 0x40 ADD MLOAD PUSH2 0x1A0F SWAP2 SWAP1 PUSH2 0x5711 JUMP JUMPDEST SWAP3 POP PUSH2 0x3E8 DUP3 DUP7 PUSH1 0x40 ADD MLOAD PUSH2 0x1A24 SWAP2 SWAP1 PUSH2 0x56E2 JUMP JUMPDEST PUSH2 0x1A2E SWAP2 SWAP1 PUSH2 0x5753 JUMP JUMPDEST PUSH1 0x60 DUP7 ADD MLOAD PUSH1 0x1 PUSH1 0x1 PUSH1 0xA0 SHL SUB AND PUSH0 SWAP1 DUP2 MSTORE PUSH1 0x18 PUSH1 0x20 MSTORE PUSH1 0x40 DUP2 KECCAK256 DUP1 SLOAD SWAP1 SWAP2 SWAP1 PUSH2 0x1A59 SWAP1 DUP5 SWAP1 PUSH2 0x4755 JUMP JUMPDEST SWAP1 SWAP2 SSTORE POP POP JUMPDEST PUSH0 DUP6 PUSH1 0x20 ADD MLOAD PUSH1 0x40 MLOAD PUSH1 0x20 ADD PUSH2 0x1A84 SWAP2 SWAP1 PUSH1 0x1 PUSH1 0x1 PUSH1 0xA0 SHL SUB SWAP2 SWAP1 SWAP2 AND DUP2 MSTORE PUSH1 0x20 ADD SWAP1 JUMP JUMPDEST PUSH1 0x40 DUP1 MLOAD PUSH1 0x1F NOT DUP2 DUP5 SUB ADD DUP2 MSTORE DUP3 DUP3 MSTORE DUP9 MLOAD PUSH2 0xFFFF DUP2 AND PUSH0 SWAP1 DUP2 MSTORE PUSH1 0x7 PUSH1 0x20 SWAP1 DUP2 MSTORE DUP5 DUP3 KECCAK256 SLOAD PUSH1 0x80 DUP14 ADD MLOAD PUSH1 0x60 DUP15 ADD MLOAD PUSH1 0x1 SLOAD PUSH4 0x4D4502C9 PUSH1 0xE1 SHL DUP11 MSTORE SWAP8 MLOAD SWAP7 SWAP10 POP PUSH2 0x1B31 SWAP9 SWAP6 SWAP8 PUSH1 0x1 PUSH1 0x1 PUSH1 0xA0 SHL SUB SWAP4 DUP5 AND SWAP8 DUP12 SWAP8 SWAP4 SWAP6 SWAP3 SWAP5 DUP16 SWAP5 SWAP3 AND SWAP3 PUSH4 0x9A8A0592 SWAP3 PUSH1 0x4 DUP1 DUP3 ADD SWAP4 SWAP2 DUP3 SWAP1 SUB ADD DUP2 DUP7 GAS STATICCALL ISZERO DUP1 ISZERO PUSH2 0x1B07 JUMPI RETURNDATASIZE PUSH0 DUP1 RETURNDATACOPY RETURNDATASIZE PUSH0 REVERT JUMPDEST POP POP POP POP PUSH1 0x40 MLOAD RETURNDATASIZE PUSH1 0x1F NOT PUSH1 0x1F DUP3 ADD AND DUP3 ADD DUP1 PUSH1 0x40 MSTORE POP DUP2 ADD SWAP1 PUSH2 0x1B2B SWAP2 SWAP1 PUSH2 0x558F JUMP JUMPDEST CALLER PUSH2 0x3943 JUMP JUMPDEST PUSH1 0xF SLOAD SWAP1 SWAP6 POP PUSH2 0x1B4D SWAP1 PUSH1 0x64 SWAP1 PUSH1 0x1 PUSH1 0xA0 SHL SWAP1 DIV PUSH1 0xFF AND PUSH2 0x5766 JUMP JUMPDEST PUSH1 0x15 SLOAD PUSH2 0x1B5D SWAP2 PUSH1 0xFF AND SWAP1 PUSH2 0x56E2 JUMP JUMPDEST PUSH1 0x15 SLOAD PUSH2 0x1B6A SWAP2 SWAP1 PUSH2 0x5711 JUMP JUMPDEST PUSH1 0x10 PUSH0 DUP3 DUP3 SLOAD PUSH2 0x1B7A SWAP2 SWAP1 PUSH2 0x4755 JUMP JUMPDEST SWAP1 SWAP2 SSTORE POP POP PUSH1 0x1 PUSH1 0x1 PUSH1 0x40 SHL SUB DUP6 AND PUSH2 0x1C07 JUMPI PUSH1 0x60 DUP7 ADD MLOAD PUSH1 0x40 MLOAD PUSH4 0xA9059CBB PUSH1 0xE0 SHL DUP2 MSTORE CALLER PUSH1 0x4 DUP3 ADD MSTORE PUSH1 0x24 DUP2 ADD DUP7 SWAP1 MSTORE PUSH1 0x1 PUSH1 0x1 PUSH1 0xA0 SHL SUB SWAP1 SWAP2 AND SWAP1 PUSH4 0xA9059CBB SWAP1 PUSH1 0x44 ADD PUSH1 0x20 PUSH1 0x40 MLOAD DUP1 DUP4 SUB DUP2 PUSH0 DUP8 GAS CALL ISZERO DUP1 ISZERO PUSH2 0x1BDD JUMPI RETURNDATASIZE PUSH0 DUP1 RETURNDATACOPY RETURNDATASIZE PUSH0 REVERT JUMPDEST POP POP POP POP PUSH1 0x40 MLOAD RETURNDATASIZE PUSH1 0x1F NOT PUSH1 0x1F DUP3 ADD AND DUP3 ADD DUP1 PUSH1 0x40 MSTORE POP DUP2 ADD SWAP1 PUSH2 0x1C01 SWAP2 SWAP1 PUSH2 0x5724 JUMP JUMPDEST POP PUSH2 0x1EF5 JUMP JUMPDEST PUSH1 0x40 DUP1 MLOAD PUSH1 0xE0 DUP2 ADD DUP1 DUP4 MSTORE PUSH1 0x1 SLOAD PUSH4 0x4D4502C9 PUSH1 0xE1 SHL SWAP1 SWAP2 MSTORE SWAP2 MLOAD PUSH0 SWAP3 DUP3 SWAP2 PUSH1 0x1 PUSH1 0x1 PUSH1 0xA0 SHL SUB SWAP1 SWAP2 AND SWAP1 PUSH4 0x9A8A0592 SWAP1 PUSH1 0xE4 DUP1 DUP6 ADD SWAP2 PUSH1 0x20 SWAP2 DUP2 DUP8 SUB ADD DUP2 DUP7 GAS STATICCALL ISZERO DUP1 ISZERO PUSH2 0x1C58 JUMPI RETURNDATASIZE PUSH0 DUP1 RETURNDATACOPY RETURNDATASIZE PUSH0 REVERT JUMPDEST POP POP POP POP PUSH1 0x40 MLOAD RETURNDATASIZE PUSH1 0x1F NOT PUSH1 0x1F DUP3 ADD AND DUP3 ADD DUP1 PUSH1 0x40 MSTORE POP DUP2 ADD SWAP1 PUSH2 0x1C7C SWAP2 SWAP1 PUSH2 0x558F JUMP JUMPDEST PUSH2 0xFFFF AND DUP2 MSTORE PUSH1 0x20 ADD DUP9 PUSH0 ADD MLOAD PUSH2 0xFFFF AND DUP2 MSTORE PUSH1 0x20 ADD DUP9 PUSH1 0x60 ADD MLOAD PUSH1 0x1 PUSH1 0x1 PUSH1 0xA0 SHL SUB AND DUP2 MSTORE PUSH1 0x20 ADD DUP7 DUP2 MSTORE PUSH1 0x20 ADD DUP9 PUSH1 0x20 ADD MLOAD PUSH1 0x1 PUSH1 0x1 PUSH1 0xA0 SHL SUB AND DUP2 MSTORE PUSH1 0x20 ADD TIMESTAMP DUP2 MSTORE PUSH1 0x20 ADD PUSH1 0x1 ISZERO ISZERO DUP2 MSTORE POP SWAP1 POP DUP1 PUSH1 0x17 PUSH0 CALLER PUSH1 0x1 PUSH1 0x1 PUSH1 0xA0 SHL SUB AND PUSH1 0x1 PUSH1 0x1 PUSH1 0xA0 SHL SUB AND DUP2 MSTORE PUSH1 0x20 ADD SWAP1 DUP2 MSTORE PUSH1 0x20 ADD PUSH0 KECCAK256 PUSH1 0x6 ADD PUSH1 0x3 ADD PUSH0 PUSH1 0x17 PUSH0 CALLER PUSH1 0x1 PUSH1 0x1 PUSH1 0xA0 SHL SUB AND PUSH1 0x1 PUSH1 0x1 PUSH1 0xA0 SHL SUB AND DUP2 MSTORE PUSH1 0x20 ADD SWAP1 DUP2 MSTORE PUSH1 0x20 ADD PUSH0 KECCAK256 PUSH0 ADD PUSH1 0x2 ADD SLOAD DUP2 MSTORE PUSH1 0x20 ADD SWAP1 DUP2 MSTORE PUSH1 0x20 ADD PUSH0 KECCAK256 PUSH0 DUP10 PUSH0 ADD MLOAD PUSH2 0xFFFF AND PUSH2 0xFFFF AND DUP2 MSTORE PUSH1 0x20 ADD SWAP1 DUP2 MSTORE PUSH1 0x20 ADD PUSH0 KECCAK256 PUSH0 DUP3 ADD MLOAD DUP2 PUSH0 ADD PUSH0 PUSH2 0x100 EXP DUP2 SLOAD DUP2 PUSH2 0xFFFF MUL NOT AND SWAP1 DUP4 PUSH2 0xFFFF AND MUL OR SWAP1 SSTORE POP PUSH1 0x20 DUP3 ADD MLOAD DUP2 PUSH0 ADD PUSH1 0x2 PUSH2 0x100 EXP DUP2 SLOAD DUP2 PUSH2 0xFFFF MUL NOT AND SWAP1 DUP4 PUSH2 0xFFFF AND MUL OR SWAP1 SSTORE POP PUSH1 0x40 DUP3 ADD MLOAD DUP2 PUSH0 ADD PUSH1 0x4 PUSH2 0x100 EXP DUP2 SLOAD DUP2 PUSH1 0x1 PUSH1 0x1 PUSH1 0xA0 SHL SUB MUL NOT AND SWAP1 DUP4 PUSH1 0x1 PUSH1 0x1 PUSH1 0xA0 SHL SUB AND MUL OR SWAP1 SSTORE POP PUSH1 0x60 DUP3 ADD MLOAD DUP2 PUSH1 0x1 ADD SSTORE PUSH1 0x80 DUP3 ADD MLOAD DUP2 PUSH1 0x2 ADD PUSH0 PUSH2 0x100 EXP DUP2 SLOAD DUP2 PUSH1 0x1 PUSH1 0x1 PUSH1 0xA0 SHL SUB MUL NOT AND SWAP1 DUP4 PUSH1 0x1 PUSH1 0x1 PUSH1 0xA0 SHL SUB AND MUL OR SWAP1 SSTORE POP PUSH1 0xA0 DUP3 ADD MLOAD DUP2 PUSH1 0x3 ADD SSTORE PUSH1 0xC0 DUP3 ADD MLOAD DUP2 PUSH1 0x4 ADD PUSH0 PUSH2 0x100 EXP DUP2 SLOAD DUP2 PUSH1 0xFF MUL NOT AND SWAP1 DUP4 ISZERO ISZERO MUL OR SWAP1 SSTORE POP SWAP1 POP POP PUSH1 0x12 PUSH0 ADD SLOAD PUSH1 0x17 PUSH0 CALLER PUSH1 0x1 PUSH1 0x1 PUSH1 0xA0 SHL SUB AND PUSH1 0x1 PUSH1 0x1 PUSH1 0xA0 SHL SUB AND DUP2 MSTORE PUSH1 0x20 ADD SWAP1 DUP2 MSTORE PUSH1 0x20 ADD PUSH0 KECCAK256 PUSH0 ADD PUSH1 0x5 ADD PUSH0 DUP3 DUP3 SLOAD PUSH2 0x1E53 SWAP2 SWAP1 PUSH2 0x4755 JUMP JUMPDEST SWAP1 SWAP2 SSTORE POP POP PUSH1 0x12 SLOAD PUSH1 0x13 DUP1 SLOAD PUSH0 SWAP1 PUSH2 0x1E6C SWAP1 DUP5 SWAP1 PUSH2 0x4755 JUMP JUMPDEST SWAP1 SWAP2 SSTORE POP POP CALLER PUSH0 SWAP1 DUP2 MSTORE PUSH1 0x17 PUSH1 0x20 MSTORE PUSH1 0x40 DUP2 KECCAK256 PUSH1 0x2 ADD DUP1 SLOAD PUSH1 0x1 SWAP3 SWAP1 PUSH2 0x1E93 SWAP1 DUP5 SWAP1 PUSH2 0x4755 JUMP JUMPDEST SWAP1 SWAP2 SSTORE POP POP CALLER PUSH0 SWAP1 DUP2 MSTORE PUSH1 0x17 PUSH1 0x20 SWAP1 DUP2 MSTORE PUSH1 0x40 DUP1 DUP4 KECCAK256 PUSH1 0x60 DUP12 ADD MLOAD PUSH1 0x1 PUSH1 0x1 PUSH1 0xA0 SHL SUB AND DUP5 MSTORE PUSH1 0x7 ADD DUP3 MSTORE DUP1 DUP4 KECCAK256 DUP11 MLOAD PUSH2 0xFFFF AND DUP5 MSTORE SWAP1 SWAP2 MSTORE DUP2 KECCAK256 DUP1 SLOAD DUP8 SWAP3 SWAP1 PUSH2 0x1EDE SWAP1 DUP5 SWAP1 PUSH2 0x4755 JUMP JUMPDEST SWAP3 POP POP DUP2 SWAP1 SSTORE POP PUSH2 0x1EF3 CALLER DUP9 PUSH1 0xA0 ADD MLOAD PUSH2 0x3ADF JUMP JUMPDEST POP JUMPDEST POP POP POP POP SWAP2 SWAP1 POP JUMP JUMPDEST PUSH2 0x1F06 PUSH2 0x2F10 JUMP JUMPDEST PUSH1 0x40 DUP1 MLOAD PUSH1 0xA0 DUP2 ADD DUP3 MSTORE DUP7 DUP2 MSTORE PUSH1 0x20 DUP2 ADD DUP7 SWAP1 MSTORE SWAP4 ISZERO ISZERO SWAP1 DUP5 ADD DUP2 SWAP1 MSTORE PUSH1 0x60 DUP5 ADD DUP4 SWAP1 MSTORE PUSH1 0x80 SWAP1 SWAP4 ADD DUP2 SWAP1 MSTORE PUSH1 0x12 SWAP5 SWAP1 SWAP5 SSTORE PUSH1 0x13 SWAP3 SWAP1 SWAP3 SSTORE PUSH1 0x14 DUP1 SLOAD PUSH1 0xFF NOT AND SWAP1 SWAP2 OR SWAP1 SSTORE PUSH1 0x15 SSTORE PUSH1 0x16 SSTORE JUMP JUMPDEST PUSH2 0x1F5B PUSH2 0x2F10 JUMP JUMPDEST PUSH2 0x1F64 PUSH0 PUSH2 0x3C57 JUMP JUMPDEST JUMP JUMPDEST PUSH1 0xA PUSH1 0x20 MSTORE PUSH0 SWAP1 DUP2 MSTORE PUSH1 0x40 SWAP1 KECCAK256 DUP1 SLOAD PUSH2 0x1F7E SWAP1 PUSH2 0x51D5 JUMP JUMPDEST DUP1 PUSH1 0x1F ADD PUSH1 0x20 DUP1 SWAP2 DIV MUL PUSH1 0x20 ADD PUSH1 0x40 MLOAD SWAP1 DUP2 ADD PUSH1 0x40 MSTORE DUP1 SWAP3 SWAP2 SWAP1 DUP2 DUP2 MSTORE PUSH1 0x20 ADD DUP3 DUP1 SLOAD PUSH2 0x1FAA SWAP1 PUSH2 0x51D5 JUMP JUMPDEST DUP1 ISZERO PUSH2 0x1FF5 JUMPI DUP1 PUSH1 0x1F LT PUSH2 0x1FCC JUMPI PUSH2 0x100 DUP1 DUP4 SLOAD DIV MUL DUP4 MSTORE SWAP2 PUSH1 0x20 ADD SWAP2 PUSH2 0x1FF5 JUMP JUMPDEST DUP3 ADD SWAP2 SWAP1 PUSH0 MSTORE PUSH1 0x20 PUSH0 KECCAK256 SWAP1 JUMPDEST DUP2 SLOAD DUP2 MSTORE SWAP1 PUSH1 0x1 ADD SWAP1 PUSH1 0x20 ADD DUP1 DUP4 GT PUSH2 0x1FD8 JUMPI DUP3 SWAP1 SUB PUSH1 0x1F AND DUP3 ADD SWAP2 JUMPDEST POP POP POP POP POP DUP2 JUMP JUMPDEST PUSH2 0x2005 PUSH2 0x2F10 JUMP JUMPDEST PUSH2 0xFFFF SWAP1 SWAP2 AND PUSH0 DUP2 DUP2 MSTORE PUSH1 0x6 PUSH1 0x20 SWAP1 DUP2 MSTORE PUSH1 0x40 DUP1 DUP4 KECCAK256 PUSH1 0x1 PUSH1 0x1 PUSH1 0xA0 SHL SUB SWAP1 SWAP6 AND DUP4 MSTORE SWAP4 DUP2 MSTORE DUP4 DUP3 KECCAK256 DUP1 SLOAD PUSH1 0xFF NOT AND SWAP1 SSTORE SWAP2 DUP2 MSTORE PUSH1 0x7 SWAP1 SWAP2 MSTORE KECCAK256 DUP1 SLOAD PUSH1 0x1 PUSH1 0x1 PUSH1 0xA0 SHL SUB NOT AND SWAP1 SSTORE JUMP JUMPDEST PUSH1 0x40 DUP2 ADD MLOAD DUP1 ISZERO DUP1 ISZERO PUSH2 0x206D JUMPI POP PUSH1 0x20 DUP3 ADD MLOAD PUSH1 0x1 PUSH1 0x1 PUSH1 0xA0 SHL SUB AND ISZERO JUMPDEST DUP1 PUSH2 0x2092 JUMPI POP PUSH2 0x208F DUP3 PUSH0 ADD MLOAD DUP4 PUSH1 0x80 ADD MLOAD DUP4 DUP6 PUSH1 0x20 ADD MLOAD DUP7 PUSH1 0x60 ADD MLOAD PUSH2 0x1133 JUMP JUMPDEST CALLVALUE LT JUMPDEST ISZERO PUSH2 0x20B0 JUMPI PUSH1 0x40 MLOAD PUSH4 0x7E43B997 PUSH1 0xE0 SHL DUP2 MSTORE PUSH1 0x4 ADD PUSH1 0x40 MLOAD DUP1 SWAP2 SUB SWAP1 REVERT JUMPDEST PUSH1 0x15 SLOAD PUSH1 0x16 SLOAD DUP2 ISZERO PUSH2 0x20C9 JUMPI PUSH2 0x20C5 DUP3 PUSH2 0x38CD JUMP JUMPDEST POP SWAP2 POP JUMPDEST DUP1 ISZERO PUSH2 0x20FE JUMPI PUSH2 0x3E8 DUP2 DUP6 PUSH1 0x40 ADD MLOAD PUSH2 0x20E2 SWAP2 SWAP1 PUSH2 0x56E2 JUMP JUMPDEST PUSH2 0x20EC SWAP2 SWAP1 PUSH2 0x5753 JUMP JUMPDEST DUP5 PUSH1 0x40 ADD MLOAD PUSH2 0x20FB SWAP2 SWAP1 PUSH2 0x5711 JUMP JUMPDEST SWAP3 POP JUMPDEST PUSH0 PUSH2 0x2120 DUP6 PUSH0 ADD MLOAD DUP7 PUSH1 0x20 ADD MLOAD DUP7 DUP9 PUSH1 0x60 ADD MLOAD DUP10 PUSH1 0x80 ADD MLOAD DUP11 PUSH1 0xA0 ADD MLOAD PUSH2 0x3CA8 JUMP JUMPDEST SWAP1 POP DUP1 PUSH2 0x2148 JUMPI PUSH1 0x40 MLOAD PUSH3 0x461BCD PUSH1 0xE5 SHL DUP2 MSTORE PUSH1 0x20 PUSH1 0x4 DUP3 ADD MSTORE PUSH0 PUSH1 0x24 DUP3 ADD MSTORE PUSH1 0x44 ADD PUSH2 0xD91 JUMP JUMPDEST PUSH2 0x3E8 DUP3 DUP7 PUSH1 0x40 ADD MLOAD PUSH2 0x215B SWAP2 SWAP1 PUSH2 0x56E2 JUMP JUMPDEST PUSH2 0x2165 SWAP2 SWAP1 PUSH2 0x5753 JUMP JUMPDEST PUSH0 DUP1 DUP1 MSTORE PUSH1 0x18 PUSH1 0x20 MSTORE PUSH0 DUP1 MLOAD PUSH1 0x20 PUSH2 0x5C1C DUP4 CODECOPY DUP2 MLOAD SWAP2 MSTORE DUP1 SLOAD SWAP1 SWAP2 SWAP1 PUSH2 0x218C SWAP1 DUP5 SWAP1 PUSH2 0x4755 JUMP JUMPDEST SWAP3 POP POP DUP2 SWAP1 SSTORE POP DUP3 PUSH1 0x10 PUSH0 DUP3 DUP3 SLOAD PUSH2 0x21A4 SWAP2 SWAP1 PUSH2 0x4755 JUMP JUMPDEST SWAP1 SWAP2 SSTORE POP POP PUSH1 0x40 DUP1 MLOAD PUSH1 0xC0 DUP2 ADD DUP1 DUP4 MSTORE PUSH1 0x9 SLOAD PUSH4 0x3408E47 PUSH1 0xE4 SHL SWAP1 SWAP2 MSTORE SWAP2 MLOAD PUSH0 SWAP3 DUP3 SWAP2 PUSH1 0x1 PUSH1 0x1 PUSH1 0xA0 SHL SUB SWAP1 SWAP2 AND SWAP1 PUSH4 0x3408E470 SWAP1 PUSH1 0xC4 DUP1 DUP6 ADD SWAP2 PUSH1 0x20 SWAP2 DUP2 DUP8 SUB ADD DUP2 DUP7 GAS STATICCALL ISZERO DUP1 ISZERO PUSH2 0x21FA JUMPI RETURNDATASIZE PUSH0 DUP1 RETURNDATACOPY RETURNDATASIZE PUSH0 REVERT JUMPDEST POP POP POP POP PUSH1 0x40 MLOAD RETURNDATASIZE PUSH1 0x1F NOT PUSH1 0x1F DUP3 ADD AND DUP3 ADD DUP1 PUSH1 0x40 MSTORE POP DUP2 ADD SWAP1 PUSH2 0x221E SWAP2 SWAP1 PUSH2 0x558F JUMP JUMPDEST PUSH2 0xFFFF SWAP1 DUP2 AND DUP3 MSTORE DUP9 MLOAD AND PUSH1 0x20 DUP1 DUP4 ADD SWAP2 SWAP1 SWAP2 MSTORE PUSH1 0x40 DUP1 DUP4 ADD DUP10 SWAP1 MSTORE DUP10 DUP3 ADD MLOAD PUSH1 0x1 PUSH1 0x1 PUSH1 0xA0 SHL SUB AND PUSH1 0x60 DUP5 ADD MSTORE TIMESTAMP PUSH1 0x80 DUP5 ADD MSTORE PUSH1 0x1 PUSH1 0xA0 SWAP1 SWAP4 ADD SWAP3 SWAP1 SWAP3 MSTORE PUSH1 0x12 SLOAD CALLER PUSH0 SWAP1 DUP2 MSTORE PUSH1 0x17 SWAP1 SWAP3 MSTORE SWAP2 DUP2 KECCAK256 PUSH1 0x5 ADD DUP1 SLOAD SWAP4 SWAP5 POP SWAP2 SWAP3 PUSH2 0x2282 SWAP1 DUP5 SWAP1 PUSH2 0x4755 JUMP JUMPDEST SWAP1 SWAP2 SSTORE POP POP PUSH1 0x12 SLOAD PUSH1 0x13 DUP1 SLOAD PUSH0 SWAP1 PUSH2 0x229B SWAP1 DUP5 SWAP1 PUSH2 0x4755 JUMP JUMPDEST SWAP1 SWAP2 SSTORE POP POP CALLER PUSH0 DUP2 DUP2 MSTORE PUSH1 0x17 PUSH1 0x20 DUP2 DUP2 MSTORE PUSH1 0x40 DUP1 DUP5 KECCAK256 DUP1 SLOAD DUP6 MSTORE PUSH1 0xB DUP2 ADD DUP4 MSTORE DUP2 DUP6 KECCAK256 DUP13 MLOAD PUSH2 0xFFFF SWAP1 DUP2 AND DUP8 MSTORE SWAP1 DUP5 MSTORE DUP3 DUP7 KECCAK256 DUP9 MLOAD DUP2 SLOAD DUP11 DUP8 ADD MLOAD SWAP2 DUP5 AND PUSH4 0xFFFFFFFF NOT SWAP1 SWAP2 AND OR PUSH3 0x10000 SWAP2 SWAP1 SWAP4 AND MUL SWAP2 SWAP1 SWAP2 OR DUP2 SSTORE SWAP2 DUP8 ADD MLOAD PUSH1 0x1 DUP1 DUP5 ADD SWAP2 SWAP1 SWAP2 SSTORE PUSH1 0x60 DUP9 ADD MLOAD PUSH1 0x2 DUP5 ADD DUP1 SLOAD PUSH1 0x1 PUSH1 0x1 PUSH1 0xA0 SHL SUB NOT AND PUSH1 0x1 PUSH1 0x1 PUSH1 0xA0 SHL SUB SWAP1 SWAP3 AND SWAP2 SWAP1 SWAP2 OR SWAP1 SSTORE PUSH1 0x80 DUP9 ADD MLOAD PUSH1 0x3 DUP5 ADD SSTORE PUSH1 0xA0 DUP9 ADD MLOAD PUSH1 0x4 SWAP1 SWAP4 ADD DUP1 SLOAD PUSH1 0xFF NOT AND SWAP4 ISZERO ISZERO SWAP4 SWAP1 SWAP4 OR SWAP1 SWAP3 SSTORE SWAP5 DUP5 MSTORE SWAP2 SWAP1 MSTORE DUP3 SLOAD SWAP1 SWAP3 SWAP2 SWAP1 PUSH2 0x2360 SWAP1 DUP5 SWAP1 PUSH2 0x4755 JUMP JUMPDEST SWAP1 SWAP2 SSTORE POP POP CALLER PUSH0 SWAP1 DUP2 MSTORE PUSH1 0x17 PUSH1 0x20 SWAP1 DUP2 MSTORE PUSH1 0x40 DUP1 DUP4 KECCAK256 DUP10 MLOAD PUSH2 0xFFFF AND DUP5 MSTORE PUSH1 0x6 ADD SWAP1 SWAP2 MSTORE DUP2 KECCAK256 DUP1 SLOAD DUP8 SWAP3 SWAP1 PUSH2 0x2396 SWAP1 DUP5 SWAP1 PUSH2 0x4755 JUMP JUMPDEST SWAP3 POP POP DUP2 SWAP1 SSTORE POP PUSH2 0x1747 CALLER DUP8 PUSH1 0xC0 ADD MLOAD PUSH2 0x3ADF JUMP JUMPDEST PUSH2 0x23B3 PUSH2 0x2F10 JUMP JUMPDEST PUSH1 0x1 PUSH1 0x1 PUSH1 0xA0 SHL SUB DUP3 AND PUSH0 SWAP1 DUP2 MSTORE PUSH1 0x18 PUSH1 0x20 MSTORE PUSH1 0x40 SWAP1 KECCAK256 SLOAD DUP2 GT ISZERO PUSH2 0x23D6 JUMPI PUSH0 DUP1 REVERT JUMPDEST PUSH1 0x1 PUSH1 0x1 PUSH1 0xA0 SHL SUB DUP3 AND PUSH0 SWAP1 DUP2 MSTORE PUSH1 0x18 PUSH1 0x20 MSTORE PUSH1 0x40 DUP2 KECCAK256 DUP1 SLOAD DUP4 SWAP3 SWAP1 PUSH2 0x23FD SWAP1 DUP5 SWAP1 PUSH2 0x5711 JUMP JUMPDEST SWAP1 SWAP2 SSTORE POP POP PUSH1 0x40 MLOAD PUSH4 0xA9059CBB PUSH1 0xE0 SHL DUP2 MSTORE CALLER PUSH1 0x4 DUP3 ADD MSTORE PUSH1 0x24 DUP2 ADD DUP3 SWAP1 MSTORE PUSH1 0x1 PUSH1 0x1 PUSH1 0xA0 SHL SUB DUP4 AND SWAP1 PUSH4 0xA9059CBB SWAP1 PUSH1 0x44 ADD PUSH1 0x20 PUSH1 0x40 MLOAD DUP1 DUP4 SUB DUP2 PUSH0 DUP8 GAS CALL ISZERO DUP1 ISZERO PUSH2 0x244C JUMPI RETURNDATASIZE PUSH0 DUP1 RETURNDATACOPY RETURNDATASIZE PUSH0 REVERT JUMPDEST POP POP POP POP PUSH1 0x40 MLOAD RETURNDATASIZE PUSH1 0x1F NOT PUSH1 0x1F DUP3 ADD AND DUP3 ADD DUP1 PUSH1 0x40 MSTORE POP DUP2 ADD SWAP1 PUSH2 0x2470 SWAP2 SWAP1 PUSH2 0x5724 JUMP JUMPDEST POP POP POP JUMP JUMPDEST PUSH2 0x247D PUSH2 0x2F10 JUMP JUMPDEST PUSH1 0x40 MLOAD PUSH12 0xFFFFFFFFFFFFFFFFFFFFFFFF NOT PUSH1 0x60 DUP5 DUP2 SHL DUP3 AND PUSH1 0x20 DUP5 ADD MSTORE ADDRESS SWAP1 SHL AND PUSH1 0x34 DUP3 ADD MSTORE PUSH1 0x48 ADD PUSH1 0x40 DUP1 MLOAD PUSH1 0x1F NOT DUP2 DUP5 SUB ADD DUP2 MSTORE SWAP2 DUP2 MSTORE PUSH2 0xFFFF DUP4 AND PUSH0 SWAP1 DUP2 MSTORE PUSH1 0xA PUSH1 0x20 MSTORE KECCAK256 SWAP1 PUSH2 0x2470 SWAP1 DUP3 PUSH2 0x57CC JUMP JUMPDEST PUSH0 DUP1 SLOAD PUSH1 0x40 MLOAD PUSH4 0xC23EE3C3 PUSH1 0xE0 SHL DUP2 MSTORE PUSH2 0xFFFF DUP6 AND PUSH1 0x4 DUP3 ADD MSTORE PUSH1 0x24 DUP2 ADD DUP4 SWAP1 MSTORE PUSH1 0x44 DUP2 ADD DUP5 SWAP1 MSTORE DUP3 SWAP2 PUSH1 0x1 PUSH1 0x1 PUSH1 0xA0 SHL SUB AND SWAP1 PUSH4 0xC23EE3C3 SWAP1 PUSH1 0x64 ADD PUSH1 0x40 DUP1 MLOAD DUP1 DUP4 SUB DUP2 DUP7 GAS STATICCALL ISZERO DUP1 ISZERO PUSH2 0x2527 JUMPI RETURNDATASIZE PUSH0 DUP1 RETURNDATACOPY RETURNDATASIZE PUSH0 REVERT JUMPDEST POP POP POP POP PUSH1 0x40 MLOAD RETURNDATASIZE PUSH1 0x1F NOT PUSH1 0x1F DUP3 ADD AND DUP3 ADD DUP1 PUSH1 0x40 MSTORE POP DUP2 ADD SWAP1 PUSH2 0x254B SWAP2 SWAP1 PUSH2 0x5887 JUMP JUMPDEST POP SWAP1 POP PUSH1 0x1 PUSH0 SWAP1 SLOAD SWAP1 PUSH2 0x100 EXP SWAP1 DIV PUSH1 0x1 PUSH1 0x1 PUSH1 0xA0 SHL SUB AND PUSH1 0x1 PUSH1 0x1 PUSH1 0xA0 SHL SUB AND PUSH4 0x1A90A219 PUSH1 0x40 MLOAD DUP2 PUSH4 0xFFFFFFFF AND PUSH1 0xE0 SHL DUP2 MSTORE PUSH1 0x4 ADD PUSH1 0x20 PUSH1 0x40 MLOAD DUP1 DUP4 SUB DUP2 DUP7 GAS STATICCALL ISZERO DUP1 ISZERO PUSH2 0x259E JUMPI RETURNDATASIZE PUSH0 DUP1 RETURNDATACOPY RETURNDATASIZE PUSH0 REVERT JUMPDEST POP POP POP POP PUSH1 0x40 MLOAD RETURNDATASIZE PUSH1 0x1F NOT PUSH1 0x1F DUP3 ADD AND DUP3 ADD DUP1 PUSH1 0x40 MSTORE POP DUP2 ADD SWAP1 PUSH2 0x25C2 SWAP2 SWAP1 PUSH2 0x54B5 JUMP JUMPDEST PUSH1 0x15 SLOAD PUSH2 0x25CF SWAP1 DUP4 PUSH2 0x4755 JUMP JUMPDEST PUSH2 0x25D9 SWAP2 SWAP1 PUSH2 0x4755 JUMP JUMPDEST SWAP5 SWAP4 POP POP POP POP JUMP JUMPDEST PUSH2 0xFFFF DUP2 AND PUSH0 SWAP1 DUP2 MSTORE PUSH1 0xA PUSH1 0x20 MSTORE PUSH1 0x40 DUP2 KECCAK256 DUP1 SLOAD PUSH1 0x60 SWAP3 SWAP2 SWAP1 PUSH2 0x2603 SWAP1 PUSH2 0x51D5 JUMP JUMPDEST DUP1 PUSH1 0x1F ADD PUSH1 0x20 DUP1 SWAP2 DIV MUL PUSH1 0x20 ADD PUSH1 0x40 MLOAD SWAP1 DUP2 ADD PUSH1 0x40 MSTORE DUP1 SWAP3 SWAP2 SWAP1 DUP2 DUP2 MSTORE PUSH1 0x20 ADD DUP3 DUP1 SLOAD PUSH2 0x262F SWAP1 PUSH2 0x51D5 JUMP JUMPDEST DUP1 ISZERO PUSH2 0x267A JUMPI DUP1 PUSH1 0x1F LT PUSH2 0x2651 JUMPI PUSH2 0x100 DUP1 DUP4 SLOAD DIV MUL DUP4 MSTORE SWAP2 PUSH1 0x20 ADD SWAP2 PUSH2 0x267A JUMP JUMPDEST DUP3 ADD SWAP2 SWAP1 PUSH0 MSTORE PUSH1 0x20 PUSH0 KECCAK256 SWAP1 JUMPDEST DUP2 SLOAD DUP2 MSTORE SWAP1 PUSH1 0x1 ADD SWAP1 PUSH1 0x20 ADD DUP1 DUP4 GT PUSH2 0x265D JUMPI DUP3 SWAP1 SUB PUSH1 0x1F AND DUP3 ADD SWAP2 JUMPDEST POP POP POP POP POP SWAP1 POP DUP1 MLOAD PUSH0 SUB PUSH2 0x26D1 JUMPI PUSH1 0x40 MLOAD PUSH3 0x461BCD PUSH1 0xE5 SHL DUP2 MSTORE PUSH1 0x20 PUSH1 0x4 DUP3 ADD MSTORE PUSH1 0x1D PUSH1 0x24 DUP3 ADD MSTORE PUSH32 0x4C7A4170703A206E6F20747275737465642070617468207265636F7264000000 PUSH1 0x44 DUP3 ADD MSTORE PUSH1 0x64 ADD PUSH2 0xD91 JUMP JUMPDEST PUSH2 0x26EB PUSH0 PUSH1 0x14 DUP4 MLOAD PUSH2 0x26E3 SWAP2 SWAP1 PUSH2 0x5711 JUMP JUMPDEST DUP4 SWAP2 SWAP1 PUSH2 0x3D30 JUMP JUMPDEST SWAP4 SWAP3 POP POP POP JUMP JUMPDEST PUSH2 0x26FA PUSH2 0x2F10 JUMP JUMPDEST PUSH1 0xD DUP1 SLOAD PUSH1 0x1 PUSH1 0x1 PUSH1 0xA0 SHL SUB NOT AND PUSH1 0x1 PUSH1 0x1 PUSH1 0xA0 SHL SUB DUP4 AND SWAP1 DUP2 OR SWAP1 SWAP2 SSTORE PUSH1 0x40 MLOAD SWAP1 DUP2 MSTORE PUSH32 0x5DB758E995A17EC1AD84BDEF7E8C3293A0BD6179BCCE400DFF5D4C3D87DB726B SWAP1 PUSH1 0x20 ADD PUSH1 0x40 MLOAD DUP1 SWAP2 SUB SWAP1 LOG1 POP JUMP JUMPDEST PUSH2 0x2756 PUSH2 0x2F10 JUMP JUMPDEST PUSH1 0x40 MLOAD CALLER SWAP1 DUP3 ISZERO PUSH2 0x8FC MUL SWAP1 DUP4 SWAP1 PUSH0 DUP2 DUP2 DUP2 DUP6 DUP9 DUP9 CALL SWAP4 POP POP POP POP ISZERO DUP1 ISZERO PUSH2 0x17CF JUMPI RETURNDATASIZE PUSH0 DUP1 RETURNDATACOPY RETURNDATASIZE PUSH0 REVERT JUMPDEST PUSH2 0x2788 PUSH2 0x2F10 JUMP JUMPDEST PUSH2 0xFFFF SWAP1 SWAP2 AND PUSH0 DUP2 DUP2 MSTORE PUSH1 0x6 PUSH1 0x20 SWAP1 DUP2 MSTORE PUSH1 0x40 DUP1 DUP4 KECCAK256 PUSH1 0x1 PUSH1 0x1 PUSH1 0xA0 SHL SUB SWAP1 SWAP6 AND DUP1 DUP5 MSTORE SWAP5 DUP3 MSTORE DUP1 DUP4 KECCAK256 DUP1 SLOAD PUSH1 0xFF NOT AND PUSH1 0x1 OR SWAP1 SSTORE SWAP3 DUP3 MSTORE PUSH1 0x7 SWAP1 MSTORE KECCAK256 DUP1 SLOAD PUSH1 0x1 PUSH1 0x1 PUSH1 0xA0 SHL SUB NOT AND SWAP1 SWAP2 OR SWAP1 SSTORE JUMP JUMPDEST PUSH2 0x27E0 PUSH2 0x2F10 JUMP JUMPDEST PUSH1 0x9 SLOAD PUSH1 0x40 MLOAD PUSH4 0x32FB62E7 PUSH1 0xE2 SHL DUP2 MSTORE PUSH1 0x1 PUSH1 0x1 PUSH1 0xA0 SHL SUB SWAP1 SWAP2 AND SWAP1 PUSH4 0xCBED8B9C SWAP1 PUSH2 0x2818 SWAP1 DUP9 SWAP1 DUP9 SWAP1 DUP9 SWAP1 DUP9 SWAP1 DUP9 SWAP1 PUSH1 0x4 ADD PUSH2 0x58A9 JUMP JUMPDEST PUSH0 PUSH1 0x40 MLOAD DUP1 DUP4 SUB DUP2 PUSH0 DUP8 DUP1 EXTCODESIZE ISZERO DUP1 ISZERO PUSH2 0x282F JUMPI PUSH0 DUP1 REVERT JUMPDEST POP GAS CALL ISZERO DUP1 ISZERO PUSH2 0x2841 JUMPI RETURNDATASIZE PUSH0 DUP1 RETURNDATACOPY RETURNDATASIZE PUSH0 REVERT JUMPDEST POP POP POP POP POP POP POP POP POP JUMP JUMPDEST PUSH2 0xFFFF DUP7 AND PUSH0 SWAP1 DUP2 MSTORE PUSH1 0xE PUSH1 0x20 MSTORE PUSH1 0x40 DUP1 DUP3 KECCAK256 SWAP1 MLOAD PUSH2 0x286E SWAP1 DUP9 SWAP1 DUP9 SWAP1 PUSH2 0x520D JUMP JUMPDEST SWAP1 DUP2 MSTORE PUSH1 0x40 DUP1 MLOAD PUSH1 0x20 SWAP3 DUP2 SWAP1 SUB DUP4 ADD SWAP1 KECCAK256 PUSH1 0x1 PUSH1 0x1 PUSH1 0x40 SHL SUB DUP8 AND PUSH0 SWAP1 DUP2 MSTORE SWAP3 MSTORE SWAP1 KECCAK256 SLOAD SWAP1 POP DUP1 PUSH2 0x28ED JUMPI PUSH1 0x40 MLOAD PUSH3 0x461BCD PUSH1 0xE5 SHL DUP2 MSTORE PUSH1 0x20 PUSH1 0x4 DUP3 ADD MSTORE PUSH1 0x23 PUSH1 0x24 DUP3 ADD MSTORE PUSH32 0x4E6F6E626C6F636B696E674C7A4170703A206E6F2073746F726564206D657373 PUSH1 0x44 DUP3 ADD MSTORE PUSH3 0x616765 PUSH1 0xE8 SHL PUSH1 0x64 DUP3 ADD MSTORE PUSH1 0x84 ADD PUSH2 0xD91 JUMP JUMPDEST DUP1 DUP4 DUP4 PUSH1 0x40 MLOAD PUSH2 0x28FE SWAP3 SWAP2 SWAP1 PUSH2 0x520D JUMP JUMPDEST PUSH1 0x40 MLOAD DUP1 SWAP2 SUB SWAP1 KECCAK256 EQ PUSH2 0x295D JUMPI PUSH1 0x40 MLOAD PUSH3 0x461BCD PUSH1 0xE5 SHL DUP2 MSTORE PUSH1 0x20 PUSH1 0x4 DUP3 ADD MSTORE PUSH1 0x21 PUSH1 0x24 DUP3 ADD MSTORE PUSH32 0x4E6F6E626C6F636B696E674C7A4170703A20696E76616C6964207061796C6F61 PUSH1 0x44 DUP3 ADD MSTORE PUSH1 0x19 PUSH1 0xFA SHL PUSH1 0x64 DUP3 ADD MSTORE PUSH1 0x84 ADD PUSH2 0xD91 JUMP JUMPDEST PUSH2 0xFFFF DUP8 AND PUSH0 SWAP1 DUP2 MSTORE PUSH1 0xE PUSH1 0x20 MSTORE PUSH1 0x40 DUP1 DUP3 KECCAK256 SWAP1 MLOAD PUSH2 0x297F SWAP1 DUP10 SWAP1 DUP10 SWAP1 PUSH2 0x520D JUMP JUMPDEST SWAP1 DUP2 MSTORE PUSH1 0x40 DUP1 MLOAD PUSH1 0x20 SWAP3 DUP2 SWAP1 SUB DUP4 ADD DUP2 KECCAK256 PUSH1 0x1 PUSH1 0x1 PUSH1 0x40 SHL SUB DUP10 AND PUSH0 SWAP1 DUP2 MSTORE SWAP1 DUP5 MSTORE DUP3 SWAP1 KECCAK256 SWAP4 SWAP1 SWAP4 SSTORE PUSH1 0x1F DUP9 ADD DUP3 SWAP1 DIV DUP3 MUL DUP4 ADD DUP3 ADD SWAP1 MSTORE DUP7 DUP3 MSTORE PUSH2 0x2A14 SWAP2 DUP10 SWAP2 DUP10 SWAP1 DUP10 SWAP1 DUP2 SWAP1 DUP5 ADD DUP4 DUP3 DUP1 DUP3 DUP5 CALLDATACOPY PUSH0 SWAP3 ADD SWAP2 SWAP1 SWAP2 MSTORE POP POP PUSH1 0x40 DUP1 MLOAD PUSH1 0x20 PUSH1 0x1F DUP11 ADD DUP2 SWAP1 DIV DUP2 MUL DUP3 ADD DUP2 ADD SWAP1 SWAP3 MSTORE DUP9 DUP2 MSTORE DUP11 SWAP4 POP SWAP2 POP DUP9 SWAP1 DUP9 SWAP1 DUP2 SWAP1 DUP5 ADD DUP4 DUP3 DUP1 DUP3 DUP5 CALLDATACOPY PUSH0 SWAP3 ADD SWAP2 SWAP1 SWAP2 MSTORE POP PUSH2 0x35A6 SWAP3 POP POP POP JUMP JUMPDEST PUSH32 0xC264D91F3ADC5588250E1551F547752CA0CFA8F6B530D243B9F9F4CAB10EA8E5 DUP8 DUP8 DUP8 DUP8 DUP6 PUSH1 0x40 MLOAD PUSH2 0x2A4B SWAP6 SWAP5 SWAP4 SWAP3 SWAP2 SWAP1 PUSH2 0x58D6 JUMP JUMPDEST PUSH1 0x40 MLOAD DUP1 SWAP2 SUB SWAP1 LOG1 POP POP POP POP POP POP POP JUMP JUMPDEST PUSH2 0x2A8B PUSH1 0x40 MLOAD DUP1 PUSH1 0xA0 ADD PUSH1 0x40 MSTORE DUP1 PUSH0 DUP2 MSTORE PUSH1 0x20 ADD PUSH0 DUP2 MSTORE PUSH1 0x20 ADD PUSH0 ISZERO ISZERO DUP2 MSTORE PUSH1 0x20 ADD PUSH0 DUP2 MSTORE PUSH1 0x20 ADD PUSH0 DUP2 MSTORE POP SWAP1 JUMP JUMPDEST POP PUSH1 0x40 DUP1 MLOAD PUSH1 0xA0 DUP2 ADD DUP3 MSTORE PUSH1 0x12 SLOAD DUP2 MSTORE PUSH1 0x13 SLOAD PUSH1 0x20 DUP3 ADD MSTORE PUSH1 0x14 SLOAD PUSH1 0xFF AND ISZERO ISZERO SWAP2 DUP2 ADD SWAP2 SWAP1 SWAP2 MSTORE PUSH1 0x15 SLOAD PUSH1 0x60 DUP3 ADD MSTORE PUSH1 0x16 SLOAD PUSH1 0x80 DUP3 ADD MSTORE SWAP1 JUMP JUMPDEST PUSH1 0x2 SLOAD PUSH1 0x1 PUSH1 0x1 PUSH1 0xA0 SHL SUB AND CALLER EQ PUSH2 0x2B2B JUMPI PUSH1 0x40 MLOAD PUSH3 0x461BCD PUSH1 0xE5 SHL DUP2 MSTORE PUSH1 0x20 PUSH1 0x4 DUP3 ADD MSTORE PUSH1 0x24 DUP1 DUP3 ADD MSTORE PUSH32 0x4E6F7420616C6C6F77656420746F207365742072656769737465726564207365 PUSH1 0x44 DUP3 ADD MSTORE PUSH4 0x373232B9 PUSH1 0xE1 SHL PUSH1 0x64 DUP3 ADD MSTORE PUSH1 0x84 ADD PUSH2 0xD91 JUMP JUMPDEST PUSH2 0xFFFF SWAP1 SWAP2 AND PUSH0 SWAP1 DUP2 MSTORE PUSH1 0x3 PUSH1 0x20 MSTORE PUSH1 0x40 SWAP1 KECCAK256 SSTORE JUMP JUMPDEST PUSH1 0x40 DUP1 MLOAD PUSH1 0xC0 DUP2 ADD DUP3 MSTORE PUSH0 DUP1 DUP3 MSTORE PUSH1 0x20 DUP3 ADD DUP2 SWAP1 MSTORE SWAP2 DUP2 ADD DUP3 SWAP1 MSTORE PUSH1 0x60 DUP2 ADD DUP3 SWAP1 MSTORE PUSH1 0x80 DUP2 ADD DUP3 SWAP1 MSTORE PUSH1 0xA0 DUP2 ADD SWAP2 SWAP1 SWAP2 MSTORE DUP2 PUSH2 0x2C01 JUMPI POP PUSH1 0x1 PUSH1 0x1 PUSH1 0xA0 SHL SUB DUP1 DUP6 AND PUSH0 SWAP1 DUP2 MSTORE PUSH1 0x17 PUSH1 0x20 SWAP1 DUP2 MSTORE PUSH1 0x40 DUP1 DUP4 KECCAK256 DUP8 DUP5 MSTORE PUSH1 0xB ADD DUP3 MSTORE DUP1 DUP4 KECCAK256 PUSH2 0xFFFF DUP1 DUP9 AND DUP6 MSTORE SWAP1 DUP4 MSTORE SWAP3 DUP2 SWAP1 KECCAK256 DUP2 MLOAD PUSH1 0xC0 DUP2 ADD DUP4 MSTORE DUP2 SLOAD DUP1 DUP7 AND DUP3 MSTORE PUSH3 0x10000 SWAP1 DIV SWAP1 SWAP5 AND SWAP3 DUP5 ADD SWAP3 SWAP1 SWAP3 MSTORE PUSH1 0x1 DUP3 ADD SLOAD SWAP1 DUP4 ADD MSTORE PUSH1 0x2 DUP2 ADD SLOAD SWAP1 SWAP3 AND PUSH1 0x60 DUP3 ADD MSTORE PUSH1 0x3 DUP3 ADD SLOAD PUSH1 0x80 DUP3 ADD MSTORE PUSH1 0x4 SWAP1 SWAP2 ADD SLOAD PUSH1 0xFF AND ISZERO ISZERO PUSH1 0xA0 DUP3 ADD MSTORE PUSH2 0x25D9 JUMP JUMPDEST POP POP PUSH1 0x1 PUSH1 0x1 PUSH1 0xA0 SHL SUB SWAP3 DUP4 AND PUSH0 SWAP1 DUP2 MSTORE PUSH1 0x17 PUSH1 0x20 SWAP1 DUP2 MSTORE PUSH1 0x40 DUP1 DUP4 KECCAK256 SWAP5 DUP4 MSTORE PUSH1 0xC SWAP1 SWAP5 ADD DUP2 MSTORE DUP4 DUP3 KECCAK256 PUSH2 0xFFFF SWAP4 DUP5 AND DUP4 MSTORE DUP2 MSTORE SWAP1 DUP4 SWAP1 KECCAK256 DUP4 MLOAD PUSH1 0xC0 DUP2 ADD DUP6 MSTORE DUP2 SLOAD DUP1 DUP6 AND DUP3 MSTORE PUSH3 0x10000 SWAP1 DIV SWAP1 SWAP4 AND SWAP2 DUP4 ADD SWAP2 SWAP1 SWAP2 MSTORE PUSH1 0x1 DUP2 ADD SLOAD SWAP3 DUP3 ADD SWAP3 SWAP1 SWAP3 MSTORE PUSH1 0x2 DUP3 ADD SLOAD SWAP1 SWAP3 AND PUSH1 0x60 DUP4 ADD MSTORE PUSH1 0x3 DUP2 ADD SLOAD PUSH1 0x80 DUP4 ADD MSTORE PUSH1 0x4 ADD SLOAD PUSH1 0xFF AND ISZERO ISZERO PUSH1 0xA0 DUP3 ADD MSTORE SWAP1 JUMP JUMPDEST PUSH2 0x2C94 PUSH2 0x2F10 JUMP JUMPDEST PUSH2 0xFFFF DUP4 DUP2 AND PUSH0 DUP2 DUP2 MSTORE PUSH1 0xB PUSH1 0x20 SWAP1 DUP2 MSTORE PUSH1 0x40 DUP1 DUP4 KECCAK256 SWAP5 DUP8 AND DUP1 DUP5 MSTORE SWAP5 DUP3 MSTORE SWAP2 DUP3 SWAP1 KECCAK256 DUP6 SWAP1 SSTORE DUP2 MLOAD SWAP3 DUP4 MSTORE DUP3 ADD SWAP3 SWAP1 SWAP3 MSTORE SWAP1 DUP2 ADD DUP3 SWAP1 MSTORE PUSH32 0x9D5C7C0B934DA8FEFA9C7760C98383778A12DFBFC0C3B3106518F43FB9508AC0 SWAP1 PUSH1 0x60 ADD PUSH1 0x40 MLOAD DUP1 SWAP2 SUB SWAP1 LOG1 POP POP POP JUMP JUMPDEST PUSH2 0x2D05 PUSH2 0x2F10 JUMP JUMPDEST PUSH2 0x2470 DUP4 DUP4 DUP4 PUSH2 0x3E3C JUMP JUMPDEST PUSH2 0x2D18 PUSH2 0x2F10 JUMP JUMPDEST PUSH1 0x1 PUSH1 0x1 PUSH1 0xA0 SHL SUB DUP2 AND PUSH2 0x2D41 JUMPI PUSH1 0x40 MLOAD PUSH4 0x1E4FBDF7 PUSH1 0xE0 SHL DUP2 MSTORE PUSH0 PUSH1 0x4 DUP3 ADD MSTORE PUSH1 0x24 ADD PUSH2 0xD91 JUMP JUMPDEST PUSH2 0x12AF DUP2 PUSH2 0x3C57 JUMP JUMPDEST PUSH1 0x9 SLOAD PUSH1 0x40 MLOAD PUSH4 0x3D7B2F6F PUSH1 0xE2 SHL DUP2 MSTORE PUSH2 0xFFFF DUP1 DUP8 AND PUSH1 0x4 DUP4 ADD MSTORE DUP6 AND PUSH1 0x24 DUP3 ADD MSTORE ADDRESS PUSH1 0x44 DUP3 ADD MSTORE PUSH1 0x64 DUP2 ADD DUP4 SWAP1 MSTORE PUSH1 0x60 SWAP2 PUSH1 0x1 PUSH1 0x1 PUSH1 0xA0 SHL SUB AND SWAP1 PUSH4 0xF5ECBDBC SWAP1 PUSH1 0x84 ADD PUSH0 PUSH1 0x40 MLOAD DUP1 DUP4 SUB DUP2 DUP7 GAS STATICCALL ISZERO DUP1 ISZERO PUSH2 0x2DA9 JUMPI RETURNDATASIZE PUSH0 DUP1 RETURNDATACOPY RETURNDATASIZE PUSH0 REVERT JUMPDEST POP POP POP POP PUSH1 0x40 MLOAD RETURNDATASIZE PUSH0 DUP3 RETURNDATACOPY PUSH1 0x1F RETURNDATASIZE SWAP1 DUP2 ADD PUSH1 0x1F NOT AND DUP3 ADD PUSH1 0x40 MSTORE PUSH2 0x2DD0 SWAP2 SWAP1 DUP2 ADD SWAP1 PUSH2 0x55AA JUMP JUMPDEST SWAP6 SWAP5 POP POP POP POP POP JUMP JUMPDEST PUSH2 0x2E0C PUSH1 0x40 MLOAD DUP1 PUSH1 0xC0 ADD PUSH1 0x40 MSTORE DUP1 PUSH0 DUP2 MSTORE PUSH1 0x20 ADD PUSH0 DUP2 MSTORE PUSH1 0x20 ADD PUSH0 DUP2 MSTORE PUSH1 0x20 ADD PUSH0 DUP2 MSTORE PUSH1 0x20 ADD PUSH0 DUP2 MSTORE PUSH1 0x20 ADD PUSH0 DUP2 MSTORE POP SWAP1 JUMP JUMPDEST POP PUSH1 0x40 DUP1 MLOAD DUP1 DUP3 ADD DUP3 MSTORE PUSH0 DUP1 DUP3 MSTORE PUSH1 0x20 SWAP2 DUP3 ADD DUP2 SWAP1 MSTORE PUSH1 0x1 PUSH1 0x1 PUSH1 0xA0 SHL SUB SWAP4 DUP5 AND DUP2 MSTORE PUSH1 0x17 DUP3 MSTORE DUP3 SWAP1 KECCAK256 DUP3 MLOAD PUSH1 0xC0 DUP2 ADD DUP5 MSTORE DUP2 SLOAD DUP2 MSTORE PUSH1 0x1 DUP3 ADD SLOAD DUP2 DUP5 ADD MSTORE PUSH1 0x2 DUP3 ADD SLOAD DUP2 DUP6 ADD MSTORE PUSH1 0x3 DUP3 ADD SLOAD PUSH1 0x60 DUP3 ADD MSTORE PUSH1 0x4 DUP3 ADD SLOAD PUSH1 0x80 DUP3 ADD MSTORE PUSH1 0x5 DUP3 ADD SLOAD PUSH1 0xA0 DUP3 ADD MSTORE DUP4 MLOAD DUP1 DUP6 ADD SWAP1 SWAP5 MSTORE PUSH1 0xD SWAP1 SWAP2 ADD SLOAD PUSH1 0xFF DUP2 AND ISZERO ISZERO DUP5 MSTORE PUSH2 0x100 SWAP1 DIV SWAP1 SWAP4 AND SWAP1 DUP3 ADD MSTORE SWAP1 SWAP2 JUMP JUMPDEST PUSH0 DUP1 PUSH2 0x2EFA GAS PUSH1 0x96 PUSH4 0x66AD5C8A PUSH1 0xE0 SHL DUP10 DUP10 DUP10 DUP10 PUSH1 0x40 MLOAD PUSH1 0x24 ADD PUSH2 0x2EBF SWAP5 SWAP4 SWAP3 SWAP2 SWAP1 PUSH2 0x5910 JUMP JUMPDEST PUSH1 0x40 DUP1 MLOAD PUSH1 0x1F NOT DUP2 DUP5 SUB ADD DUP2 MSTORE SWAP2 SWAP1 MSTORE PUSH1 0x20 DUP2 ADD DUP1 MLOAD PUSH1 0x1 PUSH1 0x1 PUSH1 0xE0 SHL SUB AND PUSH1 0x1 PUSH1 0x1 PUSH1 0xE0 SHL SUB NOT SWAP1 SWAP4 AND SWAP3 SWAP1 SWAP3 OR SWAP1 SWAP2 MSTORE ADDRESS SWAP3 SWAP2 SWAP1 PUSH2 0x3E47 JUMP JUMPDEST SWAP2 POP SWAP2 POP DUP2 PUSH2 0x1747 JUMPI PUSH2 0x1747 DUP7 DUP7 DUP7 DUP7 DUP6 PUSH2 0x3ECB JUMP JUMPDEST PUSH1 0x5 SLOAD PUSH1 0x1 PUSH1 0x1 PUSH1 0xA0 SHL SUB AND CALLER EQ PUSH2 0x1F64 JUMPI PUSH1 0x40 MLOAD PUSH4 0x118CDAA7 PUSH1 0xE0 SHL DUP2 MSTORE CALLER PUSH1 0x4 DUP3 ADD MSTORE PUSH1 0x24 ADD PUSH2 0xD91 JUMP JUMPDEST PUSH0 DUP1 PUSH0 PUSH1 0x2 DUP5 DUP8 DUP8 PUSH1 0x40 MLOAD PUSH1 0x20 ADD PUSH2 0x2F58 SWAP5 SWAP4 SWAP3 SWAP2 SWAP1 PUSH2 0x594D JUMP JUMPDEST PUSH1 0x40 DUP1 MLOAD PUSH1 0x1F NOT DUP2 DUP5 SUB ADD DUP2 MSTORE DUP3 DUP3 MSTORE PUSH1 0x1 PUSH1 0x1 PUSH1 0xA0 SHL SUB DUP9 AND PUSH1 0x20 DUP5 ADD MSTORE SWAP1 DUP3 ADD DUP9 SWAP1 MSTORE SWAP2 POP PUSH0 SWAP1 PUSH1 0x60 ADD PUSH1 0x40 DUP1 MLOAD PUSH1 0x1F NOT DUP2 DUP5 SUB ADD DUP2 MSTORE DUP3 DUP3 MSTORE PUSH1 0x9 SLOAD PUSH4 0x3408E47 PUSH1 0xE4 SHL DUP5 MSTORE SWAP2 MLOAD SWAP1 SWAP4 POP PUSH1 0x1 PUSH1 0x1 PUSH1 0xA0 SHL SUB SWAP1 SWAP2 AND SWAP2 PUSH4 0x3408E470 SWAP2 PUSH1 0x4 DUP1 DUP4 ADD SWAP3 PUSH1 0x20 SWAP3 SWAP2 SWAP1 DUP3 SWAP1 SUB ADD DUP2 DUP7 GAS STATICCALL ISZERO DUP1 ISZERO PUSH2 0x2FDA JUMPI RETURNDATASIZE PUSH0 DUP1 RETURNDATACOPY RETURNDATASIZE PUSH0 REVERT JUMPDEST POP POP POP POP PUSH1 0x40 MLOAD RETURNDATASIZE PUSH1 0x1F NOT PUSH1 0x1F DUP3 ADD AND DUP3 ADD DUP1 PUSH1 0x40 MSTORE POP DUP2 ADD SWAP1 PUSH2 0x2FFE SWAP2 SWAP1 PUSH2 0x558F JUMP JUMPDEST PUSH2 0xFFFF AND DUP10 PUSH2 0xFFFF AND EQ PUSH2 0x3088 JUMPI PUSH1 0x9 SLOAD PUSH1 0x40 MLOAD PUSH4 0x40A7BB1 PUSH1 0xE4 SHL DUP2 MSTORE PUSH1 0x1 PUSH1 0x1 PUSH1 0xA0 SHL SUB SWAP1 SWAP2 AND SWAP1 PUSH4 0x40A7BB10 SWAP1 PUSH2 0x3044 SWAP1 DUP13 SWAP1 ADDRESS SWAP1 DUP7 SWAP1 DUP15 SWAP1 DUP10 SWAP1 PUSH1 0x4 ADD PUSH2 0x5989 JUMP JUMPDEST PUSH1 0x40 DUP1 MLOAD DUP1 DUP4 SUB DUP2 DUP7 GAS STATICCALL ISZERO DUP1 ISZERO PUSH2 0x305E JUMPI RETURNDATASIZE PUSH0 DUP1 RETURNDATACOPY RETURNDATASIZE PUSH0 REVERT JUMPDEST POP POP POP POP PUSH1 0x40 MLOAD RETURNDATASIZE PUSH1 0x1F NOT PUSH1 0x1F DUP3 ADD AND DUP3 ADD DUP1 PUSH1 0x40 MSTORE POP DUP2 ADD SWAP1 PUSH2 0x3082 SWAP2 SWAP1 PUSH2 0x5887 JUMP JUMPDEST SWAP1 SWAP5 POP SWAP3 POP JUMPDEST PUSH2 0x3092 DUP8 DUP6 PUSH2 0x4755 JUMP JUMPDEST SWAP4 POP POP POP SWAP6 POP SWAP6 SWAP4 POP POP POP POP JUMP JUMPDEST PUSH1 0x1 SLOAD PUSH1 0x40 DUP1 MLOAD PUSH4 0x4D4502C9 PUSH1 0xE1 SHL DUP2 MSTORE SWAP1 MLOAD PUSH0 SWAP3 PUSH1 0x1 PUSH1 0x1 PUSH1 0xA0 SHL SUB AND SWAP2 PUSH4 0x9A8A0592 SWAP2 PUSH1 0x4 DUP1 DUP4 ADD SWAP3 PUSH1 0x20 SWAP3 SWAP2 SWAP1 DUP3 SWAP1 SUB ADD DUP2 DUP7 GAS STATICCALL ISZERO DUP1 ISZERO PUSH2 0x30E7 JUMPI RETURNDATASIZE PUSH0 DUP1 RETURNDATACOPY RETURNDATASIZE PUSH0 REVERT JUMPDEST POP POP POP POP PUSH1 0x40 MLOAD RETURNDATASIZE PUSH1 0x1F NOT PUSH1 0x1F DUP3 ADD AND DUP3 ADD DUP1 PUSH1 0x40 MSTORE POP DUP2 ADD SWAP1 PUSH2 0x310B SWAP2 SWAP1 PUSH2 0x558F JUMP JUMPDEST PUSH2 0xFFFF AND DUP4 PUSH2 0xFFFF AND EQ PUSH2 0x3194 JUMPI PUSH1 0x4 DUP1 SLOAD PUSH1 0x40 MLOAD PUSH4 0xFF8F143 PUSH1 0xE1 SHL DUP2 MSTORE PUSH2 0xFFFF DUP7 AND SWAP3 DUP2 ADD SWAP3 SWAP1 SWAP3 MSTORE PUSH1 0x24 DUP3 ADD DUP5 SWAP1 MSTORE PUSH1 0x1 PUSH1 0x1 PUSH1 0xA0 SHL SUB AND SWAP1 PUSH4 0x1FF1E286 SWAP1 PUSH1 0x44 ADD PUSH1 0x20 PUSH1 0x40 MLOAD DUP1 DUP4 SUB DUP2 DUP7 GAS STATICCALL ISZERO DUP1 ISZERO PUSH2 0x316B JUMPI RETURNDATASIZE PUSH0 DUP1 RETURNDATACOPY RETURNDATASIZE PUSH0 REVERT JUMPDEST POP POP POP POP PUSH1 0x40 MLOAD RETURNDATASIZE PUSH1 0x1F NOT PUSH1 0x1F DUP3 ADD AND DUP3 ADD DUP1 PUSH1 0x40 MSTORE POP DUP2 ADD SWAP1 PUSH2 0x318F SWAP2 SWAP1 PUSH2 0x59DC JUMP JUMPDEST PUSH2 0x26EB JUMP JUMPDEST PUSH2 0x26EB DUP3 PUSH2 0x3F65 JUMP JUMPDEST PUSH1 0x40 DUP1 MLOAD PUSH1 0x4 DUP2 MSTORE PUSH1 0x24 DUP2 ADD DUP3 MSTORE PUSH1 0x20 DUP2 ADD DUP1 MLOAD PUSH1 0x1 PUSH1 0x1 PUSH1 0xE0 SHL SUB AND PUSH4 0x313CE567 PUSH1 0xE0 SHL OR SWAP1 MSTORE SWAP1 MLOAD PUSH0 SWAP2 DUP3 SWAP2 PUSH1 0x1 PUSH1 0x1 PUSH1 0xA0 SHL SUB DUP6 AND SWAP2 PUSH2 0x31DF SWAP2 PUSH2 0x59F7 JUMP JUMPDEST PUSH0 PUSH1 0x40 MLOAD DUP1 DUP4 SUB DUP2 DUP6 GAS STATICCALL SWAP2 POP POP RETURNDATASIZE DUP1 PUSH0 DUP2 EQ PUSH2 0x3217 JUMPI PUSH1 0x40 MLOAD SWAP2 POP PUSH1 0x1F NOT PUSH1 0x3F RETURNDATASIZE ADD AND DUP3 ADD PUSH1 0x40 MSTORE RETURNDATASIZE DUP3 MSTORE RETURNDATASIZE PUSH0 PUSH1 0x20 DUP5 ADD RETURNDATACOPY PUSH2 0x321C JUMP JUMPDEST PUSH1 0x60 SWAP2 POP JUMPDEST POP SWAP2 POP POP DUP1 DUP1 PUSH1 0x20 ADD SWAP1 MLOAD DUP2 ADD SWAP1 PUSH2 0x26EB SWAP2 SWAP1 PUSH2 0x5A12 JUMP JUMPDEST PUSH0 SLOAD PUSH1 0x1 PUSH1 0x1 PUSH1 0xA0 SHL SUB AND CALLER EQ PUSH2 0x3298 JUMPI PUSH1 0x40 MLOAD PUSH3 0x461BCD PUSH1 0xE5 SHL DUP2 MSTORE PUSH1 0x20 PUSH1 0x4 DUP3 ADD MSTORE PUSH1 0x22 PUSH1 0x24 DUP3 ADD MSTORE PUSH32 0x4D73672E73656E646572206973206E6F7420576F726D686F6C652052656C6179 PUSH1 0x44 DUP3 ADD MSTORE PUSH2 0x32B9 PUSH1 0xF1 SHL PUSH1 0x64 DUP3 ADD MSTORE PUSH1 0x84 ADD PUSH2 0xD91 JUMP JUMPDEST PUSH2 0x32A6 DUP7 DUP7 DUP7 DUP7 DUP7 DUP7 PUSH2 0x3F90 JUMP JUMPDEST PUSH0 DUP7 DUP1 PUSH1 0x20 ADD SWAP1 MLOAD DUP2 ADD SWAP1 PUSH2 0x32BB SWAP2 SWAP1 PUSH2 0x59DC JUMP JUMPDEST SWAP1 POP PUSH0 PUSH1 0x40 MLOAD DUP1 PUSH1 0xE0 ADD PUSH1 0x40 MSTORE DUP1 DUP7 PUSH2 0xFFFF AND DUP2 MSTORE PUSH1 0x20 ADD PUSH1 0x1 PUSH0 SWAP1 SLOAD SWAP1 PUSH2 0x100 EXP SWAP1 DIV PUSH1 0x1 PUSH1 0x1 PUSH1 0xA0 SHL SUB AND PUSH1 0x1 PUSH1 0x1 PUSH1 0xA0 SHL SUB AND PUSH4 0x9A8A0592 PUSH1 0x40 MLOAD DUP2 PUSH4 0xFFFFFFFF AND PUSH1 0xE0 SHL DUP2 MSTORE PUSH1 0x4 ADD PUSH1 0x20 PUSH1 0x40 MLOAD DUP1 DUP4 SUB DUP2 DUP7 GAS STATICCALL ISZERO DUP1 ISZERO PUSH2 0x3323 JUMPI RETURNDATASIZE PUSH0 DUP1 RETURNDATACOPY RETURNDATASIZE PUSH0 REVERT JUMPDEST POP POP POP POP PUSH1 0x40 MLOAD RETURNDATASIZE PUSH1 0x1F NOT PUSH1 0x1F DUP3 ADD AND DUP3 ADD DUP1 PUSH1 0x40 MSTORE POP DUP2 ADD SWAP1 PUSH2 0x3347 SWAP2 SWAP1 PUSH2 0x558F JUMP JUMPDEST PUSH2 0xFFFF AND DUP2 MSTORE PUSH1 0x20 ADD DUP9 PUSH0 DUP2 MLOAD DUP2 LT PUSH2 0x3362 JUMPI PUSH2 0x3362 PUSH2 0x5261 JUMP JUMPDEST PUSH1 0x20 MUL PUSH1 0x20 ADD ADD MLOAD PUSH1 0x40 ADD MLOAD PUSH1 0x1 PUSH1 0x1 PUSH1 0xA0 SHL SUB AND DUP2 MSTORE PUSH1 0x20 ADD DUP9 PUSH0 DUP2 MLOAD DUP2 LT PUSH2 0x338E JUMPI PUSH2 0x338E PUSH2 0x5261 JUMP JUMPDEST PUSH1 0x20 SWAP1 DUP2 MUL SWAP2 SWAP1 SWAP2 ADD DUP2 ADD MLOAD PUSH1 0x60 SWAP1 DUP2 ADD MLOAD DUP4 MSTORE PUSH1 0x1 PUSH1 0x1 PUSH1 0xA0 SHL SUB DUP1 DUP8 AND DUP5 DUP5 ADD MSTORE TIMESTAMP PUSH1 0x40 DUP1 DUP7 ADD SWAP2 SWAP1 SWAP2 MSTORE PUSH1 0x1 SWAP5 DUP4 ADD DUP6 SWAP1 MSTORE PUSH1 0x11 SLOAD PUSH0 SWAP1 DUP2 MSTORE PUSH1 0x19 DUP6 MSTORE DUP2 SWAP1 KECCAK256 DUP1 SLOAD PUSH1 0xFF NOT SWAP1 DUP2 AND SWAP1 SWAP7 OR DUP2 SSTORE DUP7 MLOAD PUSH1 0x6 DUP3 ADD DUP1 SLOAD DUP10 DUP9 ADD MLOAD SWAP5 DUP11 ADD MLOAD DUP7 AND PUSH5 0x100000000 MUL PUSH5 0x100000000 PUSH1 0x1 PUSH1 0xC0 SHL SUB NOT PUSH2 0xFFFF SWAP7 DUP8 AND PUSH3 0x10000 MUL PUSH4 0xFFFFFFFF NOT SWAP1 SWAP4 AND SWAP7 SWAP1 SWAP5 AND SWAP6 SWAP1 SWAP6 OR OR SWAP2 SWAP1 SWAP2 AND SWAP3 SWAP1 SWAP3 OR SWAP1 SWAP2 SSTORE SWAP2 DUP6 ADD MLOAD PUSH1 0x7 DUP4 ADD SSTORE PUSH1 0x80 DUP6 ADD MLOAD PUSH1 0x8 DUP4 ADD DUP1 SLOAD SWAP2 SWAP1 SWAP3 AND PUSH1 0x1 PUSH1 0x1 PUSH1 0xA0 SHL SUB NOT SWAP1 SWAP2 AND OR SWAP1 SSTORE PUSH1 0xA0 DUP5 ADD MLOAD PUSH1 0x9 DUP3 ADD SSTORE PUSH1 0xC0 DUP5 ADD MLOAD PUSH1 0xA DUP3 ADD DUP1 SLOAD SWAP2 ISZERO ISZERO SWAP2 SWAP1 SWAP5 AND OR SWAP1 SWAP3 SSTORE DUP6 MLOAD SWAP3 SWAP4 POP SWAP1 SWAP2 PUSH2 0x348C SWAP2 PUSH1 0xB DUP5 ADD SWAP2 SWAP1 DUP8 ADD SWAP1 PUSH2 0x46C1 JUMP JUMPDEST POP PUSH1 0x1 PUSH1 0x11 PUSH0 DUP3 DUP3 SLOAD PUSH2 0x349F SWAP2 SWAP1 PUSH2 0x4755 JUMP JUMPDEST SWAP1 SWAP2 SSTORE POP POP PUSH1 0x1 PUSH1 0x1 PUSH1 0xA0 SHL SUB DUP4 DUP2 AND PUSH0 DUP2 DUP2 MSTORE PUSH1 0x17 PUSH1 0x20 DUP2 DUP2 MSTORE PUSH1 0x40 DUP1 DUP5 KECCAK256 DUP12 DUP6 MSTORE PUSH1 0x8 DUP2 ADD DUP4 MSTORE DUP2 DUP6 KECCAK256 DUP10 MLOAD DUP2 SLOAD DUP12 DUP7 ADD MLOAD DUP13 DUP7 ADD MLOAD PUSH2 0xFFFF SWAP4 DUP5 AND PUSH4 0xFFFFFFFF NOT SWAP1 SWAP4 AND SWAP3 SWAP1 SWAP3 OR PUSH3 0x10000 SWAP2 DUP5 AND SWAP2 SWAP1 SWAP2 MUL OR PUSH5 0x100000000 PUSH1 0x1 PUSH1 0xC0 SHL SUB NOT AND PUSH5 0x100000000 SWAP2 DUP12 AND SWAP2 SWAP1 SWAP2 MUL OR DUP3 SSTORE PUSH1 0x60 DUP12 ADD MLOAD PUSH1 0x1 DUP1 DUP5 ADD SWAP2 SWAP1 SWAP2 SSTORE PUSH1 0x80 DUP13 ADD MLOAD PUSH1 0x2 DUP5 ADD DUP1 SLOAD PUSH1 0x1 PUSH1 0x1 PUSH1 0xA0 SHL SUB NOT AND SWAP2 SWAP1 SWAP12 AND OR SWAP1 SWAP10 SSTORE PUSH1 0xA0 DUP12 ADD MLOAD PUSH1 0x3 DUP1 DUP5 ADD SWAP2 SWAP1 SWAP2 SSTORE PUSH1 0xC0 DUP13 ADD MLOAD PUSH1 0x4 SWAP1 SWAP4 ADD DUP1 SLOAD PUSH1 0xFF NOT AND SWAP4 ISZERO ISZERO SWAP4 SWAP1 SWAP4 OR SWAP1 SWAP3 SSTORE SWAP1 DUP3 ADD DUP1 SLOAD DUP8 MSTORE PUSH1 0xA SWAP1 SWAP3 ADD DUP5 MSTORE DUP3 DUP7 KECCAK256 SWAP1 DUP15 AND DUP7 MSTORE DUP4 MSTORE SWAP1 DUP5 KECCAK256 DUP12 SWAP1 SSTORE SWAP4 DUP4 MSTORE MSTORE DUP2 SLOAD PUSH2 0x3596 SWAP1 DUP5 SWAP1 PUSH2 0x4755 JUMP JUMPDEST SWAP1 SWAP2 SSTORE POP POP POP POP POP POP POP POP POP POP POP JUMP JUMPDEST PUSH0 DUP1 DUP3 DUP1 PUSH1 0x20 ADD SWAP1 MLOAD DUP2 ADD SWAP1 PUSH2 0x35BC SWAP2 SWAP1 PUSH2 0x5A2D JUMP JUMPDEST SWAP2 POP SWAP2 POP PUSH0 PUSH1 0x40 MLOAD DUP1 PUSH1 0xC0 ADD PUSH1 0x40 MSTORE DUP1 DUP9 PUSH2 0xFFFF AND DUP2 MSTORE PUSH1 0x20 ADD PUSH1 0x9 PUSH0 SWAP1 SLOAD SWAP1 PUSH2 0x100 EXP SWAP1 DIV PUSH1 0x1 PUSH1 0x1 PUSH1 0xA0 SHL SUB AND PUSH1 0x1 PUSH1 0x1 PUSH1 0xA0 SHL SUB AND PUSH4 0x3408E470 PUSH1 0x40 MLOAD DUP2 PUSH4 0xFFFFFFFF AND PUSH1 0xE0 SHL DUP2 MSTORE PUSH1 0x4 ADD PUSH1 0x20 PUSH1 0x40 MLOAD DUP1 DUP4 SUB DUP2 DUP7 GAS STATICCALL ISZERO DUP1 ISZERO PUSH2 0x3626 JUMPI RETURNDATASIZE PUSH0 DUP1 RETURNDATACOPY RETURNDATASIZE PUSH0 REVERT JUMPDEST POP POP POP POP PUSH1 0x40 MLOAD RETURNDATASIZE PUSH1 0x1F NOT PUSH1 0x1F DUP3 ADD AND DUP3 ADD DUP1 PUSH1 0x40 MSTORE POP DUP2 ADD SWAP1 PUSH2 0x364A SWAP2 SWAP1 PUSH2 0x558F JUMP JUMPDEST PUSH2 0xFFFF AND DUP2 MSTORE PUSH1 0x20 ADD DUP4 DUP2 MSTORE PUSH1 0x20 ADD DUP5 PUSH1 0x1 PUSH1 0x1 PUSH1 0xA0 SHL SUB AND DUP2 MSTORE PUSH1 0x20 ADD TIMESTAMP DUP2 MSTORE PUSH1 0x20 ADD PUSH1 0x1 ISZERO ISZERO DUP2 MSTORE POP SWAP1 POP PUSH0 PUSH1 0x19 PUSH0 PUSH1 0x11 SLOAD DUP2 MSTORE PUSH1 0x20 ADD SWAP1 DUP2 MSTORE PUSH1 0x20 ADD PUSH0 KECCAK256 SWAP1 POP PUSH1 0x1 DUP2 PUSH0 ADD PUSH0 PUSH2 0x100 EXP DUP2 SLOAD DUP2 PUSH1 0xFF MUL NOT AND SWAP1 DUP4 ISZERO ISZERO MUL OR SWAP1 SSTORE POP DUP2 DUP2 PUSH1 0x1 ADD PUSH0 DUP3 ADD MLOAD DUP2 PUSH0 ADD PUSH0 PUSH2 0x100 EXP DUP2 SLOAD DUP2 PUSH2 0xFFFF MUL NOT AND SWAP1 DUP4 PUSH2 0xFFFF AND MUL OR SWAP1 SSTORE POP PUSH1 0x20 DUP3 ADD MLOAD DUP2 PUSH0 ADD PUSH1 0x2 PUSH2 0x100 EXP DUP2 SLOAD DUP2 PUSH2 0xFFFF MUL NOT AND SWAP1 DUP4 PUSH2 0xFFFF AND MUL OR SWAP1 SSTORE POP PUSH1 0x40 DUP3 ADD MLOAD DUP2 PUSH1 0x1 ADD SSTORE PUSH1 0x60 DUP3 ADD MLOAD DUP2 PUSH1 0x2 ADD PUSH0 PUSH2 0x100 EXP DUP2 SLOAD DUP2 PUSH1 0x1 PUSH1 0x1 PUSH1 0xA0 SHL SUB MUL NOT AND SWAP1 DUP4 PUSH1 0x1 PUSH1 0x1 PUSH1 0xA0 SHL SUB AND MUL OR SWAP1 SSTORE POP PUSH1 0x80 DUP3 ADD MLOAD DUP2 PUSH1 0x3 ADD SSTORE PUSH1 0xA0 DUP3 ADD MLOAD DUP2 PUSH1 0x4 ADD PUSH0 PUSH2 0x100 EXP DUP2 SLOAD DUP2 PUSH1 0xFF MUL NOT AND SWAP1 DUP4 ISZERO ISZERO MUL OR SWAP1 SSTORE POP SWAP1 POP POP DUP2 PUSH1 0x17 PUSH0 DUP7 PUSH1 0x1 PUSH1 0x1 PUSH1 0xA0 SHL SUB AND PUSH1 0x1 PUSH1 0x1 PUSH1 0xA0 SHL SUB AND DUP2 MSTORE PUSH1 0x20 ADD SWAP1 DUP2 MSTORE PUSH1 0x20 ADD PUSH0 KECCAK256 PUSH1 0x6 ADD PUSH1 0x6 ADD PUSH0 PUSH1 0x17 PUSH0 DUP9 PUSH1 0x1 PUSH1 0x1 PUSH1 0xA0 SHL SUB AND PUSH1 0x1 PUSH1 0x1 PUSH1 0xA0 SHL SUB AND DUP2 MSTORE PUSH1 0x20 ADD SWAP1 DUP2 MSTORE PUSH1 0x20 ADD PUSH0 KECCAK256 PUSH0 ADD PUSH1 0x1 ADD SLOAD DUP2 MSTORE PUSH1 0x20 ADD SWAP1 DUP2 MSTORE PUSH1 0x20 ADD PUSH0 KECCAK256 PUSH0 DUP11 PUSH2 0xFFFF AND PUSH2 0xFFFF AND DUP2 MSTORE PUSH1 0x20 ADD SWAP1 DUP2 MSTORE PUSH1 0x20 ADD PUSH0 KECCAK256 PUSH0 DUP3 ADD MLOAD DUP2 PUSH0 ADD PUSH0 PUSH2 0x100 EXP DUP2 SLOAD DUP2 PUSH2 0xFFFF MUL NOT AND SWAP1 DUP4 PUSH2 0xFFFF AND MUL OR SWAP1 SSTORE POP PUSH1 0x20 DUP3 ADD MLOAD DUP2 PUSH0 ADD PUSH1 0x2 PUSH2 0x100 EXP DUP2 SLOAD DUP2 PUSH2 0xFFFF MUL NOT AND SWAP1 DUP4 PUSH2 0xFFFF AND MUL OR SWAP1 SSTORE POP PUSH1 0x40 DUP3 ADD MLOAD DUP2 PUSH1 0x1 ADD SSTORE PUSH1 0x60 DUP3 ADD MLOAD DUP2 PUSH1 0x2 ADD PUSH0 PUSH2 0x100 EXP DUP2 SLOAD DUP2 PUSH1 0x1 PUSH1 0x1 PUSH1 0xA0 SHL SUB MUL NOT AND SWAP1 DUP4 PUSH1 0x1 PUSH1 0x1 PUSH1 0xA0 SHL SUB AND MUL OR SWAP1 SSTORE POP PUSH1 0x80 DUP3 ADD MLOAD DUP2 PUSH1 0x3 ADD SSTORE PUSH1 0xA0 DUP3 ADD MLOAD DUP2 PUSH1 0x4 ADD PUSH0 PUSH2 0x100 EXP DUP2 SLOAD DUP2 PUSH1 0xFF MUL NOT AND SWAP1 DUP4 ISZERO ISZERO MUL OR SWAP1 SSTORE POP SWAP1 POP POP PUSH1 0x1 PUSH1 0x17 PUSH0 DUP7 PUSH1 0x1 PUSH1 0x1 PUSH1 0xA0 SHL SUB AND PUSH1 0x1 PUSH1 0x1 PUSH1 0xA0 SHL SUB AND DUP2 MSTORE PUSH1 0x20 ADD SWAP1 DUP2 MSTORE PUSH1 0x20 ADD PUSH0 KECCAK256 PUSH0 ADD PUSH1 0x1 ADD PUSH0 DUP3 DUP3 SLOAD PUSH2 0x38A5 SWAP2 SWAP1 PUSH2 0x4755 JUMP JUMPDEST SWAP3 POP POP DUP2 SWAP1 SSTORE POP PUSH1 0x1 PUSH1 0x11 PUSH0 DUP3 DUP3 SLOAD PUSH2 0x38BE SWAP2 SWAP1 PUSH2 0x4755 JUMP JUMPDEST SWAP1 SWAP2 SSTORE POP POP POP POP POP POP POP POP POP POP JUMP JUMPDEST PUSH1 0xF SLOAD PUSH0 SWAP1 DUP2 SWAP1 DUP2 SWAP1 PUSH1 0x64 SWAP1 PUSH2 0x38ED SWAP1 PUSH1 0x1 PUSH1 0xA0 SHL SWAP1 DIV PUSH1 0xFF AND DUP7 PUSH2 0x56E2 JUMP JUMPDEST PUSH2 0x38F7 SWAP2 SWAP1 PUSH2 0x5753 JUMP JUMPDEST PUSH1 0xF SLOAD PUSH1 0x40 MLOAD SWAP2 SWAP3 POP PUSH1 0x1 PUSH1 0x1 PUSH1 0xA0 SHL SUB AND SWAP1 DUP3 ISZERO PUSH2 0x8FC MUL SWAP1 DUP4 SWAP1 PUSH0 DUP2 DUP2 DUP2 DUP6 DUP9 DUP9 CALL SWAP4 POP POP POP POP ISZERO DUP1 ISZERO PUSH2 0x392F JUMPI RETURNDATASIZE PUSH0 DUP1 RETURNDATACOPY RETURNDATASIZE PUSH0 REVERT JUMPDEST POP PUSH2 0x393A DUP2 DUP6 PUSH2 0x5711 JUMP JUMPDEST SWAP5 SWAP1 SWAP4 POP SWAP2 POP POP JUMP JUMPDEST PUSH1 0x40 DUP1 MLOAD PUSH1 0x1 DUP1 DUP3 MSTORE DUP2 DUP4 ADD SWAP1 SWAP3 MSTORE PUSH0 SWAP2 DUP3 SWAP2 SWAP1 DUP2 PUSH1 0x20 ADD JUMPDEST PUSH1 0x40 DUP1 MLOAD PUSH1 0x60 DUP2 ADD DUP3 MSTORE PUSH0 DUP1 DUP3 MSTORE PUSH1 0x20 DUP1 DUP4 ADD DUP3 SWAP1 MSTORE SWAP3 DUP3 ADD MSTORE DUP3 MSTORE PUSH0 NOT SWAP1 SWAP3 ADD SWAP2 ADD DUP2 PUSH2 0x395C JUMPI SWAP1 POP POP SWAP1 POP PUSH2 0x39A4 DUP7 DUP7 DUP14 DUP14 PUSH1 0x40 MLOAD DUP1 PUSH1 0x20 ADD PUSH1 0x40 MSTORE DUP1 PUSH0 DUP2 MSTORE POP PUSH2 0x4119 JUMP JUMPDEST DUP2 PUSH0 DUP2 MLOAD DUP2 LT PUSH2 0x39B6 JUMPI PUSH2 0x39B6 PUSH2 0x5261 JUMP JUMPDEST PUSH1 0x20 SWAP1 DUP2 MUL SWAP2 SWAP1 SWAP2 ADD ADD MSTORE PUSH0 DUP1 SLOAD PUSH1 0x40 MLOAD PUSH4 0xC23EE3C3 PUSH1 0xE0 SHL DUP2 MSTORE PUSH2 0xFFFF DUP15 AND PUSH1 0x4 DUP3 ADD MSTORE PUSH1 0x24 DUP2 ADD DUP12 SWAP1 MSTORE PUSH1 0x44 DUP2 ADD DUP11 SWAP1 MSTORE PUSH1 0x1 PUSH1 0x1 PUSH1 0xA0 SHL SUB SWAP1 SWAP2 AND SWAP1 PUSH4 0xC23EE3C3 SWAP1 PUSH1 0x64 ADD PUSH1 0x40 DUP1 MLOAD DUP1 DUP4 SUB DUP2 DUP7 GAS STATICCALL ISZERO DUP1 ISZERO PUSH2 0x3A18 JUMPI RETURNDATASIZE PUSH0 DUP1 RETURNDATACOPY RETURNDATASIZE PUSH0 REVERT JUMPDEST POP POP POP POP PUSH1 0x40 MLOAD RETURNDATASIZE PUSH1 0x1F NOT PUSH1 0x1F DUP3 ADD AND DUP3 ADD DUP1 PUSH1 0x40 MSTORE POP DUP2 ADD SWAP1 PUSH2 0x3A3C SWAP2 SWAP1 PUSH2 0x5887 JUMP JUMPDEST POP SWAP1 POP PUSH0 DUP1 SLOAD SWAP1 PUSH2 0x100 EXP SWAP1 DIV PUSH1 0x1 PUSH1 0x1 PUSH1 0xA0 SHL SUB AND PUSH1 0x1 PUSH1 0x1 PUSH1 0xA0 SHL SUB AND PUSH4 0x32B2FC0E DUP3 DUP15 DUP15 DUP15 DUP15 DUP15 DUP10 DUP14 DUP14 PUSH1 0x40 MLOAD DUP11 PUSH4 0xFFFFFFFF AND PUSH1 0xE0 SHL DUP2 MSTORE PUSH1 0x4 ADD PUSH2 0x3A8C SWAP9 SWAP8 SWAP7 SWAP6 SWAP5 SWAP4 SWAP3 SWAP2 SWAP1 PUSH2 0x5A59 JUMP JUMPDEST PUSH1 0x20 PUSH1 0x40 MLOAD DUP1 DUP4 SUB DUP2 DUP6 DUP9 GAS CALL ISZERO DUP1 ISZERO PUSH2 0x3AA8 JUMPI RETURNDATASIZE PUSH0 DUP1 RETURNDATACOPY RETURNDATASIZE PUSH0 REVERT JUMPDEST POP POP POP POP POP PUSH1 0x40 MLOAD RETURNDATASIZE PUSH1 0x1F NOT PUSH1 0x1F DUP3 ADD AND DUP3 ADD DUP1 PUSH1 0x40 MSTORE POP DUP2 ADD SWAP1 PUSH2 0x3ACD SWAP2 SWAP1 PUSH2 0x5B14 JUMP JUMPDEST SWAP3 POP POP POP JUMPDEST SWAP10 SWAP9 POP POP POP POP POP POP POP POP POP JUMP JUMPDEST PUSH1 0x1 PUSH1 0x1 PUSH1 0xA0 SHL SUB DUP3 AND PUSH0 SWAP1 DUP2 MSTORE PUSH1 0x17 PUSH1 0x20 MSTORE PUSH1 0x40 SWAP1 KECCAK256 PUSH1 0x1 ADD SLOAD ISZERO DUP1 ISZERO PUSH2 0x3B1C JUMPI POP PUSH1 0x1 PUSH1 0x1 PUSH1 0xA0 SHL SUB DUP3 AND PUSH0 SWAP1 DUP2 MSTORE PUSH1 0x17 PUSH1 0x20 MSTORE PUSH1 0x40 SWAP1 KECCAK256 SLOAD ISZERO JUMPDEST DUP1 PUSH2 0x3B62 JUMPI POP PUSH1 0x1 PUSH1 0x1 PUSH1 0xA0 SHL SUB DUP3 AND PUSH0 SWAP1 DUP2 MSTORE PUSH1 0x17 PUSH1 0x20 MSTORE PUSH1 0x40 SWAP1 KECCAK256 PUSH1 0x3 ADD SLOAD ISZERO DUP1 ISZERO PUSH2 0x3B62 JUMPI POP PUSH1 0x1 PUSH1 0x1 PUSH1 0xA0 SHL SUB DUP3 AND PUSH0 SWAP1 DUP2 MSTORE PUSH1 0x17 PUSH1 0x20 MSTORE PUSH1 0x40 SWAP1 KECCAK256 PUSH1 0x2 ADD SLOAD ISZERO JUMPDEST DUP1 ISZERO PUSH2 0x3B89 JUMPI POP PUSH1 0x1 PUSH1 0x1 PUSH1 0xA0 SHL SUB DUP3 AND PUSH0 SWAP1 DUP2 MSTORE PUSH1 0x17 PUSH1 0x20 MSTORE PUSH1 0x40 SWAP1 KECCAK256 PUSH1 0xD ADD SLOAD PUSH1 0xFF AND ISZERO JUMPDEST ISZERO PUSH2 0x3BE7 JUMPI PUSH1 0x1 PUSH1 0x1 PUSH1 0xA0 SHL SUB DUP3 DUP2 AND PUSH0 SWAP1 DUP2 MSTORE PUSH1 0x17 PUSH1 0x20 MSTORE PUSH1 0x40 DUP1 DUP3 KECCAK256 PUSH1 0xD ADD DUP1 SLOAD PUSH1 0x1 PUSH1 0x1 PUSH1 0x1 PUSH1 0xA8 SHL SUB NOT SWAP1 SWAP2 AND PUSH2 0x100 SWAP6 DUP8 AND SWAP6 DUP7 MUL OR DUP2 OR SWAP1 SWAP2 SSTORE SWAP3 DUP3 MSTORE DUP2 KECCAK256 PUSH1 0x4 ADD DUP1 SLOAD SWAP1 SWAP2 SWAP1 PUSH2 0x3BE1 SWAP1 DUP5 SWAP1 PUSH2 0x4755 JUMP JUMPDEST SWAP1 SWAP2 SSTORE POP POP JUMPDEST PUSH1 0x1 PUSH1 0x1 PUSH1 0xA0 SHL SUB DUP3 DUP2 AND PUSH0 SWAP1 DUP2 MSTORE PUSH1 0x17 PUSH1 0x20 MSTORE PUSH1 0x40 SWAP1 KECCAK256 PUSH1 0xD ADD SLOAD PUSH2 0x100 SWAP1 DIV AND ISZERO PUSH2 0x17CF JUMPI PUSH1 0x12 SLOAD PUSH1 0x1 PUSH1 0x1 PUSH1 0xA0 SHL SUB DUP1 DUP5 AND PUSH0 SWAP1 DUP2 MSTORE PUSH1 0x17 PUSH1 0x20 MSTORE PUSH1 0x40 DUP1 DUP3 KECCAK256 PUSH1 0xD ADD SLOAD PUSH2 0x100 SWAP1 DIV SWAP1 SWAP3 AND DUP2 MSTORE SWAP1 DUP2 KECCAK256 PUSH1 0x5 ADD DUP1 SLOAD SWAP1 SWAP2 SWAP1 PUSH2 0x3C4E SWAP1 DUP5 SWAP1 PUSH2 0x4755 JUMP JUMPDEST SWAP1 SWAP2 SSTORE POP POP POP POP JUMP JUMPDEST PUSH1 0x5 DUP1 SLOAD PUSH1 0x1 PUSH1 0x1 PUSH1 0xA0 SHL SUB DUP4 DUP2 AND PUSH1 0x1 PUSH1 0x1 PUSH1 0xA0 SHL SUB NOT DUP4 AND DUP2 OR SWAP1 SWAP4 SSTORE PUSH1 0x40 MLOAD SWAP2 AND SWAP2 SWAP1 DUP3 SWAP1 PUSH32 0x8BE0079C531659141344CD1FD0A4F28419497F9722A3DAAFE3B4186F6B6457E0 SWAP1 PUSH0 SWAP1 LOG3 POP POP JUMP JUMPDEST PUSH0 DUP1 PUSH1 0x2 DUP6 DUP8 DUP10 PUSH1 0x40 MLOAD PUSH1 0x20 ADD PUSH2 0x3CC2 SWAP5 SWAP4 SWAP3 SWAP2 SWAP1 PUSH2 0x594D JUMP JUMPDEST PUSH1 0x40 DUP1 MLOAD DUP1 DUP4 SUB PUSH1 0x1F NOT ADD DUP2 MSTORE DUP3 DUP3 MSTORE PUSH1 0x1 PUSH1 0x1 PUSH1 0xA0 SHL SUB DUP11 AND PUSH1 0x20 DUP5 ADD MSTORE DUP3 DUP3 ADD DUP10 SWAP1 MSTORE DUP2 MLOAD DUP1 DUP5 SUB DUP4 ADD DUP2 MSTORE PUSH1 0x60 SWAP1 SWAP4 ADD SWAP1 SWAP2 MSTORE SWAP2 POP PUSH0 PUSH2 0x3D07 DUP11 DUP8 DUP6 DUP6 PUSH2 0x433A JUMP JUMPDEST SWAP1 POP PUSH2 0x3D20 DUP11 DUP4 CALLER DUP9 DUP8 PUSH2 0x3D1B DUP8 DUP16 PUSH2 0x4755 JUMP JUMPDEST PUSH2 0x4433 JUMP JUMPDEST POP PUSH1 0x1 SWAP10 SWAP9 POP POP POP POP POP POP POP POP POP JUMP JUMPDEST PUSH1 0x60 DUP2 PUSH2 0x3D3E DUP2 PUSH1 0x1F PUSH2 0x4755 JUMP JUMPDEST LT ISZERO PUSH2 0x3D7D JUMPI PUSH1 0x40 MLOAD PUSH3 0x461BCD PUSH1 0xE5 SHL DUP2 MSTORE PUSH1 0x20 PUSH1 0x4 DUP3 ADD MSTORE PUSH1 0xE PUSH1 0x24 DUP3 ADD MSTORE PUSH14 0x736C6963655F6F766572666C6F77 PUSH1 0x90 SHL PUSH1 0x44 DUP3 ADD MSTORE PUSH1 0x64 ADD PUSH2 0xD91 JUMP JUMPDEST PUSH2 0x3D87 DUP3 DUP5 PUSH2 0x4755 JUMP JUMPDEST DUP5 MLOAD LT ISZERO PUSH2 0x3DCB JUMPI PUSH1 0x40 MLOAD PUSH3 0x461BCD PUSH1 0xE5 SHL DUP2 MSTORE PUSH1 0x20 PUSH1 0x4 DUP3 ADD MSTORE PUSH1 0x11 PUSH1 0x24 DUP3 ADD MSTORE PUSH17 0x736C6963655F6F75744F66426F756E6473 PUSH1 0x78 SHL PUSH1 0x44 DUP3 ADD MSTORE PUSH1 0x64 ADD PUSH2 0xD91 JUMP JUMPDEST PUSH1 0x60 DUP3 ISZERO DUP1 ISZERO PUSH2 0x3DE9 JUMPI PUSH1 0x40 MLOAD SWAP2 POP PUSH0 DUP3 MSTORE PUSH1 0x20 DUP3 ADD PUSH1 0x40 MSTORE PUSH2 0x3E33 JUMP JUMPDEST PUSH1 0x40 MLOAD SWAP2 POP PUSH1 0x1F DUP5 AND DUP1 ISZERO PUSH1 0x20 MUL DUP2 DUP5 ADD ADD DUP6 DUP2 ADD DUP8 DUP4 ISZERO PUSH1 0x20 MUL DUP5 DUP12 ADD ADD ADD JUMPDEST DUP2 DUP4 LT ISZERO PUSH2 0x3E22 JUMPI DUP1 MLOAD DUP4 MSTORE PUSH1 0x20 SWAP3 DUP4 ADD SWAP3 ADD PUSH2 0x3E0A JUMP JUMPDEST POP POP DUP6 DUP5 MSTORE PUSH1 0x1F ADD PUSH1 0x1F NOT AND PUSH1 0x40 MSTORE POP JUMPDEST POP SWAP5 SWAP4 POP POP POP POP JUMP JUMPDEST PUSH2 0x2470 DUP4 DUP4 DUP4 PUSH2 0x45B4 JUMP JUMPDEST PUSH0 PUSH1 0x60 PUSH0 DUP1 PUSH0 DUP7 PUSH2 0xFFFF AND PUSH1 0x1 PUSH1 0x1 PUSH1 0x40 SHL SUB DUP2 GT ISZERO PUSH2 0x3E69 JUMPI PUSH2 0x3E69 PUSH2 0x4AC6 JUMP JUMPDEST PUSH1 0x40 MLOAD SWAP1 DUP1 DUP3 MSTORE DUP1 PUSH1 0x1F ADD PUSH1 0x1F NOT AND PUSH1 0x20 ADD DUP3 ADD PUSH1 0x40 MSTORE DUP1 ISZERO PUSH2 0x3E93 JUMPI PUSH1 0x20 DUP3 ADD DUP2 DUP1 CALLDATASIZE DUP4 CALLDATACOPY ADD SWAP1 POP JUMPDEST POP SWAP1 POP PUSH0 DUP1 DUP8 MLOAD PUSH1 0x20 DUP10 ADD PUSH0 DUP14 DUP14 CALL SWAP2 POP RETURNDATASIZE SWAP3 POP DUP7 DUP4 GT ISZERO PUSH2 0x3EB3 JUMPI DUP7 SWAP3 POP JUMPDEST DUP3 DUP2 MSTORE DUP3 PUSH0 PUSH1 0x20 DUP4 ADD RETURNDATACOPY SWAP1 SWAP9 SWAP1 SWAP8 POP SWAP6 POP POP POP POP POP POP JUMP JUMPDEST DUP2 DUP1 MLOAD SWAP1 PUSH1 0x20 ADD KECCAK256 PUSH1 0xE PUSH0 DUP8 PUSH2 0xFFFF AND PUSH2 0xFFFF AND DUP2 MSTORE PUSH1 0x20 ADD SWAP1 DUP2 MSTORE PUSH1 0x20 ADD PUSH0 KECCAK256 DUP6 PUSH1 0x40 MLOAD PUSH2 0x3EFA SWAP2 SWAP1 PUSH2 0x59F7 JUMP JUMPDEST SWAP1 DUP2 MSTORE PUSH1 0x40 DUP1 MLOAD SWAP2 DUP3 SWAP1 SUB PUSH1 0x20 SWAP1 DUP2 ADD DUP4 KECCAK256 PUSH1 0x1 PUSH1 0x1 PUSH1 0x40 SHL SUB DUP9 AND PUSH0 SWAP1 DUP2 MSTORE SWAP2 MSTORE KECCAK256 SWAP2 SWAP1 SWAP2 SSTORE PUSH32 0xE183F33DE2837795525B4792CA4CD60535BD77C53B7E7030060BFCF5734D6B0C SWAP1 PUSH2 0x3F56 SWAP1 DUP8 SWAP1 DUP8 SWAP1 DUP8 SWAP1 DUP8 SWAP1 DUP8 SWAP1 PUSH2 0x5B2F JUMP JUMPDEST PUSH1 0x40 MLOAD DUP1 SWAP2 SUB SWAP1 LOG1 POP POP POP POP POP JUMP JUMPDEST PUSH0 PUSH1 0xA0 DUP3 SWAP1 SHR ISZERO PUSH2 0x3F8C JUMPI PUSH1 0x40 MLOAD PUSH4 0x33B960D PUSH1 0xE4 SHL DUP2 MSTORE PUSH1 0x4 DUP2 ADD DUP4 SWAP1 MSTORE PUSH1 0x24 ADD PUSH2 0xD91 JUMP JUMPDEST POP SWAP1 JUMP JUMPDEST PUSH2 0xFFFF DUP4 AND PUSH0 SWAP1 DUP2 MSTORE PUSH1 0x8 PUSH1 0x20 SWAP1 DUP2 MSTORE PUSH1 0x40 DUP1 DUP4 KECCAK256 DUP6 DUP5 MSTORE SWAP1 SWAP2 MSTORE SWAP1 KECCAK256 SLOAD PUSH1 0xFF AND ISZERO PUSH2 0x3FBA JUMPI PUSH0 DUP1 REVERT JUMPDEST DUP5 MLOAD PUSH1 0x1 EQ PUSH2 0x3FC7 JUMPI PUSH0 DUP1 REVERT JUMPDEST PUSH2 0xFFFF DUP4 AND PUSH0 SWAP1 DUP2 MSTORE PUSH1 0x6 PUSH1 0x20 MSTORE PUSH1 0x40 DUP2 KECCAK256 SWAP1 PUSH2 0x3FE3 DUP7 PUSH2 0x3F65 JUMP JUMPDEST PUSH1 0x1 PUSH1 0x1 PUSH1 0xA0 SHL SUB AND DUP2 MSTORE PUSH1 0x20 DUP2 ADD SWAP2 SWAP1 SWAP2 MSTORE PUSH1 0x40 ADD PUSH0 KECCAK256 SLOAD PUSH1 0xFF AND ISZERO ISZERO PUSH1 0x1 EQ PUSH2 0x400C JUMPI PUSH0 DUP1 REVERT JUMPDEST PUSH0 DUP7 DUP1 PUSH1 0x20 ADD SWAP1 MLOAD DUP2 ADD SWAP1 PUSH2 0x4021 SWAP2 SWAP1 PUSH2 0x59DC JUMP JUMPDEST SWAP1 POP PUSH0 DUP7 PUSH0 DUP2 MLOAD DUP2 LT PUSH2 0x4036 JUMPI PUSH2 0x4036 PUSH2 0x5261 JUMP JUMPDEST PUSH1 0x20 MUL PUSH1 0x20 ADD ADD MLOAD PUSH1 0x40 ADD MLOAD PUSH1 0x1 PUSH1 0x1 PUSH1 0xA0 SHL SUB AND PUSH4 0xA9059CBB DUP4 DUP10 PUSH0 DUP2 MLOAD DUP2 LT PUSH2 0x4063 JUMPI PUSH2 0x4063 PUSH2 0x5261 JUMP JUMPDEST PUSH1 0x20 MUL PUSH1 0x20 ADD ADD MLOAD PUSH1 0x60 ADD MLOAD PUSH1 0x40 MLOAD DUP4 PUSH4 0xFFFFFFFF AND PUSH1 0xE0 SHL DUP2 MSTORE PUSH1 0x4 ADD PUSH2 0x40A0 SWAP3 SWAP2 SWAP1 PUSH1 0x1 PUSH1 0x1 PUSH1 0xA0 SHL SUB SWAP3 SWAP1 SWAP3 AND DUP3 MSTORE PUSH1 0x20 DUP3 ADD MSTORE PUSH1 0x40 ADD SWAP1 JUMP JUMPDEST PUSH1 0x20 PUSH1 0x40 MLOAD DUP1 DUP4 SUB DUP2 PUSH0 DUP8 GAS CALL ISZERO DUP1 ISZERO PUSH2 0x40BC JUMPI RETURNDATASIZE PUSH0 DUP1 RETURNDATACOPY RETURNDATASIZE PUSH0 REVERT JUMPDEST POP POP POP POP PUSH1 0x40 MLOAD RETURNDATASIZE PUSH1 0x1F NOT PUSH1 0x1F DUP3 ADD AND DUP3 ADD DUP1 PUSH1 0x40 MSTORE POP DUP2 ADD SWAP1 PUSH2 0x40E0 SWAP2 SWAP1 PUSH2 0x5724 JUMP JUMPDEST PUSH2 0xFFFF SWAP6 SWAP1 SWAP6 AND PUSH0 SWAP1 DUP2 MSTORE PUSH1 0x8 PUSH1 0x20 SWAP1 DUP2 MSTORE PUSH1 0x40 DUP1 DUP4 KECCAK256 SWAP7 DUP4 MSTORE SWAP6 SWAP1 MSTORE SWAP4 SWAP1 SWAP4 KECCAK256 DUP1 SLOAD PUSH1 0xFF NOT AND SWAP5 ISZERO ISZERO SWAP5 SWAP1 SWAP5 OR SWAP1 SWAP4 SSTORE POP POP POP POP POP POP JUMP JUMPDEST PUSH1 0x40 DUP1 MLOAD PUSH1 0x60 DUP2 ADD DUP3 MSTORE PUSH0 DUP1 DUP3 MSTORE PUSH1 0x20 DUP3 ADD DUP2 SWAP1 MSTORE DUP2 DUP4 ADD MSTORE PUSH1 0x4 DUP1 SLOAD SWAP3 MLOAD PUSH4 0x95EA7B3 PUSH1 0xE0 SHL DUP2 MSTORE PUSH1 0x1 PUSH1 0x1 PUSH1 0xA0 SHL SUB SWAP4 DUP5 AND SWAP2 DUP2 ADD SWAP2 SWAP1 SWAP2 MSTORE PUSH1 0x24 DUP2 ADD DUP8 SWAP1 MSTORE SWAP1 SWAP2 DUP8 AND SWAP1 PUSH4 0x95EA7B3 SWAP1 PUSH1 0x44 ADD PUSH1 0x20 PUSH1 0x40 MLOAD DUP1 DUP4 SUB DUP2 PUSH0 DUP8 GAS CALL ISZERO DUP1 ISZERO PUSH2 0x4185 JUMPI RETURNDATASIZE PUSH0 DUP1 RETURNDATACOPY RETURNDATASIZE PUSH0 REVERT JUMPDEST POP POP POP POP PUSH1 0x40 MLOAD RETURNDATASIZE PUSH1 0x1F NOT PUSH1 0x1F DUP3 ADD AND DUP3 ADD DUP1 PUSH1 0x40 MSTORE POP DUP2 ADD SWAP1 PUSH2 0x41A9 SWAP2 SWAP1 PUSH2 0x5724 JUMP JUMPDEST POP PUSH1 0x4 DUP1 SLOAD PUSH1 0x1 SLOAD PUSH1 0x40 DUP1 MLOAD PUSH4 0x1A90A219 PUSH1 0xE0 SHL DUP2 MSTORE SWAP1 MLOAD PUSH0 SWAP5 PUSH1 0x1 PUSH1 0x1 PUSH1 0xA0 SHL SUB SWAP5 DUP6 AND SWAP5 PUSH4 0xC5A5EBDA SWAP5 AND SWAP3 PUSH4 0x1A90A219 SWAP3 DUP2 DUP4 ADD SWAP3 PUSH1 0x20 SWAP3 DUP3 SWAP1 SUB ADD DUP2 DUP7 GAS STATICCALL ISZERO DUP1 ISZERO PUSH2 0x41FB JUMPI RETURNDATASIZE PUSH0 DUP1 RETURNDATACOPY RETURNDATASIZE PUSH0 REVERT JUMPDEST POP POP POP POP PUSH1 0x40 MLOAD RETURNDATASIZE PUSH1 0x1F NOT PUSH1 0x1F DUP3 ADD AND DUP3 ADD DUP1 PUSH1 0x40 MSTORE POP DUP2 ADD SWAP1 PUSH2 0x421F SWAP2 SWAP1 PUSH2 0x54B5 JUMP JUMPDEST DUP10 DUP10 DUP10 PUSH1 0x1 PUSH1 0x1 PUSH1 0xA0 SHL SUB DUP11 AND PUSH0 DUP11 PUSH1 0x40 MLOAD DUP9 PUSH4 0xFFFFFFFF AND PUSH1 0xE0 SHL DUP2 MSTORE PUSH1 0x4 ADD PUSH2 0x424F SWAP7 SWAP6 SWAP5 SWAP4 SWAP3 SWAP2 SWAP1 PUSH2 0x5B80 JUMP JUMPDEST PUSH1 0x20 PUSH1 0x40 MLOAD DUP1 DUP4 SUB DUP2 DUP6 DUP9 GAS CALL ISZERO DUP1 ISZERO PUSH2 0x426B JUMPI RETURNDATASIZE PUSH0 DUP1 RETURNDATACOPY RETURNDATASIZE PUSH0 REVERT JUMPDEST POP POP POP POP POP PUSH1 0x40 MLOAD RETURNDATASIZE PUSH1 0x1F NOT PUSH1 0x1F DUP3 ADD AND DUP3 ADD DUP1 PUSH1 0x40 MSTORE POP DUP2 ADD SWAP1 PUSH2 0x4290 SWAP2 SWAP1 PUSH2 0x5B14 JUMP JUMPDEST PUSH1 0x40 DUP1 MLOAD PUSH1 0x60 DUP2 ADD DUP1 DUP4 MSTORE PUSH1 0x1 SLOAD PUSH4 0x4D4502C9 PUSH1 0xE1 SHL SWAP1 SWAP2 MSTORE SWAP2 MLOAD SWAP3 SWAP4 POP SWAP2 DUP3 SWAP2 PUSH1 0x1 PUSH1 0x1 PUSH1 0xA0 SHL SUB AND SWAP1 PUSH4 0x9A8A0592 SWAP1 PUSH1 0x64 DUP1 DUP6 ADD SWAP2 PUSH1 0x20 SWAP2 DUP2 DUP8 SUB ADD DUP2 DUP7 GAS STATICCALL ISZERO DUP1 ISZERO PUSH2 0x42E1 JUMPI RETURNDATASIZE PUSH0 DUP1 RETURNDATACOPY RETURNDATASIZE PUSH0 REVERT JUMPDEST POP POP POP POP PUSH1 0x40 MLOAD RETURNDATASIZE PUSH1 0x1F NOT PUSH1 0x1F DUP3 ADD AND DUP3 ADD DUP1 PUSH1 0x40 MSTORE POP DUP2 ADD SWAP1 PUSH2 0x4305 SWAP2 SWAP1 PUSH2 0x558F JUMP JUMPDEST PUSH2 0xFFFF AND DUP2 MSTORE PUSH1 0x4 SLOAD PUSH1 0x1 PUSH1 0x1 PUSH1 0xA0 SHL SUB AND PUSH1 0x20 DUP3 ADD MSTORE PUSH1 0x1 PUSH1 0x1 PUSH1 0x40 SHL SUB SWAP1 SWAP3 AND PUSH1 0x40 SWAP1 SWAP3 ADD SWAP2 SWAP1 SWAP2 MSTORE SWAP7 SWAP6 POP POP POP POP POP POP JUMP JUMPDEST PUSH1 0x9 SLOAD PUSH1 0x40 DUP1 MLOAD PUSH4 0x3408E47 PUSH1 0xE4 SHL DUP2 MSTORE SWAP1 MLOAD PUSH0 SWAP3 PUSH1 0x1 PUSH1 0x1 PUSH1 0xA0 SHL SUB AND SWAP2 PUSH4 0x3408E470 SWAP2 PUSH1 0x4 DUP1 DUP4 ADD SWAP3 PUSH1 0x20 SWAP3 SWAP2 SWAP1 DUP3 SWAP1 SUB ADD DUP2 DUP7 GAS STATICCALL ISZERO DUP1 ISZERO PUSH2 0x4381 JUMPI RETURNDATASIZE PUSH0 DUP1 RETURNDATACOPY RETURNDATASIZE PUSH0 REVERT JUMPDEST POP POP POP POP PUSH1 0x40 MLOAD RETURNDATASIZE PUSH1 0x1F NOT PUSH1 0x1F DUP3 ADD AND DUP3 ADD DUP1 PUSH1 0x40 MSTORE POP DUP2 ADD SWAP1 PUSH2 0x43A5 SWAP2 SWAP1 PUSH2 0x558F JUMP JUMPDEST PUSH2 0xFFFF AND DUP6 PUSH2 0xFFFF AND EQ PUSH2 0x25D9 JUMPI PUSH1 0x9 SLOAD PUSH1 0x40 MLOAD PUSH4 0x40A7BB1 PUSH1 0xE4 SHL DUP2 MSTORE PUSH1 0x1 PUSH1 0x1 PUSH1 0xA0 SHL SUB SWAP1 SWAP2 AND SWAP1 PUSH4 0x40A7BB10 SWAP1 PUSH2 0x43EB SWAP1 DUP9 SWAP1 ADDRESS SWAP1 DUP8 SWAP1 DUP11 SWAP1 DUP11 SWAP1 PUSH1 0x4 ADD PUSH2 0x5989 JUMP JUMPDEST PUSH1 0x40 DUP1 MLOAD DUP1 DUP4 SUB DUP2 DUP7 GAS STATICCALL ISZERO DUP1 ISZERO PUSH2 0x4405 JUMPI RETURNDATASIZE PUSH0 DUP1 RETURNDATACOPY RETURNDATASIZE PUSH0 REVERT JUMPDEST POP POP POP POP PUSH1 0x40 MLOAD RETURNDATASIZE PUSH1 0x1F NOT PUSH1 0x1F DUP3 ADD AND DUP3 ADD DUP1 PUSH1 0x40 MSTORE POP DUP2 ADD SWAP1 PUSH2 0x4429 SWAP2 SWAP1 PUSH2 0x5887 JUMP JUMPDEST POP SWAP6 SWAP5 POP POP POP POP POP JUMP JUMPDEST PUSH2 0xFFFF DUP7 AND PUSH0 SWAP1 DUP2 MSTORE PUSH1 0xA PUSH1 0x20 MSTORE PUSH1 0x40 DUP2 KECCAK256 DUP1 SLOAD PUSH2 0x4450 SWAP1 PUSH2 0x51D5 JUMP JUMPDEST DUP1 PUSH1 0x1F ADD PUSH1 0x20 DUP1 SWAP2 DIV MUL PUSH1 0x20 ADD PUSH1 0x40 MLOAD SWAP1 DUP2 ADD PUSH1 0x40 MSTORE DUP1 SWAP3 SWAP2 SWAP1 DUP2 DUP2 MSTORE PUSH1 0x20 ADD DUP3 DUP1 SLOAD PUSH2 0x447C SWAP1 PUSH2 0x51D5 JUMP JUMPDEST DUP1 ISZERO PUSH2 0x44C7 JUMPI DUP1 PUSH1 0x1F LT PUSH2 0x449E JUMPI PUSH2 0x100 DUP1 DUP4 SLOAD DIV MUL DUP4 MSTORE SWAP2 PUSH1 0x20 ADD SWAP2 PUSH2 0x44C7 JUMP JUMPDEST DUP3 ADD SWAP2 SWAP1 PUSH0 MSTORE PUSH1 0x20 PUSH0 KECCAK256 SWAP1 JUMPDEST DUP2 SLOAD DUP2 MSTORE SWAP1 PUSH1 0x1 ADD SWAP1 PUSH1 0x20 ADD DUP1 DUP4 GT PUSH2 0x44AA JUMPI DUP3 SWAP1 SUB PUSH1 0x1F AND DUP3 ADD SWAP2 JUMPDEST POP POP POP POP POP SWAP1 POP DUP1 MLOAD PUSH0 SUB PUSH2 0x4537 JUMPI PUSH1 0x40 MLOAD PUSH3 0x461BCD PUSH1 0xE5 SHL DUP2 MSTORE PUSH1 0x20 PUSH1 0x4 DUP3 ADD MSTORE PUSH1 0x30 PUSH1 0x24 DUP3 ADD MSTORE PUSH32 0x4C7A4170703A2064657374696E6174696F6E20636861696E206973206E6F7420 PUSH1 0x44 DUP3 ADD MSTORE PUSH16 0x61207472757374656420736F75726365 PUSH1 0x80 SHL PUSH1 0x64 DUP3 ADD MSTORE PUSH1 0x84 ADD PUSH2 0xD91 JUMP JUMPDEST PUSH2 0x4542 DUP8 DUP8 MLOAD PUSH2 0x461A JUMP JUMPDEST PUSH1 0x9 SLOAD PUSH1 0x40 MLOAD PUSH3 0xC58031 PUSH1 0xE8 SHL DUP2 MSTORE PUSH1 0x1 PUSH1 0x1 PUSH1 0xA0 SHL SUB SWAP1 SWAP2 AND SWAP1 PUSH4 0xC5803100 SWAP1 DUP5 SWAP1 PUSH2 0x457D SWAP1 DUP12 SWAP1 DUP7 SWAP1 DUP13 SWAP1 DUP13 SWAP1 DUP13 SWAP1 DUP13 SWAP1 PUSH1 0x4 ADD PUSH2 0x5BC2 JUMP JUMPDEST PUSH0 PUSH1 0x40 MLOAD DUP1 DUP4 SUB DUP2 DUP6 DUP9 DUP1 EXTCODESIZE ISZERO DUP1 ISZERO PUSH2 0x4594 JUMPI PUSH0 DUP1 REVERT JUMPDEST POP GAS CALL ISZERO DUP1 ISZERO PUSH2 0x45A6 JUMPI RETURNDATASIZE PUSH0 DUP1 RETURNDATACOPY RETURNDATASIZE PUSH0 REVERT JUMPDEST POP POP POP POP POP POP POP POP POP POP POP POP JUMP JUMPDEST PUSH2 0x45F6 DUP4 DUP3 PUSH0 DUP1 SLOAD PUSH1 0x1 PUSH1 0x1 PUSH1 0xA0 SHL SUB SWAP4 DUP5 AND PUSH1 0x1 PUSH1 0x1 PUSH1 0xA0 SHL SUB NOT SWAP2 DUP3 AND OR SWAP1 SWAP2 SSTORE PUSH1 0x1 DUP1 SLOAD SWAP3 SWAP1 SWAP4 AND SWAP2 DUP2 AND SWAP2 SWAP1 SWAP2 OR SWAP1 SWAP2 SSTORE PUSH1 0x2 DUP1 SLOAD SWAP1 SWAP2 AND CALLER OR SWAP1 SSTORE JUMP JUMPDEST POP PUSH1 0x4 DUP1 SLOAD PUSH1 0x1 PUSH1 0x1 PUSH1 0xA0 SHL SUB NOT AND PUSH1 0x1 PUSH1 0x1 PUSH1 0xA0 SHL SUB SWAP3 SWAP1 SWAP3 AND SWAP2 SWAP1 SWAP2 OR SWAP1 SSTORE POP JUMP JUMPDEST PUSH2 0xFFFF DUP3 AND PUSH0 SWAP1 DUP2 MSTORE PUSH1 0xC PUSH1 0x20 MSTORE PUSH1 0x40 DUP2 KECCAK256 SLOAD SWAP1 DUP2 SWAP1 SUB PUSH2 0x463A JUMPI POP PUSH2 0x2710 JUMPDEST DUP1 DUP3 GT ISZERO PUSH2 0x2470 JUMPI PUSH1 0x40 MLOAD PUSH3 0x461BCD PUSH1 0xE5 SHL DUP2 MSTORE PUSH1 0x20 PUSH1 0x4 DUP3 ADD DUP2 SWAP1 MSTORE PUSH1 0x24 DUP3 ADD MSTORE PUSH32 0x4C7A4170703A207061796C6F61642073697A6520697320746F6F206C61726765 PUSH1 0x44 DUP3 ADD MSTORE PUSH1 0x64 ADD PUSH2 0xD91 JUMP JUMPDEST POP DUP1 SLOAD PUSH2 0x4696 SWAP1 PUSH2 0x51D5 JUMP JUMPDEST PUSH0 DUP3 SSTORE DUP1 PUSH1 0x1F LT PUSH2 0x46A5 JUMPI POP POP JUMP JUMPDEST PUSH1 0x1F ADD PUSH1 0x20 SWAP1 DIV SWAP1 PUSH0 MSTORE PUSH1 0x20 PUSH0 KECCAK256 SWAP1 DUP2 ADD SWAP1 PUSH2 0x12AF SWAP2 SWAP1 PUSH2 0x4711 JUMP JUMPDEST DUP3 DUP1 SLOAD DUP3 DUP3 SSTORE SWAP1 PUSH0 MSTORE PUSH1 0x20 PUSH0 KECCAK256 SWAP1 DUP2 ADD SWAP3 DUP3 ISZERO PUSH2 0x4705 JUMPI SWAP2 PUSH1 0x20 MUL DUP3 ADD JUMPDEST DUP3 DUP2 GT ISZERO PUSH2 0x4705 JUMPI DUP3 MLOAD DUP3 SWAP1 PUSH2 0x46F5 SWAP1 DUP3 PUSH2 0x57CC JUMP JUMPDEST POP SWAP2 PUSH1 0x20 ADD SWAP2 SWAP1 PUSH1 0x1 ADD SWAP1 PUSH2 0x46DF JUMP JUMPDEST POP PUSH2 0x3F8C SWAP3 SWAP2 POP PUSH2 0x4725 JUMP JUMPDEST JUMPDEST DUP1 DUP3 GT ISZERO PUSH2 0x3F8C JUMPI PUSH0 DUP2 SSTORE PUSH1 0x1 ADD PUSH2 0x4712 JUMP JUMPDEST DUP1 DUP3 GT ISZERO PUSH2 0x3F8C JUMPI PUSH0 PUSH2 0x4738 DUP3 DUP3 PUSH2 0x468A JUMP JUMPDEST POP PUSH1 0x1 ADD PUSH2 0x4725 JUMP JUMPDEST PUSH4 0x4E487B71 PUSH1 0xE0 SHL PUSH0 MSTORE PUSH1 0x11 PUSH1 0x4 MSTORE PUSH1 0x24 PUSH0 REVERT JUMPDEST DUP1 DUP3 ADD DUP1 DUP3 GT ISZERO PUSH2 0x112D JUMPI PUSH2 0x112D PUSH2 0x4741 JUMP JUMPDEST PUSH2 0xFFFF DUP2 AND DUP2 EQ PUSH2 0x12AF JUMPI PUSH0 DUP1 REVERT JUMPDEST DUP1 CALLDATALOAD PUSH2 0x4782 DUP2 PUSH2 0x4768 JUMP JUMPDEST SWAP2 SWAP1 POP JUMP JUMPDEST PUSH0 DUP1 DUP4 PUSH1 0x1F DUP5 ADD SLT PUSH2 0x4797 JUMPI PUSH0 DUP1 REVERT JUMPDEST POP DUP2 CALLDATALOAD PUSH1 0x1 PUSH1 0x1 PUSH1 0x40 SHL SUB DUP2 GT ISZERO PUSH2 0x47AD JUMPI PUSH0 DUP1 REVERT JUMPDEST PUSH1 0x20 DUP4 ADD SWAP2 POP DUP4 PUSH1 0x20 DUP3 DUP6 ADD ADD GT ISZERO PUSH2 0x47C4 JUMPI PUSH0 DUP1 REVERT JUMPDEST SWAP3 POP SWAP3 SWAP1 POP JUMP JUMPDEST PUSH1 0x1 PUSH1 0x1 PUSH1 0x40 SHL SUB DUP2 AND DUP2 EQ PUSH2 0x12AF JUMPI PUSH0 DUP1 REVERT JUMPDEST PUSH0 DUP1 PUSH0 DUP1 PUSH0 DUP1 PUSH1 0x80 DUP8 DUP10 SUB SLT ISZERO PUSH2 0x47F4 JUMPI PUSH0 DUP1 REVERT JUMPDEST DUP7 CALLDATALOAD PUSH2 0x47FF DUP2 PUSH2 0x4768 JUMP JUMPDEST SWAP6 POP PUSH1 0x20 DUP8 ADD CALLDATALOAD PUSH1 0x1 PUSH1 0x1 PUSH1 0x40 SHL SUB DUP1 DUP3 GT ISZERO PUSH2 0x481A JUMPI PUSH0 DUP1 REVERT JUMPDEST PUSH2 0x4826 DUP11 DUP4 DUP12 ADD PUSH2 0x4787 JUMP JUMPDEST SWAP1 SWAP8 POP SWAP6 POP PUSH1 0x40 DUP10 ADD CALLDATALOAD SWAP2 POP PUSH2 0x483B DUP3 PUSH2 0x47CB JUMP JUMPDEST SWAP1 SWAP4 POP PUSH1 0x60 DUP9 ADD CALLDATALOAD SWAP1 DUP1 DUP3 GT ISZERO PUSH2 0x4850 JUMPI PUSH0 DUP1 REVERT JUMPDEST POP PUSH2 0x485D DUP10 DUP3 DUP11 ADD PUSH2 0x4787 JUMP JUMPDEST SWAP8 SWAP11 SWAP7 SWAP10 POP SWAP5 SWAP8 POP SWAP3 SWAP6 SWAP4 SWAP5 SWAP3 POP POP POP JUMP JUMPDEST PUSH1 0x1 PUSH1 0x1 PUSH1 0xA0 SHL SUB DUP2 AND DUP2 EQ PUSH2 0x12AF JUMPI PUSH0 DUP1 REVERT JUMPDEST DUP1 CALLDATALOAD PUSH2 0x4782 DUP2 PUSH2 0x486F JUMP JUMPDEST PUSH1 0xFF DUP2 AND DUP2 EQ PUSH2 0x12AF JUMPI PUSH0 DUP1 REVERT JUMPDEST PUSH0 DUP1 PUSH1 0x40 DUP4 DUP6 SUB SLT ISZERO PUSH2 0x48AD JUMPI PUSH0 DUP1 REVERT JUMPDEST DUP3 CALLDATALOAD PUSH2 0x48B8 DUP2 PUSH2 0x486F JUMP JUMPDEST SWAP2 POP PUSH1 0x20 DUP4 ADD CALLDATALOAD PUSH2 0x48C8 DUP2 PUSH2 0x488E JUMP JUMPDEST DUP1 SWAP2 POP POP SWAP3 POP SWAP3 SWAP1 POP JUMP JUMPDEST PUSH0 PUSH1 0x20 DUP3 DUP5 SUB SLT ISZERO PUSH2 0x48E3 JUMPI PUSH0 DUP1 REVERT JUMPDEST DUP2 CALLDATALOAD PUSH2 0x26EB DUP2 PUSH2 0x4768 JUMP JUMPDEST PUSH0 DUP1 PUSH1 0x40 DUP4 DUP6 SUB SLT ISZERO PUSH2 0x48FF JUMPI PUSH0 DUP1 REVERT JUMPDEST DUP3 CALLDATALOAD PUSH2 0x490A DUP2 PUSH2 0x4768 JUMP JUMPDEST SWAP5 PUSH1 0x20 SWAP4 SWAP1 SWAP4 ADD CALLDATALOAD SWAP4 POP POP POP JUMP JUMPDEST PUSH0 DUP1 PUSH1 0x40 DUP4 DUP6 SUB SLT ISZERO PUSH2 0x4929 JUMPI PUSH0 DUP1 REVERT JUMPDEST DUP3 CALLDATALOAD PUSH2 0x490A DUP2 PUSH2 0x486F JUMP JUMPDEST PUSH2 0xFFFF DUP1 DUP3 MLOAD AND DUP4 MSTORE DUP1 PUSH1 0x20 DUP4 ADD MLOAD AND PUSH1 0x20 DUP5 ADD MSTORE POP PUSH1 0x40 DUP2 ADD MLOAD PUSH1 0x1 DUP1 PUSH1 0xA0 SHL SUB DUP1 DUP3 AND PUSH1 0x40 DUP6 ADD MSTORE PUSH1 0x60 DUP4 ADD MLOAD PUSH1 0x60 DUP6 ADD MSTORE DUP1 PUSH1 0x80 DUP5 ADD MLOAD AND PUSH1 0x80 DUP6 ADD MSTORE POP POP PUSH1 0xA0 DUP2 ADD MLOAD PUSH1 0xA0 DUP4 ADD MSTORE PUSH1 0xC0 DUP2 ADD MLOAD ISZERO ISZERO PUSH1 0xC0 DUP4 ADD MSTORE POP POP JUMP JUMPDEST PUSH1 0xE0 DUP2 ADD PUSH2 0x112D DUP3 DUP5 PUSH2 0x4934 JUMP JUMPDEST DUP1 ISZERO ISZERO DUP2 EQ PUSH2 0x12AF JUMPI PUSH0 DUP1 REVERT JUMPDEST PUSH0 DUP1 PUSH0 DUP1 PUSH0 PUSH1 0xA0 DUP7 DUP9 SUB SLT ISZERO PUSH2 0x49BF JUMPI PUSH0 DUP1 REVERT JUMPDEST DUP6 CALLDATALOAD PUSH2 0x49CA DUP2 PUSH2 0x4768 JUMP JUMPDEST SWAP5 POP PUSH1 0x20 DUP7 ADD CALLDATALOAD PUSH2 0x49DA DUP2 PUSH2 0x499E JUMP JUMPDEST SWAP4 POP PUSH1 0x40 DUP7 ADD CALLDATALOAD SWAP3 POP PUSH1 0x60 DUP7 ADD CALLDATALOAD PUSH2 0x49F1 DUP2 PUSH2 0x486F JUMP JUMPDEST SWAP5 SWAP8 SWAP4 SWAP7 POP SWAP2 SWAP5 PUSH1 0x80 ADD CALLDATALOAD SWAP3 SWAP2 POP POP JUMP JUMPDEST PUSH0 DUP1 PUSH0 PUSH1 0x60 DUP5 DUP7 SUB SLT ISZERO PUSH2 0x4A14 JUMPI PUSH0 DUP1 REVERT JUMPDEST DUP4 CALLDATALOAD PUSH2 0x4A1F DUP2 PUSH2 0x486F JUMP JUMPDEST SWAP3 POP PUSH1 0x20 DUP5 ADD CALLDATALOAD PUSH2 0x4A2F DUP2 PUSH2 0x486F JUMP JUMPDEST SWAP2 POP PUSH1 0x40 DUP5 ADD CALLDATALOAD PUSH2 0x4A3F DUP2 PUSH2 0x4768 JUMP JUMPDEST DUP1 SWAP2 POP POP SWAP3 POP SWAP3 POP SWAP3 JUMP JUMPDEST PUSH0 DUP1 PUSH0 PUSH1 0x40 DUP5 DUP7 SUB SLT ISZERO PUSH2 0x4A5C JUMPI PUSH0 DUP1 REVERT JUMPDEST DUP4 CALLDATALOAD PUSH2 0x4A67 DUP2 PUSH2 0x4768 JUMP JUMPDEST SWAP3 POP PUSH1 0x20 DUP5 ADD CALLDATALOAD PUSH1 0x1 PUSH1 0x1 PUSH1 0x40 SHL SUB DUP2 GT ISZERO PUSH2 0x4A81 JUMPI PUSH0 DUP1 REVERT JUMPDEST PUSH2 0x4A8D DUP7 DUP3 DUP8 ADD PUSH2 0x4787 JUMP JUMPDEST SWAP5 SWAP8 SWAP1 SWAP7 POP SWAP4 SWAP5 POP POP POP POP JUMP JUMPDEST PUSH0 DUP1 PUSH1 0x40 DUP4 DUP6 SUB SLT ISZERO PUSH2 0x4AAB JUMPI PUSH0 DUP1 REVERT JUMPDEST DUP3 CALLDATALOAD PUSH2 0x4AB6 DUP2 PUSH2 0x486F JUMP JUMPDEST SWAP2 POP PUSH1 0x20 DUP4 ADD CALLDATALOAD PUSH2 0x48C8 DUP2 PUSH2 0x4768 JUMP JUMPDEST PUSH4 0x4E487B71 PUSH1 0xE0 SHL PUSH0 MSTORE PUSH1 0x41 PUSH1 0x4 MSTORE PUSH1 0x24 PUSH0 REVERT JUMPDEST PUSH1 0x40 MLOAD PUSH1 0x80 DUP2 ADD PUSH1 0x1 PUSH1 0x1 PUSH1 0x40 SHL SUB DUP2 GT DUP3 DUP3 LT OR ISZERO PUSH2 0x4AFC JUMPI PUSH2 0x4AFC PUSH2 0x4AC6 JUMP JUMPDEST PUSH1 0x40 MSTORE SWAP1 JUMP JUMPDEST PUSH1 0x40 MLOAD PUSH2 0x160 DUP2 ADD PUSH1 0x1 PUSH1 0x1 PUSH1 0x40 SHL SUB DUP2 GT DUP3 DUP3 LT OR ISZERO PUSH2 0x4AFC JUMPI PUSH2 0x4AFC PUSH2 0x4AC6 JUMP JUMPDEST PUSH1 0x40 MLOAD PUSH2 0x100 DUP2 ADD PUSH1 0x1 PUSH1 0x1 PUSH1 0x40 SHL SUB DUP2 GT DUP3 DUP3 LT OR ISZERO PUSH2 0x4AFC JUMPI PUSH2 0x4AFC PUSH2 0x4AC6 JUMP JUMPDEST PUSH1 0x40 MLOAD PUSH1 0x1F DUP3 ADD PUSH1 0x1F NOT AND DUP2 ADD PUSH1 0x1 PUSH1 0x1 PUSH1 0x40 SHL SUB DUP2 GT DUP3 DUP3 LT OR ISZERO PUSH2 0x4B70 JUMPI PUSH2 0x4B70 PUSH2 0x4AC6 JUMP JUMPDEST PUSH1 0x40 MSTORE SWAP2 SWAP1 POP JUMP JUMPDEST PUSH0 PUSH1 0x1 PUSH1 0x1 PUSH1 0x40 SHL SUB DUP3 GT ISZERO PUSH2 0x4B90 JUMPI PUSH2 0x4B90 PUSH2 0x4AC6 JUMP JUMPDEST POP PUSH1 0x1F ADD PUSH1 0x1F NOT AND PUSH1 0x20 ADD SWAP1 JUMP JUMPDEST PUSH0 DUP3 PUSH1 0x1F DUP4 ADD SLT PUSH2 0x4BAD JUMPI PUSH0 DUP1 REVERT JUMPDEST DUP2 CALLDATALOAD PUSH2 0x4BC0 PUSH2 0x4BBB DUP3 PUSH2 0x4B78 JUMP JUMPDEST PUSH2 0x4B48 JUMP JUMPDEST DUP2 DUP2 MSTORE DUP5 PUSH1 0x20 DUP4 DUP7 ADD ADD GT ISZERO PUSH2 0x4BD4 JUMPI PUSH0 DUP1 REVERT JUMPDEST DUP2 PUSH1 0x20 DUP6 ADD PUSH1 0x20 DUP4 ADD CALLDATACOPY PUSH0 SWAP2 DUP2 ADD PUSH1 0x20 ADD SWAP2 SWAP1 SWAP2 MSTORE SWAP4 SWAP3 POP POP POP JUMP JUMPDEST PUSH0 PUSH1 0x1 PUSH1 0x1 PUSH1 0x40 SHL SUB DUP3 GT ISZERO PUSH2 0x4C08 JUMPI PUSH2 0x4C08 PUSH2 0x4AC6 JUMP JUMPDEST POP PUSH1 0x5 SHL PUSH1 0x20 ADD SWAP1 JUMP JUMPDEST PUSH0 DUP1 PUSH0 DUP1 PUSH0 PUSH1 0xA0 DUP7 DUP9 SUB SLT ISZERO PUSH2 0x4C26 JUMPI PUSH0 DUP1 REVERT JUMPDEST DUP6 CALLDATALOAD PUSH1 0x1 PUSH1 0x1 PUSH1 0x40 SHL SUB DUP1 DUP3 GT ISZERO PUSH2 0x4C3C JUMPI PUSH0 DUP1 REVERT JUMPDEST PUSH2 0x4C48 DUP10 DUP4 DUP11 ADD PUSH2 0x4B9E JUMP JUMPDEST SWAP7 POP PUSH1 0x20 SWAP2 POP DUP2 DUP9 ADD CALLDATALOAD DUP2 DUP2 GT ISZERO PUSH2 0x4C5E JUMPI PUSH0 DUP1 REVERT JUMPDEST DUP9 ADD PUSH1 0x1F DUP2 ADD DUP11 SGT PUSH2 0x4C6E JUMPI PUSH0 DUP1 REVERT JUMPDEST DUP1 CALLDATALOAD PUSH2 0x4C7C PUSH2 0x4BBB DUP3 PUSH2 0x4BF0 JUMP JUMPDEST DUP2 DUP2 MSTORE PUSH1 0x5 SWAP2 SWAP1 SWAP2 SHL DUP3 ADD DUP5 ADD SWAP1 DUP5 DUP2 ADD SWAP1 DUP13 DUP4 GT ISZERO PUSH2 0x4C9A JUMPI PUSH0 DUP1 REVERT JUMPDEST DUP6 DUP5 ADD JUMPDEST DUP4 DUP2 LT ISZERO PUSH2 0x4CD1 JUMPI DUP1 CALLDATALOAD DUP7 DUP2 GT ISZERO PUSH2 0x4CB5 JUMPI PUSH0 DUP1 DUP2 REVERT JUMPDEST PUSH2 0x4CC3 DUP16 DUP10 DUP4 DUP10 ADD ADD PUSH2 0x4B9E JUMP JUMPDEST DUP5 MSTORE POP SWAP2 DUP7 ADD SWAP2 DUP7 ADD PUSH2 0x4C9E JUMP JUMPDEST POP SWAP9 POP POP POP POP PUSH1 0x40 DUP9 ADD CALLDATALOAD SWAP5 POP PUSH2 0x49F1 SWAP2 POP POP PUSH1 0x60 DUP8 ADD PUSH2 0x4777 JUMP JUMPDEST PUSH0 PUSH1 0x20 DUP3 DUP5 SUB SLT ISZERO PUSH2 0x4CFD JUMPI PUSH0 DUP1 REVERT JUMPDEST POP CALLDATALOAD SWAP2 SWAP1 POP JUMP JUMPDEST PUSH0 DUP1 PUSH0 PUSH1 0x60 DUP5 DUP7 SUB SLT ISZERO PUSH2 0x4D16 JUMPI PUSH0 DUP1 REVERT JUMPDEST DUP4 CALLDATALOAD PUSH2 0x4D21 DUP2 PUSH2 0x4768 JUMP JUMPDEST SWAP3 POP PUSH1 0x20 DUP5 ADD CALLDATALOAD PUSH1 0x1 PUSH1 0x1 PUSH1 0x40 SHL SUB DUP2 GT ISZERO PUSH2 0x4D3B JUMPI PUSH0 DUP1 REVERT JUMPDEST PUSH2 0x4D47 DUP7 DUP3 DUP8 ADD PUSH2 0x4B9E JUMP JUMPDEST SWAP3 POP POP PUSH1 0x40 DUP5 ADD CALLDATALOAD PUSH2 0x4A3F DUP2 PUSH2 0x47CB JUMP JUMPDEST PUSH0 DUP1 PUSH0 PUSH1 0x60 DUP5 DUP7 SUB SLT ISZERO PUSH2 0x4D6A JUMPI PUSH0 DUP1 REVERT JUMPDEST DUP4 CALLDATALOAD PUSH2 0x4D75 DUP2 PUSH2 0x486F JUMP JUMPDEST SWAP3 POP PUSH1 0x20 DUP5 ADD CALLDATALOAD SWAP2 POP PUSH1 0x40 DUP5 ADD CALLDATALOAD PUSH2 0x4A3F DUP2 PUSH2 0x4768 JUMP JUMPDEST PUSH0 PUSH1 0xC0 DUP3 DUP5 SUB SLT ISZERO PUSH2 0x4D9C JUMPI PUSH0 DUP1 REVERT JUMPDEST PUSH1 0x40 MLOAD PUSH1 0xC0 DUP2 ADD DUP2 DUP2 LT PUSH1 0x1 PUSH1 0x1 PUSH1 0x40 SHL SUB DUP3 GT OR ISZERO PUSH2 0x4DBE JUMPI PUSH2 0x4DBE PUSH2 0x4AC6 JUMP JUMPDEST PUSH1 0x40 MSTORE DUP3 CALLDATALOAD PUSH2 0x4DCC DUP2 PUSH2 0x4768 JUMP JUMPDEST DUP2 MSTORE PUSH1 0x20 DUP4 ADD CALLDATALOAD PUSH2 0x4DDC DUP2 PUSH2 0x486F JUMP JUMPDEST PUSH1 0x20 DUP3 ADD MSTORE PUSH1 0x40 DUP4 DUP2 ADD CALLDATALOAD SWAP1 DUP3 ADD MSTORE PUSH1 0x60 DUP4 ADD CALLDATALOAD PUSH2 0x4DF9 DUP2 PUSH2 0x486F JUMP JUMPDEST PUSH1 0x60 DUP3 ADD MSTORE PUSH1 0x80 DUP4 DUP2 ADD CALLDATALOAD SWAP1 DUP3 ADD MSTORE PUSH1 0xA0 DUP4 ADD CALLDATALOAD PUSH2 0x4E16 DUP2 PUSH2 0x486F JUMP JUMPDEST PUSH1 0xA0 DUP3 ADD MSTORE SWAP4 SWAP3 POP POP POP JUMP JUMPDEST PUSH0 DUP1 PUSH0 DUP1 PUSH0 PUSH1 0xA0 DUP7 DUP9 SUB SLT ISZERO PUSH2 0x4E36 JUMPI PUSH0 DUP1 REVERT JUMPDEST DUP6 CALLDATALOAD SWAP5 POP PUSH1 0x20 DUP7 ADD CALLDATALOAD SWAP4 POP PUSH1 0x40 DUP7 ADD CALLDATALOAD PUSH2 0x4E4F DUP2 PUSH2 0x499E JUMP JUMPDEST SWAP5 SWAP8 SWAP4 SWAP7 POP SWAP4 SWAP5 PUSH1 0x60 DUP2 ADD CALLDATALOAD SWAP5 POP PUSH1 0x80 ADD CALLDATALOAD SWAP3 SWAP2 POP POP JUMP JUMPDEST PUSH0 JUMPDEST DUP4 DUP2 LT ISZERO PUSH2 0x4E81 JUMPI DUP2 DUP2 ADD MLOAD DUP4 DUP3 ADD MSTORE PUSH1 0x20 ADD PUSH2 0x4E69 JUMP JUMPDEST POP POP PUSH0 SWAP2 ADD MSTORE JUMP JUMPDEST PUSH0 DUP2 MLOAD DUP1 DUP5 MSTORE PUSH2 0x4EA0 DUP2 PUSH1 0x20 DUP7 ADD PUSH1 0x20 DUP7 ADD PUSH2 0x4E67 JUMP JUMPDEST PUSH1 0x1F ADD PUSH1 0x1F NOT AND SWAP3 SWAP1 SWAP3 ADD PUSH1 0x20 ADD SWAP3 SWAP2 POP POP JUMP JUMPDEST PUSH1 0x20 DUP2 MSTORE PUSH0 PUSH2 0x26EB PUSH1 0x20 DUP4 ADD DUP5 PUSH2 0x4E89 JUMP JUMPDEST PUSH0 DUP1 PUSH1 0x40 DUP4 DUP6 SUB SLT ISZERO PUSH2 0x4ED7 JUMPI PUSH0 DUP1 REVERT JUMPDEST DUP3 CALLDATALOAD PUSH2 0x4EE2 DUP2 PUSH2 0x4768 JUMP JUMPDEST SWAP2 POP PUSH1 0x20 DUP4 ADD CALLDATALOAD PUSH2 0x48C8 DUP2 PUSH2 0x486F JUMP JUMPDEST PUSH0 PUSH1 0xE0 DUP3 DUP5 SUB SLT ISZERO PUSH2 0x4F02 JUMPI PUSH0 DUP1 REVERT JUMPDEST PUSH1 0x40 MLOAD PUSH1 0xE0 DUP2 ADD DUP2 DUP2 LT PUSH1 0x1 PUSH1 0x1 PUSH1 0x40 SHL SUB DUP3 GT OR ISZERO PUSH2 0x4F24 JUMPI PUSH2 0x4F24 PUSH2 0x4AC6 JUMP JUMPDEST PUSH1 0x40 MSTORE DUP3 CALLDATALOAD PUSH2 0x4F32 DUP2 PUSH2 0x4768 JUMP JUMPDEST DUP2 MSTORE PUSH1 0x20 DUP4 ADD CALLDATALOAD PUSH2 0x4F42 DUP2 PUSH2 0x486F JUMP JUMPDEST DUP1 PUSH1 0x20 DUP4 ADD MSTORE POP PUSH1 0x40 DUP4 ADD CALLDATALOAD PUSH1 0x40 DUP3 ADD MSTORE PUSH1 0x60 DUP4 ADD CALLDATALOAD PUSH1 0x60 DUP3 ADD MSTORE PUSH1 0x80 DUP4 ADD CALLDATALOAD PUSH2 0x4F6B DUP2 PUSH2 0x499E JUMP JUMPDEST PUSH1 0x80 DUP3 ADD MSTORE PUSH1 0xA0 DUP4 ADD CALLDATALOAD PUSH2 0x4F7E DUP2 PUSH2 0x486F JUMP JUMPDEST PUSH1 0xA0 DUP3 ADD MSTORE PUSH2 0x4F8F PUSH1 0xC0 DUP5 ADD PUSH2 0x4883 JUMP JUMPDEST PUSH1 0xC0 DUP3 ADD MSTORE SWAP4 SWAP3 POP POP POP JUMP JUMPDEST PUSH0 DUP1 PUSH1 0x40 DUP4 DUP6 SUB SLT ISZERO PUSH2 0x4FAC JUMPI PUSH0 DUP1 REVERT JUMPDEST DUP3 CALLDATALOAD PUSH2 0x4AB6 DUP2 PUSH2 0x4768 JUMP JUMPDEST PUSH0 PUSH1 0x20 DUP3 DUP5 SUB SLT ISZERO PUSH2 0x4FC7 JUMPI PUSH0 DUP1 REVERT JUMPDEST DUP2 CALLDATALOAD PUSH2 0x26EB DUP2 PUSH2 0x486F JUMP JUMPDEST PUSH0 DUP1 PUSH0 DUP1 PUSH0 PUSH1 0x80 DUP7 DUP9 SUB SLT ISZERO PUSH2 0x4FE6 JUMPI PUSH0 DUP1 REVERT JUMPDEST DUP6 CALLDATALOAD PUSH2 0x4FF1 DUP2 PUSH2 0x4768 JUMP JUMPDEST SWAP5 POP PUSH1 0x20 DUP7 ADD CALLDATALOAD PUSH2 0x5001 DUP2 PUSH2 0x4768 JUMP JUMPDEST SWAP4 POP PUSH1 0x40 DUP7 ADD CALLDATALOAD SWAP3 POP PUSH1 0x60 DUP7 ADD CALLDATALOAD PUSH1 0x1 PUSH1 0x1 PUSH1 0x40 SHL SUB DUP2 GT ISZERO PUSH2 0x5022 JUMPI PUSH0 DUP1 REVERT JUMPDEST PUSH2 0x502E DUP9 DUP3 DUP10 ADD PUSH2 0x4787 JUMP JUMPDEST SWAP7 SWAP10 SWAP6 SWAP9 POP SWAP4 SWAP7 POP SWAP3 SWAP5 SWAP4 SWAP3 POP POP POP JUMP JUMPDEST PUSH0 DUP1 PUSH0 DUP1 PUSH1 0x80 DUP6 DUP8 SUB SLT ISZERO PUSH2 0x5052 JUMPI PUSH0 DUP1 REVERT JUMPDEST DUP5 CALLDATALOAD PUSH2 0x505D DUP2 PUSH2 0x486F JUMP JUMPDEST SWAP4 POP PUSH1 0x20 DUP6 ADD CALLDATALOAD SWAP3 POP PUSH1 0x40 DUP6 ADD CALLDATALOAD PUSH2 0x5074 DUP2 PUSH2 0x4768 JUMP JUMPDEST SWAP2 POP PUSH1 0x60 DUP6 ADD CALLDATALOAD PUSH2 0x5084 DUP2 PUSH2 0x499E JUMP JUMPDEST SWAP4 SWAP7 SWAP3 SWAP6 POP SWAP1 SWAP4 POP POP JUMP JUMPDEST DUP1 MLOAD PUSH2 0xFFFF SWAP1 DUP2 AND DUP4 MSTORE PUSH1 0x20 DUP1 DUP4 ADD MLOAD SWAP1 SWAP2 AND SWAP1 DUP4 ADD MSTORE PUSH1 0x40 DUP1 DUP3 ADD MLOAD SWAP1 DUP4 ADD MSTORE PUSH1 0x60 DUP1 DUP3 ADD MLOAD PUSH1 0x1 PUSH1 0x1 PUSH1 0xA0 SHL SUB AND SWAP1 DUP4 ADD MSTORE PUSH1 0x80 DUP1 DUP3 ADD MLOAD SWAP1 DUP4 ADD MSTORE PUSH1 0xA0 SWAP1 DUP2 ADD MLOAD ISZERO ISZERO SWAP2 ADD MSTORE JUMP JUMPDEST PUSH1 0xC0 DUP2 ADD PUSH2 0x112D DUP3 DUP5 PUSH2 0x508F JUMP JUMPDEST PUSH0 DUP1 PUSH0 PUSH1 0x60 DUP5 DUP7 SUB SLT ISZERO PUSH2 0x50FA JUMPI PUSH0 DUP1 REVERT JUMPDEST DUP4 CALLDATALOAD PUSH2 0x5105 DUP2 PUSH2 0x4768 JUMP JUMPDEST SWAP3 POP PUSH1 0x20 DUP5 ADD CALLDATALOAD PUSH2 0x5115 DUP2 PUSH2 0x4768 JUMP JUMPDEST SWAP3 SWAP6 SWAP3 SWAP5 POP POP POP PUSH1 0x40 SWAP2 SWAP1 SWAP2 ADD CALLDATALOAD SWAP1 JUMP JUMPDEST PUSH0 DUP1 PUSH0 PUSH1 0x60 DUP5 DUP7 SUB SLT ISZERO PUSH2 0x5138 JUMPI PUSH0 DUP1 REVERT JUMPDEST DUP4 CALLDATALOAD PUSH2 0x5143 DUP2 PUSH2 0x486F JUMP JUMPDEST SWAP3 POP PUSH1 0x20 DUP5 ADD CALLDATALOAD PUSH2 0x5153 DUP2 PUSH2 0x486F JUMP JUMPDEST SWAP2 POP PUSH1 0x40 DUP5 ADD CALLDATALOAD PUSH2 0x4A3F DUP2 PUSH2 0x486F JUMP JUMPDEST DUP4 ISZERO ISZERO DUP2 MSTORE PUSH2 0x1C0 DUP2 ADD PUSH2 0x517A PUSH1 0x20 DUP4 ADD DUP6 PUSH2 0x508F JUMP JUMPDEST PUSH2 0x25D9 PUSH1 0xE0 DUP4 ADD DUP5 PUSH2 0x4934 JUMP JUMPDEST PUSH0 DUP1 PUSH0 DUP1 PUSH1 0x80 DUP6 DUP8 SUB SLT ISZERO PUSH2 0x519A JUMPI PUSH0 DUP1 REVERT JUMPDEST DUP5 CALLDATALOAD PUSH2 0x51A5 DUP2 PUSH2 0x4768 JUMP JUMPDEST SWAP4 POP PUSH1 0x20 DUP6 ADD CALLDATALOAD PUSH2 0x51B5 DUP2 PUSH2 0x4768 JUMP JUMPDEST SWAP3 POP PUSH1 0x40 DUP6 ADD CALLDATALOAD PUSH2 0x51C5 DUP2 PUSH2 0x486F JUMP JUMPDEST SWAP4 SWAP7 SWAP3 SWAP6 POP SWAP3 SWAP4 PUSH1 0x60 ADD CALLDATALOAD SWAP3 POP POP JUMP JUMPDEST PUSH1 0x1 DUP2 DUP2 SHR SWAP1 DUP3 AND DUP1 PUSH2 0x51E9 JUMPI PUSH1 0x7F DUP3 AND SWAP2 POP JUMPDEST PUSH1 0x20 DUP3 LT DUP2 SUB PUSH2 0x5207 JUMPI PUSH4 0x4E487B71 PUSH1 0xE0 SHL PUSH0 MSTORE PUSH1 0x22 PUSH1 0x4 MSTORE PUSH1 0x24 PUSH0 REVERT JUMPDEST POP SWAP2 SWAP1 POP JUMP JUMPDEST DUP2 DUP4 DUP3 CALLDATACOPY PUSH0 SWAP2 ADD SWAP1 DUP2 MSTORE SWAP2 SWAP1 POP JUMP JUMPDEST DUP2 DUP4 MSTORE DUP2 DUP2 PUSH1 0x20 DUP6 ADD CALLDATACOPY POP PUSH0 DUP3 DUP3 ADD PUSH1 0x20 SWAP1 DUP2 ADD SWAP2 SWAP1 SWAP2 MSTORE PUSH1 0x1F SWAP1 SWAP2 ADD PUSH1 0x1F NOT AND SWAP1 SWAP2 ADD ADD SWAP1 JUMP JUMPDEST PUSH2 0xFFFF DUP5 AND DUP2 MSTORE PUSH1 0x40 PUSH1 0x20 DUP3 ADD MSTORE PUSH0 PUSH2 0x2DD0 PUSH1 0x40 DUP4 ADD DUP5 DUP7 PUSH2 0x521C JUMP JUMPDEST PUSH4 0x4E487B71 PUSH1 0xE0 SHL PUSH0 MSTORE PUSH1 0x32 PUSH1 0x4 MSTORE PUSH1 0x24 PUSH0 REVERT JUMPDEST DUP1 MLOAD PUSH2 0x4782 DUP2 PUSH2 0x488E JUMP JUMPDEST DUP1 MLOAD PUSH4 0xFFFFFFFF DUP2 AND DUP2 EQ PUSH2 0x4782 JUMPI PUSH0 DUP1 REVERT JUMPDEST DUP1 MLOAD PUSH2 0x4782 DUP2 PUSH2 0x4768 JUMP JUMPDEST DUP1 MLOAD PUSH2 0x4782 DUP2 PUSH2 0x47CB JUMP JUMPDEST PUSH0 DUP3 PUSH1 0x1F DUP4 ADD SLT PUSH2 0x52B8 JUMPI PUSH0 DUP1 REVERT JUMPDEST DUP2 MLOAD PUSH2 0x52C6 PUSH2 0x4BBB DUP3 PUSH2 0x4B78 JUMP JUMPDEST DUP2 DUP2 MSTORE DUP5 PUSH1 0x20 DUP4 DUP7 ADD ADD GT ISZERO PUSH2 0x52DA JUMPI PUSH0 DUP1 REVERT JUMPDEST PUSH2 0x25D9 DUP3 PUSH1 0x20 DUP4 ADD PUSH1 0x20 DUP8 ADD PUSH2 0x4E67 JUMP JUMPDEST PUSH0 DUP3 PUSH1 0x1F DUP4 ADD SLT PUSH2 0x52FA JUMPI PUSH0 DUP1 REVERT JUMPDEST DUP2 MLOAD PUSH1 0x20 PUSH2 0x530A PUSH2 0x4BBB DUP4 PUSH2 0x4BF0 JUMP JUMPDEST DUP3 DUP2 MSTORE PUSH1 0x7 SWAP3 SWAP1 SWAP3 SHL DUP5 ADD DUP2 ADD SWAP2 DUP2 DUP2 ADD SWAP1 DUP7 DUP5 GT ISZERO PUSH2 0x5328 JUMPI PUSH0 DUP1 REVERT JUMPDEST DUP3 DUP7 ADD JUMPDEST DUP5 DUP2 LT ISZERO PUSH2 0x538C JUMPI PUSH1 0x80 DUP2 DUP10 SUB SLT ISZERO PUSH2 0x5344 JUMPI PUSH0 DUP1 DUP2 REVERT JUMPDEST PUSH2 0x534C PUSH2 0x4ADA JUMP JUMPDEST DUP2 MLOAD DUP2 MSTORE DUP5 DUP3 ADD MLOAD DUP6 DUP3 ADD MSTORE PUSH1 0x40 DUP1 DUP4 ADD MLOAD PUSH2 0x5367 DUP2 PUSH2 0x488E JUMP JUMPDEST SWAP1 DUP3 ADD MSTORE PUSH1 0x60 DUP3 DUP2 ADD MLOAD PUSH2 0x537A DUP2 PUSH2 0x488E JUMP JUMPDEST SWAP1 DUP3 ADD MSTORE DUP4 MSTORE SWAP2 DUP4 ADD SWAP2 PUSH1 0x80 ADD PUSH2 0x532C JUMP JUMPDEST POP SWAP7 SWAP6 POP POP POP POP POP POP JUMP JUMPDEST PUSH0 PUSH1 0x20 DUP3 DUP5 SUB SLT ISZERO PUSH2 0x53A7 JUMPI PUSH0 DUP1 REVERT JUMPDEST DUP2 MLOAD PUSH1 0x1 PUSH1 0x1 PUSH1 0x40 SHL SUB DUP1 DUP3 GT ISZERO PUSH2 0x53BD JUMPI PUSH0 DUP1 REVERT JUMPDEST SWAP1 DUP4 ADD SWAP1 PUSH2 0x160 DUP3 DUP7 SUB SLT ISZERO PUSH2 0x53D1 JUMPI PUSH0 DUP1 REVERT JUMPDEST PUSH2 0x53D9 PUSH2 0x4B02 JUMP JUMPDEST PUSH2 0x53E2 DUP4 PUSH2 0x5275 JUMP JUMPDEST DUP2 MSTORE PUSH2 0x53F0 PUSH1 0x20 DUP5 ADD PUSH2 0x5280 JUMP JUMPDEST PUSH1 0x20 DUP3 ADD MSTORE PUSH2 0x5401 PUSH1 0x40 DUP5 ADD PUSH2 0x5280 JUMP JUMPDEST PUSH1 0x40 DUP3 ADD MSTORE PUSH2 0x5412 PUSH1 0x60 DUP5 ADD PUSH2 0x5293 JUMP JUMPDEST PUSH1 0x60 DUP3 ADD MSTORE PUSH1 0x80 DUP4 ADD MLOAD PUSH1 0x80 DUP3 ADD MSTORE PUSH2 0x542D PUSH1 0xA0 DUP5 ADD PUSH2 0x529E JUMP JUMPDEST PUSH1 0xA0 DUP3 ADD MSTORE PUSH2 0x543E PUSH1 0xC0 DUP5 ADD PUSH2 0x5275 JUMP JUMPDEST PUSH1 0xC0 DUP3 ADD MSTORE PUSH1 0xE0 DUP4 ADD MLOAD DUP3 DUP2 GT ISZERO PUSH2 0x5454 JUMPI PUSH0 DUP1 REVERT JUMPDEST PUSH2 0x5460 DUP8 DUP3 DUP7 ADD PUSH2 0x52A9 JUMP JUMPDEST PUSH1 0xE0 DUP4 ADD MSTORE POP PUSH2 0x100 PUSH2 0x5474 DUP2 DUP6 ADD PUSH2 0x5280 JUMP JUMPDEST SWAP1 DUP3 ADD MSTORE PUSH2 0x120 DUP4 DUP2 ADD MLOAD DUP4 DUP2 GT ISZERO PUSH2 0x548B JUMPI PUSH0 DUP1 REVERT JUMPDEST PUSH2 0x5497 DUP9 DUP3 DUP8 ADD PUSH2 0x52EB JUMP JUMPDEST SWAP2 DUP4 ADD SWAP2 SWAP1 SWAP2 MSTORE POP PUSH2 0x140 SWAP3 DUP4 ADD MLOAD SWAP3 DUP2 ADD SWAP3 SWAP1 SWAP3 MSTORE POP SWAP4 SWAP3 POP POP POP JUMP JUMPDEST PUSH0 PUSH1 0x20 DUP3 DUP5 SUB SLT ISZERO PUSH2 0x54C5 JUMPI PUSH0 DUP1 REVERT JUMPDEST POP MLOAD SWAP2 SWAP1 POP JUMP JUMPDEST PUSH0 PUSH1 0x20 DUP3 DUP5 SUB SLT ISZERO PUSH2 0x54DC JUMPI PUSH0 DUP1 REVERT JUMPDEST DUP2 MLOAD PUSH1 0x1 PUSH1 0x1 PUSH1 0x40 SHL SUB DUP1 DUP3 GT ISZERO PUSH2 0x54F2 JUMPI PUSH0 DUP1 REVERT JUMPDEST SWAP1 DUP4 ADD SWAP1 PUSH2 0x100 DUP3 DUP7 SUB SLT ISZERO PUSH2 0x5506 JUMPI PUSH0 DUP1 REVERT JUMPDEST PUSH2 0x550E PUSH2 0x4B25 JUMP JUMPDEST PUSH2 0x5517 DUP4 PUSH2 0x5275 JUMP JUMPDEST DUP2 MSTORE PUSH1 0x20 DUP4 ADD MLOAD PUSH1 0x20 DUP3 ADD MSTORE PUSH1 0x40 DUP4 ADD MLOAD PUSH1 0x40 DUP3 ADD MSTORE PUSH2 0x5539 PUSH1 0x60 DUP5 ADD PUSH2 0x5293 JUMP JUMPDEST PUSH1 0x60 DUP3 ADD MSTORE PUSH1 0x80 DUP4 ADD MLOAD PUSH1 0x80 DUP3 ADD MSTORE PUSH2 0x5554 PUSH1 0xA0 DUP5 ADD PUSH2 0x5293 JUMP JUMPDEST PUSH1 0xA0 DUP3 ADD MSTORE PUSH1 0xC0 DUP4 ADD MLOAD PUSH1 0xC0 DUP3 ADD MSTORE PUSH1 0xE0 DUP4 ADD MLOAD DUP3 DUP2 GT ISZERO PUSH2 0x5574 JUMPI PUSH0 DUP1 REVERT JUMPDEST PUSH2 0x5580 DUP8 DUP3 DUP7 ADD PUSH2 0x52A9 JUMP JUMPDEST PUSH1 0xE0 DUP4 ADD MSTORE POP SWAP6 SWAP5 POP POP POP POP POP JUMP JUMPDEST PUSH0 PUSH1 0x20 DUP3 DUP5 SUB SLT ISZERO PUSH2 0x559F JUMPI PUSH0 DUP1 REVERT JUMPDEST DUP2 MLOAD PUSH2 0x26EB DUP2 PUSH2 0x4768 JUMP JUMPDEST PUSH0 PUSH1 0x20 DUP3 DUP5 SUB SLT ISZERO PUSH2 0x55BA JUMPI PUSH0 DUP1 REVERT JUMPDEST DUP2 MLOAD PUSH1 0x1 PUSH1 0x1 PUSH1 0x40 SHL SUB DUP2 GT ISZERO PUSH2 0x55CF JUMPI PUSH0 DUP1 REVERT JUMPDEST PUSH2 0x25D9 DUP5 DUP3 DUP6 ADD PUSH2 0x52A9 JUMP JUMPDEST PUSH1 0xFF DUP3 DUP2 AND DUP3 DUP3 AND SUB SWAP1 DUP2 GT ISZERO PUSH2 0x112D JUMPI PUSH2 0x112D PUSH2 0x4741 JUMP JUMPDEST PUSH1 0x1 DUP2 DUP2 JUMPDEST DUP1 DUP6 GT ISZERO PUSH2 0x562E JUMPI DUP2 PUSH0 NOT DIV DUP3 GT ISZERO PUSH2 0x5614 JUMPI PUSH2 0x5614 PUSH2 0x4741 JUMP JUMPDEST DUP1 DUP6 AND ISZERO PUSH2 0x5621 JUMPI SWAP2 DUP2 MUL SWAP2 JUMPDEST SWAP4 DUP5 SHR SWAP4 SWAP1 DUP1 MUL SWAP1 PUSH2 0x55F9 JUMP JUMPDEST POP SWAP3 POP SWAP3 SWAP1 POP JUMP JUMPDEST PUSH0 DUP3 PUSH2 0x5644 JUMPI POP PUSH1 0x1 PUSH2 0x112D JUMP JUMPDEST DUP2 PUSH2 0x5650 JUMPI POP PUSH0 PUSH2 0x112D JUMP JUMPDEST DUP2 PUSH1 0x1 DUP2 EQ PUSH2 0x5666 JUMPI PUSH1 0x2 DUP2 EQ PUSH2 0x5670 JUMPI PUSH2 0x568C JUMP JUMPDEST PUSH1 0x1 SWAP2 POP POP PUSH2 0x112D JUMP JUMPDEST PUSH1 0xFF DUP5 GT ISZERO PUSH2 0x5681 JUMPI PUSH2 0x5681 PUSH2 0x4741 JUMP JUMPDEST POP POP PUSH1 0x1 DUP3 SHL PUSH2 0x112D JUMP JUMPDEST POP PUSH1 0x20 DUP4 LT PUSH2 0x133 DUP4 LT AND PUSH1 0x4E DUP5 LT PUSH1 0xB DUP5 LT AND OR ISZERO PUSH2 0x56AF JUMPI POP DUP2 DUP2 EXP PUSH2 0x112D JUMP JUMPDEST PUSH2 0x56B9 DUP4 DUP4 PUSH2 0x55F4 JUMP JUMPDEST DUP1 PUSH0 NOT DIV DUP3 GT ISZERO PUSH2 0x56CC JUMPI PUSH2 0x56CC PUSH2 0x4741 JUMP JUMPDEST MUL SWAP4 SWAP3 POP POP POP JUMP JUMPDEST PUSH0 PUSH2 0x26EB PUSH1 0xFF DUP5 AND DUP4 PUSH2 0x5636 JUMP JUMPDEST DUP1 DUP3 MUL DUP2 ISZERO DUP3 DUP3 DIV DUP5 EQ OR PUSH2 0x112D JUMPI PUSH2 0x112D PUSH2 0x4741 JUMP JUMPDEST PUSH0 PUSH1 0x1 DUP3 ADD PUSH2 0x570A JUMPI PUSH2 0x570A PUSH2 0x4741 JUMP JUMPDEST POP PUSH1 0x1 ADD SWAP1 JUMP JUMPDEST DUP2 DUP2 SUB DUP2 DUP2 GT ISZERO PUSH2 0x112D JUMPI PUSH2 0x112D PUSH2 0x4741 JUMP JUMPDEST PUSH0 PUSH1 0x20 DUP3 DUP5 SUB SLT ISZERO PUSH2 0x5734 JUMPI PUSH0 DUP1 REVERT JUMPDEST DUP2 MLOAD PUSH2 0x26EB DUP2 PUSH2 0x499E JUMP JUMPDEST PUSH4 0x4E487B71 PUSH1 0xE0 SHL PUSH0 MSTORE PUSH1 0x12 PUSH1 0x4 MSTORE PUSH1 0x24 PUSH0 REVERT JUMPDEST PUSH0 DUP3 PUSH2 0x5761 JUMPI PUSH2 0x5761 PUSH2 0x573F JUMP JUMPDEST POP DIV SWAP1 JUMP JUMPDEST PUSH0 PUSH1 0xFF DUP4 AND DUP1 PUSH2 0x5778 JUMPI PUSH2 0x5778 PUSH2 0x573F JUMP JUMPDEST DUP1 PUSH1 0xFF DUP5 AND DIV SWAP2 POP POP SWAP3 SWAP2 POP POP JUMP JUMPDEST PUSH1 0x1F DUP3 GT ISZERO PUSH2 0x2470 JUMPI PUSH0 DUP2 DUP2 MSTORE PUSH1 0x20 DUP2 KECCAK256 PUSH1 0x1F DUP6 ADD PUSH1 0x5 SHR DUP2 ADD PUSH1 0x20 DUP7 LT ISZERO PUSH2 0x57AD JUMPI POP DUP1 JUMPDEST PUSH1 0x1F DUP6 ADD PUSH1 0x5 SHR DUP3 ADD SWAP2 POP JUMPDEST DUP2 DUP2 LT ISZERO PUSH2 0x1747 JUMPI DUP3 DUP2 SSTORE PUSH1 0x1 ADD PUSH2 0x57B9 JUMP JUMPDEST DUP2 MLOAD PUSH1 0x1 PUSH1 0x1 PUSH1 0x40 SHL SUB DUP2 GT ISZERO PUSH2 0x57E5 JUMPI PUSH2 0x57E5 PUSH2 0x4AC6 JUMP JUMPDEST PUSH2 0x57F9 DUP2 PUSH2 0x57F3 DUP5 SLOAD PUSH2 0x51D5 JUMP JUMPDEST DUP5 PUSH2 0x5787 JUMP JUMPDEST PUSH1 0x20 DUP1 PUSH1 0x1F DUP4 GT PUSH1 0x1 DUP2 EQ PUSH2 0x582C JUMPI PUSH0 DUP5 ISZERO PUSH2 0x5815 JUMPI POP DUP6 DUP4 ADD MLOAD JUMPDEST PUSH0 NOT PUSH1 0x3 DUP7 SWAP1 SHL SHR NOT AND PUSH1 0x1 DUP6 SWAP1 SHL OR DUP6 SSTORE PUSH2 0x1747 JUMP JUMPDEST PUSH0 DUP6 DUP2 MSTORE PUSH1 0x20 DUP2 KECCAK256 PUSH1 0x1F NOT DUP7 AND SWAP2 JUMPDEST DUP3 DUP2 LT ISZERO PUSH2 0x585A JUMPI DUP9 DUP7 ADD MLOAD DUP3 SSTORE SWAP5 DUP5 ADD SWAP5 PUSH1 0x1 SWAP1 SWAP2 ADD SWAP1 DUP5 ADD PUSH2 0x583B JUMP JUMPDEST POP DUP6 DUP3 LT ISZERO PUSH2 0x5877 JUMPI DUP8 DUP6 ADD MLOAD PUSH0 NOT PUSH1 0x3 DUP9 SWAP1 SHL PUSH1 0xF8 AND SHR NOT AND DUP2 SSTORE JUMPDEST POP POP POP POP POP PUSH1 0x1 SWAP1 DUP2 SHL ADD SWAP1 SSTORE POP JUMP JUMPDEST PUSH0 DUP1 PUSH1 0x40 DUP4 DUP6 SUB SLT ISZERO PUSH2 0x5898 JUMPI PUSH0 DUP1 REVERT JUMPDEST POP POP DUP1 MLOAD PUSH1 0x20 SWAP1 SWAP2 ADD MLOAD SWAP1 SWAP3 SWAP1 SWAP2 POP JUMP JUMPDEST PUSH0 PUSH2 0xFFFF DUP1 DUP9 AND DUP4 MSTORE DUP1 DUP8 AND PUSH1 0x20 DUP5 ADD MSTORE POP DUP5 PUSH1 0x40 DUP4 ADD MSTORE PUSH1 0x80 PUSH1 0x60 DUP4 ADD MSTORE PUSH2 0x1153 PUSH1 0x80 DUP4 ADD DUP5 DUP7 PUSH2 0x521C JUMP JUMPDEST PUSH2 0xFFFF DUP7 AND DUP2 MSTORE PUSH1 0x80 PUSH1 0x20 DUP3 ADD MSTORE PUSH0 PUSH2 0x58F3 PUSH1 0x80 DUP4 ADD DUP7 DUP9 PUSH2 0x521C JUMP JUMPDEST PUSH1 0x1 PUSH1 0x1 PUSH1 0x40 SHL SUB SWAP5 SWAP1 SWAP5 AND PUSH1 0x40 DUP4 ADD MSTORE POP PUSH1 0x60 ADD MSTORE SWAP4 SWAP3 POP POP POP JUMP JUMPDEST PUSH2 0xFFFF DUP6 AND DUP2 MSTORE PUSH1 0x80 PUSH1 0x20 DUP3 ADD MSTORE PUSH0 PUSH2 0x592C PUSH1 0x80 DUP4 ADD DUP7 PUSH2 0x4E89 JUMP JUMPDEST PUSH1 0x1 PUSH1 0x1 PUSH1 0x40 SHL SUB DUP6 AND PUSH1 0x40 DUP5 ADD MSTORE DUP3 DUP2 SUB PUSH1 0x60 DUP5 ADD MSTORE PUSH2 0x1153 DUP2 DUP6 PUSH2 0x4E89 JUMP JUMPDEST PUSH1 0xF0 SWAP5 SWAP1 SWAP5 SHL PUSH1 0x1 PUSH1 0x1 PUSH1 0xF0 SHL SUB NOT AND DUP5 MSTORE PUSH1 0x2 DUP5 ADD SWAP3 SWAP1 SWAP3 MSTORE PUSH1 0x22 DUP4 ADD MSTORE PUSH1 0x60 SHL PUSH12 0xFFFFFFFFFFFFFFFFFFFFFFFF NOT AND PUSH1 0x42 DUP3 ADD MSTORE PUSH1 0x56 ADD SWAP1 JUMP JUMPDEST PUSH2 0xFFFF DUP7 AND DUP2 MSTORE PUSH1 0x1 PUSH1 0x1 PUSH1 0xA0 SHL SUB DUP6 AND PUSH1 0x20 DUP3 ADD MSTORE PUSH1 0xA0 PUSH1 0x40 DUP3 ADD DUP2 SWAP1 MSTORE PUSH0 SWAP1 PUSH2 0x59B6 SWAP1 DUP4 ADD DUP7 PUSH2 0x4E89 JUMP JUMPDEST DUP5 ISZERO ISZERO PUSH1 0x60 DUP5 ADD MSTORE DUP3 DUP2 SUB PUSH1 0x80 DUP5 ADD MSTORE PUSH2 0x59D0 DUP2 DUP6 PUSH2 0x4E89 JUMP JUMPDEST SWAP9 SWAP8 POP POP POP POP POP POP POP POP JUMP JUMPDEST PUSH0 PUSH1 0x20 DUP3 DUP5 SUB SLT ISZERO PUSH2 0x59EC JUMPI PUSH0 DUP1 REVERT JUMPDEST DUP2 MLOAD PUSH2 0x26EB DUP2 PUSH2 0x486F JUMP JUMPDEST PUSH0 DUP3 MLOAD PUSH2 0x5A08 DUP2 DUP5 PUSH1 0x20 DUP8 ADD PUSH2 0x4E67 JUMP JUMPDEST SWAP2 SWAP1 SWAP2 ADD SWAP3 SWAP2 POP POP JUMP JUMPDEST PUSH0 PUSH1 0x20 DUP3 DUP5 SUB SLT ISZERO PUSH2 0x5A22 JUMPI PUSH0 DUP1 REVERT JUMPDEST DUP2 MLOAD PUSH2 0x26EB DUP2 PUSH2 0x488E JUMP JUMPDEST PUSH0 DUP1 PUSH1 0x40 DUP4 DUP6 SUB SLT ISZERO PUSH2 0x5A3E JUMPI PUSH0 DUP1 REVERT JUMPDEST DUP3 MLOAD PUSH2 0x5A49 DUP2 PUSH2 0x486F JUMP JUMPDEST PUSH1 0x20 SWAP4 SWAP1 SWAP4 ADD MLOAD SWAP3 SWAP5 SWAP3 SWAP4 POP POP POP JUMP JUMPDEST PUSH0 PUSH2 0x100 PUSH2 0xFFFF DUP1 DUP13 AND DUP5 MSTORE PUSH1 0x20 PUSH1 0x1 DUP1 PUSH1 0xA0 SHL SUB DUP13 AND DUP2 DUP7 ADD MSTORE PUSH1 0x40 DUP4 DUP2 DUP8 ADD MSTORE PUSH2 0x5A87 DUP5 DUP8 ADD DUP14 PUSH2 0x4E89 JUMP JUMPDEST PUSH1 0x60 DUP8 DUP2 ADD DUP14 SWAP1 MSTORE PUSH1 0x80 DUP9 ADD DUP13 SWAP1 MSTORE DUP8 DUP3 SUB PUSH1 0xA0 DUP10 ADD MSTORE DUP11 MLOAD DUP1 DUP4 MSTORE DUP5 DUP13 ADD SWAP7 POP SWAP1 SWAP2 DUP5 ADD SWAP1 PUSH0 JUMPDEST DUP2 DUP2 LT ISZERO PUSH2 0x5AE7 JUMPI DUP8 MLOAD DUP1 MLOAD DUP9 AND DUP5 MSTORE DUP7 DUP2 ADD MLOAD DUP8 DUP6 ADD MSTORE DUP6 ADD MLOAD PUSH1 0x1 PUSH1 0x1 PUSH1 0x40 SHL SUB AND DUP6 DUP5 ADD MSTORE SWAP7 DUP6 ADD SWAP7 SWAP2 DUP4 ADD SWAP2 PUSH1 0x1 ADD PUSH2 0x5AAF JUMP JUMPDEST POP POP PUSH2 0xFFFF DUP11 AND PUSH1 0xC0 DUP10 ADD MSTORE SWAP6 POP PUSH2 0x5B00 SWAP5 POP POP POP POP POP JUMP JUMPDEST PUSH1 0x1 PUSH1 0x1 PUSH1 0xA0 SHL SUB DUP4 AND PUSH1 0xE0 DUP4 ADD MSTORE PUSH2 0x3AD2 JUMP JUMPDEST PUSH0 PUSH1 0x20 DUP3 DUP5 SUB SLT ISZERO PUSH2 0x5B24 JUMPI PUSH0 DUP1 REVERT JUMPDEST DUP2 MLOAD PUSH2 0x26EB DUP2 PUSH2 0x47CB JUMP JUMPDEST PUSH2 0xFFFF DUP7 AND DUP2 MSTORE PUSH1 0xA0 PUSH1 0x20 DUP3 ADD MSTORE PUSH0 PUSH2 0x5B4B PUSH1 0xA0 DUP4 ADD DUP8 PUSH2 0x4E89 JUMP JUMPDEST PUSH1 0x1 PUSH1 0x1 PUSH1 0x40 SHL SUB DUP7 AND PUSH1 0x40 DUP5 ADD MSTORE DUP3 DUP2 SUB PUSH1 0x60 DUP5 ADD MSTORE PUSH2 0x5B6C DUP2 DUP7 PUSH2 0x4E89 JUMP JUMPDEST SWAP1 POP DUP3 DUP2 SUB PUSH1 0x80 DUP5 ADD MSTORE PUSH2 0x59D0 DUP2 DUP6 PUSH2 0x4E89 JUMP JUMPDEST PUSH1 0x1 DUP1 PUSH1 0xA0 SHL SUB DUP8 AND DUP2 MSTORE DUP6 PUSH1 0x20 DUP3 ADD MSTORE PUSH2 0xFFFF DUP6 AND PUSH1 0x40 DUP3 ADD MSTORE DUP4 PUSH1 0x60 DUP3 ADD MSTORE PUSH4 0xFFFFFFFF DUP4 AND PUSH1 0x80 DUP3 ADD MSTORE PUSH1 0xC0 PUSH1 0xA0 DUP3 ADD MSTORE PUSH0 PUSH2 0x59D0 PUSH1 0xC0 DUP4 ADD DUP5 PUSH2 0x4E89 JUMP JUMPDEST PUSH2 0xFFFF DUP8 AND DUP2 MSTORE PUSH1 0xC0 PUSH1 0x20 DUP3 ADD MSTORE PUSH0 PUSH2 0x5BDE PUSH1 0xC0 DUP4 ADD DUP9 PUSH2 0x4E89 JUMP JUMPDEST DUP3 DUP2 SUB PUSH1 0x40 DUP5 ADD MSTORE PUSH2 0x5BF0 DUP2 DUP9 PUSH2 0x4E89 JUMP JUMPDEST PUSH1 0x1 PUSH1 0x1 PUSH1 0xA0 SHL SUB DUP8 DUP2 AND PUSH1 0x60 DUP7 ADD MSTORE DUP7 AND PUSH1 0x80 DUP6 ADD MSTORE DUP4 DUP2 SUB PUSH1 0xA0 DUP6 ADD MSTORE SWAP1 POP PUSH2 0x3AD2 DUP2 DUP6 PUSH2 0x4E89 JUMP INVALID SWAP10 SWAP14 0x26 0xDE CALLVALUE PUSH20 0x317EAD3EEAF34CA78057F1439DB67B6953469C3C SWAP7 0xCE SWAP13 0xAF PUSH12 0xD7A264697066735822122004 PUSH1 0x55 MUL BASEFEE MULMOD STATICCALL PUSH18 0x1250F56A449FC0BD52A443984EA65BB528C5 CALLDATASIZE 0xC8 0x2F PUSH22 0xCED164736F6C63430008140033000000000000000000 "
		},
		"gasEstimates": {
			"creation": {
				"codeDepositCost": "4733000",
				"executionCost": "infinite",
				"totalCost": "infinite"
			},
			"external": {
				"DEFAULT_PAYLOAD_SIZE_LIMIT()": "283",
				"LatestBridges(uint256)": "24639",
				"_distrustAddress(uint16)": "infinite",
				"_removeWormholeEndpoint(uint16,address)": "infinite",
				"_setWormholeEndpoint(uint16,address)": "infinite",
				"_set_States_(uint256,uint256,bool,uint256,uint256)": "115394",
				"_trustAddress(address,uint16)": "infinite",
				"bridgeErc20((uint16,address,uint256,address,uint256,address))": "infinite",
				"bridgeEth((uint16,address,uint256,uint256,bool,address,address))": "infinite",
				"failedMessages(uint16,bytes,uint64)": "infinite",
				"forceResumeReceive(uint16,bytes)": "infinite",
				"getAccruedFee(address)": "2595",
				"getConfig(uint16,uint16,address,uint256)": "infinite",
				"getErc20Cost(uint16,uint256)": "infinite",
				"getEthBridge(address,uint256,uint16,bool)": "infinite",
				"getEthCost(uint16,bool,uint256,address,uint256)": "infinite",
				"getStates()": "11170",
				"getTKNBridgeIn(address,bytes32)": "infinite",
				"getTKNBridgeOut(address,uint256,uint16)": "infinite",
				"getTKNDelivHash(address,uint256,uint16)": "infinite",
				"getTrustedRemoteAddress(uint16)": "infinite",
				"getUserData(address)": "15963",
				"getUserEthVol(address,uint16)": "infinite",
				"getUserTknVol(address,address,uint16)": "infinite",
				"initWorm(address,address,address)": "infinite",
				"isTrustedRemote(uint16,bytes)": "infinite",
				"lzEndpoint()": "2404",
				"lzReceive(uint16,bytes,uint64,bytes)": "infinite",
				"minDstGasLookup(uint16,uint16)": "infinite",
				"nonblockingLzReceive(uint16,bytes,uint64,bytes)": "infinite",
				"owner()": "2398",
				"payloadSizeLimitLookup(uint16)": "2566",
				"precrime()": "2426",
				"receiveWormholeMessages(bytes,bytes[],bytes32,uint16,bytes32)": "infinite",
				"renounceOwnership()": "infinite",
				"retryMessage(uint16,bytes,uint64,bytes)": "infinite",
				"setConfig(uint16,uint16,uint256,bytes)": "infinite",
				"setGrayzoneAddr(address,uint8)": "infinite",
				"setMinDstGas(uint16,uint16,uint256)": "infinite",
				"setPayloadSizeLimit(uint16,uint256)": "24760",
				"setPrecrime(address)": "27870",
				"setReceiveVersion(uint16)": "infinite",
				"setRegisteredSender(uint16,bytes32)": "24756",
				"setSendVersion(uint16)": "infinite",
				"tBridgeIndex()": "2362",
				"tokenBridge()": "2447",
				"transferOwnership(address)": "infinite",
				"trustedRemoteLookup(uint16)": "infinite",
				"withdrawAccruedFee(address,uint256)": "infinite",
				"withdrawAccruedFeeEth(uint256)": "infinite",
				"withdrawFee(uint256)": "infinite",
				"wormhole()": "2425",
				"wormholeRelayer()": "2424"
			},
			"internal": {
				"_nonblockingLzReceive(uint16,bytes memory,uint64,bytes memory)": "infinite",
				"_processPartner(uint256)": "infinite",
				"_processRef(address,address)": "infinite",
				"receivePayloadAndTokens(bytes memory,struct Structs.TokenReceived memory[] memory,bytes32,uint16,bytes32,bytes memory[] memory)": "infinite"
			}
		},
		"methodIdentifiers": {
			"DEFAULT_PAYLOAD_SIZE_LIMIT()": "c4461834",
			"LatestBridges(uint256)": "e574ffb4",
			"_distrustAddress(uint16)": "4ca68b96",
			"_removeWormholeEndpoint(uint16,address)": "7e63e29d",
			"_setWormholeEndpoint(uint16,address)": "c8fbaf72",
			"_set_States_(uint256,uint256,bool,uint256,uint256)": "6f536504",
			"_trustAddress(address,uint16)": "9c6467c7",
			"bridgeErc20((uint16,address,uint256,address,uint256,address))": "6ab0db6a",
			"bridgeEth((uint16,address,uint256,uint256,bool,address,address))": "8b8e3d14",
			"failedMessages(uint16,bytes,uint64)": "5b8c41e6",
			"forceResumeReceive(uint16,bytes)": "42d65a8d",
			"getAccruedFee(address)": "c2455273",
			"getConfig(uint16,uint16,address,uint256)": "f5ecbdbc",
			"getErc20Cost(uint16,uint256)": "9cd4fd65",
			"getEthBridge(address,uint256,uint16,bool)": "dd6abadd",
			"getEthCost(uint16,bool,uint256,address,uint256)": "2beacf88",
			"getStates()": "d8ab8274",
			"getTKNBridgeIn(address,bytes32)": "242c38d7",
			"getTKNBridgeOut(address,uint256,uint16)": "db0f4de2",
			"getTKNDelivHash(address,uint256,uint16)": "69511ba4",
			"getTrustedRemoteAddress(uint16)": "9f38369a",
			"getUserData(address)": "ffc9896b",
			"getUserEthVol(address,uint16)": "52444592",
			"getUserTknVol(address,address,uint16)": "38aca11b",
			"initWorm(address,address,address)": "e0e10842",
			"isTrustedRemote(uint16,bytes)": "3d8b38f6",
			"lzEndpoint()": "b353aaa7",
			"lzReceive(uint16,bytes,uint64,bytes)": "001d3567",
			"minDstGasLookup(uint16,uint16)": "8cfd8f5c",
			"nonblockingLzReceive(uint16,bytes,uint64,bytes)": "66ad5c8a",
			"owner()": "8da5cb5b",
			"payloadSizeLimitLookup(uint16)": "3f1f4fa4",
			"precrime()": "950c8a74",
			"receiveWormholeMessages(bytes,bytes[],bytes32,uint16,bytes32)": "529dca32",
			"renounceOwnership()": "715018a6",
			"retryMessage(uint16,bytes,uint64,bytes)": "d1deba1f",
			"setConfig(uint16,uint16,uint256,bytes)": "cbed8b9c",
			"setGrayzoneAddr(address,uint8)": "01009b10",
			"setMinDstGas(uint16,uint16,uint256)": "df2a5b3b",
			"setPayloadSizeLimit(uint16,uint256)": "0df37483",
			"setPrecrime(address)": "baf3292d",
			"setReceiveVersion(uint16)": "10ddb137",
			"setRegisteredSender(uint16,bytes32)": "dd12d68b",
			"setSendVersion(uint16)": "07e0db17",
			"tBridgeIndex()": "c9b5ab2b",
			"tokenBridge()": "c6328a46",
			"transferOwnership(address)": "f2fde38b",
			"trustedRemoteLookup(uint16)": "7533d788",
			"withdrawAccruedFee(address,uint256)": "8b8eb98f",
			"withdrawAccruedFeeEth(uint256)": "556bca73",
			"withdrawFee(uint256)": "be357616",
			"wormhole()": "84acd1bb",
			"wormholeRelayer()": "da25b725"
		}
	},
	"abi": [
		{
			"inputs": [
				{
					"internalType": "address",
					"name": "_layerZroEndPoint",
					"type": "address"
				},
				{
					"internalType": "address",
					"name": "_owner",
					"type": "address"
				},
				{
					"internalType": "address",
					"name": "_grayzone",
					"type": "address"
				}
			],
			"stateMutability": "nonpayable",
			"type": "constructor"
		},
		{
			"inputs": [
				{
					"internalType": "bytes32",
					"name": "",
					"type": "bytes32"
				}
			],
			"name": "NotAnEvmAddress",
			"type": "error"
		},
		{
			"inputs": [
				{
					"internalType": "address",
					"name": "owner",
					"type": "address"
				}
			],
			"name": "OwnableInvalidOwner",
			"type": "error"
		},
		{
			"inputs": [
				{
					"internalType": "address",
					"name": "account",
					"type": "address"
				}
			],
			"name": "OwnableUnauthorizedAccount",
			"type": "error"
		},
		{
			"inputs": [],
			"name": "WrongFeeOrParams",
			"type": "error"
		},
		{
			"anonymous": false,
			"inputs": [
				{
					"indexed": false,
					"internalType": "uint16",
					"name": "_srcChainId",
					"type": "uint16"
				},
				{
					"indexed": false,
					"internalType": "bytes",
					"name": "_srcAddress",
					"type": "bytes"
				},
				{
					"indexed": false,
					"internalType": "uint64",
					"name": "_nonce",
					"type": "uint64"
				},
				{
					"indexed": false,
					"internalType": "bytes",
					"name": "_payload",
					"type": "bytes"
				},
				{
					"indexed": false,
					"internalType": "bytes",
					"name": "_reason",
					"type": "bytes"
				}
			],
			"name": "MessageFailed",
			"type": "event"
		},
		{
			"anonymous": false,
			"inputs": [
				{
					"indexed": true,
					"internalType": "address",
					"name": "previousOwner",
					"type": "address"
				},
				{
					"indexed": true,
					"internalType": "address",
					"name": "newOwner",
					"type": "address"
				}
			],
			"name": "OwnershipTransferred",
			"type": "event"
		},
		{
			"anonymous": false,
			"inputs": [
				{
					"indexed": false,
					"internalType": "uint16",
					"name": "_srcChainId",
					"type": "uint16"
				},
				{
					"indexed": false,
					"internalType": "bytes",
					"name": "_srcAddress",
					"type": "bytes"
				},
				{
					"indexed": false,
					"internalType": "uint64",
					"name": "_nonce",
					"type": "uint64"
				},
				{
					"indexed": false,
					"internalType": "bytes32",
					"name": "_payloadHash",
					"type": "bytes32"
				}
			],
			"name": "RetryMessageSuccess",
			"type": "event"
		},
		{
			"anonymous": false,
			"inputs": [
				{
					"indexed": false,
					"internalType": "uint16",
					"name": "_dstChainId",
					"type": "uint16"
				},
				{
					"indexed": false,
					"internalType": "uint16",
					"name": "_type",
					"type": "uint16"
				},
				{
					"indexed": false,
					"internalType": "uint256",
					"name": "_minDstGas",
					"type": "uint256"
				}
			],
			"name": "SetMinDstGas",
			"type": "event"
		},
		{
			"anonymous": false,
			"inputs": [
				{
					"indexed": false,
					"internalType": "address",
					"name": "precrime",
					"type": "address"
				}
			],
			"name": "SetPrecrime",
			"type": "event"
		},
		{
			"anonymous": false,
			"inputs": [
				{
					"indexed": false,
					"internalType": "uint16",
					"name": "_remoteChainId",
					"type": "uint16"
				},
				{
					"indexed": false,
					"internalType": "bytes",
					"name": "_path",
					"type": "bytes"
				}
			],
			"name": "SetTrustedRemote",
			"type": "event"
		},
		{
			"anonymous": false,
			"inputs": [
				{
					"indexed": false,
					"internalType": "uint16",
					"name": "_remoteChainId",
					"type": "uint16"
				},
				{
					"indexed": false,
					"internalType": "bytes",
					"name": "_remoteAddress",
					"type": "bytes"
				}
			],
			"name": "SetTrustedRemoteAddress",
			"type": "event"
		},
		{
			"inputs": [],
			"name": "DEFAULT_PAYLOAD_SIZE_LIMIT",
			"outputs": [
				{
					"internalType": "uint256",
					"name": "",
					"type": "uint256"
				}
			],
			"stateMutability": "view",
			"type": "function"
		},
		{
			"inputs": [
				{
					"internalType": "uint256",
					"name": "",
					"type": "uint256"
				}
			],
			"name": "LatestBridges",
			"outputs": [
				{
					"internalType": "bool",
					"name": "isEth",
					"type": "bool"
				},
				{
					"components": [
						{
							"internalType": "uint16",
							"name": "_lzSrcCh",
							"type": "uint16"
						},
						{
							"internalType": "uint16",
							"name": "_lzDstChId",
							"type": "uint16"
						},
						{
							"internalType": "uint256",
							"name": "amount",
							"type": "uint256"
						},
						{
							"internalType": "address",
							"name": "dstReciver",
							"type": "address"
						},
						{
							"internalType": "uint256",
							"name": "timeStamp",
							"type": "uint256"
						},
						{
							"internalType": "bool",
							"name": "delivered",
							"type": "bool"
						}
					],
					"internalType": "struct Structs.EthBridge",
					"name": "ethbridge",
					"type": "tuple"
				},
				{
					"components": [
						{
							"internalType": "uint16",
							"name": "_wormSrcCh",
							"type": "uint16"
						},
						{
							"internalType": "uint16",
							"name": "_wormDstChId",
							"type": "uint16"
						},
						{
							"internalType": "address",
							"name": "token",
							"type": "address"
						},
						{
							"internalType": "uint256",
							"name": "amount",
							"type": "uint256"
						},
						{
							"internalType": "address",
							"name": "dstReciver",
							"type": "address"
						},
						{
							"internalType": "uint256",
							"name": "timeStamp",
							"type": "uint256"
						},
						{
							"internalType": "bool",
							"name": "delivered",
							"type": "bool"
						}
					],
					"internalType": "struct Structs.TokenBridge",
					"name": "tokenbridge",
					"type": "tuple"
				}
			],
			"stateMutability": "view",
			"type": "function"
		},
		{
			"inputs": [
				{
					"internalType": "uint16",
					"name": "chainId",
					"type": "uint16"
				}
			],
			"name": "_distrustAddress",
			"outputs": [],
			"stateMutability": "nonpayable",
			"type": "function"
		},
		{
			"inputs": [
				{
					"internalType": "uint16",
					"name": "wormholeId",
					"type": "uint16"
				},
				{
					"internalType": "address",
					"name": "contractAddress",
					"type": "address"
				}
			],
			"name": "_removeWormholeEndpoint",
			"outputs": [],
			"stateMutability": "nonpayable",
			"type": "function"
		},
		{
			"inputs": [
				{
					"internalType": "uint16",
					"name": "wormholeId",
					"type": "uint16"
				},
				{
					"internalType": "address",
					"name": "contractAddress",
					"type": "address"
				}
			],
			"name": "_setWormholeEndpoint",
			"outputs": [],
			"stateMutability": "nonpayable",
			"type": "function"
		},
		{
			"inputs": [
				{
					"internalType": "uint256",
					"name": "pointPerTx",
					"type": "uint256"
				},
				{
					"internalType": "uint256",
					"name": "totalPoints",
					"type": "uint256"
				},
				{
					"internalType": "bool",
					"name": "isActive",
					"type": "bool"
				},
				{
					"internalType": "uint256",
					"name": "bridgeFeeEther",
					"type": "uint256"
				},
				{
					"internalType": "uint256",
					"name": "percentFee",
					"type": "uint256"
				}
			],
			"name": "_set_States_",
			"outputs": [],
			"stateMutability": "nonpayable",
			"type": "function"
		},
		{
			"inputs": [
				{
					"internalType": "address",
					"name": "remoteAddress",
					"type": "address"
				},
				{
					"internalType": "uint16",
					"name": "chainId",
					"type": "uint16"
				}
			],
			"name": "_trustAddress",
			"outputs": [],
			"stateMutability": "nonpayable",
			"type": "function"
		},
		{
			"inputs": [
				{
					"components": [
						{
							"internalType": "uint16",
							"name": "targetChain",
							"type": "uint16"
						},
						{
							"internalType": "address",
							"name": "recipient",
							"type": "address"
						},
						{
							"internalType": "uint256",
							"name": "amt",
							"type": "uint256"
						},
						{
							"internalType": "address",
							"name": "token",
							"type": "address"
						},
						{
							"internalType": "uint256",
							"name": "dstGas",
							"type": "uint256"
						},
						{
							"internalType": "address",
							"name": "referal",
							"type": "address"
						}
					],
					"internalType": "struct Inputs.ERC20INPUT",
					"name": "params",
					"type": "tuple"
				}
			],
			"name": "bridgeErc20",
			"outputs": [
				{
					"internalType": "uint64",
					"name": "z",
					"type": "uint64"
				}
			],
			"stateMutability": "payable",
			"type": "function"
		},
		{
			"inputs": [
				{
					"components": [
						{
							"internalType": "uint16",
							"name": "toChainId",
							"type": "uint16"
						},
						{
							"internalType": "address",
							"name": "to",
							"type": "address"
						},
						{
							"internalType": "uint256",
							"name": "amt",
							"type": "uint256"
						},
						{
							"internalType": "uint256",
							"name": "dstGas",
							"type": "uint256"
						},
						{
							"internalType": "bool",
							"name": "useZro",
							"type": "bool"
						},
						{
							"internalType": "address",
							"name": "zroPAddr",
							"type": "address"
						},
						{
							"internalType": "address",
							"name": "referal",
							"type": "address"
						}
					],
					"internalType": "struct Inputs.ETHINPUT",
					"name": "params",
					"type": "tuple"
				}
			],
			"name": "bridgeEth",
			"outputs": [],
			"stateMutability": "payable",
			"type": "function"
		},
		{
			"inputs": [
				{
					"internalType": "uint16",
					"name": "",
					"type": "uint16"
				},
				{
					"internalType": "bytes",
					"name": "",
					"type": "bytes"
				},
				{
					"internalType": "uint64",
					"name": "",
					"type": "uint64"
				}
			],
			"name": "failedMessages",
			"outputs": [
				{
					"internalType": "bytes32",
					"name": "",
					"type": "bytes32"
				}
			],
			"stateMutability": "view",
			"type": "function"
		},
		{
			"inputs": [
				{
					"internalType": "uint16",
					"name": "_srcChainId",
					"type": "uint16"
				},
				{
					"internalType": "bytes",
					"name": "_srcAddress",
					"type": "bytes"
				}
			],
			"name": "forceResumeReceive",
			"outputs": [],
			"stateMutability": "nonpayable",
			"type": "function"
		},
		{
			"inputs": [
				{
					"internalType": "address",
					"name": "token",
					"type": "address"
				}
			],
			"name": "getAccruedFee",
			"outputs": [
				{
					"internalType": "uint256",
					"name": "",
					"type": "uint256"
				}
			],
			"stateMutability": "view",
			"type": "function"
		},
		{
			"inputs": [
				{
					"internalType": "uint16",
					"name": "_version",
					"type": "uint16"
				},
				{
					"internalType": "uint16",
					"name": "_chainId",
					"type": "uint16"
				},
				{
					"internalType": "address",
					"name": "",
					"type": "address"
				},
				{
					"internalType": "uint256",
					"name": "_configType",
					"type": "uint256"
				}
			],
			"name": "getConfig",
			"outputs": [
				{
					"internalType": "bytes",
					"name": "",
					"type": "bytes"
				}
			],
			"stateMutability": "view",
			"type": "function"
		},
		{
			"inputs": [
				{
					"internalType": "uint16",
					"name": "wormholeId",
					"type": "uint16"
				},
				{
					"internalType": "uint256",
					"name": "gasUnits",
					"type": "uint256"
				}
			],
			"name": "getErc20Cost",
			"outputs": [
				{
					"internalType": "uint256",
					"name": "",
					"type": "uint256"
				}
			],
			"stateMutability": "view",
			"type": "function"
		},
		{
			"inputs": [
				{
					"internalType": "address",
					"name": "user",
					"type": "address"
				},
				{
					"internalType": "uint256",
					"name": "Nonce",
					"type": "uint256"
				},
				{
					"internalType": "uint16",
					"name": "LzChain",
					"type": "uint16"
				},
				{
					"internalType": "bool",
					"name": "inOrOut",
					"type": "bool"
				}
			],
			"name": "getEthBridge",
			"outputs": [
				{
					"components": [
						{
							"internalType": "uint16",
							"name": "_lzSrcCh",
							"type": "uint16"
						},
						{
							"internalType": "uint16",
							"name": "_lzDstChId",
							"type": "uint16"
						},
						{
							"internalType": "uint256",
							"name": "amount",
							"type": "uint256"
						},
						{
							"internalType": "address",
							"name": "dstReciver",
							"type": "address"
						},
						{
							"internalType": "uint256",
							"name": "timeStamp",
							"type": "uint256"
						},
						{
							"internalType": "bool",
							"name": "delivered",
							"type": "bool"
						}
					],
					"internalType": "struct Structs.EthBridge",
					"name": "",
					"type": "tuple"
				}
			],
			"stateMutability": "view",
			"type": "function"
		},
		{
			"inputs": [
				{
					"internalType": "uint16",
					"name": "_dstLzId",
					"type": "uint16"
				},
				{
					"internalType": "bool",
					"name": "_useZro",
					"type": "bool"
				},
				{
					"internalType": "uint256",
					"name": "amount",
					"type": "uint256"
				},
				{
					"internalType": "address",
					"name": "sendTo",
					"type": "address"
				},
				{
					"internalType": "uint256",
					"name": "gasUnits",
					"type": "uint256"
				}
			],
			"name": "getEthCost",
			"outputs": [
				{
					"internalType": "uint256",
					"name": "cost",
					"type": "uint256"
				}
			],
			"stateMutability": "view",
			"type": "function"
		},
		{
			"inputs": [],
			"name": "getStates",
			"outputs": [
				{
					"components": [
						{
							"internalType": "uint256",
							"name": "pointPerTx",
							"type": "uint256"
						},
						{
							"internalType": "uint256",
							"name": "totalPoints",
							"type": "uint256"
						},
						{
							"internalType": "bool",
							"name": "isActive",
							"type": "bool"
						},
						{
							"internalType": "uint256",
							"name": "bridgeFeeEther",
							"type": "uint256"
						},
						{
							"internalType": "uint256",
							"name": "percentFee",
							"type": "uint256"
						}
					],
					"internalType": "struct Structs.BridgeData",
					"name": "",
					"type": "tuple"
				}
			],
			"stateMutability": "view",
			"type": "function"
		},
		{
			"inputs": [
				{
					"internalType": "address",
					"name": "user",
					"type": "address"
				},
				{
					"internalType": "bytes32",
					"name": "deliveryHash",
					"type": "bytes32"
				}
			],
			"name": "getTKNBridgeIn",
			"outputs": [
				{
					"components": [
						{
							"internalType": "uint16",
							"name": "_wormSrcCh",
							"type": "uint16"
						},
						{
							"internalType": "uint16",
							"name": "_wormDstChId",
							"type": "uint16"
						},
						{
							"internalType": "address",
							"name": "token",
							"type": "address"
						},
						{
							"internalType": "uint256",
							"name": "amount",
							"type": "uint256"
						},
						{
							"internalType": "address",
							"name": "dstReciver",
							"type": "address"
						},
						{
							"internalType": "uint256",
							"name": "timeStamp",
							"type": "uint256"
						},
						{
							"internalType": "bool",
							"name": "delivered",
							"type": "bool"
						}
					],
					"internalType": "struct Structs.TokenBridge",
					"name": "",
					"type": "tuple"
				}
			],
			"stateMutability": "view",
			"type": "function"
		},
		{
			"inputs": [
				{
					"internalType": "address",
					"name": "user",
					"type": "address"
				},
				{
					"internalType": "uint256",
					"name": "outNonce",
					"type": "uint256"
				},
				{
					"internalType": "uint16",
					"name": "toWormChain",
					"type": "uint16"
				}
			],
			"name": "getTKNBridgeOut",
			"outputs": [
				{
					"components": [
						{
							"internalType": "uint16",
							"name": "_wormSrcCh",
							"type": "uint16"
						},
						{
							"internalType": "uint16",
							"name": "_wormDstChId",
							"type": "uint16"
						},
						{
							"internalType": "address",
							"name": "token",
							"type": "address"
						},
						{
							"internalType": "uint256",
							"name": "amount",
							"type": "uint256"
						},
						{
							"internalType": "address",
							"name": "dstReciver",
							"type": "address"
						},
						{
							"internalType": "uint256",
							"name": "timeStamp",
							"type": "uint256"
						},
						{
							"internalType": "bool",
							"name": "delivered",
							"type": "bool"
						}
					],
					"internalType": "struct Structs.TokenBridge",
					"name": "",
					"type": "tuple"
				}
			],
			"stateMutability": "view",
			"type": "function"
		},
		{
			"inputs": [
				{
					"internalType": "address",
					"name": "user",
					"type": "address"
				},
				{
					"internalType": "uint256",
					"name": "bridgeInNonce",
					"type": "uint256"
				},
				{
					"internalType": "uint16",
					"name": "frmWormChain",
					"type": "uint16"
				}
			],
			"name": "getTKNDelivHash",
			"outputs": [
				{
					"internalType": "bytes32",
					"name": "",
					"type": "bytes32"
				}
			],
			"stateMutability": "view",
			"type": "function"
		},
		{
			"inputs": [
				{
					"internalType": "uint16",
					"name": "_remoteChainId",
					"type": "uint16"
				}
			],
			"name": "getTrustedRemoteAddress",
			"outputs": [
				{
					"internalType": "bytes",
					"name": "",
					"type": "bytes"
				}
			],
			"stateMutability": "view",
			"type": "function"
		},
		{
			"inputs": [
				{
					"internalType": "address",
					"name": "user",
					"type": "address"
				}
			],
			"name": "getUserData",
			"outputs": [
				{
					"components": [
						{
							"internalType": "uint256",
							"name": "ethBridgeOut",
							"type": "uint256"
						},
						{
							"internalType": "uint256",
							"name": "ethBridgeIn",
							"type": "uint256"
						},
						{
							"internalType": "uint256",
							"name": "tokenBridgeOut",
							"type": "uint256"
						},
						{
							"internalType": "uint256",
							"name": "tokenBridgeIn",
							"type": "uint256"
						},
						{
							"internalType": "uint256",
							"name": "totalRef",
							"type": "uint256"
						},
						{
							"internalType": "uint256",
							"name": "points",
							"type": "uint256"
						}
					],
					"internalType": "struct Structs.UserData",
					"name": "",
					"type": "tuple"
				},
				{
					"components": [
						{
							"internalType": "bool",
							"name": "refered",
							"type": "bool"
						},
						{
							"internalType": "address",
							"name": "referer",
							"type": "address"
						}
					],
					"internalType": "struct Structs.Referals",
					"name": "",
					"type": "tuple"
				}
			],
			"stateMutability": "view",
			"type": "function"
		},
		{
			"inputs": [
				{
					"internalType": "address",
					"name": "user",
					"type": "address"
				},
				{
					"internalType": "uint16",
					"name": "toLzChain",
					"type": "uint16"
				}
			],
			"name": "getUserEthVol",
			"outputs": [
				{
					"internalType": "uint256",
					"name": "",
					"type": "uint256"
				}
			],
			"stateMutability": "view",
			"type": "function"
		},
		{
			"inputs": [
				{
					"internalType": "address",
					"name": "user",
					"type": "address"
				},
				{
					"internalType": "address",
					"name": "token",
					"type": "address"
				},
				{
					"internalType": "uint16",
					"name": "toWormId",
					"type": "uint16"
				}
			],
			"name": "getUserTknVol",
			"outputs": [
				{
					"internalType": "uint256",
					"name": "",
					"type": "uint256"
				}
			],
			"stateMutability": "view",
			"type": "function"
		},
		{
			"inputs": [
				{
					"internalType": "address",
					"name": "_wormholeRelayer",
					"type": "address"
				},
				{
					"internalType": "address",
					"name": "_wormholeTokenBridge",
					"type": "address"
				},
				{
					"internalType": "address",
					"name": "_wormholeCore",
					"type": "address"
				}
			],
			"name": "initWorm",
			"outputs": [],
			"stateMutability": "nonpayable",
			"type": "function"
		},
		{
			"inputs": [
				{
					"internalType": "uint16",
					"name": "_srcChainId",
					"type": "uint16"
				},
				{
					"internalType": "bytes",
					"name": "_srcAddress",
					"type": "bytes"
				}
			],
			"name": "isTrustedRemote",
			"outputs": [
				{
					"internalType": "bool",
					"name": "",
					"type": "bool"
				}
			],
			"stateMutability": "view",
			"type": "function"
		},
		{
			"inputs": [],
			"name": "lzEndpoint",
			"outputs": [
				{
					"internalType": "contract ILayerZeroEndpoint",
					"name": "",
					"type": "address"
				}
			],
			"stateMutability": "view",
			"type": "function"
		},
		{
			"inputs": [
				{
					"internalType": "uint16",
					"name": "_srcChainId",
					"type": "uint16"
				},
				{
					"internalType": "bytes",
					"name": "_srcAddress",
					"type": "bytes"
				},
				{
					"internalType": "uint64",
					"name": "_nonce",
					"type": "uint64"
				},
				{
					"internalType": "bytes",
					"name": "_payload",
					"type": "bytes"
				}
			],
			"name": "lzReceive",
			"outputs": [],
			"stateMutability": "nonpayable",
			"type": "function"
		},
		{
			"inputs": [
				{
					"internalType": "uint16",
					"name": "",
					"type": "uint16"
				},
				{
					"internalType": "uint16",
					"name": "",
					"type": "uint16"
				}
			],
			"name": "minDstGasLookup",
			"outputs": [
				{
					"internalType": "uint256",
					"name": "",
					"type": "uint256"
				}
			],
			"stateMutability": "view",
			"type": "function"
		},
		{
			"inputs": [
				{
					"internalType": "uint16",
					"name": "_srcChainId",
					"type": "uint16"
				},
				{
					"internalType": "bytes",
					"name": "_srcAddress",
					"type": "bytes"
				},
				{
					"internalType": "uint64",
					"name": "_nonce",
					"type": "uint64"
				},
				{
					"internalType": "bytes",
					"name": "_payload",
					"type": "bytes"
				}
			],
			"name": "nonblockingLzReceive",
			"outputs": [],
			"stateMutability": "nonpayable",
			"type": "function"
		},
		{
			"inputs": [],
			"name": "owner",
			"outputs": [
				{
					"internalType": "address",
					"name": "",
					"type": "address"
				}
			],
			"stateMutability": "view",
			"type": "function"
		},
		{
			"inputs": [
				{
					"internalType": "uint16",
					"name": "",
					"type": "uint16"
				}
			],
			"name": "payloadSizeLimitLookup",
			"outputs": [
				{
					"internalType": "uint256",
					"name": "",
					"type": "uint256"
				}
			],
			"stateMutability": "view",
			"type": "function"
		},
		{
			"inputs": [],
			"name": "precrime",
			"outputs": [
				{
					"internalType": "address",
					"name": "",
					"type": "address"
				}
			],
			"stateMutability": "view",
			"type": "function"
		},
		{
			"inputs": [
				{
					"internalType": "bytes",
					"name": "payload",
					"type": "bytes"
				},
				{
					"internalType": "bytes[]",
					"name": "additionalVaas",
					"type": "bytes[]"
				},
				{
					"internalType": "bytes32",
					"name": "sourceAddress",
					"type": "bytes32"
				},
				{
					"internalType": "uint16",
					"name": "sourceChain",
					"type": "uint16"
				},
				{
					"internalType": "bytes32",
					"name": "deliveryHash",
					"type": "bytes32"
				}
			],
			"name": "receiveWormholeMessages",
			"outputs": [],
			"stateMutability": "payable",
			"type": "function"
		},
		{
			"inputs": [],
			"name": "renounceOwnership",
			"outputs": [],
			"stateMutability": "nonpayable",
			"type": "function"
		},
		{
			"inputs": [
				{
					"internalType": "uint16",
					"name": "_srcChainId",
					"type": "uint16"
				},
				{
					"internalType": "bytes",
					"name": "_srcAddress",
					"type": "bytes"
				},
				{
					"internalType": "uint64",
					"name": "_nonce",
					"type": "uint64"
				},
				{
					"internalType": "bytes",
					"name": "_payload",
					"type": "bytes"
				}
			],
			"name": "retryMessage",
			"outputs": [],
			"stateMutability": "payable",
			"type": "function"
		},
		{
			"inputs": [
				{
					"internalType": "uint16",
					"name": "_version",
					"type": "uint16"
				},
				{
					"internalType": "uint16",
					"name": "_chainId",
					"type": "uint16"
				},
				{
					"internalType": "uint256",
					"name": "_configType",
					"type": "uint256"
				},
				{
					"internalType": "bytes",
					"name": "_config",
					"type": "bytes"
				}
			],
			"name": "setConfig",
			"outputs": [],
			"stateMutability": "nonpayable",
			"type": "function"
		},
		{
			"inputs": [
				{
					"internalType": "address",
					"name": "addr",
					"type": "address"
				},
				{
					"internalType": "uint8",
					"name": "num",
					"type": "uint8"
				}
			],
			"name": "setGrayzoneAddr",
			"outputs": [],
			"stateMutability": "nonpayable",
			"type": "function"
		},
		{
			"inputs": [
				{
					"internalType": "uint16",
					"name": "_dstChainId",
					"type": "uint16"
				},
				{
					"internalType": "uint16",
					"name": "_packetType",
					"type": "uint16"
				},
				{
					"internalType": "uint256",
					"name": "_minGas",
					"type": "uint256"
				}
			],
			"name": "setMinDstGas",
			"outputs": [],
			"stateMutability": "nonpayable",
			"type": "function"
		},
		{
			"inputs": [
				{
					"internalType": "uint16",
					"name": "_dstChainId",
					"type": "uint16"
				},
				{
					"internalType": "uint256",
					"name": "_size",
					"type": "uint256"
				}
			],
			"name": "setPayloadSizeLimit",
			"outputs": [],
			"stateMutability": "nonpayable",
			"type": "function"
		},
		{
			"inputs": [
				{
					"internalType": "address",
					"name": "_precrime",
					"type": "address"
				}
			],
			"name": "setPrecrime",
			"outputs": [],
			"stateMutability": "nonpayable",
			"type": "function"
		},
		{
			"inputs": [
				{
					"internalType": "uint16",
					"name": "_version",
					"type": "uint16"
				}
			],
			"name": "setReceiveVersion",
			"outputs": [],
			"stateMutability": "nonpayable",
			"type": "function"
		},
		{
			"inputs": [
				{
					"internalType": "uint16",
					"name": "sourceChain",
					"type": "uint16"
				},
				{
					"internalType": "bytes32",
					"name": "sourceAddress",
					"type": "bytes32"
				}
			],
			"name": "setRegisteredSender",
			"outputs": [],
			"stateMutability": "nonpayable",
			"type": "function"
		},
		{
			"inputs": [
				{
					"internalType": "uint16",
					"name": "_version",
					"type": "uint16"
				}
			],
			"name": "setSendVersion",
			"outputs": [],
			"stateMutability": "nonpayable",
			"type": "function"
		},
		{
			"inputs": [],
			"name": "tBridgeIndex",
			"outputs": [
				{
					"internalType": "uint256",
					"name": "",
					"type": "uint256"
				}
			],
			"stateMutability": "view",
			"type": "function"
		},
		{
			"inputs": [],
			"name": "tokenBridge",
			"outputs": [
				{
					"internalType": "contract ITokenBridge",
					"name": "",
					"type": "address"
				}
			],
			"stateMutability": "view",
			"type": "function"
		},
		{
			"inputs": [
				{
					"internalType": "address",
					"name": "newOwner",
					"type": "address"
				}
			],
			"name": "transferOwnership",
			"outputs": [],
			"stateMutability": "nonpayable",
			"type": "function"
		},
		{
			"inputs": [
				{
					"internalType": "uint16",
					"name": "",
					"type": "uint16"
				}
			],
			"name": "trustedRemoteLookup",
			"outputs": [
				{
					"internalType": "bytes",
					"name": "",
					"type": "bytes"
				}
			],
			"stateMutability": "view",
			"type": "function"
		},
		{
			"inputs": [
				{
					"internalType": "address",
					"name": "token",
					"type": "address"
				},
				{
					"internalType": "uint256",
					"name": "amount",
					"type": "uint256"
				}
			],
			"name": "withdrawAccruedFee",
			"outputs": [],
			"stateMutability": "nonpayable",
			"type": "function"
		},
		{
			"inputs": [
				{
					"internalType": "uint256",
					"name": "amount",
					"type": "uint256"
				}
			],
			"name": "withdrawAccruedFeeEth",
			"outputs": [],
			"stateMutability": "nonpayable",
			"type": "function"
		},
		{
			"inputs": [
				{
					"internalType": "uint256",
					"name": "amount",
					"type": "uint256"
				}
			],
			"name": "withdrawFee",
			"outputs": [],
			"stateMutability": "nonpayable",
			"type": "function"
		},
		{
			"inputs": [],
			"name": "wormhole",
			"outputs": [
				{
					"internalType": "contract IWormhole",
					"name": "",
					"type": "address"
				}
			],
			"stateMutability": "view",
			"type": "function"
		},
		{
			"inputs": [],
			"name": "wormholeRelayer",
			"outputs": [
				{
					"internalType": "contract IWormholeRelayer",
					"name": "",
					"type": "address"
				}
			],
			"stateMutability": "view",
			"type": "function"
		},
		{
			"stateMutability": "payable",
			"type": "receive"
		}
	]
}