{
	"data": {
		"bytecode": {
			"linkReferences": {},
			"object": "60a0604052600e805460ff60a01b1916600560a11b17905534801562000023575f80fd5b5060405162005ffc38038062005ffc833981016040819052620000469162000123565b828080846001600160a01b0381166200007857604051631e4fbdf760e01b81525f600482015260240160405180910390fd5b6200008381620000b6565b506001600160a01b03908116608052600e80546001600160a01b0319169490911693909317909255506200016a92505050565b600580546001600160a01b038381166001600160a01b0319831681179093556040519116919082907f8be0079c531659141344cd1fd0a4f28419497f9722a3daafe3b4186f6b6457e0905f90a35050565b80516001600160a01b03811681146200011e575f80fd5b919050565b5f805f6060848603121562000136575f80fd5b620001418462000107565b9250620001516020850162000107565b9150620001616040850162000107565b90509250925092565b608051615e1e620001de5f395f818161086e01528181610d610152818161100b015281816110ad015281816112bf015281816121720152818161270301528181612cf701528181612f1101528181612fb4015281816135bf015281816141c50152818161426801526144120152615e1e5ff3fe608060405260043610610343575f3560e01c80638da5cb5b116101bd578063cbed8b9c116100f2578063df2a5b3b11610092578063eb8d72b71161006d578063eb8d72b714610c97578063f2fde38b14610cb6578063f5ecbdbc14610cd5578063ffc9896b14610cf4575f80fd5b8063df2a5b3b14610b48578063e0e1084214610b67578063e574ffb414610b86575f80fd5b8063da25b725116100cd578063da25b725146109f3578063db0f4de214610a11578063dd12d68b14610afd578063dd6abadd14610b1c575f80fd5b8063cbed8b9c1461096a578063d1deba1f14610989578063d8ab82741461099c575f80fd5b8063baf3292d1161015d578063c446183411610138578063c446183414610902578063c6328a4614610917578063c8fbaf7214610936578063c9b5ab2b14610955575f80fd5b8063baf3292d14610890578063be357616146108af578063c2455273146108ce575f80fd5b80639cd4fd65116101985780639cd4fd65146108005780639f38369a1461081f578063a6c3d1651461083e578063b353aaa71461085d575f80fd5b80638da5cb5b146107a5578063950c8a74146107c25780639c6467c7146107e1575f80fd5b8063529dca3211610293578063715018a61161023357806384acd1bb1161020e57806384acd1bb146107065780638b8e3d141461073d5780638b8eb98f146107505780638cfd8f5c1461076f575f80fd5b8063715018a6146106a75780637533d788146106bb5780637e63e29d146106e7575f80fd5b806366ad5c8a1161026e57806366ad5c8a1461060357806369511ba4146106225780636ab0db6a146106755780636f53650414610688575f80fd5b8063529dca3214610584578063556bca73146105975780635b8c41e6146105b6575f80fd5b80632beacf88116102fe5780633f1f4fa4116102d95780633f1f4fa4146104d157806342d65a8d146104fc5780634ca68b961461051b578063524445921461053a575f80fd5b80632beacf881461042057806338aca11b1461044d5780633d8b38f6146104a2575f80fd5b80621d35671461034e57806301009b101461036f57806307e0db171461038e5780630df37483146103ad57806310ddb137146103cc578063242c38d7146103eb575f80fd5b3661034a57005b5f80fd5b348015610359575f80fd5b5061036d6103683660046148af565b610d5e565b005b34801561037a575f80fd5b5061036d61038936600461496c565b610f89565b348015610399575f80fd5b5061036d6103a83660046149a3565b610fea565b3480156103b8575f80fd5b5061036d6103c73660046149be565b61106e565b3480156103d7575f80fd5b5061036d6103e63660046149a3565b61108c565b3480156103f6575f80fd5b5061040a6104053660046149e8565b6110e4565b6040516104179190614a60565b60405180910390f35b34801561042b575f80fd5b5061043f61043a366004614a7b565b6111ac565b604051908152602001610417565b348015610458575f80fd5b5061043f610467366004614ad2565b6001600160a01b039283165f9081526016602090815260408083209490951682526005909301835283812061ffff9290921681529152205490565b3480156104ad575f80fd5b506104c16104bc366004614b1a565b6111d7565b6040519015158152602001610417565b3480156104dc575f80fd5b5061043f6104eb3660046149a3565b600b6020525f908152604090205481565b348015610507575f80fd5b5061036d610516366004614b1a565b6112a0565b348015610526575f80fd5b5061036d6105353660046149a3565b611321565b348015610545575f80fd5b5061043f610554366004614b6a565b6001600160a01b0382165f90815260166020908152604080832061ffff8516845260040190915290205492915050565b61036d610592366004614ce2565b611347565b3480156105a2575f80fd5b5061036d6105b1366004614dbd565b6117ef565b3480156105c1575f80fd5b5061043f6105d0366004614dd4565b600d60209081525f9384526040808520845180860184018051928152908401958401959095209452929052825290205481565b34801561060e575f80fd5b5061036d61061d3660046148af565b611864565b34801561062d575f80fd5b5061043f61063c366004614e28565b6001600160a01b0383165f908152601660209081526040808320858452600801825280832061ffff851684529091529020549392505050565b6104c1610683366004614e5c565b611936565b348015610693575f80fd5b5061036d6106a2366004614ef2565b611e7b565b3480156106b2575f80fd5b5061036d611ed0565b3480156106c6575f80fd5b506106da6106d53660046149a3565b611ee3565b6040516104179190614f84565b3480156106f2575f80fd5b5061036d610701366004614f96565b611f7a565b348015610711575f80fd5b50600154610725906001600160a01b031681565b6040516001600160a01b039091168152602001610417565b61036d61074b366004614fc2565b611fcc565b34801561075b575f80fd5b5061036d61076a3660046149e8565b61234f565b34801561077a575f80fd5b5061043f61078936600461506b565b600a60209081525f928352604080842090915290825290205481565b3480156107b0575f80fd5b506005546001600160a01b0316610725565b3480156107cd575f80fd5b50600c54610725906001600160a01b031681565b3480156107ec575f80fd5b5061036d6107fb366004614b6a565b6123f6565b34801561080b575f80fd5b5061043f61081a3660046149be565b61244c565b34801561082a575f80fd5b506106da6108393660046149a3565b61246c565b348015610849575f80fd5b5061036d610858366004614b1a565b612576565b348015610868575f80fd5b506107257f000000000000000000000000000000000000000000000000000000000000000081565b34801561089b575f80fd5b5061036d6108aa366004615087565b6125fe565b3480156108ba575f80fd5b5061036d6108c9366004614dbd565b61265a565b3480156108d9575f80fd5b5061043f6108e8366004615087565b6001600160a01b03165f9081526017602052604090205490565b34801561090d575f80fd5b5061043f61271081565b348015610922575f80fd5b50600454610725906001600160a01b031681565b348015610941575f80fd5b5061036d610950366004614f96565b61268c565b348015610960575f80fd5b5061043f60105481565b348015610975575f80fd5b5061036d6109843660046150a2565b6126e4565b61036d6109973660046148af565b612774565b3480156109a7575f80fd5b506109b0612984565b60405161041791905f60a0820190508251825260208301516020830152604083015115156040830152606083015160608301526080830151608083015292915050565b3480156109fe575f80fd5b505f54610725906001600160a01b031681565b348015610a1c575f80fd5b5061040a610a2b366004614e28565b6040805160e0810182525f80825260208201819052918101829052606081018290526080810182905260a0810182905260c0810191909152506001600160a01b038084165f908152601660209081526040808320868452600701825280832061ffff808716855290835292819020815160e08101835281548086168252620100008104909516938101939093526401000000009093048416908201526001820154606082015260028201549092166080830152600381015460a08301526004015460ff16151560c08201529392505050565b348015610b08575f80fd5b5061036d610b173660046149be565b6129ed565b348015610b27575f80fd5b50610b3b610b3636600461510f565b612a69565b60405161041791906151aa565b348015610b53575f80fd5b5061036d610b623660046151b8565b612bb7565b348015610b72575f80fd5b5061036d610b813660046151f6565b612c20565b348015610b91575f80fd5b50610c88610ba0366004614dbd565b601860209081525f9182526040918290208054835160c08082018652600184015461ffff8082168452620100009182900481168488015260028601548489015260038601546001600160a01b039081166060808701919091526004880154608080880191909152600589015460ff908116151560a0808a01919091528c5160e081018e5260068c015480881682529788049096169b86019b909b5264010000000090950483169a84019a909a5260078801549083015260088701541697810197909752600985015495870195909552600a909301548416151592850192909252919091169183565b60405161041793929190615233565b348015610ca2575f80fd5b5061036d610cb1366004614b1a565b612c33565b348015610cc1575f80fd5b5061036d610cd0366004615087565b612c8c565b348015610ce0575f80fd5b506106da610cef366004615257565b612cc6565b348015610cff575f80fd5b50610d13610d0e366004615087565b612d73565b60408051835181526020808501518183015284830151928201929092526060938401519381019390935281511515608084015201516001600160a01b031660a082015260c001610417565b337f00000000000000000000000000000000000000000000000000000000000000006001600160a01b031614610ddb5760405162461bcd60e51b815260206004820152601e60248201527f4c7a4170703a20696e76616c696420656e64706f696e742063616c6c6572000060448201526064015b60405180910390fd5b61ffff86165f9081526009602052604081208054610df8906152a5565b80601f0160208091040260200160405190810160405280929190818152602001828054610e24906152a5565b8015610e6f5780601f10610e4657610100808354040283529160200191610e6f565b820191905f5260205f20905b815481529060010190602001808311610e5257829003601f168201915b50505050509050805186869050148015610e8957505f8151115b8015610eb1575080516020820120604051610ea790889088906152dd565b6040518091039020145b610f0c5760405162461bcd60e51b815260206004820152602660248201527f4c7a4170703a20696e76616c696420736f757263652073656e64696e6720636f6044820152651b9d1c9858dd60d21b6064820152608401610dd2565b610f808787878080601f0160208091040260200160405190810160405280939291908181526020018383808284375f9201919091525050604080516020601f8a018190048102820181019092528881528a9350915088908890819084018382808284375f92019190915250612e1292505050565b50505050505050565b600e546001600160a01b031633148015610fa65750600b8160ff16105b610fae575f80fd5b600e80546001600160a01b039093166001600160a01b031960ff909316600160a01b02929092166001600160a81b031990931692909217179055565b610ff2612e8a565b6040516307e0db1760e01b815261ffff821660048201527f00000000000000000000000000000000000000000000000000000000000000006001600160a01b0316906307e0db17906024015b5f604051808303815f87803b158015611055575f80fd5b505af1158015611067573d5f803e3d5ffd5b5050505050565b611076612e8a565b61ffff9091165f908152600b6020526040902055565b611094612e8a565b6040516310ddb13760e01b815261ffff821660048201527f00000000000000000000000000000000000000000000000000000000000000006001600160a01b0316906310ddb1379060240161103e565b6040805160e0810182525f80825260208201819052918101829052606081018290526080810182905260a0810182905260c0810191909152506001600160a01b038083165f908152601660209081526040808320858452600601825291829020825160e081018452815461ffff808216835262010000820416938201939093526401000000009092048416928201929092526001820154606082015260028201549092166080830152600381015460a08301526004015460ff16151560c08201525b92915050565b5f806111bb8787878787612eb7565b506014549091506111cc9082615300565b979650505050505050565b61ffff83165f90815260096020526040812080548291906111f7906152a5565b80601f0160208091040260200160405190810160405280929190818152602001828054611223906152a5565b801561126e5780601f106112455761010080835404028352916020019161126e565b820191905f5260205f20905b81548152906001019060200180831161125157829003601f168201915b5050505050905083836040516112859291906152dd565b60405180910390208180519060200120149150509392505050565b6112a8612e8a565b6040516342d65a8d60e01b81526001600160a01b037f000000000000000000000000000000000000000000000000000000000000000016906342d65a8d906112f89086908690869060040161533b565b5f604051808303815f87803b15801561130f575f80fd5b505af1158015610f80573d5f803e3d5ffd5b611329612e8a565b61ffff81165f90815260096020526040812061134491614781565b50565b5f84516001600160401b0381111561136157611361614b96565b6040519080825280602002602001820160405280156113b857816020015b6040805160a0810182525f808252602080830182905292820181905260608201819052608082015282525f1990920191018161137f5790505b5090505f5b85518110156117d85760015486515f916001600160a01b03169063a9e11893908990859081106113ef576113ef615358565b60200260200101516040518263ffffffff1660e01b81526004016114139190614f84565b5f60405180830381865afa15801561142d573d5f803e3d5ffd5b505050506040513d5f823e601f3d908101601f19168201604052611454919081019061548e565b60048054606083015160405163ad66a5f160e01b81529394506001600160a01b039091169263ad66a5f19261149492910161ffff91909116815260200190565b602060405180830381865afa1580156114af573d5f803e3d5ffd5b505050506040513d601f19601f820116820180604052508101906114d391906155ac565b81608001511461151e5760405162461bcd60e51b81526020600482015260166024820152754e6f74206120546f6b656e204272696467652056414160501b6044820152606401610dd2565b6004805460e083015160405163ea63738d60e01b81525f936001600160a01b039093169263ea63738d9261155492909101614f84565b5f60405180830381865afa15801561156e573d5f803e3d5ffd5b505050506040513d5f823e601f3d908101601f1916820160405261159591908101906155c3565b9050308160800151148015611628575060015f9054906101000a90046001600160a01b03166001600160a01b0316639a8a05926040518163ffffffff1660e01b8152600401602060405180830381865afa1580156115f5573d5f803e3d5ffd5b505050506040513d601f19601f820116820180604052508101906116199190615686565b61ffff168160a0015161ffff16145b61167f5760405162461bcd60e51b815260206004820152602260248201527f546f6b656e20776173206e6f742073656e7420746f2074686973206164647265604482015261737360f01b6064820152608401610dd2565b60045488516001600160a01b039091169063c3f511c1908a90869081106116a8576116a8615358565b60200260200101516040518263ffffffff1660e01b81526004016116cc9190614f84565b5f604051808303815f875af11580156116e7573d5f803e3d5ffd5b505050506040513d5f823e601f3d908101601f1916820160405261170e91908101906156a1565b505f6117228260600151836040015161304d565b90505f61172e8261314a565b6020840151909150600860ff831611156117655761174d6008836156d2565b61175890600a6157cb565b61176290826157d9565b90505b6040518060a0016040528085604001518152602001856060015161ffff168152602001846001600160a01b0316815260200182815260200185602001518152508787815181106117b7576117b7615358565b60200260200101819052505050505050806117d1906157f0565b90506113bd565b506117e786828686868a6131e1565b505050505050565b6117f7612e8a565b5f80805260176020527fd840e16649f6b9a295d95876f4633d3a6b10b55e8162971cf78afd886d5ec89b8054839290611831908490615808565b9091555050604051339082156108fc029083905f818181858888f19350505050158015611860573d5f803e3d5ffd5b5050565b3330146118c25760405162461bcd60e51b815260206004820152602660248201527f4e6f6e626c6f636b696e674c7a4170703a2063616c6c6572206d7573742062656044820152650204c7a4170760d41b6064820152608401610dd2565b6117e78686868080601f0160208091040260200160405190810160405280939291908181526020018383808284375f9201919091525050604080516020601f8901819004810282018101909252878152899350915087908790819084018382808284375f9201919091525061355892505050565b604080820151825161ffff165f9081526007602052918220546001600160a01b0316158015611963575080155b801561197a575060608301516001600160a01b0316155b806119945750611991835f0151846080015161244c565b34105b156119b257604051637e43b99760e01b815260040160405180910390fd5b335f8181526016602052604080822054601554606088015192516323b872dd60e01b815260048101959095523060248601526044850186905290939092916001600160a01b0316906323b872dd906064016020604051808303815f875af1158015611a1f573d5f803e3d5ffd5b505050506040513d601f19601f82011682018060405250810190611a43919061581b565b905080611a6b5760405162461bcd60e51b8152602060048201525f6024820152604401610dd2565b60145415611a8257601454611a7f906137c4565b50505b8115611b04576103e8828760400151611a9b91906157d9565b611aa5919061584a565b8660400151611ab49190615808565b93506103e8828760400151611ac991906157d9565b611ad3919061584a565b60608701516001600160a01b03165f9081526017602052604081208054909190611afe908490615300565b90915550505b855161ffff81165f9081526007602090815260409091205490880151606089015160808a0151611b4194936001600160a01b03169291899161383a565b945084611b695760405162461bcd60e51b8152602060048201525f6024820152604401610dd2565b600e54611b8290606490600160a01b900460ff1661585d565b601454611b929160ff16906157d9565b601454611b9f9190615808565b600f5f828254611baf9190615300565b90915550611bc09050836001615300565b335f90815260166020908152604080832093909355825160e08101808552600154634d4502c960e11b90915293519293909283926001600160a01b0390921691639a8a05929160e48086019291908187030181865afa158015611c25573d5f803e3d5ffd5b505050506040513d601f19601f82011682018060405250810190611c499190615686565b61ffff168152602001885f015161ffff16815260200188606001516001600160a01b0316815260200186815260200188602001516001600160a01b031681526020014281526020016001151581525090508060165f336001600160a01b03166001600160a01b031681526020019081526020015f206004016003015f8681526020019081526020015f205f895f015161ffff1661ffff1681526020019081526020015f205f820151815f015f6101000a81548161ffff021916908361ffff1602179055506020820151815f0160026101000a81548161ffff021916908361ffff1602179055506040820151815f0160046101000a8154816001600160a01b0302191690836001600160a01b03160217905550606082015181600101556080820151816002015f6101000a8154816001600160a01b0302191690836001600160a01b0316021790555060a0820151816003015560c0820151816004015f6101000a81548160ff02191690831515021790555090505060115f015460165f336001600160a01b03166001600160a01b031681526020019081526020015f205f016003015f828254611df89190615300565b9091555050601154601280545f90611e11908490615300565b9091555050335f90815260166020908152604080832060608b01516001600160a01b0316845260050182528083208a5161ffff16845290915281208054879290611e5c908490615300565b92505081905550611e71338860a0015161392c565b5050505050919050565b611e83612e8a565b6040805160a081018252868152602081018690529315159084018190526060840183905260809093018190526011949094556012929092556013805460ff19169091179055601455601555565b611ed8612e8a565b611ee15f613a6a565b565b60096020525f908152604090208054611efb906152a5565b80601f0160208091040260200160405190810160405280929190818152602001828054611f27906152a5565b8015611f725780601f10611f4957610100808354040283529160200191611f72565b820191905f5260205f20905b815481529060010190602001808311611f5557829003601f168201915b505050505081565b611f82612e8a565b61ffff9091165f8181526006602090815260408083206001600160a01b039095168352938152838220805460ff1916905591815260079091522080546001600160a01b0319169055565b604081015180158015611fea575060208201516001600160a01b0316155b8061200f575061200c825f0151836080015183856020015186606001516111ac565b34105b1561202d57604051637e43b99760e01b815260040160405180910390fd5b601454601554335f9081526016602052604090205461204d816001615300565b335f90815260166020526040902055821561206f5761206b836137c4565b5092505b81156120a4576103e882866040015161208891906157d9565b612092919061584a565b85604001516120a19190615808565b93505b5f6120c6865f015187602001518789606001518a608001518b60a00151613abb565b9050806120ee5760405162461bcd60e51b8152602060048201525f6024820152604401610dd2565b6103e883876040015161210191906157d9565b61210b919061584a565b5f80805260176020527fd840e16649f6b9a295d95876f4633d3a6b10b55e8162971cf78afd886d5ec89b8054909190612145908490615300565b9250508190555083600f5f82825461215d9190615300565b925050819055505f6040518060c001604052807f00000000000000000000000000000000000000000000000000000000000000006001600160a01b0316633408e4706040518163ffffffff1660e01b8152600401602060405180830381865afa1580156121cc573d5f803e3d5ffd5b505050506040513d601f19601f820116820180604052508101906121f09190615686565b61ffff908116825289511660208083019190915260408083018a90528a8201516001600160a01b03166060840152426080840152600160a090930192909252601154335f908152601690925291812060030180549394509192612254908490615300565b9091555050601154601280545f9061226d908490615300565b9091555050335f8181526016602081815260408084208885526009810183528185208d5161ffff9081168752908452828620885181548a87015191841663ffffffff1990911617620100009184169190910217815588840151600182015560608901516002820180546001600160a01b0319166001600160a01b039092169190911790556080890151600382015560a08901516004918201805460ff19169115159190911790559686529383528c519093168452939091019052908120805488929061233a908490615300565b92505081905550610f80338860c0015161392c565b612357612e8a565b6001600160a01b0382165f908152601760205260408120805483929061237e908490615808565b909155505060405163a9059cbb60e01b8152336004820152602481018290526001600160a01b0383169063a9059cbb906044016020604051808303815f875af11580156123cd573d5f803e3d5ffd5b505050506040513d601f19601f820116820180604052508101906123f1919061581b565b505050565b6123fe612e8a565b6040516001600160601b0319606084811b8216602084015230901b16603482015260480160408051601f1981840301815291815261ffff83165f908152600960205220906123f190826158c3565b6014545f9061245b8484613b33565b6124659190615300565b9392505050565b61ffff81165f9081526009602052604081208054606092919061248e906152a5565b80601f01602080910402602001604051908101604052809291908181526020018280546124ba906152a5565b80156125055780601f106124dc57610100808354040283529160200191612505565b820191905f5260205f20905b8154815290600101906020018083116124e857829003601f168201915b5050505050905080515f0361255c5760405162461bcd60e51b815260206004820152601d60248201527f4c7a4170703a206e6f20747275737465642070617468207265636f72640000006044820152606401610dd2565b6124655f6014835161256e9190615808565b839190613c28565b61257e612e8a565b8181306040516020016125939392919061597e565b60408051601f1981840301815291815261ffff85165f908152600960205220906125bd90826158c3565b507f8c0400cfe2d1199b1a725c78960bcc2a344d869b80590d0f2bd005db15a572ce8383836040516125f19392919061533b565b60405180910390a1505050565b612606612e8a565b600c80546001600160a01b0319166001600160a01b0383169081179091556040519081527f5db758e995a17ec1ad84bdef7e8c3293a0bd6179bcce400dff5d4c3d87db726b9060200160405180910390a150565b612662612e8a565b604051339082156108fc029083905f818181858888f19350505050158015611860573d5f803e3d5ffd5b612694612e8a565b61ffff9091165f8181526006602090815260408083206001600160a01b03909516808452948252808320805460ff19166001179055928252600790522080546001600160a01b0319169091179055565b6126ec612e8a565b6040516332fb62e760e21b81526001600160a01b037f0000000000000000000000000000000000000000000000000000000000000000169063cbed8b9c90612740908890889088908890889060040161599f565b5f604051808303815f87803b158015612757575f80fd5b505af1158015612769573d5f803e3d5ffd5b505050505050505050565b61ffff86165f908152600d6020526040808220905161279690889088906152dd565b90815260408051602092819003830190206001600160401b0387165f90815292529020549050806128155760405162461bcd60e51b815260206004820152602360248201527f4e6f6e626c6f636b696e674c7a4170703a206e6f2073746f726564206d65737360448201526261676560e81b6064820152608401610dd2565b8083836040516128269291906152dd565b6040518091039020146128855760405162461bcd60e51b815260206004820152602160248201527f4e6f6e626c6f636b696e674c7a4170703a20696e76616c6964207061796c6f616044820152601960fa1b6064820152608401610dd2565b61ffff87165f908152600d602052604080822090516128a790899089906152dd565b90815260408051602092819003830181206001600160401b0389165f90815290845282902093909355601f8801829004820283018201905286825261293c91899189908990819084018382808284375f9201919091525050604080516020601f8a018190048102820181019092528881528a9350915088908890819084018382808284375f9201919091525061355892505050565b7fc264d91f3adc5588250e1551f547752ca0cfa8f6b530d243b9f9f4cab10ea8e587878787856040516129739594939291906159cc565b60405180910390a150505050505050565b6129b36040518060a001604052805f81526020015f81526020015f151581526020015f81526020015f81525090565b506040805160a0810182526011548152601254602082015260135460ff161515918101919091526014546060820152601554608082015290565b6002546001600160a01b03163314612a535760405162461bcd60e51b8152602060048201526024808201527f4e6f7420616c6c6f77656420746f207365742072656769737465726564207365604482015263373232b960e11b6064820152608401610dd2565b61ffff9091165f90815260036020526040902055565b6040805160c0810182525f80825260208201819052918101829052606081018290526080810182905260a081019190915281612b2957506001600160a01b038481165f908152601660209081526040808320878452600901825280832061ffff878116855290835292819020815160c0810183528154808616825262010000900490941692840192909252600182015490830152600281015490921660608201526003820154608082015260049091015460ff16151560a0820152612baf565b506001600160a01b038481165f908152601660209081526040808320878452600a01825280832061ffff878116855290835292819020815160c0810183528154808616825262010000900490941692840192909252600182015490830152600281015490921660608201526003820154608082015260049091015460ff16151560a08201525b949350505050565b612bbf612e8a565b61ffff8381165f818152600a602090815260408083209487168084529482529182902085905581519283528201929092529081018290527f9d5c7c0b934da8fefa9c7760c98383778a12dfbfc0c3b3106518f43fb9508ac0906060016125f1565b612c28612e8a565b6123f1838383613d34565b612c3b612e8a565b61ffff83165f908152600960205260409020612c58828483615a06565b507ffa41487ad5d6728f0b19276fa1eddc16558578f5109fc39d2dc33c3230470dab8383836040516125f19392919061533b565b612c94612e8a565b6001600160a01b038116612cbd57604051631e4fbdf760e01b81525f6004820152602401610dd2565b61134481613a6a565b604051633d7b2f6f60e21b815261ffff808616600483015284166024820152306044820152606481018290526060907f00000000000000000000000000000000000000000000000000000000000000006001600160a01b03169063f5ecbdbc906084015f60405180830381865afa158015612d43573d5f803e3d5ffd5b505050506040513d5f823e601f3d908101601f19168201604052612d6a91908101906156a1565b95945050505050565b612d9a60405180608001604052805f81526020015f81526020015f81526020015f81525090565b506040805180820182525f80825260209182018190526001600160a01b03938416815260168252829020825160808101845281548152600182015481840152600282015481850152600382015460608201528351808501909452600b9091015460ff8116151584526101009004909316908201529091565b5f80612e745a60966366ad5c8a60e01b89898989604051602401612e399493929190615ac0565b60408051601f198184030181529190526020810180516001600160e01b03166001600160e01b03199093169290921790915230929190613d3f565b91509150816117e7576117e78686868685613dc3565b6005546001600160a01b03163314611ee15760405163118cdaa760e01b8152336004820152602401610dd2565b5f805f6002848787604051602001612ed29493929190615afd565b60408051601f198184030181528282526001600160a01b038816602084015290820188905291505f9060600160405160208183030381529060405290507f00000000000000000000000000000000000000000000000000000000000000006001600160a01b0316633408e4706040518163ffffffff1660e01b8152600401602060405180830381865afa158015612f6b573d5f803e3d5ffd5b505050506040513d601f19601f82011682018060405250810190612f8f9190615686565b61ffff168961ffff16146130355760405163040a7bb160e41b81526001600160a01b037f000000000000000000000000000000000000000000000000000000000000000016906340a7bb1090612ff1908c90309086908e908990600401615b34565b6040805180830381865afa15801561300b573d5f803e3d5ffd5b505050506040513d601f19601f8201168201806040525081019061302f9190615b87565b90945092505b61303f8785615300565b935050509550959350505050565b60015460408051634d4502c960e11b815290515f926001600160a01b031691639a8a05929160048083019260209291908290030181865afa158015613094573d5f803e3d5ffd5b505050506040513d601f19601f820116820180604052508101906130b89190615686565b61ffff168361ffff16146131415760048054604051630ff8f14360e11b815261ffff861692810192909252602482018490526001600160a01b031690631ff1e28690604401602060405180830381865afa158015613118573d5f803e3d5ffd5b505050506040513d601f19601f8201168201806040525081019061313c9190615ba9565b612465565b61246582613e5d565b60408051600481526024810182526020810180516001600160e01b031663313ce56760e01b17905290515f9182916001600160a01b0385169161318c91615bc4565b5f60405180830381855afa9150503d805f81146131c4576040519150601f19603f3d011682016040523d82523d5f602084013e6131c9565b606091505b50915050808060200190518101906124659190615bdf565b5f546001600160a01b031633146132455760405162461bcd60e51b815260206004820152602260248201527f4d73672e73656e646572206973206e6f7420576f726d686f6c652052656c617960448201526132b960f11b6064820152608401610dd2565b335f90815260166020526040902060019081015490613265908290615300565b335f90815260166020526040902055613282878787878787613e88565b5f878060200190518101906132979190615ba9565b90505f6040518060e001604052808761ffff16815260200160015f9054906101000a90046001600160a01b03166001600160a01b0316639a8a05926040518163ffffffff1660e01b8152600401602060405180830381865afa1580156132ff573d5f803e3d5ffd5b505050506040513d601f19601f820116820180604052508101906133239190615686565b61ffff168152602001895f8151811061333e5761333e615358565b6020026020010151604001516001600160a01b03168152602001895f8151811061336a5761336a615358565b60209081029190910181015160609081015183526001600160a01b03808716848401524260408086019190915260019483018590526010545f90815260188552819020805460ff199081169096178155865160068201805489880151948a0151861664010000000002640100000000600160c01b031961ffff968716620100000263ffffffff1990931696909416959095171791909116929092179091559185015160078301556080850151600883018054919092166001600160a01b031990911617905560a0840151600982015560c0840151600a8201805491151591909416179092558651929350909161346891600b840191908801906147b8565b50600160105f82825461347b9190615300565b9091555050335f90815260166020908152604080832089845260068101835281842086518154888601518986015161ffff93841663ffffffff1990931692909217620100009184169190910217640100000000600160c01b0319166401000000006001600160a01b03928316021783556060890151600184015560808901516002840180546001600160a01b0319169190921617905560a0880151600383015560c0909701516004909101805460ff1916911515919091179055968352600890960181528582209890931681529690915250509092205550505050565b335f90815260166020526040902060019081015490613578908290615300565b335f9081526016602090815260408220929092558351909182916135a3919086018101908601615bfa565b915091505f6040518060c001604052808961ffff1681526020017f00000000000000000000000000000000000000000000000000000000000000006001600160a01b0316633408e4706040518163ffffffff1660e01b8152600401602060405180830381865afa158015613619573d5f803e3d5ffd5b505050506040513d601f19601f8201168201806040525081019061363d9190615686565b61ffff908116825260208083018690526001600160a01b038088166040808601919091524260608087019190915260016080968701819052601080545f90815260188752848120805460ff19908116851782558b5182860180549a8e01518c16620100000263ffffffff19909b1691909b16179890981790985593890151600288015591880151600387018054919095166001600160a01b03199091161790935594860151600485015560a0860151600585018054911515919094161790925583549495509193919291613712908490615300565b9091555050335f908152601660209081526040808320978352600a909701815286822061ffff9b8c16835281529086902083518154928501518c16620100000263ffffffff199093169b169a909a1717895550928301516001880155505060608101516002860180546001600160a01b03929092166001600160a01b03199092169190911790556080810151600386015560a00151600494909401805494151560ff1990951694909417909355505050565b600e545f90819081906064906137e490600160a01b900460ff16866157d9565b6137ee919061584a565b600e546040519192506001600160a01b03169082156108fc029083905f818181858888f19350505050158015613826573d5f803e3d5ffd5b506138318185615808565b94909350915050565b5f806138468884613b33565b9050803410156138715760405162461bcd60e51b8152602060048201525f6024820152604401610dd2565b604080516001600160a01b03881660208201525f9101604051602081830303815290604052905061391c8989835f888a8c60015f9054906101000a90046001600160a01b03166001600160a01b0316639a8a05926040518163ffffffff1660e01b8152600401602060405180830381865afa1580156138f2573d5f803e3d5ffd5b505050506040513d601f19601f820116820180604052508101906139169190615686565b33614026565b5060019998505050505050505050565b6001600160a01b0382165f9081526016602052604090206001015415801561396957506001600160a01b0382165f90815260166020526040902054155b801561399057506001600160a01b0382165f908152601660205260409020600b015460ff16155b156139ee576001600160a01b038281165f90815260166020526040808220600b01805460016001600160a81b0319909116610100958716958602178117909155928252812060020180549091906139e8908490615300565b90915550505b6001600160a01b038281165f908152601660205260409020600b01546101009004161561186057601154613a249060029061584a565b6001600160a01b038084165f90815260166020526040808220600b0154610100900490921681529081206003018054909190613a61908490615300565b90915550505050565b600580546001600160a01b038381166001600160a01b0319831681179093556040519116919082907f8be0079c531659141344cd1fd0a4f28419497f9722a3daafe3b4186f6b6457e0905f90a35050565b5f806002858789604051602001613ad59493929190615afd565b60408051808303601f190181528282526001600160a01b038a166020840152828201899052815180840383018152606090930190915291505f613b1a8a8785856141c2565b905061391c8a83338887613b2e878f615300565b6142ed565b5f805460405163c23ee3c360e01b815261ffff8516600482015260248101839052604481018490526001600160a01b039091169063c23ee3c3906064016040805180830381865afa158015613b8a573d5f803e3d5ffd5b505050506040513d601f19601f82011682018060405250810190613bae9190615b87565b5060015460408051631a90a21960e01b815290519293506001600160a01b0390911691631a90a219916004808201926020929091908290030181865afa158015613bfa573d5f803e3d5ffd5b505050506040513d601f19601f82011682018060405250810190613c1e91906155ac565b6124659082615300565b606081613c3681601f615300565b1015613c755760405162461bcd60e51b815260206004820152600e60248201526d736c6963655f6f766572666c6f7760901b6044820152606401610dd2565b613c7f8284615300565b84511015613cc35760405162461bcd60e51b8152602060048201526011602482015270736c6963655f6f75744f66426f756e647360781b6044820152606401610dd2565b606082158015613ce15760405191505f825260208201604052613d2b565b6040519150601f8416801560200281840101858101878315602002848b0101015b81831015613d1a578051835260209283019201613d02565b5050858452601f01601f1916604052505b50949350505050565b6123f183838361448a565b5f60605f805f8661ffff166001600160401b03811115613d6157613d61614b96565b6040519080825280601f01601f191660200182016040528015613d8b576020820181803683370190505b5090505f808751602089015f8d8df191503d925086831115613dab578692505b828152825f602083013e909890975095505050505050565b8180519060200120600d5f8761ffff1661ffff1681526020019081526020015f2085604051613df29190615bc4565b9081526040805191829003602090810183206001600160401b0388165f908152915220919091557fe183f33de2837795525b4792ca4cd60535bd77c53b7e7030060bfcf5734d6b0c90613e4e9087908790879087908790615c26565b60405180910390a15050505050565b5f60a082901c15613e845760405163033b960d60e41b815260048101839052602401610dd2565b5090565b8451600114613e95575f80fd5b5f613e9f85613e5d565b61ffff85165f9081526006602090815260408083206001600160a01b038516845290915290205490915060ff161515600114613ed9575f80fd5b61ffff84165f90815260086020908152604080832086845290915290205460ff1615613f03575f80fd5b5f87806020019051810190613f189190615ba9565b90505f875f81518110613f2d57613f2d615358565b60200260200101516060015190505f885f81518110613f4e57613f4e615358565b6020026020010151604001516001600160a01b031663a9059cbb84846040518363ffffffff1660e01b8152600401613f9b9291906001600160a01b03929092168252602082015260400190565b6020604051808303815f875af1158015613fb7573d5f803e3d5ffd5b505050506040513d601f19601f82011682018060405250810190613fdb919061581b565b905080613fe8575f613feb565b60015b61ffff979097165f90815260086020908152604080832098835297905295909520805460ff1916961515969096179095555050505050505050565b6040805160018082528183019092525f91829190816020015b604080516060810182525f80825260208083018290529282015282525f1990920191018161403f57905050905061408786868d8d60405180602001604052805f8152506144f0565b815f8151811061409957614099615358565b60209081029190910101525f805460405163c23ee3c360e01b815261ffff8e166004820152602481018b9052604481018a90526001600160a01b039091169063c23ee3c3906064016040805180830381865afa1580156140fb573d5f803e3d5ffd5b505050506040513d601f19601f8201168201806040525081019061411f9190615b87565b5090505f8054906101000a90046001600160a01b03166001600160a01b03166332b2fc0e828e8e8e8e8e898d8d6040518a63ffffffff1660e01b815260040161416f989796959493929190615c77565b60206040518083038185885af115801561418b573d5f803e3d5ffd5b50505050506040513d601f19601f820116820180604052508101906141b09190615d32565b925050505b9998505050505050505050565b5f7f00000000000000000000000000000000000000000000000000000000000000006001600160a01b0316633408e4706040518163ffffffff1660e01b8152600401602060405180830381865afa15801561421f573d5f803e3d5ffd5b505050506040513d601f19601f820116820180604052508101906142439190615686565b61ffff168561ffff1614612baf5760405163040a7bb160e41b81526001600160a01b037f000000000000000000000000000000000000000000000000000000000000000016906340a7bb10906142a5908890309087908a908a90600401615b34565b6040805180830381865afa1580156142bf573d5f803e3d5ffd5b505050506040513d601f19601f820116820180604052508101906142e39190615b87565b5095945050505050565b61ffff86165f908152600960205260408120805461430a906152a5565b80601f0160208091040260200160405190810160405280929190818152602001828054614336906152a5565b80156143815780601f1061435857610100808354040283529160200191614381565b820191905f5260205f20905b81548152906001019060200180831161436457829003601f168201915b5050505050905080515f036143f15760405162461bcd60e51b815260206004820152603060248201527f4c7a4170703a2064657374696e6174696f6e20636861696e206973206e6f742060448201526f61207472757374656420736f7572636560801b6064820152608401610dd2565b6143fc878751614711565b60405162c5803160e81b81526001600160a01b037f0000000000000000000000000000000000000000000000000000000000000000169063c5803100908490614453908b9086908c908c908c908c90600401615d4d565b5f604051808303818588803b15801561446a575f80fd5b505af115801561447c573d5f803e3d5ffd5b505050505050505050505050565b6144cc83825f80546001600160a01b039384166001600160a01b0319918216179091556001805492909316918116919091179091556002805490911633179055565b50600480546001600160a01b0319166001600160a01b039290921691909117905550565b604080516060810182525f808252602082018190528183015260048054925163095ea7b360e01b81526001600160a01b039384169181019190915260248101879052909187169063095ea7b3906044016020604051808303815f875af115801561455c573d5f803e3d5ffd5b505050506040513d601f19601f82011682018060405250810190614580919061581b565b506004805460015460408051631a90a21960e01b815290515f946001600160a01b039485169463c5a5ebda941692631a90a21992818301926020928290030181865afa1580156145d2573d5f803e3d5ffd5b505050506040513d601f19601f820116820180604052508101906145f691906155ac565b8989896001600160a01b038a165f8a6040518863ffffffff1660e01b815260040161462696959493929190615da6565b60206040518083038185885af1158015614642573d5f803e3d5ffd5b50505050506040513d601f19601f820116820180604052508101906146679190615d32565b6040805160608101808352600154634d4502c960e11b90915291519293509182916001600160a01b031690639a8a0592906064808501916020918187030181865afa1580156146b8573d5f803e3d5ffd5b505050506040513d601f19601f820116820180604052508101906146dc9190615686565b61ffff1681526004546001600160a01b031660208201526001600160401b039092166040909201919091529695505050505050565b61ffff82165f908152600b60205260408120549081900361473157506127105b808211156123f15760405162461bcd60e51b815260206004820181905260248201527f4c7a4170703a207061796c6f61642073697a6520697320746f6f206c617267656044820152606401610dd2565b50805461478d906152a5565b5f825580601f1061479c575050565b601f0160209004905f5260205f20908101906113449190614808565b828054828255905f5260205f209081019282156147fc579160200282015b828111156147fc57825182906147ec90826158c3565b50916020019190600101906147d6565b50613e8492915061481c565b5b80821115613e84575f8155600101614809565b80821115613e84575f61482f8282614781565b5060010161481c565b61ffff81168114611344575f80fd5b803561485281614838565b919050565b5f8083601f840112614867575f80fd5b5081356001600160401b0381111561487d575f80fd5b602083019150836020828501011115614894575f80fd5b9250929050565b6001600160401b0381168114611344575f80fd5b5f805f805f80608087890312156148c4575f80fd5b86356148cf81614838565b955060208701356001600160401b03808211156148ea575f80fd5b6148f68a838b01614857565b90975095506040890135915061490b8261489b565b90935060608801359080821115614920575f80fd5b5061492d89828a01614857565b979a9699509497509295939492505050565b6001600160a01b0381168114611344575f80fd5b80356148528161493f565b60ff81168114611344575f80fd5b5f806040838503121561497d575f80fd5b82356149888161493f565b915060208301356149988161495e565b809150509250929050565b5f602082840312156149b3575f80fd5b813561246581614838565b5f80604083850312156149cf575f80fd5b82356149da81614838565b946020939093013593505050565b5f80604083850312156149f9575f80fd5b82356149da8161493f565b61ffff80825116835280602083015116602084015250604081015160018060a01b03808216604085015260608301516060850152806080840151166080850152505060a081015160a083015260c0810151151560c08301525050565b60e081016111a68284614a04565b8015158114611344575f80fd5b5f805f805f60a08688031215614a8f575f80fd5b8535614a9a81614838565b94506020860135614aaa81614a6e565b9350604086013592506060860135614ac18161493f565b949793965091946080013592915050565b5f805f60608486031215614ae4575f80fd5b8335614aef8161493f565b92506020840135614aff8161493f565b91506040840135614b0f81614838565b809150509250925092565b5f805f60408486031215614b2c575f80fd5b8335614b3781614838565b925060208401356001600160401b03811115614b51575f80fd5b614b5d86828701614857565b9497909650939450505050565b5f8060408385031215614b7b575f80fd5b8235614b868161493f565b9150602083013561499881614838565b634e487b7160e01b5f52604160045260245ffd5b604051608081016001600160401b0381118282101715614bcc57614bcc614b96565b60405290565b60405161016081016001600160401b0381118282101715614bcc57614bcc614b96565b60405161010081016001600160401b0381118282101715614bcc57614bcc614b96565b604051601f8201601f191681016001600160401b0381118282101715614c4057614c40614b96565b604052919050565b5f6001600160401b03821115614c6057614c60614b96565b50601f01601f191660200190565b5f82601f830112614c7d575f80fd5b8135614c90614c8b82614c48565b614c18565b818152846020838601011115614ca4575f80fd5b816020850160208301375f918101602001919091529392505050565b5f6001600160401b03821115614cd857614cd8614b96565b5060051b60200190565b5f805f805f60a08688031215614cf6575f80fd5b85356001600160401b0380821115614d0c575f80fd5b614d1889838a01614c6e565b9650602091508188013581811115614d2e575f80fd5b8801601f81018a13614d3e575f80fd5b8035614d4c614c8b82614cc0565b81815260059190911b8201840190848101908c831115614d6a575f80fd5b8584015b83811015614da157803586811115614d85575f8081fd5b614d938f8983890101614c6e565b845250918601918601614d6e565b50985050505060408801359450614ac191505060608701614847565b5f60208284031215614dcd575f80fd5b5035919050565b5f805f60608486031215614de6575f80fd5b8335614df181614838565b925060208401356001600160401b03811115614e0b575f80fd5b614e1786828701614c6e565b9250506040840135614b0f8161489b565b5f805f60608486031215614e3a575f80fd5b8335614e458161493f565b9250602084013591506040840135614b0f81614838565b5f60c08284031215614e6c575f80fd5b60405160c081018181106001600160401b0382111715614e8e57614e8e614b96565b6040528235614e9c81614838565b81526020830135614eac8161493f565b6020820152604083810135908201526060830135614ec98161493f565b60608201526080838101359082015260a0830135614ee68161493f565b60a08201529392505050565b5f805f805f60a08688031215614f06575f80fd5b85359450602086013593506040860135614f1f81614a6e565b94979396509394606081013594506080013592915050565b5f5b83811015614f51578181015183820152602001614f39565b50505f910152565b5f8151808452614f70816020860160208601614f37565b601f01601f19169290920160200192915050565b602081525f6124656020830184614f59565b5f8060408385031215614fa7575f80fd5b8235614fb281614838565b915060208301356149988161493f565b5f60e08284031215614fd2575f80fd5b60405160e081018181106001600160401b0382111715614ff457614ff4614b96565b604052823561500281614838565b815260208301356150128161493f565b806020830152506040830135604082015260608301356060820152608083013561503b81614a6e565b608082015260a083013561504e8161493f565b60a082015261505f60c08401614953565b60c08201529392505050565b5f806040838503121561507c575f80fd5b8235614b8681614838565b5f60208284031215615097575f80fd5b81356124658161493f565b5f805f805f608086880312156150b6575f80fd5b85356150c181614838565b945060208601356150d181614838565b93506040860135925060608601356001600160401b038111156150f2575f80fd5b6150fe88828901614857565b969995985093965092949392505050565b5f805f8060808587031215615122575f80fd5b843561512d8161493f565b935060208501359250604085013561514481614838565b9150606085013561515481614a6e565b939692955090935050565b805161ffff908116835260208083015190911690830152604080820151908301526060808201516001600160a01b0316908301526080808201519083015260a0908101511515910152565b60c081016111a6828461515f565b5f805f606084860312156151ca575f80fd5b83356151d581614838565b925060208401356151e581614838565b929592945050506040919091013590565b5f805f60608486031215615208575f80fd5b83356152138161493f565b925060208401356152238161493f565b91506040840135614b0f8161493f565b83151581526101c0810161524a602083018561515f565b612baf60e0830184614a04565b5f805f806080858703121561526a575f80fd5b843561527581614838565b9350602085013561528581614838565b925060408501356152958161493f565b9396929550929360600135925050565b600181811c908216806152b957607f821691505b6020821081036152d757634e487b7160e01b5f52602260045260245ffd5b50919050565b818382375f9101908152919050565b634e487b7160e01b5f52601160045260245ffd5b808201808211156111a6576111a66152ec565b81835281816020850137505f828201602090810191909152601f909101601f19169091010190565b61ffff84168152604060208201525f612d6a604083018486615313565b634e487b7160e01b5f52603260045260245ffd5b80516148528161495e565b805163ffffffff81168114614852575f80fd5b805161485281614838565b80516148528161489b565b5f82601f8301126153af575f80fd5b81516153bd614c8b82614c48565b8181528460208386010111156153d1575f80fd5b612baf826020830160208701614f37565b5f82601f8301126153f1575f80fd5b81516020615401614c8b83614cc0565b82815260079290921b8401810191818101908684111561541f575f80fd5b8286015b84811015615483576080818903121561543b575f8081fd5b615443614baa565b81518152848201518582015260408083015161545e8161495e565b908201526060828101516154718161495e565b90820152835291830191608001615423565b509695505050505050565b5f6020828403121561549e575f80fd5b81516001600160401b03808211156154b4575f80fd5b9083019061016082860312156154c8575f80fd5b6154d0614bd2565b6154d98361536c565b81526154e760208401615377565b60208201526154f860408401615377565b60408201526155096060840161538a565b60608201526080830151608082015261552460a08401615395565b60a082015261553560c0840161536c565b60c082015260e08301518281111561554b575f80fd5b615557878286016153a0565b60e08301525061010061556b818501615377565b908201526101208381015183811115615582575f80fd5b61558e888287016153e2565b91830191909152506101409283015192810192909252509392505050565b5f602082840312156155bc575f80fd5b5051919050565b5f602082840312156155d3575f80fd5b81516001600160401b03808211156155e9575f80fd5b9083019061010082860312156155fd575f80fd5b615605614bf5565b61560e8361536c565b815260208301516020820152604083015160408201526156306060840161538a565b60608201526080830151608082015261564b60a0840161538a565b60a082015260c083015160c082015260e08301518281111561566b575f80fd5b615677878286016153a0565b60e08301525095945050505050565b5f60208284031215615696575f80fd5b815161246581614838565b5f602082840312156156b1575f80fd5b81516001600160401b038111156156c6575f80fd5b612baf848285016153a0565b60ff82811682821603908111156111a6576111a66152ec565b600181815b8085111561572557815f190482111561570b5761570b6152ec565b8085161561571857918102915b93841c93908002906156f0565b509250929050565b5f8261573b575060016111a6565b8161574757505f6111a6565b816001811461575d576002811461576757615783565b60019150506111a6565b60ff841115615778576157786152ec565b50506001821b6111a6565b5060208310610133831016604e8410600b84101617156157a6575081810a6111a6565b6157b083836156eb565b805f19048211156157c3576157c36152ec565b029392505050565b5f61246560ff84168361572d565b80820281158282048414176111a6576111a66152ec565b5f60018201615801576158016152ec565b5060010190565b818103818111156111a6576111a66152ec565b5f6020828403121561582b575f80fd5b815161246581614a6e565b634e487b7160e01b5f52601260045260245ffd5b5f8261585857615858615836565b500490565b5f60ff83168061586f5761586f615836565b8060ff84160491505092915050565b601f8211156123f1575f81815260208120601f850160051c810160208610156158a45750805b601f850160051c820191505b818110156117e7578281556001016158b0565b81516001600160401b038111156158dc576158dc614b96565b6158f0816158ea84546152a5565b8461587e565b602080601f831160018114615923575f841561590c5750858301515b5f19600386901b1c1916600185901b1785556117e7565b5f85815260208120601f198616915b8281101561595157888601518255948401946001909101908401615932565b508582101561596e57878501515f19600388901b60f8161c191681555b5050505050600190811b01905550565b8284823760609190911b6001600160601b0319169101908152601401919050565b5f61ffff8088168352808716602084015250846040830152608060608301526111cc608083018486615313565b61ffff86168152608060208201525f6159e9608083018688615313565b6001600160401b0394909416604083015250606001529392505050565b6001600160401b03831115615a1d57615a1d614b96565b615a3183615a2b83546152a5565b8361587e565b5f601f841160018114615a62575f8515615a4b5750838201355b5f19600387901b1c1916600186901b178355611067565b5f83815260209020601f19861690835b82811015615a925786850135825560209485019460019092019101615a72565b5086821015615aae575f1960f88860031b161c19848701351681555b505060018560011b0183555050505050565b61ffff85168152608060208201525f615adc6080830186614f59565b6001600160401b038516604084015282810360608401526111cc8185614f59565b60f09490941b6001600160f01b03191684526002840192909252602283015260601b6001600160601b031916604282015260560190565b61ffff861681526001600160a01b038516602082015260a0604082018190525f90615b6190830186614f59565b84151560608401528281036080840152615b7b8185614f59565b98975050505050505050565b5f8060408385031215615b98575f80fd5b505080516020909101519092909150565b5f60208284031215615bb9575f80fd5b81516124658161493f565b5f8251615bd5818460208701614f37565b9190910192915050565b5f60208284031215615bef575f80fd5b81516124658161495e565b5f8060408385031215615c0b575f80fd5b8251615c168161493f565b6020939093015192949293505050565b61ffff8616815260a060208201525f615c4260a0830187614f59565b6001600160401b03861660408401528281036060840152615c638186614f59565b90508281036080840152615b7b8185614f59565b5f61010061ffff808c168452602060018060a01b038c168186015260408381870152615ca58487018d614f59565b60608781018d9052608088018c905287820360a08901528a51808352848c01965090918401905f5b81811015615d0557875180518816845286810151878501528501516001600160401b0316858401529685019691830191600101615ccd565b505061ffff8a1660c08901529550615d1e945050505050565b6001600160a01b03831660e08301526141b5565b5f60208284031215615d42575f80fd5b81516124658161489b565b61ffff8716815260c060208201525f615d6960c0830188614f59565b8281036040840152615d7b8188614f59565b6001600160a01b0387811660608601528616608085015283810360a085015290506141b58185614f59565b60018060a01b038716815285602082015261ffff8516604082015283606082015263ffffffff8316608082015260c060a08201525f615b7b60c0830184614f5956fea26469706673582212201cd8a97572447c829450d02a3d4ac97db1535d5bc54269b42d5f0eea0fd9449264736f6c63430008140033",
			"opcodes": "PUSH1 0xA0 PUSH1 0x40 MSTORE PUSH1 0xE DUP1 SLOAD PUSH1 0xFF PUSH1 0xA0 SHL NOT AND PUSH1 0x5 PUSH1 0xA1 SHL OR SWAP1 SSTORE CALLVALUE DUP1 ISZERO PUSH3 0x23 JUMPI PUSH0 DUP1 REVERT JUMPDEST POP PUSH1 0x40 MLOAD PUSH3 0x5FFC CODESIZE SUB DUP1 PUSH3 0x5FFC DUP4 CODECOPY DUP2 ADD PUSH1 0x40 DUP2 SWAP1 MSTORE PUSH3 0x46 SWAP2 PUSH3 0x123 JUMP JUMPDEST DUP3 DUP1 DUP1 DUP5 PUSH1 0x1 PUSH1 0x1 PUSH1 0xA0 SHL SUB DUP2 AND PUSH3 0x78 JUMPI PUSH1 0x40 MLOAD PUSH4 0x1E4FBDF7 PUSH1 0xE0 SHL DUP2 MSTORE PUSH0 PUSH1 0x4 DUP3 ADD MSTORE PUSH1 0x24 ADD PUSH1 0x40 MLOAD DUP1 SWAP2 SUB SWAP1 REVERT JUMPDEST PUSH3 0x83 DUP2 PUSH3 0xB6 JUMP JUMPDEST POP PUSH1 0x1 PUSH1 0x1 PUSH1 0xA0 SHL SUB SWAP1 DUP2 AND PUSH1 0x80 MSTORE PUSH1 0xE DUP1 SLOAD PUSH1 0x1 PUSH1 0x1 PUSH1 0xA0 SHL SUB NOT AND SWAP5 SWAP1 SWAP2 AND SWAP4 SWAP1 SWAP4 OR SWAP1 SWAP3 SSTORE POP PUSH3 0x16A SWAP3 POP POP POP JUMP JUMPDEST PUSH1 0x5 DUP1 SLOAD PUSH1 0x1 PUSH1 0x1 PUSH1 0xA0 SHL SUB DUP4 DUP2 AND PUSH1 0x1 PUSH1 0x1 PUSH1 0xA0 SHL SUB NOT DUP4 AND DUP2 OR SWAP1 SWAP4 SSTORE PUSH1 0x40 MLOAD SWAP2 AND SWAP2 SWAP1 DUP3 SWAP1 PUSH32 0x8BE0079C531659141344CD1FD0A4F28419497F9722A3DAAFE3B4186F6B6457E0 SWAP1 PUSH0 SWAP1 LOG3 POP POP JUMP JUMPDEST DUP1 MLOAD PUSH1 0x1 PUSH1 0x1 PUSH1 0xA0 SHL SUB DUP2 AND DUP2 EQ PUSH3 0x11E JUMPI PUSH0 DUP1 REVERT JUMPDEST SWAP2 SWAP1 POP JUMP JUMPDEST PUSH0 DUP1 PUSH0 PUSH1 0x60 DUP5 DUP7 SUB SLT ISZERO PUSH3 0x136 JUMPI PUSH0 DUP1 REVERT JUMPDEST PUSH3 0x141 DUP5 PUSH3 0x107 JUMP JUMPDEST SWAP3 POP PUSH3 0x151 PUSH1 0x20 DUP6 ADD PUSH3 0x107 JUMP JUMPDEST SWAP2 POP PUSH3 0x161 PUSH1 0x40 DUP6 ADD PUSH3 0x107 JUMP JUMPDEST SWAP1 POP SWAP3 POP SWAP3 POP SWAP3 JUMP JUMPDEST PUSH1 0x80 MLOAD PUSH2 0x5E1E PUSH3 0x1DE PUSH0 CODECOPY PUSH0 DUP2 DUP2 PUSH2 0x86E ADD MSTORE DUP2 DUP2 PUSH2 0xD61 ADD MSTORE DUP2 DUP2 PUSH2 0x100B ADD MSTORE DUP2 DUP2 PUSH2 0x10AD ADD MSTORE DUP2 DUP2 PUSH2 0x12BF ADD MSTORE DUP2 DUP2 PUSH2 0x2172 ADD MSTORE DUP2 DUP2 PUSH2 0x2703 ADD MSTORE DUP2 DUP2 PUSH2 0x2CF7 ADD MSTORE DUP2 DUP2 PUSH2 0x2F11 ADD MSTORE DUP2 DUP2 PUSH2 0x2FB4 ADD MSTORE DUP2 DUP2 PUSH2 0x35BF ADD MSTORE DUP2 DUP2 PUSH2 0x41C5 ADD MSTORE DUP2 DUP2 PUSH2 0x4268 ADD MSTORE PUSH2 0x4412 ADD MSTORE PUSH2 0x5E1E PUSH0 RETURN INVALID PUSH1 0x80 PUSH1 0x40 MSTORE PUSH1 0x4 CALLDATASIZE LT PUSH2 0x343 JUMPI PUSH0 CALLDATALOAD PUSH1 0xE0 SHR DUP1 PUSH4 0x8DA5CB5B GT PUSH2 0x1BD JUMPI DUP1 PUSH4 0xCBED8B9C GT PUSH2 0xF2 JUMPI DUP1 PUSH4 0xDF2A5B3B GT PUSH2 0x92 JUMPI DUP1 PUSH4 0xEB8D72B7 GT PUSH2 0x6D JUMPI DUP1 PUSH4 0xEB8D72B7 EQ PUSH2 0xC97 JUMPI DUP1 PUSH4 0xF2FDE38B EQ PUSH2 0xCB6 JUMPI DUP1 PUSH4 0xF5ECBDBC EQ PUSH2 0xCD5 JUMPI DUP1 PUSH4 0xFFC9896B EQ PUSH2 0xCF4 JUMPI PUSH0 DUP1 REVERT JUMPDEST DUP1 PUSH4 0xDF2A5B3B EQ PUSH2 0xB48 JUMPI DUP1 PUSH4 0xE0E10842 EQ PUSH2 0xB67 JUMPI DUP1 PUSH4 0xE574FFB4 EQ PUSH2 0xB86 JUMPI PUSH0 DUP1 REVERT JUMPDEST DUP1 PUSH4 0xDA25B725 GT PUSH2 0xCD JUMPI DUP1 PUSH4 0xDA25B725 EQ PUSH2 0x9F3 JUMPI DUP1 PUSH4 0xDB0F4DE2 EQ PUSH2 0xA11 JUMPI DUP1 PUSH4 0xDD12D68B EQ PUSH2 0xAFD JUMPI DUP1 PUSH4 0xDD6ABADD EQ PUSH2 0xB1C JUMPI PUSH0 DUP1 REVERT JUMPDEST DUP1 PUSH4 0xCBED8B9C EQ PUSH2 0x96A JUMPI DUP1 PUSH4 0xD1DEBA1F EQ PUSH2 0x989 JUMPI DUP1 PUSH4 0xD8AB8274 EQ PUSH2 0x99C JUMPI PUSH0 DUP1 REVERT JUMPDEST DUP1 PUSH4 0xBAF3292D GT PUSH2 0x15D JUMPI DUP1 PUSH4 0xC4461834 GT PUSH2 0x138 JUMPI DUP1 PUSH4 0xC4461834 EQ PUSH2 0x902 JUMPI DUP1 PUSH4 0xC6328A46 EQ PUSH2 0x917 JUMPI DUP1 PUSH4 0xC8FBAF72 EQ PUSH2 0x936 JUMPI DUP1 PUSH4 0xC9B5AB2B EQ PUSH2 0x955 JUMPI PUSH0 DUP1 REVERT JUMPDEST DUP1 PUSH4 0xBAF3292D EQ PUSH2 0x890 JUMPI DUP1 PUSH4 0xBE357616 EQ PUSH2 0x8AF JUMPI DUP1 PUSH4 0xC2455273 EQ PUSH2 0x8CE JUMPI PUSH0 DUP1 REVERT JUMPDEST DUP1 PUSH4 0x9CD4FD65 GT PUSH2 0x198 JUMPI DUP1 PUSH4 0x9CD4FD65 EQ PUSH2 0x800 JUMPI DUP1 PUSH4 0x9F38369A EQ PUSH2 0x81F JUMPI DUP1 PUSH4 0xA6C3D165 EQ PUSH2 0x83E JUMPI DUP1 PUSH4 0xB353AAA7 EQ PUSH2 0x85D JUMPI PUSH0 DUP1 REVERT JUMPDEST DUP1 PUSH4 0x8DA5CB5B EQ PUSH2 0x7A5 JUMPI DUP1 PUSH4 0x950C8A74 EQ PUSH2 0x7C2 JUMPI DUP1 PUSH4 0x9C6467C7 EQ PUSH2 0x7E1 JUMPI PUSH0 DUP1 REVERT JUMPDEST DUP1 PUSH4 0x529DCA32 GT PUSH2 0x293 JUMPI DUP1 PUSH4 0x715018A6 GT PUSH2 0x233 JUMPI DUP1 PUSH4 0x84ACD1BB GT PUSH2 0x20E JUMPI DUP1 PUSH4 0x84ACD1BB EQ PUSH2 0x706 JUMPI DUP1 PUSH4 0x8B8E3D14 EQ PUSH2 0x73D JUMPI DUP1 PUSH4 0x8B8EB98F EQ PUSH2 0x750 JUMPI DUP1 PUSH4 0x8CFD8F5C EQ PUSH2 0x76F JUMPI PUSH0 DUP1 REVERT JUMPDEST DUP1 PUSH4 0x715018A6 EQ PUSH2 0x6A7 JUMPI DUP1 PUSH4 0x7533D788 EQ PUSH2 0x6BB JUMPI DUP1 PUSH4 0x7E63E29D EQ PUSH2 0x6E7 JUMPI PUSH0 DUP1 REVERT JUMPDEST DUP1 PUSH4 0x66AD5C8A GT PUSH2 0x26E JUMPI DUP1 PUSH4 0x66AD5C8A EQ PUSH2 0x603 JUMPI DUP1 PUSH4 0x69511BA4 EQ PUSH2 0x622 JUMPI DUP1 PUSH4 0x6AB0DB6A EQ PUSH2 0x675 JUMPI DUP1 PUSH4 0x6F536504 EQ PUSH2 0x688 JUMPI PUSH0 DUP1 REVERT JUMPDEST DUP1 PUSH4 0x529DCA32 EQ PUSH2 0x584 JUMPI DUP1 PUSH4 0x556BCA73 EQ PUSH2 0x597 JUMPI DUP1 PUSH4 0x5B8C41E6 EQ PUSH2 0x5B6 JUMPI PUSH0 DUP1 REVERT JUMPDEST DUP1 PUSH4 0x2BEACF88 GT PUSH2 0x2FE JUMPI DUP1 PUSH4 0x3F1F4FA4 GT PUSH2 0x2D9 JUMPI DUP1 PUSH4 0x3F1F4FA4 EQ PUSH2 0x4D1 JUMPI DUP1 PUSH4 0x42D65A8D EQ PUSH2 0x4FC JUMPI DUP1 PUSH4 0x4CA68B96 EQ PUSH2 0x51B JUMPI DUP1 PUSH4 0x52444592 EQ PUSH2 0x53A JUMPI PUSH0 DUP1 REVERT JUMPDEST DUP1 PUSH4 0x2BEACF88 EQ PUSH2 0x420 JUMPI DUP1 PUSH4 0x38ACA11B EQ PUSH2 0x44D JUMPI DUP1 PUSH4 0x3D8B38F6 EQ PUSH2 0x4A2 JUMPI PUSH0 DUP1 REVERT JUMPDEST DUP1 PUSH3 0x1D3567 EQ PUSH2 0x34E JUMPI DUP1 PUSH4 0x1009B10 EQ PUSH2 0x36F JUMPI DUP1 PUSH4 0x7E0DB17 EQ PUSH2 0x38E JUMPI DUP1 PUSH4 0xDF37483 EQ PUSH2 0x3AD JUMPI DUP1 PUSH4 0x10DDB137 EQ PUSH2 0x3CC JUMPI DUP1 PUSH4 0x242C38D7 EQ PUSH2 0x3EB JUMPI PUSH0 DUP1 REVERT JUMPDEST CALLDATASIZE PUSH2 0x34A JUMPI STOP JUMPDEST PUSH0 DUP1 REVERT JUMPDEST CALLVALUE DUP1 ISZERO PUSH2 0x359 JUMPI PUSH0 DUP1 REVERT JUMPDEST POP PUSH2 0x36D PUSH2 0x368 CALLDATASIZE PUSH1 0x4 PUSH2 0x48AF JUMP JUMPDEST PUSH2 0xD5E JUMP JUMPDEST STOP JUMPDEST CALLVALUE DUP1 ISZERO PUSH2 0x37A JUMPI PUSH0 DUP1 REVERT JUMPDEST POP PUSH2 0x36D PUSH2 0x389 CALLDATASIZE PUSH1 0x4 PUSH2 0x496C JUMP JUMPDEST PUSH2 0xF89 JUMP JUMPDEST CALLVALUE DUP1 ISZERO PUSH2 0x399 JUMPI PUSH0 DUP1 REVERT JUMPDEST POP PUSH2 0x36D PUSH2 0x3A8 CALLDATASIZE PUSH1 0x4 PUSH2 0x49A3 JUMP JUMPDEST PUSH2 0xFEA JUMP JUMPDEST CALLVALUE DUP1 ISZERO PUSH2 0x3B8 JUMPI PUSH0 DUP1 REVERT JUMPDEST POP PUSH2 0x36D PUSH2 0x3C7 CALLDATASIZE PUSH1 0x4 PUSH2 0x49BE JUMP JUMPDEST PUSH2 0x106E JUMP JUMPDEST CALLVALUE DUP1 ISZERO PUSH2 0x3D7 JUMPI PUSH0 DUP1 REVERT JUMPDEST POP PUSH2 0x36D PUSH2 0x3E6 CALLDATASIZE PUSH1 0x4 PUSH2 0x49A3 JUMP JUMPDEST PUSH2 0x108C JUMP JUMPDEST CALLVALUE DUP1 ISZERO PUSH2 0x3F6 JUMPI PUSH0 DUP1 REVERT JUMPDEST POP PUSH2 0x40A PUSH2 0x405 CALLDATASIZE PUSH1 0x4 PUSH2 0x49E8 JUMP JUMPDEST PUSH2 0x10E4 JUMP JUMPDEST PUSH1 0x40 MLOAD PUSH2 0x417 SWAP2 SWAP1 PUSH2 0x4A60 JUMP JUMPDEST PUSH1 0x40 MLOAD DUP1 SWAP2 SUB SWAP1 RETURN JUMPDEST CALLVALUE DUP1 ISZERO PUSH2 0x42B JUMPI PUSH0 DUP1 REVERT JUMPDEST POP PUSH2 0x43F PUSH2 0x43A CALLDATASIZE PUSH1 0x4 PUSH2 0x4A7B JUMP JUMPDEST PUSH2 0x11AC JUMP JUMPDEST PUSH1 0x40 MLOAD SWAP1 DUP2 MSTORE PUSH1 0x20 ADD PUSH2 0x417 JUMP JUMPDEST CALLVALUE DUP1 ISZERO PUSH2 0x458 JUMPI PUSH0 DUP1 REVERT JUMPDEST POP PUSH2 0x43F PUSH2 0x467 CALLDATASIZE PUSH1 0x4 PUSH2 0x4AD2 JUMP JUMPDEST PUSH1 0x1 PUSH1 0x1 PUSH1 0xA0 SHL SUB SWAP3 DUP4 AND PUSH0 SWAP1 DUP2 MSTORE PUSH1 0x16 PUSH1 0x20 SWAP1 DUP2 MSTORE PUSH1 0x40 DUP1 DUP4 KECCAK256 SWAP5 SWAP1 SWAP6 AND DUP3 MSTORE PUSH1 0x5 SWAP1 SWAP4 ADD DUP4 MSTORE DUP4 DUP2 KECCAK256 PUSH2 0xFFFF SWAP3 SWAP1 SWAP3 AND DUP2 MSTORE SWAP2 MSTORE KECCAK256 SLOAD SWAP1 JUMP JUMPDEST CALLVALUE DUP1 ISZERO PUSH2 0x4AD JUMPI PUSH0 DUP1 REVERT JUMPDEST POP PUSH2 0x4C1 PUSH2 0x4BC CALLDATASIZE PUSH1 0x4 PUSH2 0x4B1A JUMP JUMPDEST PUSH2 0x11D7 JUMP JUMPDEST PUSH1 0x40 MLOAD SWAP1 ISZERO ISZERO DUP2 MSTORE PUSH1 0x20 ADD PUSH2 0x417 JUMP JUMPDEST CALLVALUE DUP1 ISZERO PUSH2 0x4DC JUMPI PUSH0 DUP1 REVERT JUMPDEST POP PUSH2 0x43F PUSH2 0x4EB CALLDATASIZE PUSH1 0x4 PUSH2 0x49A3 JUMP JUMPDEST PUSH1 0xB PUSH1 0x20 MSTORE PUSH0 SWAP1 DUP2 MSTORE PUSH1 0x40 SWAP1 KECCAK256 SLOAD DUP2 JUMP JUMPDEST CALLVALUE DUP1 ISZERO PUSH2 0x507 JUMPI PUSH0 DUP1 REVERT JUMPDEST POP PUSH2 0x36D PUSH2 0x516 CALLDATASIZE PUSH1 0x4 PUSH2 0x4B1A JUMP JUMPDEST PUSH2 0x12A0 JUMP JUMPDEST CALLVALUE DUP1 ISZERO PUSH2 0x526 JUMPI PUSH0 DUP1 REVERT JUMPDEST POP PUSH2 0x36D PUSH2 0x535 CALLDATASIZE PUSH1 0x4 PUSH2 0x49A3 JUMP JUMPDEST PUSH2 0x1321 JUMP JUMPDEST CALLVALUE DUP1 ISZERO PUSH2 0x545 JUMPI PUSH0 DUP1 REVERT JUMPDEST POP PUSH2 0x43F PUSH2 0x554 CALLDATASIZE PUSH1 0x4 PUSH2 0x4B6A JUMP JUMPDEST PUSH1 0x1 PUSH1 0x1 PUSH1 0xA0 SHL SUB DUP3 AND PUSH0 SWAP1 DUP2 MSTORE PUSH1 0x16 PUSH1 0x20 SWAP1 DUP2 MSTORE PUSH1 0x40 DUP1 DUP4 KECCAK256 PUSH2 0xFFFF DUP6 AND DUP5 MSTORE PUSH1 0x4 ADD SWAP1 SWAP2 MSTORE SWAP1 KECCAK256 SLOAD SWAP3 SWAP2 POP POP JUMP JUMPDEST PUSH2 0x36D PUSH2 0x592 CALLDATASIZE PUSH1 0x4 PUSH2 0x4CE2 JUMP JUMPDEST PUSH2 0x1347 JUMP JUMPDEST CALLVALUE DUP1 ISZERO PUSH2 0x5A2 JUMPI PUSH0 DUP1 REVERT JUMPDEST POP PUSH2 0x36D PUSH2 0x5B1 CALLDATASIZE PUSH1 0x4 PUSH2 0x4DBD JUMP JUMPDEST PUSH2 0x17EF JUMP JUMPDEST CALLVALUE DUP1 ISZERO PUSH2 0x5C1 JUMPI PUSH0 DUP1 REVERT JUMPDEST POP PUSH2 0x43F PUSH2 0x5D0 CALLDATASIZE PUSH1 0x4 PUSH2 0x4DD4 JUMP JUMPDEST PUSH1 0xD PUSH1 0x20 SWAP1 DUP2 MSTORE PUSH0 SWAP4 DUP5 MSTORE PUSH1 0x40 DUP1 DUP6 KECCAK256 DUP5 MLOAD DUP1 DUP7 ADD DUP5 ADD DUP1 MLOAD SWAP3 DUP2 MSTORE SWAP1 DUP5 ADD SWAP6 DUP5 ADD SWAP6 SWAP1 SWAP6 KECCAK256 SWAP5 MSTORE SWAP3 SWAP1 MSTORE DUP3 MSTORE SWAP1 KECCAK256 SLOAD DUP2 JUMP JUMPDEST CALLVALUE DUP1 ISZERO PUSH2 0x60E JUMPI PUSH0 DUP1 REVERT JUMPDEST POP PUSH2 0x36D PUSH2 0x61D CALLDATASIZE PUSH1 0x4 PUSH2 0x48AF JUMP JUMPDEST PUSH2 0x1864 JUMP JUMPDEST CALLVALUE DUP1 ISZERO PUSH2 0x62D JUMPI PUSH0 DUP1 REVERT JUMPDEST POP PUSH2 0x43F PUSH2 0x63C CALLDATASIZE PUSH1 0x4 PUSH2 0x4E28 JUMP JUMPDEST PUSH1 0x1 PUSH1 0x1 PUSH1 0xA0 SHL SUB DUP4 AND PUSH0 SWAP1 DUP2 MSTORE PUSH1 0x16 PUSH1 0x20 SWAP1 DUP2 MSTORE PUSH1 0x40 DUP1 DUP4 KECCAK256 DUP6 DUP5 MSTORE PUSH1 0x8 ADD DUP3 MSTORE DUP1 DUP4 KECCAK256 PUSH2 0xFFFF DUP6 AND DUP5 MSTORE SWAP1 SWAP2 MSTORE SWAP1 KECCAK256 SLOAD SWAP4 SWAP3 POP POP POP JUMP JUMPDEST PUSH2 0x4C1 PUSH2 0x683 CALLDATASIZE PUSH1 0x4 PUSH2 0x4E5C JUMP JUMPDEST PUSH2 0x1936 JUMP JUMPDEST CALLVALUE DUP1 ISZERO PUSH2 0x693 JUMPI PUSH0 DUP1 REVERT JUMPDEST POP PUSH2 0x36D PUSH2 0x6A2 CALLDATASIZE PUSH1 0x4 PUSH2 0x4EF2 JUMP JUMPDEST PUSH2 0x1E7B JUMP JUMPDEST CALLVALUE DUP1 ISZERO PUSH2 0x6B2 JUMPI PUSH0 DUP1 REVERT JUMPDEST POP PUSH2 0x36D PUSH2 0x1ED0 JUMP JUMPDEST CALLVALUE DUP1 ISZERO PUSH2 0x6C6 JUMPI PUSH0 DUP1 REVERT JUMPDEST POP PUSH2 0x6DA PUSH2 0x6D5 CALLDATASIZE PUSH1 0x4 PUSH2 0x49A3 JUMP JUMPDEST PUSH2 0x1EE3 JUMP JUMPDEST PUSH1 0x40 MLOAD PUSH2 0x417 SWAP2 SWAP1 PUSH2 0x4F84 JUMP JUMPDEST CALLVALUE DUP1 ISZERO PUSH2 0x6F2 JUMPI PUSH0 DUP1 REVERT JUMPDEST POP PUSH2 0x36D PUSH2 0x701 CALLDATASIZE PUSH1 0x4 PUSH2 0x4F96 JUMP JUMPDEST PUSH2 0x1F7A JUMP JUMPDEST CALLVALUE DUP1 ISZERO PUSH2 0x711 JUMPI PUSH0 DUP1 REVERT JUMPDEST POP PUSH1 0x1 SLOAD PUSH2 0x725 SWAP1 PUSH1 0x1 PUSH1 0x1 PUSH1 0xA0 SHL SUB AND DUP2 JUMP JUMPDEST PUSH1 0x40 MLOAD PUSH1 0x1 PUSH1 0x1 PUSH1 0xA0 SHL SUB SWAP1 SWAP2 AND DUP2 MSTORE PUSH1 0x20 ADD PUSH2 0x417 JUMP JUMPDEST PUSH2 0x36D PUSH2 0x74B CALLDATASIZE PUSH1 0x4 PUSH2 0x4FC2 JUMP JUMPDEST PUSH2 0x1FCC JUMP JUMPDEST CALLVALUE DUP1 ISZERO PUSH2 0x75B JUMPI PUSH0 DUP1 REVERT JUMPDEST POP PUSH2 0x36D PUSH2 0x76A CALLDATASIZE PUSH1 0x4 PUSH2 0x49E8 JUMP JUMPDEST PUSH2 0x234F JUMP JUMPDEST CALLVALUE DUP1 ISZERO PUSH2 0x77A JUMPI PUSH0 DUP1 REVERT JUMPDEST POP PUSH2 0x43F PUSH2 0x789 CALLDATASIZE PUSH1 0x4 PUSH2 0x506B JUMP JUMPDEST PUSH1 0xA PUSH1 0x20 SWAP1 DUP2 MSTORE PUSH0 SWAP3 DUP4 MSTORE PUSH1 0x40 DUP1 DUP5 KECCAK256 SWAP1 SWAP2 MSTORE SWAP1 DUP3 MSTORE SWAP1 KECCAK256 SLOAD DUP2 JUMP JUMPDEST CALLVALUE DUP1 ISZERO PUSH2 0x7B0 JUMPI PUSH0 DUP1 REVERT JUMPDEST POP PUSH1 0x5 SLOAD PUSH1 0x1 PUSH1 0x1 PUSH1 0xA0 SHL SUB AND PUSH2 0x725 JUMP JUMPDEST CALLVALUE DUP1 ISZERO PUSH2 0x7CD JUMPI PUSH0 DUP1 REVERT JUMPDEST POP PUSH1 0xC SLOAD PUSH2 0x725 SWAP1 PUSH1 0x1 PUSH1 0x1 PUSH1 0xA0 SHL SUB AND DUP2 JUMP JUMPDEST CALLVALUE DUP1 ISZERO PUSH2 0x7EC JUMPI PUSH0 DUP1 REVERT JUMPDEST POP PUSH2 0x36D PUSH2 0x7FB CALLDATASIZE PUSH1 0x4 PUSH2 0x4B6A JUMP JUMPDEST PUSH2 0x23F6 JUMP JUMPDEST CALLVALUE DUP1 ISZERO PUSH2 0x80B JUMPI PUSH0 DUP1 REVERT JUMPDEST POP PUSH2 0x43F PUSH2 0x81A CALLDATASIZE PUSH1 0x4 PUSH2 0x49BE JUMP JUMPDEST PUSH2 0x244C JUMP JUMPDEST CALLVALUE DUP1 ISZERO PUSH2 0x82A JUMPI PUSH0 DUP1 REVERT JUMPDEST POP PUSH2 0x6DA PUSH2 0x839 CALLDATASIZE PUSH1 0x4 PUSH2 0x49A3 JUMP JUMPDEST PUSH2 0x246C JUMP JUMPDEST CALLVALUE DUP1 ISZERO PUSH2 0x849 JUMPI PUSH0 DUP1 REVERT JUMPDEST POP PUSH2 0x36D PUSH2 0x858 CALLDATASIZE PUSH1 0x4 PUSH2 0x4B1A JUMP JUMPDEST PUSH2 0x2576 JUMP JUMPDEST CALLVALUE DUP1 ISZERO PUSH2 0x868 JUMPI PUSH0 DUP1 REVERT JUMPDEST POP PUSH2 0x725 PUSH32 0x0 DUP2 JUMP JUMPDEST CALLVALUE DUP1 ISZERO PUSH2 0x89B JUMPI PUSH0 DUP1 REVERT JUMPDEST POP PUSH2 0x36D PUSH2 0x8AA CALLDATASIZE PUSH1 0x4 PUSH2 0x5087 JUMP JUMPDEST PUSH2 0x25FE JUMP JUMPDEST CALLVALUE DUP1 ISZERO PUSH2 0x8BA JUMPI PUSH0 DUP1 REVERT JUMPDEST POP PUSH2 0x36D PUSH2 0x8C9 CALLDATASIZE PUSH1 0x4 PUSH2 0x4DBD JUMP JUMPDEST PUSH2 0x265A JUMP JUMPDEST CALLVALUE DUP1 ISZERO PUSH2 0x8D9 JUMPI PUSH0 DUP1 REVERT JUMPDEST POP PUSH2 0x43F PUSH2 0x8E8 CALLDATASIZE PUSH1 0x4 PUSH2 0x5087 JUMP JUMPDEST PUSH1 0x1 PUSH1 0x1 PUSH1 0xA0 SHL SUB AND PUSH0 SWAP1 DUP2 MSTORE PUSH1 0x17 PUSH1 0x20 MSTORE PUSH1 0x40 SWAP1 KECCAK256 SLOAD SWAP1 JUMP JUMPDEST CALLVALUE DUP1 ISZERO PUSH2 0x90D JUMPI PUSH0 DUP1 REVERT JUMPDEST POP PUSH2 0x43F PUSH2 0x2710 DUP2 JUMP JUMPDEST CALLVALUE DUP1 ISZERO PUSH2 0x922 JUMPI PUSH0 DUP1 REVERT JUMPDEST POP PUSH1 0x4 SLOAD PUSH2 0x725 SWAP1 PUSH1 0x1 PUSH1 0x1 PUSH1 0xA0 SHL SUB AND DUP2 JUMP JUMPDEST CALLVALUE DUP1 ISZERO PUSH2 0x941 JUMPI PUSH0 DUP1 REVERT JUMPDEST POP PUSH2 0x36D PUSH2 0x950 CALLDATASIZE PUSH1 0x4 PUSH2 0x4F96 JUMP JUMPDEST PUSH2 0x268C JUMP JUMPDEST CALLVALUE DUP1 ISZERO PUSH2 0x960 JUMPI PUSH0 DUP1 REVERT JUMPDEST POP PUSH2 0x43F PUSH1 0x10 SLOAD DUP2 JUMP JUMPDEST CALLVALUE DUP1 ISZERO PUSH2 0x975 JUMPI PUSH0 DUP1 REVERT JUMPDEST POP PUSH2 0x36D PUSH2 0x984 CALLDATASIZE PUSH1 0x4 PUSH2 0x50A2 JUMP JUMPDEST PUSH2 0x26E4 JUMP JUMPDEST PUSH2 0x36D PUSH2 0x997 CALLDATASIZE PUSH1 0x4 PUSH2 0x48AF JUMP JUMPDEST PUSH2 0x2774 JUMP JUMPDEST CALLVALUE DUP1 ISZERO PUSH2 0x9A7 JUMPI PUSH0 DUP1 REVERT JUMPDEST POP PUSH2 0x9B0 PUSH2 0x2984 JUMP JUMPDEST PUSH1 0x40 MLOAD PUSH2 0x417 SWAP2 SWAP1 PUSH0 PUSH1 0xA0 DUP3 ADD SWAP1 POP DUP3 MLOAD DUP3 MSTORE PUSH1 0x20 DUP4 ADD MLOAD PUSH1 0x20 DUP4 ADD MSTORE PUSH1 0x40 DUP4 ADD MLOAD ISZERO ISZERO PUSH1 0x40 DUP4 ADD MSTORE PUSH1 0x60 DUP4 ADD MLOAD PUSH1 0x60 DUP4 ADD MSTORE PUSH1 0x80 DUP4 ADD MLOAD PUSH1 0x80 DUP4 ADD MSTORE SWAP3 SWAP2 POP POP JUMP JUMPDEST CALLVALUE DUP1 ISZERO PUSH2 0x9FE JUMPI PUSH0 DUP1 REVERT JUMPDEST POP PUSH0 SLOAD PUSH2 0x725 SWAP1 PUSH1 0x1 PUSH1 0x1 PUSH1 0xA0 SHL SUB AND DUP2 JUMP JUMPDEST CALLVALUE DUP1 ISZERO PUSH2 0xA1C JUMPI PUSH0 DUP1 REVERT JUMPDEST POP PUSH2 0x40A PUSH2 0xA2B CALLDATASIZE PUSH1 0x4 PUSH2 0x4E28 JUMP JUMPDEST PUSH1 0x40 DUP1 MLOAD PUSH1 0xE0 DUP2 ADD DUP3 MSTORE PUSH0 DUP1 DUP3 MSTORE PUSH1 0x20 DUP3 ADD DUP2 SWAP1 MSTORE SWAP2 DUP2 ADD DUP3 SWAP1 MSTORE PUSH1 0x60 DUP2 ADD DUP3 SWAP1 MSTORE PUSH1 0x80 DUP2 ADD DUP3 SWAP1 MSTORE PUSH1 0xA0 DUP2 ADD DUP3 SWAP1 MSTORE PUSH1 0xC0 DUP2 ADD SWAP2 SWAP1 SWAP2 MSTORE POP PUSH1 0x1 PUSH1 0x1 PUSH1 0xA0 SHL SUB DUP1 DUP5 AND PUSH0 SWAP1 DUP2 MSTORE PUSH1 0x16 PUSH1 0x20 SWAP1 DUP2 MSTORE PUSH1 0x40 DUP1 DUP4 KECCAK256 DUP7 DUP5 MSTORE PUSH1 0x7 ADD DUP3 MSTORE DUP1 DUP4 KECCAK256 PUSH2 0xFFFF DUP1 DUP8 AND DUP6 MSTORE SWAP1 DUP4 MSTORE SWAP3 DUP2 SWAP1 KECCAK256 DUP2 MLOAD PUSH1 0xE0 DUP2 ADD DUP4 MSTORE DUP2 SLOAD DUP1 DUP7 AND DUP3 MSTORE PUSH3 0x10000 DUP2 DIV SWAP1 SWAP6 AND SWAP4 DUP2 ADD SWAP4 SWAP1 SWAP4 MSTORE PUSH5 0x100000000 SWAP1 SWAP4 DIV DUP5 AND SWAP1 DUP3 ADD MSTORE PUSH1 0x1 DUP3 ADD SLOAD PUSH1 0x60 DUP3 ADD MSTORE PUSH1 0x2 DUP3 ADD SLOAD SWAP1 SWAP3 AND PUSH1 0x80 DUP4 ADD MSTORE PUSH1 0x3 DUP2 ADD SLOAD PUSH1 0xA0 DUP4 ADD MSTORE PUSH1 0x4 ADD SLOAD PUSH1 0xFF AND ISZERO ISZERO PUSH1 0xC0 DUP3 ADD MSTORE SWAP4 SWAP3 POP POP POP JUMP JUMPDEST CALLVALUE DUP1 ISZERO PUSH2 0xB08 JUMPI PUSH0 DUP1 REVERT JUMPDEST POP PUSH2 0x36D PUSH2 0xB17 CALLDATASIZE PUSH1 0x4 PUSH2 0x49BE JUMP JUMPDEST PUSH2 0x29ED JUMP JUMPDEST CALLVALUE DUP1 ISZERO PUSH2 0xB27 JUMPI PUSH0 DUP1 REVERT JUMPDEST POP PUSH2 0xB3B PUSH2 0xB36 CALLDATASIZE PUSH1 0x4 PUSH2 0x510F JUMP JUMPDEST PUSH2 0x2A69 JUMP JUMPDEST PUSH1 0x40 MLOAD PUSH2 0x417 SWAP2 SWAP1 PUSH2 0x51AA JUMP JUMPDEST CALLVALUE DUP1 ISZERO PUSH2 0xB53 JUMPI PUSH0 DUP1 REVERT JUMPDEST POP PUSH2 0x36D PUSH2 0xB62 CALLDATASIZE PUSH1 0x4 PUSH2 0x51B8 JUMP JUMPDEST PUSH2 0x2BB7 JUMP JUMPDEST CALLVALUE DUP1 ISZERO PUSH2 0xB72 JUMPI PUSH0 DUP1 REVERT JUMPDEST POP PUSH2 0x36D PUSH2 0xB81 CALLDATASIZE PUSH1 0x4 PUSH2 0x51F6 JUMP JUMPDEST PUSH2 0x2C20 JUMP JUMPDEST CALLVALUE DUP1 ISZERO PUSH2 0xB91 JUMPI PUSH0 DUP1 REVERT JUMPDEST POP PUSH2 0xC88 PUSH2 0xBA0 CALLDATASIZE PUSH1 0x4 PUSH2 0x4DBD JUMP JUMPDEST PUSH1 0x18 PUSH1 0x20 SWAP1 DUP2 MSTORE PUSH0 SWAP2 DUP3 MSTORE PUSH1 0x40 SWAP2 DUP3 SWAP1 KECCAK256 DUP1 SLOAD DUP4 MLOAD PUSH1 0xC0 DUP1 DUP3 ADD DUP7 MSTORE PUSH1 0x1 DUP5 ADD SLOAD PUSH2 0xFFFF DUP1 DUP3 AND DUP5 MSTORE PUSH3 0x10000 SWAP2 DUP3 SWAP1 DIV DUP2 AND DUP5 DUP9 ADD MSTORE PUSH1 0x2 DUP7 ADD SLOAD DUP5 DUP10 ADD MSTORE PUSH1 0x3 DUP7 ADD SLOAD PUSH1 0x1 PUSH1 0x1 PUSH1 0xA0 SHL SUB SWAP1 DUP2 AND PUSH1 0x60 DUP1 DUP8 ADD SWAP2 SWAP1 SWAP2 MSTORE PUSH1 0x4 DUP9 ADD SLOAD PUSH1 0x80 DUP1 DUP9 ADD SWAP2 SWAP1 SWAP2 MSTORE PUSH1 0x5 DUP10 ADD SLOAD PUSH1 0xFF SWAP1 DUP2 AND ISZERO ISZERO PUSH1 0xA0 DUP1 DUP11 ADD SWAP2 SWAP1 SWAP2 MSTORE DUP13 MLOAD PUSH1 0xE0 DUP2 ADD DUP15 MSTORE PUSH1 0x6 DUP13 ADD SLOAD DUP1 DUP9 AND DUP3 MSTORE SWAP8 DUP9 DIV SWAP1 SWAP7 AND SWAP12 DUP7 ADD SWAP12 SWAP1 SWAP12 MSTORE PUSH5 0x100000000 SWAP1 SWAP6 DIV DUP4 AND SWAP11 DUP5 ADD SWAP11 SWAP1 SWAP11 MSTORE PUSH1 0x7 DUP9 ADD SLOAD SWAP1 DUP4 ADD MSTORE PUSH1 0x8 DUP8 ADD SLOAD AND SWAP8 DUP2 ADD SWAP8 SWAP1 SWAP8 MSTORE PUSH1 0x9 DUP6 ADD SLOAD SWAP6 DUP8 ADD SWAP6 SWAP1 SWAP6 MSTORE PUSH1 0xA SWAP1 SWAP4 ADD SLOAD DUP5 AND ISZERO ISZERO SWAP3 DUP6 ADD SWAP3 SWAP1 SWAP3 MSTORE SWAP2 SWAP1 SWAP2 AND SWAP2 DUP4 JUMP JUMPDEST PUSH1 0x40 MLOAD PUSH2 0x417 SWAP4 SWAP3 SWAP2 SWAP1 PUSH2 0x5233 JUMP JUMPDEST CALLVALUE DUP1 ISZERO PUSH2 0xCA2 JUMPI PUSH0 DUP1 REVERT JUMPDEST POP PUSH2 0x36D PUSH2 0xCB1 CALLDATASIZE PUSH1 0x4 PUSH2 0x4B1A JUMP JUMPDEST PUSH2 0x2C33 JUMP JUMPDEST CALLVALUE DUP1 ISZERO PUSH2 0xCC1 JUMPI PUSH0 DUP1 REVERT JUMPDEST POP PUSH2 0x36D PUSH2 0xCD0 CALLDATASIZE PUSH1 0x4 PUSH2 0x5087 JUMP JUMPDEST PUSH2 0x2C8C JUMP JUMPDEST CALLVALUE DUP1 ISZERO PUSH2 0xCE0 JUMPI PUSH0 DUP1 REVERT JUMPDEST POP PUSH2 0x6DA PUSH2 0xCEF CALLDATASIZE PUSH1 0x4 PUSH2 0x5257 JUMP JUMPDEST PUSH2 0x2CC6 JUMP JUMPDEST CALLVALUE DUP1 ISZERO PUSH2 0xCFF JUMPI PUSH0 DUP1 REVERT JUMPDEST POP PUSH2 0xD13 PUSH2 0xD0E CALLDATASIZE PUSH1 0x4 PUSH2 0x5087 JUMP JUMPDEST PUSH2 0x2D73 JUMP JUMPDEST PUSH1 0x40 DUP1 MLOAD DUP4 MLOAD DUP2 MSTORE PUSH1 0x20 DUP1 DUP6 ADD MLOAD DUP2 DUP4 ADD MSTORE DUP5 DUP4 ADD MLOAD SWAP3 DUP3 ADD SWAP3 SWAP1 SWAP3 MSTORE PUSH1 0x60 SWAP4 DUP5 ADD MLOAD SWAP4 DUP2 ADD SWAP4 SWAP1 SWAP4 MSTORE DUP2 MLOAD ISZERO ISZERO PUSH1 0x80 DUP5 ADD MSTORE ADD MLOAD PUSH1 0x1 PUSH1 0x1 PUSH1 0xA0 SHL SUB AND PUSH1 0xA0 DUP3 ADD MSTORE PUSH1 0xC0 ADD PUSH2 0x417 JUMP JUMPDEST CALLER PUSH32 0x0 PUSH1 0x1 PUSH1 0x1 PUSH1 0xA0 SHL SUB AND EQ PUSH2 0xDDB JUMPI PUSH1 0x40 MLOAD PUSH3 0x461BCD PUSH1 0xE5 SHL DUP2 MSTORE PUSH1 0x20 PUSH1 0x4 DUP3 ADD MSTORE PUSH1 0x1E PUSH1 0x24 DUP3 ADD MSTORE PUSH32 0x4C7A4170703A20696E76616C696420656E64706F696E742063616C6C65720000 PUSH1 0x44 DUP3 ADD MSTORE PUSH1 0x64 ADD JUMPDEST PUSH1 0x40 MLOAD DUP1 SWAP2 SUB SWAP1 REVERT JUMPDEST PUSH2 0xFFFF DUP7 AND PUSH0 SWAP1 DUP2 MSTORE PUSH1 0x9 PUSH1 0x20 MSTORE PUSH1 0x40 DUP2 KECCAK256 DUP1 SLOAD PUSH2 0xDF8 SWAP1 PUSH2 0x52A5 JUMP JUMPDEST DUP1 PUSH1 0x1F ADD PUSH1 0x20 DUP1 SWAP2 DIV MUL PUSH1 0x20 ADD PUSH1 0x40 MLOAD SWAP1 DUP2 ADD PUSH1 0x40 MSTORE DUP1 SWAP3 SWAP2 SWAP1 DUP2 DUP2 MSTORE PUSH1 0x20 ADD DUP3 DUP1 SLOAD PUSH2 0xE24 SWAP1 PUSH2 0x52A5 JUMP JUMPDEST DUP1 ISZERO PUSH2 0xE6F JUMPI DUP1 PUSH1 0x1F LT PUSH2 0xE46 JUMPI PUSH2 0x100 DUP1 DUP4 SLOAD DIV MUL DUP4 MSTORE SWAP2 PUSH1 0x20 ADD SWAP2 PUSH2 0xE6F JUMP JUMPDEST DUP3 ADD SWAP2 SWAP1 PUSH0 MSTORE PUSH1 0x20 PUSH0 KECCAK256 SWAP1 JUMPDEST DUP2 SLOAD DUP2 MSTORE SWAP1 PUSH1 0x1 ADD SWAP1 PUSH1 0x20 ADD DUP1 DUP4 GT PUSH2 0xE52 JUMPI DUP3 SWAP1 SUB PUSH1 0x1F AND DUP3 ADD SWAP2 JUMPDEST POP POP POP POP POP SWAP1 POP DUP1 MLOAD DUP7 DUP7 SWAP1 POP EQ DUP1 ISZERO PUSH2 0xE89 JUMPI POP PUSH0 DUP2 MLOAD GT JUMPDEST DUP1 ISZERO PUSH2 0xEB1 JUMPI POP DUP1 MLOAD PUSH1 0x20 DUP3 ADD KECCAK256 PUSH1 0x40 MLOAD PUSH2 0xEA7 SWAP1 DUP9 SWAP1 DUP9 SWAP1 PUSH2 0x52DD JUMP JUMPDEST PUSH1 0x40 MLOAD DUP1 SWAP2 SUB SWAP1 KECCAK256 EQ JUMPDEST PUSH2 0xF0C JUMPI PUSH1 0x40 MLOAD PUSH3 0x461BCD PUSH1 0xE5 SHL DUP2 MSTORE PUSH1 0x20 PUSH1 0x4 DUP3 ADD MSTORE PUSH1 0x26 PUSH1 0x24 DUP3 ADD MSTORE PUSH32 0x4C7A4170703A20696E76616C696420736F757263652073656E64696E6720636F PUSH1 0x44 DUP3 ADD MSTORE PUSH6 0x1B9D1C9858DD PUSH1 0xD2 SHL PUSH1 0x64 DUP3 ADD MSTORE PUSH1 0x84 ADD PUSH2 0xDD2 JUMP JUMPDEST PUSH2 0xF80 DUP8 DUP8 DUP8 DUP1 DUP1 PUSH1 0x1F ADD PUSH1 0x20 DUP1 SWAP2 DIV MUL PUSH1 0x20 ADD PUSH1 0x40 MLOAD SWAP1 DUP2 ADD PUSH1 0x40 MSTORE DUP1 SWAP4 SWAP3 SWAP2 SWAP1 DUP2 DUP2 MSTORE PUSH1 0x20 ADD DUP4 DUP4 DUP1 DUP3 DUP5 CALLDATACOPY PUSH0 SWAP3 ADD SWAP2 SWAP1 SWAP2 MSTORE POP POP PUSH1 0x40 DUP1 MLOAD PUSH1 0x20 PUSH1 0x1F DUP11 ADD DUP2 SWAP1 DIV DUP2 MUL DUP3 ADD DUP2 ADD SWAP1 SWAP3 MSTORE DUP9 DUP2 MSTORE DUP11 SWAP4 POP SWAP2 POP DUP9 SWAP1 DUP9 SWAP1 DUP2 SWAP1 DUP5 ADD DUP4 DUP3 DUP1 DUP3 DUP5 CALLDATACOPY PUSH0 SWAP3 ADD SWAP2 SWAP1 SWAP2 MSTORE POP PUSH2 0x2E12 SWAP3 POP POP POP JUMP JUMPDEST POP POP POP POP POP POP POP JUMP JUMPDEST PUSH1 0xE SLOAD PUSH1 0x1 PUSH1 0x1 PUSH1 0xA0 SHL SUB AND CALLER EQ DUP1 ISZERO PUSH2 0xFA6 JUMPI POP PUSH1 0xB DUP2 PUSH1 0xFF AND LT JUMPDEST PUSH2 0xFAE JUMPI PUSH0 DUP1 REVERT JUMPDEST PUSH1 0xE DUP1 SLOAD PUSH1 0x1 PUSH1 0x1 PUSH1 0xA0 SHL SUB SWAP1 SWAP4 AND PUSH1 0x1 PUSH1 0x1 PUSH1 0xA0 SHL SUB NOT PUSH1 0xFF SWAP1 SWAP4 AND PUSH1 0x1 PUSH1 0xA0 SHL MUL SWAP3 SWAP1 SWAP3 AND PUSH1 0x1 PUSH1 0x1 PUSH1 0xA8 SHL SUB NOT SWAP1 SWAP4 AND SWAP3 SWAP1 SWAP3 OR OR SWAP1 SSTORE JUMP JUMPDEST PUSH2 0xFF2 PUSH2 0x2E8A JUMP JUMPDEST PUSH1 0x40 MLOAD PUSH4 0x7E0DB17 PUSH1 0xE0 SHL DUP2 MSTORE PUSH2 0xFFFF DUP3 AND PUSH1 0x4 DUP3 ADD MSTORE PUSH32 0x0 PUSH1 0x1 PUSH1 0x1 PUSH1 0xA0 SHL SUB AND SWAP1 PUSH4 0x7E0DB17 SWAP1 PUSH1 0x24 ADD JUMPDEST PUSH0 PUSH1 0x40 MLOAD DUP1 DUP4 SUB DUP2 PUSH0 DUP8 DUP1 EXTCODESIZE ISZERO DUP1 ISZERO PUSH2 0x1055 JUMPI PUSH0 DUP1 REVERT JUMPDEST POP GAS CALL ISZERO DUP1 ISZERO PUSH2 0x1067 JUMPI RETURNDATASIZE PUSH0 DUP1 RETURNDATACOPY RETURNDATASIZE PUSH0 REVERT JUMPDEST POP POP POP POP POP JUMP JUMPDEST PUSH2 0x1076 PUSH2 0x2E8A JUMP JUMPDEST PUSH2 0xFFFF SWAP1 SWAP2 AND PUSH0 SWAP1 DUP2 MSTORE PUSH1 0xB PUSH1 0x20 MSTORE PUSH1 0x40 SWAP1 KECCAK256 SSTORE JUMP JUMPDEST PUSH2 0x1094 PUSH2 0x2E8A JUMP JUMPDEST PUSH1 0x40 MLOAD PUSH4 0x10DDB137 PUSH1 0xE0 SHL DUP2 MSTORE PUSH2 0xFFFF DUP3 AND PUSH1 0x4 DUP3 ADD MSTORE PUSH32 0x0 PUSH1 0x1 PUSH1 0x1 PUSH1 0xA0 SHL SUB AND SWAP1 PUSH4 0x10DDB137 SWAP1 PUSH1 0x24 ADD PUSH2 0x103E JUMP JUMPDEST PUSH1 0x40 DUP1 MLOAD PUSH1 0xE0 DUP2 ADD DUP3 MSTORE PUSH0 DUP1 DUP3 MSTORE PUSH1 0x20 DUP3 ADD DUP2 SWAP1 MSTORE SWAP2 DUP2 ADD DUP3 SWAP1 MSTORE PUSH1 0x60 DUP2 ADD DUP3 SWAP1 MSTORE PUSH1 0x80 DUP2 ADD DUP3 SWAP1 MSTORE PUSH1 0xA0 DUP2 ADD DUP3 SWAP1 MSTORE PUSH1 0xC0 DUP2 ADD SWAP2 SWAP1 SWAP2 MSTORE POP PUSH1 0x1 PUSH1 0x1 PUSH1 0xA0 SHL SUB DUP1 DUP4 AND PUSH0 SWAP1 DUP2 MSTORE PUSH1 0x16 PUSH1 0x20 SWAP1 DUP2 MSTORE PUSH1 0x40 DUP1 DUP4 KECCAK256 DUP6 DUP5 MSTORE PUSH1 0x6 ADD DUP3 MSTORE SWAP2 DUP3 SWAP1 KECCAK256 DUP3 MLOAD PUSH1 0xE0 DUP2 ADD DUP5 MSTORE DUP2 SLOAD PUSH2 0xFFFF DUP1 DUP3 AND DUP4 MSTORE PUSH3 0x10000 DUP3 DIV AND SWAP4 DUP3 ADD SWAP4 SWAP1 SWAP4 MSTORE PUSH5 0x100000000 SWAP1 SWAP3 DIV DUP5 AND SWAP3 DUP3 ADD SWAP3 SWAP1 SWAP3 MSTORE PUSH1 0x1 DUP3 ADD SLOAD PUSH1 0x60 DUP3 ADD MSTORE PUSH1 0x2 DUP3 ADD SLOAD SWAP1 SWAP3 AND PUSH1 0x80 DUP4 ADD MSTORE PUSH1 0x3 DUP2 ADD SLOAD PUSH1 0xA0 DUP4 ADD MSTORE PUSH1 0x4 ADD SLOAD PUSH1 0xFF AND ISZERO ISZERO PUSH1 0xC0 DUP3 ADD MSTORE JUMPDEST SWAP3 SWAP2 POP POP JUMP JUMPDEST PUSH0 DUP1 PUSH2 0x11BB DUP8 DUP8 DUP8 DUP8 DUP8 PUSH2 0x2EB7 JUMP JUMPDEST POP PUSH1 0x14 SLOAD SWAP1 SWAP2 POP PUSH2 0x11CC SWAP1 DUP3 PUSH2 0x5300 JUMP JUMPDEST SWAP8 SWAP7 POP POP POP POP POP POP POP JUMP JUMPDEST PUSH2 0xFFFF DUP4 AND PUSH0 SWAP1 DUP2 MSTORE PUSH1 0x9 PUSH1 0x20 MSTORE PUSH1 0x40 DUP2 KECCAK256 DUP1 SLOAD DUP3 SWAP2 SWAP1 PUSH2 0x11F7 SWAP1 PUSH2 0x52A5 JUMP JUMPDEST DUP1 PUSH1 0x1F ADD PUSH1 0x20 DUP1 SWAP2 DIV MUL PUSH1 0x20 ADD PUSH1 0x40 MLOAD SWAP1 DUP2 ADD PUSH1 0x40 MSTORE DUP1 SWAP3 SWAP2 SWAP1 DUP2 DUP2 MSTORE PUSH1 0x20 ADD DUP3 DUP1 SLOAD PUSH2 0x1223 SWAP1 PUSH2 0x52A5 JUMP JUMPDEST DUP1 ISZERO PUSH2 0x126E JUMPI DUP1 PUSH1 0x1F LT PUSH2 0x1245 JUMPI PUSH2 0x100 DUP1 DUP4 SLOAD DIV MUL DUP4 MSTORE SWAP2 PUSH1 0x20 ADD SWAP2 PUSH2 0x126E JUMP JUMPDEST DUP3 ADD SWAP2 SWAP1 PUSH0 MSTORE PUSH1 0x20 PUSH0 KECCAK256 SWAP1 JUMPDEST DUP2 SLOAD DUP2 MSTORE SWAP1 PUSH1 0x1 ADD SWAP1 PUSH1 0x20 ADD DUP1 DUP4 GT PUSH2 0x1251 JUMPI DUP3 SWAP1 SUB PUSH1 0x1F AND DUP3 ADD SWAP2 JUMPDEST POP POP POP POP POP SWAP1 POP DUP4 DUP4 PUSH1 0x40 MLOAD PUSH2 0x1285 SWAP3 SWAP2 SWAP1 PUSH2 0x52DD JUMP JUMPDEST PUSH1 0x40 MLOAD DUP1 SWAP2 SUB SWAP1 KECCAK256 DUP2 DUP1 MLOAD SWAP1 PUSH1 0x20 ADD KECCAK256 EQ SWAP2 POP POP SWAP4 SWAP3 POP POP POP JUMP JUMPDEST PUSH2 0x12A8 PUSH2 0x2E8A JUMP JUMPDEST PUSH1 0x40 MLOAD PUSH4 0x42D65A8D PUSH1 0xE0 SHL DUP2 MSTORE PUSH1 0x1 PUSH1 0x1 PUSH1 0xA0 SHL SUB PUSH32 0x0 AND SWAP1 PUSH4 0x42D65A8D SWAP1 PUSH2 0x12F8 SWAP1 DUP7 SWAP1 DUP7 SWAP1 DUP7 SWAP1 PUSH1 0x4 ADD PUSH2 0x533B JUMP JUMPDEST PUSH0 PUSH1 0x40 MLOAD DUP1 DUP4 SUB DUP2 PUSH0 DUP8 DUP1 EXTCODESIZE ISZERO DUP1 ISZERO PUSH2 0x130F JUMPI PUSH0 DUP1 REVERT JUMPDEST POP GAS CALL ISZERO DUP1 ISZERO PUSH2 0xF80 JUMPI RETURNDATASIZE PUSH0 DUP1 RETURNDATACOPY RETURNDATASIZE PUSH0 REVERT JUMPDEST PUSH2 0x1329 PUSH2 0x2E8A JUMP JUMPDEST PUSH2 0xFFFF DUP2 AND PUSH0 SWAP1 DUP2 MSTORE PUSH1 0x9 PUSH1 0x20 MSTORE PUSH1 0x40 DUP2 KECCAK256 PUSH2 0x1344 SWAP2 PUSH2 0x4781 JUMP JUMPDEST POP JUMP JUMPDEST PUSH0 DUP5 MLOAD PUSH1 0x1 PUSH1 0x1 PUSH1 0x40 SHL SUB DUP2 GT ISZERO PUSH2 0x1361 JUMPI PUSH2 0x1361 PUSH2 0x4B96 JUMP JUMPDEST PUSH1 0x40 MLOAD SWAP1 DUP1 DUP3 MSTORE DUP1 PUSH1 0x20 MUL PUSH1 0x20 ADD DUP3 ADD PUSH1 0x40 MSTORE DUP1 ISZERO PUSH2 0x13B8 JUMPI DUP2 PUSH1 0x20 ADD JUMPDEST PUSH1 0x40 DUP1 MLOAD PUSH1 0xA0 DUP2 ADD DUP3 MSTORE PUSH0 DUP1 DUP3 MSTORE PUSH1 0x20 DUP1 DUP4 ADD DUP3 SWAP1 MSTORE SWAP3 DUP3 ADD DUP2 SWAP1 MSTORE PUSH1 0x60 DUP3 ADD DUP2 SWAP1 MSTORE PUSH1 0x80 DUP3 ADD MSTORE DUP3 MSTORE PUSH0 NOT SWAP1 SWAP3 ADD SWAP2 ADD DUP2 PUSH2 0x137F JUMPI SWAP1 POP JUMPDEST POP SWAP1 POP PUSH0 JUMPDEST DUP6 MLOAD DUP2 LT ISZERO PUSH2 0x17D8 JUMPI PUSH1 0x1 SLOAD DUP7 MLOAD PUSH0 SWAP2 PUSH1 0x1 PUSH1 0x1 PUSH1 0xA0 SHL SUB AND SWAP1 PUSH4 0xA9E11893 SWAP1 DUP10 SWAP1 DUP6 SWAP1 DUP2 LT PUSH2 0x13EF JUMPI PUSH2 0x13EF PUSH2 0x5358 JUMP JUMPDEST PUSH1 0x20 MUL PUSH1 0x20 ADD ADD MLOAD PUSH1 0x40 MLOAD DUP3 PUSH4 0xFFFFFFFF AND PUSH1 0xE0 SHL DUP2 MSTORE PUSH1 0x4 ADD PUSH2 0x1413 SWAP2 SWAP1 PUSH2 0x4F84 JUMP JUMPDEST PUSH0 PUSH1 0x40 MLOAD DUP1 DUP4 SUB DUP2 DUP7 GAS STATICCALL ISZERO DUP1 ISZERO PUSH2 0x142D JUMPI RETURNDATASIZE PUSH0 DUP1 RETURNDATACOPY RETURNDATASIZE PUSH0 REVERT JUMPDEST POP POP POP POP PUSH1 0x40 MLOAD RETURNDATASIZE PUSH0 DUP3 RETURNDATACOPY PUSH1 0x1F RETURNDATASIZE SWAP1 DUP2 ADD PUSH1 0x1F NOT AND DUP3 ADD PUSH1 0x40 MSTORE PUSH2 0x1454 SWAP2 SWAP1 DUP2 ADD SWAP1 PUSH2 0x548E JUMP JUMPDEST PUSH1 0x4 DUP1 SLOAD PUSH1 0x60 DUP4 ADD MLOAD PUSH1 0x40 MLOAD PUSH4 0xAD66A5F1 PUSH1 0xE0 SHL DUP2 MSTORE SWAP4 SWAP5 POP PUSH1 0x1 PUSH1 0x1 PUSH1 0xA0 SHL SUB SWAP1 SWAP2 AND SWAP3 PUSH4 0xAD66A5F1 SWAP3 PUSH2 0x1494 SWAP3 SWAP2 ADD PUSH2 0xFFFF SWAP2 SWAP1 SWAP2 AND DUP2 MSTORE PUSH1 0x20 ADD SWAP1 JUMP JUMPDEST PUSH1 0x20 PUSH1 0x40 MLOAD DUP1 DUP4 SUB DUP2 DUP7 GAS STATICCALL ISZERO DUP1 ISZERO PUSH2 0x14AF JUMPI RETURNDATASIZE PUSH0 DUP1 RETURNDATACOPY RETURNDATASIZE PUSH0 REVERT JUMPDEST POP POP POP POP PUSH1 0x40 MLOAD RETURNDATASIZE PUSH1 0x1F NOT PUSH1 0x1F DUP3 ADD AND DUP3 ADD DUP1 PUSH1 0x40 MSTORE POP DUP2 ADD SWAP1 PUSH2 0x14D3 SWAP2 SWAP1 PUSH2 0x55AC JUMP JUMPDEST DUP2 PUSH1 0x80 ADD MLOAD EQ PUSH2 0x151E JUMPI PUSH1 0x40 MLOAD PUSH3 0x461BCD PUSH1 0xE5 SHL DUP2 MSTORE PUSH1 0x20 PUSH1 0x4 DUP3 ADD MSTORE PUSH1 0x16 PUSH1 0x24 DUP3 ADD MSTORE PUSH22 0x4E6F74206120546F6B656E2042726964676520564141 PUSH1 0x50 SHL PUSH1 0x44 DUP3 ADD MSTORE PUSH1 0x64 ADD PUSH2 0xDD2 JUMP JUMPDEST PUSH1 0x4 DUP1 SLOAD PUSH1 0xE0 DUP4 ADD MLOAD PUSH1 0x40 MLOAD PUSH4 0xEA63738D PUSH1 0xE0 SHL DUP2 MSTORE PUSH0 SWAP4 PUSH1 0x1 PUSH1 0x1 PUSH1 0xA0 SHL SUB SWAP1 SWAP4 AND SWAP3 PUSH4 0xEA63738D SWAP3 PUSH2 0x1554 SWAP3 SWAP1 SWAP2 ADD PUSH2 0x4F84 JUMP JUMPDEST PUSH0 PUSH1 0x40 MLOAD DUP1 DUP4 SUB DUP2 DUP7 GAS STATICCALL ISZERO DUP1 ISZERO PUSH2 0x156E JUMPI RETURNDATASIZE PUSH0 DUP1 RETURNDATACOPY RETURNDATASIZE PUSH0 REVERT JUMPDEST POP POP POP POP PUSH1 0x40 MLOAD RETURNDATASIZE PUSH0 DUP3 RETURNDATACOPY PUSH1 0x1F RETURNDATASIZE SWAP1 DUP2 ADD PUSH1 0x1F NOT AND DUP3 ADD PUSH1 0x40 MSTORE PUSH2 0x1595 SWAP2 SWAP1 DUP2 ADD SWAP1 PUSH2 0x55C3 JUMP JUMPDEST SWAP1 POP ADDRESS DUP2 PUSH1 0x80 ADD MLOAD EQ DUP1 ISZERO PUSH2 0x1628 JUMPI POP PUSH1 0x1 PUSH0 SWAP1 SLOAD SWAP1 PUSH2 0x100 EXP SWAP1 DIV PUSH1 0x1 PUSH1 0x1 PUSH1 0xA0 SHL SUB AND PUSH1 0x1 PUSH1 0x1 PUSH1 0xA0 SHL SUB AND PUSH4 0x9A8A0592 PUSH1 0x40 MLOAD DUP2 PUSH4 0xFFFFFFFF AND PUSH1 0xE0 SHL DUP2 MSTORE PUSH1 0x4 ADD PUSH1 0x20 PUSH1 0x40 MLOAD DUP1 DUP4 SUB DUP2 DUP7 GAS STATICCALL ISZERO DUP1 ISZERO PUSH2 0x15F5 JUMPI RETURNDATASIZE PUSH0 DUP1 RETURNDATACOPY RETURNDATASIZE PUSH0 REVERT JUMPDEST POP POP POP POP PUSH1 0x40 MLOAD RETURNDATASIZE PUSH1 0x1F NOT PUSH1 0x1F DUP3 ADD AND DUP3 ADD DUP1 PUSH1 0x40 MSTORE POP DUP2 ADD SWAP1 PUSH2 0x1619 SWAP2 SWAP1 PUSH2 0x5686 JUMP JUMPDEST PUSH2 0xFFFF AND DUP2 PUSH1 0xA0 ADD MLOAD PUSH2 0xFFFF AND EQ JUMPDEST PUSH2 0x167F JUMPI PUSH1 0x40 MLOAD PUSH3 0x461BCD PUSH1 0xE5 SHL DUP2 MSTORE PUSH1 0x20 PUSH1 0x4 DUP3 ADD MSTORE PUSH1 0x22 PUSH1 0x24 DUP3 ADD MSTORE PUSH32 0x546F6B656E20776173206E6F742073656E7420746F2074686973206164647265 PUSH1 0x44 DUP3 ADD MSTORE PUSH2 0x7373 PUSH1 0xF0 SHL PUSH1 0x64 DUP3 ADD MSTORE PUSH1 0x84 ADD PUSH2 0xDD2 JUMP JUMPDEST PUSH1 0x4 SLOAD DUP9 MLOAD PUSH1 0x1 PUSH1 0x1 PUSH1 0xA0 SHL SUB SWAP1 SWAP2 AND SWAP1 PUSH4 0xC3F511C1 SWAP1 DUP11 SWAP1 DUP7 SWAP1 DUP2 LT PUSH2 0x16A8 JUMPI PUSH2 0x16A8 PUSH2 0x5358 JUMP JUMPDEST PUSH1 0x20 MUL PUSH1 0x20 ADD ADD MLOAD PUSH1 0x40 MLOAD DUP3 PUSH4 0xFFFFFFFF AND PUSH1 0xE0 SHL DUP2 MSTORE PUSH1 0x4 ADD PUSH2 0x16CC SWAP2 SWAP1 PUSH2 0x4F84 JUMP JUMPDEST PUSH0 PUSH1 0x40 MLOAD DUP1 DUP4 SUB DUP2 PUSH0 DUP8 GAS CALL ISZERO DUP1 ISZERO PUSH2 0x16E7 JUMPI RETURNDATASIZE PUSH0 DUP1 RETURNDATACOPY RETURNDATASIZE PUSH0 REVERT JUMPDEST POP POP POP POP PUSH1 0x40 MLOAD RETURNDATASIZE PUSH0 DUP3 RETURNDATACOPY PUSH1 0x1F RETURNDATASIZE SWAP1 DUP2 ADD PUSH1 0x1F NOT AND DUP3 ADD PUSH1 0x40 MSTORE PUSH2 0x170E SWAP2 SWAP1 DUP2 ADD SWAP1 PUSH2 0x56A1 JUMP JUMPDEST POP PUSH0 PUSH2 0x1722 DUP3 PUSH1 0x60 ADD MLOAD DUP4 PUSH1 0x40 ADD MLOAD PUSH2 0x304D JUMP JUMPDEST SWAP1 POP PUSH0 PUSH2 0x172E DUP3 PUSH2 0x314A JUMP JUMPDEST PUSH1 0x20 DUP5 ADD MLOAD SWAP1 SWAP2 POP PUSH1 0x8 PUSH1 0xFF DUP4 AND GT ISZERO PUSH2 0x1765 JUMPI PUSH2 0x174D PUSH1 0x8 DUP4 PUSH2 0x56D2 JUMP JUMPDEST PUSH2 0x1758 SWAP1 PUSH1 0xA PUSH2 0x57CB JUMP JUMPDEST PUSH2 0x1762 SWAP1 DUP3 PUSH2 0x57D9 JUMP JUMPDEST SWAP1 POP JUMPDEST PUSH1 0x40 MLOAD DUP1 PUSH1 0xA0 ADD PUSH1 0x40 MSTORE DUP1 DUP6 PUSH1 0x40 ADD MLOAD DUP2 MSTORE PUSH1 0x20 ADD DUP6 PUSH1 0x60 ADD MLOAD PUSH2 0xFFFF AND DUP2 MSTORE PUSH1 0x20 ADD DUP5 PUSH1 0x1 PUSH1 0x1 PUSH1 0xA0 SHL SUB AND DUP2 MSTORE PUSH1 0x20 ADD DUP3 DUP2 MSTORE PUSH1 0x20 ADD DUP6 PUSH1 0x20 ADD MLOAD DUP2 MSTORE POP DUP8 DUP8 DUP2 MLOAD DUP2 LT PUSH2 0x17B7 JUMPI PUSH2 0x17B7 PUSH2 0x5358 JUMP JUMPDEST PUSH1 0x20 MUL PUSH1 0x20 ADD ADD DUP2 SWAP1 MSTORE POP POP POP POP POP POP DUP1 PUSH2 0x17D1 SWAP1 PUSH2 0x57F0 JUMP JUMPDEST SWAP1 POP PUSH2 0x13BD JUMP JUMPDEST POP PUSH2 0x17E7 DUP7 DUP3 DUP7 DUP7 DUP7 DUP11 PUSH2 0x31E1 JUMP JUMPDEST POP POP POP POP POP POP JUMP JUMPDEST PUSH2 0x17F7 PUSH2 0x2E8A JUMP JUMPDEST PUSH0 DUP1 DUP1 MSTORE PUSH1 0x17 PUSH1 0x20 MSTORE PUSH32 0xD840E16649F6B9A295D95876F4633D3A6B10B55E8162971CF78AFD886D5EC89B DUP1 SLOAD DUP4 SWAP3 SWAP1 PUSH2 0x1831 SWAP1 DUP5 SWAP1 PUSH2 0x5808 JUMP JUMPDEST SWAP1 SWAP2 SSTORE POP POP PUSH1 0x40 MLOAD CALLER SWAP1 DUP3 ISZERO PUSH2 0x8FC MUL SWAP1 DUP4 SWAP1 PUSH0 DUP2 DUP2 DUP2 DUP6 DUP9 DUP9 CALL SWAP4 POP POP POP POP ISZERO DUP1 ISZERO PUSH2 0x1860 JUMPI RETURNDATASIZE PUSH0 DUP1 RETURNDATACOPY RETURNDATASIZE PUSH0 REVERT JUMPDEST POP POP JUMP JUMPDEST CALLER ADDRESS EQ PUSH2 0x18C2 JUMPI PUSH1 0x40 MLOAD PUSH3 0x461BCD PUSH1 0xE5 SHL DUP2 MSTORE PUSH1 0x20 PUSH1 0x4 DUP3 ADD MSTORE PUSH1 0x26 PUSH1 0x24 DUP3 ADD MSTORE PUSH32 0x4E6F6E626C6F636B696E674C7A4170703A2063616C6C6572206D757374206265 PUSH1 0x44 DUP3 ADD MSTORE PUSH6 0x204C7A41707 PUSH1 0xD4 SHL PUSH1 0x64 DUP3 ADD MSTORE PUSH1 0x84 ADD PUSH2 0xDD2 JUMP JUMPDEST PUSH2 0x17E7 DUP7 DUP7 DUP7 DUP1 DUP1 PUSH1 0x1F ADD PUSH1 0x20 DUP1 SWAP2 DIV MUL PUSH1 0x20 ADD PUSH1 0x40 MLOAD SWAP1 DUP2 ADD PUSH1 0x40 MSTORE DUP1 SWAP4 SWAP3 SWAP2 SWAP1 DUP2 DUP2 MSTORE PUSH1 0x20 ADD DUP4 DUP4 DUP1 DUP3 DUP5 CALLDATACOPY PUSH0 SWAP3 ADD SWAP2 SWAP1 SWAP2 MSTORE POP POP PUSH1 0x40 DUP1 MLOAD PUSH1 0x20 PUSH1 0x1F DUP10 ADD DUP2 SWAP1 DIV DUP2 MUL DUP3 ADD DUP2 ADD SWAP1 SWAP3 MSTORE DUP8 DUP2 MSTORE DUP10 SWAP4 POP SWAP2 POP DUP8 SWAP1 DUP8 SWAP1 DUP2 SWAP1 DUP5 ADD DUP4 DUP3 DUP1 DUP3 DUP5 CALLDATACOPY PUSH0 SWAP3 ADD SWAP2 SWAP1 SWAP2 MSTORE POP PUSH2 0x3558 SWAP3 POP POP POP JUMP JUMPDEST PUSH1 0x40 DUP1 DUP3 ADD MLOAD DUP3 MLOAD PUSH2 0xFFFF AND PUSH0 SWAP1 DUP2 MSTORE PUSH1 0x7 PUSH1 0x20 MSTORE SWAP2 DUP3 KECCAK256 SLOAD PUSH1 0x1 PUSH1 0x1 PUSH1 0xA0 SHL SUB AND ISZERO DUP1 ISZERO PUSH2 0x1963 JUMPI POP DUP1 ISZERO JUMPDEST DUP1 ISZERO PUSH2 0x197A JUMPI POP PUSH1 0x60 DUP4 ADD MLOAD PUSH1 0x1 PUSH1 0x1 PUSH1 0xA0 SHL SUB AND ISZERO JUMPDEST DUP1 PUSH2 0x1994 JUMPI POP PUSH2 0x1991 DUP4 PUSH0 ADD MLOAD DUP5 PUSH1 0x80 ADD MLOAD PUSH2 0x244C JUMP JUMPDEST CALLVALUE LT JUMPDEST ISZERO PUSH2 0x19B2 JUMPI PUSH1 0x40 MLOAD PUSH4 0x7E43B997 PUSH1 0xE0 SHL DUP2 MSTORE PUSH1 0x4 ADD PUSH1 0x40 MLOAD DUP1 SWAP2 SUB SWAP1 REVERT JUMPDEST CALLER PUSH0 DUP2 DUP2 MSTORE PUSH1 0x16 PUSH1 0x20 MSTORE PUSH1 0x40 DUP1 DUP3 KECCAK256 SLOAD PUSH1 0x15 SLOAD PUSH1 0x60 DUP9 ADD MLOAD SWAP3 MLOAD PUSH4 0x23B872DD PUSH1 0xE0 SHL DUP2 MSTORE PUSH1 0x4 DUP2 ADD SWAP6 SWAP1 SWAP6 MSTORE ADDRESS PUSH1 0x24 DUP7 ADD MSTORE PUSH1 0x44 DUP6 ADD DUP7 SWAP1 MSTORE SWAP1 SWAP4 SWAP1 SWAP3 SWAP2 PUSH1 0x1 PUSH1 0x1 PUSH1 0xA0 SHL SUB AND SWAP1 PUSH4 0x23B872DD SWAP1 PUSH1 0x64 ADD PUSH1 0x20 PUSH1 0x40 MLOAD DUP1 DUP4 SUB DUP2 PUSH0 DUP8 GAS CALL ISZERO DUP1 ISZERO PUSH2 0x1A1F JUMPI RETURNDATASIZE PUSH0 DUP1 RETURNDATACOPY RETURNDATASIZE PUSH0 REVERT JUMPDEST POP POP POP POP PUSH1 0x40 MLOAD RETURNDATASIZE PUSH1 0x1F NOT PUSH1 0x1F DUP3 ADD AND DUP3 ADD DUP1 PUSH1 0x40 MSTORE POP DUP2 ADD SWAP1 PUSH2 0x1A43 SWAP2 SWAP1 PUSH2 0x581B JUMP JUMPDEST SWAP1 POP DUP1 PUSH2 0x1A6B JUMPI PUSH1 0x40 MLOAD PUSH3 0x461BCD PUSH1 0xE5 SHL DUP2 MSTORE PUSH1 0x20 PUSH1 0x4 DUP3 ADD MSTORE PUSH0 PUSH1 0x24 DUP3 ADD MSTORE PUSH1 0x44 ADD PUSH2 0xDD2 JUMP JUMPDEST PUSH1 0x14 SLOAD ISZERO PUSH2 0x1A82 JUMPI PUSH1 0x14 SLOAD PUSH2 0x1A7F SWAP1 PUSH2 0x37C4 JUMP JUMPDEST POP POP JUMPDEST DUP2 ISZERO PUSH2 0x1B04 JUMPI PUSH2 0x3E8 DUP3 DUP8 PUSH1 0x40 ADD MLOAD PUSH2 0x1A9B SWAP2 SWAP1 PUSH2 0x57D9 JUMP JUMPDEST PUSH2 0x1AA5 SWAP2 SWAP1 PUSH2 0x584A JUMP JUMPDEST DUP7 PUSH1 0x40 ADD MLOAD PUSH2 0x1AB4 SWAP2 SWAP1 PUSH2 0x5808 JUMP JUMPDEST SWAP4 POP PUSH2 0x3E8 DUP3 DUP8 PUSH1 0x40 ADD MLOAD PUSH2 0x1AC9 SWAP2 SWAP1 PUSH2 0x57D9 JUMP JUMPDEST PUSH2 0x1AD3 SWAP2 SWAP1 PUSH2 0x584A JUMP JUMPDEST PUSH1 0x60 DUP8 ADD MLOAD PUSH1 0x1 PUSH1 0x1 PUSH1 0xA0 SHL SUB AND PUSH0 SWAP1 DUP2 MSTORE PUSH1 0x17 PUSH1 0x20 MSTORE PUSH1 0x40 DUP2 KECCAK256 DUP1 SLOAD SWAP1 SWAP2 SWAP1 PUSH2 0x1AFE SWAP1 DUP5 SWAP1 PUSH2 0x5300 JUMP JUMPDEST SWAP1 SWAP2 SSTORE POP POP JUMPDEST DUP6 MLOAD PUSH2 0xFFFF DUP2 AND PUSH0 SWAP1 DUP2 MSTORE PUSH1 0x7 PUSH1 0x20 SWAP1 DUP2 MSTORE PUSH1 0x40 SWAP1 SWAP2 KECCAK256 SLOAD SWAP1 DUP9 ADD MLOAD PUSH1 0x60 DUP10 ADD MLOAD PUSH1 0x80 DUP11 ADD MLOAD PUSH2 0x1B41 SWAP5 SWAP4 PUSH1 0x1 PUSH1 0x1 PUSH1 0xA0 SHL SUB AND SWAP3 SWAP2 DUP10 SWAP2 PUSH2 0x383A JUMP JUMPDEST SWAP5 POP DUP5 PUSH2 0x1B69 JUMPI PUSH1 0x40 MLOAD PUSH3 0x461BCD PUSH1 0xE5 SHL DUP2 MSTORE PUSH1 0x20 PUSH1 0x4 DUP3 ADD MSTORE PUSH0 PUSH1 0x24 DUP3 ADD MSTORE PUSH1 0x44 ADD PUSH2 0xDD2 JUMP JUMPDEST PUSH1 0xE SLOAD PUSH2 0x1B82 SWAP1 PUSH1 0x64 SWAP1 PUSH1 0x1 PUSH1 0xA0 SHL SWAP1 DIV PUSH1 0xFF AND PUSH2 0x585D JUMP JUMPDEST PUSH1 0x14 SLOAD PUSH2 0x1B92 SWAP2 PUSH1 0xFF AND SWAP1 PUSH2 0x57D9 JUMP JUMPDEST PUSH1 0x14 SLOAD PUSH2 0x1B9F SWAP2 SWAP1 PUSH2 0x5808 JUMP JUMPDEST PUSH1 0xF PUSH0 DUP3 DUP3 SLOAD PUSH2 0x1BAF SWAP2 SWAP1 PUSH2 0x5300 JUMP JUMPDEST SWAP1 SWAP2 SSTORE POP PUSH2 0x1BC0 SWAP1 POP DUP4 PUSH1 0x1 PUSH2 0x5300 JUMP JUMPDEST CALLER PUSH0 SWAP1 DUP2 MSTORE PUSH1 0x16 PUSH1 0x20 SWAP1 DUP2 MSTORE PUSH1 0x40 DUP1 DUP4 KECCAK256 SWAP4 SWAP1 SWAP4 SSTORE DUP3 MLOAD PUSH1 0xE0 DUP2 ADD DUP1 DUP6 MSTORE PUSH1 0x1 SLOAD PUSH4 0x4D4502C9 PUSH1 0xE1 SHL SWAP1 SWAP2 MSTORE SWAP4 MLOAD SWAP3 SWAP4 SWAP1 SWAP3 DUP4 SWAP3 PUSH1 0x1 PUSH1 0x1 PUSH1 0xA0 SHL SUB SWAP1 SWAP3 AND SWAP2 PUSH4 0x9A8A0592 SWAP2 PUSH1 0xE4 DUP1 DUP7 ADD SWAP3 SWAP2 SWAP1 DUP2 DUP8 SUB ADD DUP2 DUP7 GAS STATICCALL ISZERO DUP1 ISZERO PUSH2 0x1C25 JUMPI RETURNDATASIZE PUSH0 DUP1 RETURNDATACOPY RETURNDATASIZE PUSH0 REVERT JUMPDEST POP POP POP POP PUSH1 0x40 MLOAD RETURNDATASIZE PUSH1 0x1F NOT PUSH1 0x1F DUP3 ADD AND DUP3 ADD DUP1 PUSH1 0x40 MSTORE POP DUP2 ADD SWAP1 PUSH2 0x1C49 SWAP2 SWAP1 PUSH2 0x5686 JUMP JUMPDEST PUSH2 0xFFFF AND DUP2 MSTORE PUSH1 0x20 ADD DUP9 PUSH0 ADD MLOAD PUSH2 0xFFFF AND DUP2 MSTORE PUSH1 0x20 ADD DUP9 PUSH1 0x60 ADD MLOAD PUSH1 0x1 PUSH1 0x1 PUSH1 0xA0 SHL SUB AND DUP2 MSTORE PUSH1 0x20 ADD DUP7 DUP2 MSTORE PUSH1 0x20 ADD DUP9 PUSH1 0x20 ADD MLOAD PUSH1 0x1 PUSH1 0x1 PUSH1 0xA0 SHL SUB AND DUP2 MSTORE PUSH1 0x20 ADD TIMESTAMP DUP2 MSTORE PUSH1 0x20 ADD PUSH1 0x1 ISZERO ISZERO DUP2 MSTORE POP SWAP1 POP DUP1 PUSH1 0x16 PUSH0 CALLER PUSH1 0x1 PUSH1 0x1 PUSH1 0xA0 SHL SUB AND PUSH1 0x1 PUSH1 0x1 PUSH1 0xA0 SHL SUB AND DUP2 MSTORE PUSH1 0x20 ADD SWAP1 DUP2 MSTORE PUSH1 0x20 ADD PUSH0 KECCAK256 PUSH1 0x4 ADD PUSH1 0x3 ADD PUSH0 DUP7 DUP2 MSTORE PUSH1 0x20 ADD SWAP1 DUP2 MSTORE PUSH1 0x20 ADD PUSH0 KECCAK256 PUSH0 DUP10 PUSH0 ADD MLOAD PUSH2 0xFFFF AND PUSH2 0xFFFF AND DUP2 MSTORE PUSH1 0x20 ADD SWAP1 DUP2 MSTORE PUSH1 0x20 ADD PUSH0 KECCAK256 PUSH0 DUP3 ADD MLOAD DUP2 PUSH0 ADD PUSH0 PUSH2 0x100 EXP DUP2 SLOAD DUP2 PUSH2 0xFFFF MUL NOT AND SWAP1 DUP4 PUSH2 0xFFFF AND MUL OR SWAP1 SSTORE POP PUSH1 0x20 DUP3 ADD MLOAD DUP2 PUSH0 ADD PUSH1 0x2 PUSH2 0x100 EXP DUP2 SLOAD DUP2 PUSH2 0xFFFF MUL NOT AND SWAP1 DUP4 PUSH2 0xFFFF AND MUL OR SWAP1 SSTORE POP PUSH1 0x40 DUP3 ADD MLOAD DUP2 PUSH0 ADD PUSH1 0x4 PUSH2 0x100 EXP DUP2 SLOAD DUP2 PUSH1 0x1 PUSH1 0x1 PUSH1 0xA0 SHL SUB MUL NOT AND SWAP1 DUP4 PUSH1 0x1 PUSH1 0x1 PUSH1 0xA0 SHL SUB AND MUL OR SWAP1 SSTORE POP PUSH1 0x60 DUP3 ADD MLOAD DUP2 PUSH1 0x1 ADD SSTORE PUSH1 0x80 DUP3 ADD MLOAD DUP2 PUSH1 0x2 ADD PUSH0 PUSH2 0x100 EXP DUP2 SLOAD DUP2 PUSH1 0x1 PUSH1 0x1 PUSH1 0xA0 SHL SUB MUL NOT AND SWAP1 DUP4 PUSH1 0x1 PUSH1 0x1 PUSH1 0xA0 SHL SUB AND MUL OR SWAP1 SSTORE POP PUSH1 0xA0 DUP3 ADD MLOAD DUP2 PUSH1 0x3 ADD SSTORE PUSH1 0xC0 DUP3 ADD MLOAD DUP2 PUSH1 0x4 ADD PUSH0 PUSH2 0x100 EXP DUP2 SLOAD DUP2 PUSH1 0xFF MUL NOT AND SWAP1 DUP4 ISZERO ISZERO MUL OR SWAP1 SSTORE POP SWAP1 POP POP PUSH1 0x11 PUSH0 ADD SLOAD PUSH1 0x16 PUSH0 CALLER PUSH1 0x1 PUSH1 0x1 PUSH1 0xA0 SHL SUB AND PUSH1 0x1 PUSH1 0x1 PUSH1 0xA0 SHL SUB AND DUP2 MSTORE PUSH1 0x20 ADD SWAP1 DUP2 MSTORE PUSH1 0x20 ADD PUSH0 KECCAK256 PUSH0 ADD PUSH1 0x3 ADD PUSH0 DUP3 DUP3 SLOAD PUSH2 0x1DF8 SWAP2 SWAP1 PUSH2 0x5300 JUMP JUMPDEST SWAP1 SWAP2 SSTORE POP POP PUSH1 0x11 SLOAD PUSH1 0x12 DUP1 SLOAD PUSH0 SWAP1 PUSH2 0x1E11 SWAP1 DUP5 SWAP1 PUSH2 0x5300 JUMP JUMPDEST SWAP1 SWAP2 SSTORE POP POP CALLER PUSH0 SWAP1 DUP2 MSTORE PUSH1 0x16 PUSH1 0x20 SWAP1 DUP2 MSTORE PUSH1 0x40 DUP1 DUP4 KECCAK256 PUSH1 0x60 DUP12 ADD MLOAD PUSH1 0x1 PUSH1 0x1 PUSH1 0xA0 SHL SUB AND DUP5 MSTORE PUSH1 0x5 ADD DUP3 MSTORE DUP1 DUP4 KECCAK256 DUP11 MLOAD PUSH2 0xFFFF AND DUP5 MSTORE SWAP1 SWAP2 MSTORE DUP2 KECCAK256 DUP1 SLOAD DUP8 SWAP3 SWAP1 PUSH2 0x1E5C SWAP1 DUP5 SWAP1 PUSH2 0x5300 JUMP JUMPDEST SWAP3 POP POP DUP2 SWAP1 SSTORE POP PUSH2 0x1E71 CALLER DUP9 PUSH1 0xA0 ADD MLOAD PUSH2 0x392C JUMP JUMPDEST POP POP POP POP POP SWAP2 SWAP1 POP JUMP JUMPDEST PUSH2 0x1E83 PUSH2 0x2E8A JUMP JUMPDEST PUSH1 0x40 DUP1 MLOAD PUSH1 0xA0 DUP2 ADD DUP3 MSTORE DUP7 DUP2 MSTORE PUSH1 0x20 DUP2 ADD DUP7 SWAP1 MSTORE SWAP4 ISZERO ISZERO SWAP1 DUP5 ADD DUP2 SWAP1 MSTORE PUSH1 0x60 DUP5 ADD DUP4 SWAP1 MSTORE PUSH1 0x80 SWAP1 SWAP4 ADD DUP2 SWAP1 MSTORE PUSH1 0x11 SWAP5 SWAP1 SWAP5 SSTORE PUSH1 0x12 SWAP3 SWAP1 SWAP3 SSTORE PUSH1 0x13 DUP1 SLOAD PUSH1 0xFF NOT AND SWAP1 SWAP2 OR SWAP1 SSTORE PUSH1 0x14 SSTORE PUSH1 0x15 SSTORE JUMP JUMPDEST PUSH2 0x1ED8 PUSH2 0x2E8A JUMP JUMPDEST PUSH2 0x1EE1 PUSH0 PUSH2 0x3A6A JUMP JUMPDEST JUMP JUMPDEST PUSH1 0x9 PUSH1 0x20 MSTORE PUSH0 SWAP1 DUP2 MSTORE PUSH1 0x40 SWAP1 KECCAK256 DUP1 SLOAD PUSH2 0x1EFB SWAP1 PUSH2 0x52A5 JUMP JUMPDEST DUP1 PUSH1 0x1F ADD PUSH1 0x20 DUP1 SWAP2 DIV MUL PUSH1 0x20 ADD PUSH1 0x40 MLOAD SWAP1 DUP2 ADD PUSH1 0x40 MSTORE DUP1 SWAP3 SWAP2 SWAP1 DUP2 DUP2 MSTORE PUSH1 0x20 ADD DUP3 DUP1 SLOAD PUSH2 0x1F27 SWAP1 PUSH2 0x52A5 JUMP JUMPDEST DUP1 ISZERO PUSH2 0x1F72 JUMPI DUP1 PUSH1 0x1F LT PUSH2 0x1F49 JUMPI PUSH2 0x100 DUP1 DUP4 SLOAD DIV MUL DUP4 MSTORE SWAP2 PUSH1 0x20 ADD SWAP2 PUSH2 0x1F72 JUMP JUMPDEST DUP3 ADD SWAP2 SWAP1 PUSH0 MSTORE PUSH1 0x20 PUSH0 KECCAK256 SWAP1 JUMPDEST DUP2 SLOAD DUP2 MSTORE SWAP1 PUSH1 0x1 ADD SWAP1 PUSH1 0x20 ADD DUP1 DUP4 GT PUSH2 0x1F55 JUMPI DUP3 SWAP1 SUB PUSH1 0x1F AND DUP3 ADD SWAP2 JUMPDEST POP POP POP POP POP DUP2 JUMP JUMPDEST PUSH2 0x1F82 PUSH2 0x2E8A JUMP JUMPDEST PUSH2 0xFFFF SWAP1 SWAP2 AND PUSH0 DUP2 DUP2 MSTORE PUSH1 0x6 PUSH1 0x20 SWAP1 DUP2 MSTORE PUSH1 0x40 DUP1 DUP4 KECCAK256 PUSH1 0x1 PUSH1 0x1 PUSH1 0xA0 SHL SUB SWAP1 SWAP6 AND DUP4 MSTORE SWAP4 DUP2 MSTORE DUP4 DUP3 KECCAK256 DUP1 SLOAD PUSH1 0xFF NOT AND SWAP1 SSTORE SWAP2 DUP2 MSTORE PUSH1 0x7 SWAP1 SWAP2 MSTORE KECCAK256 DUP1 SLOAD PUSH1 0x1 PUSH1 0x1 PUSH1 0xA0 SHL SUB NOT AND SWAP1 SSTORE JUMP JUMPDEST PUSH1 0x40 DUP2 ADD MLOAD DUP1 ISZERO DUP1 ISZERO PUSH2 0x1FEA JUMPI POP PUSH1 0x20 DUP3 ADD MLOAD PUSH1 0x1 PUSH1 0x1 PUSH1 0xA0 SHL SUB AND ISZERO JUMPDEST DUP1 PUSH2 0x200F JUMPI POP PUSH2 0x200C DUP3 PUSH0 ADD MLOAD DUP4 PUSH1 0x80 ADD MLOAD DUP4 DUP6 PUSH1 0x20 ADD MLOAD DUP7 PUSH1 0x60 ADD MLOAD PUSH2 0x11AC JUMP JUMPDEST CALLVALUE LT JUMPDEST ISZERO PUSH2 0x202D JUMPI PUSH1 0x40 MLOAD PUSH4 0x7E43B997 PUSH1 0xE0 SHL DUP2 MSTORE PUSH1 0x4 ADD PUSH1 0x40 MLOAD DUP1 SWAP2 SUB SWAP1 REVERT JUMPDEST PUSH1 0x14 SLOAD PUSH1 0x15 SLOAD CALLER PUSH0 SWAP1 DUP2 MSTORE PUSH1 0x16 PUSH1 0x20 MSTORE PUSH1 0x40 SWAP1 KECCAK256 SLOAD PUSH2 0x204D DUP2 PUSH1 0x1 PUSH2 0x5300 JUMP JUMPDEST CALLER PUSH0 SWAP1 DUP2 MSTORE PUSH1 0x16 PUSH1 0x20 MSTORE PUSH1 0x40 SWAP1 KECCAK256 SSTORE DUP3 ISZERO PUSH2 0x206F JUMPI PUSH2 0x206B DUP4 PUSH2 0x37C4 JUMP JUMPDEST POP SWAP3 POP JUMPDEST DUP2 ISZERO PUSH2 0x20A4 JUMPI PUSH2 0x3E8 DUP3 DUP7 PUSH1 0x40 ADD MLOAD PUSH2 0x2088 SWAP2 SWAP1 PUSH2 0x57D9 JUMP JUMPDEST PUSH2 0x2092 SWAP2 SWAP1 PUSH2 0x584A JUMP JUMPDEST DUP6 PUSH1 0x40 ADD MLOAD PUSH2 0x20A1 SWAP2 SWAP1 PUSH2 0x5808 JUMP JUMPDEST SWAP4 POP JUMPDEST PUSH0 PUSH2 0x20C6 DUP7 PUSH0 ADD MLOAD DUP8 PUSH1 0x20 ADD MLOAD DUP8 DUP10 PUSH1 0x60 ADD MLOAD DUP11 PUSH1 0x80 ADD MLOAD DUP12 PUSH1 0xA0 ADD MLOAD PUSH2 0x3ABB JUMP JUMPDEST SWAP1 POP DUP1 PUSH2 0x20EE JUMPI PUSH1 0x40 MLOAD PUSH3 0x461BCD PUSH1 0xE5 SHL DUP2 MSTORE PUSH1 0x20 PUSH1 0x4 DUP3 ADD MSTORE PUSH0 PUSH1 0x24 DUP3 ADD MSTORE PUSH1 0x44 ADD PUSH2 0xDD2 JUMP JUMPDEST PUSH2 0x3E8 DUP4 DUP8 PUSH1 0x40 ADD MLOAD PUSH2 0x2101 SWAP2 SWAP1 PUSH2 0x57D9 JUMP JUMPDEST PUSH2 0x210B SWAP2 SWAP1 PUSH2 0x584A JUMP JUMPDEST PUSH0 DUP1 DUP1 MSTORE PUSH1 0x17 PUSH1 0x20 MSTORE PUSH32 0xD840E16649F6B9A295D95876F4633D3A6B10B55E8162971CF78AFD886D5EC89B DUP1 SLOAD SWAP1 SWAP2 SWAP1 PUSH2 0x2145 SWAP1 DUP5 SWAP1 PUSH2 0x5300 JUMP JUMPDEST SWAP3 POP POP DUP2 SWAP1 SSTORE POP DUP4 PUSH1 0xF PUSH0 DUP3 DUP3 SLOAD PUSH2 0x215D SWAP2 SWAP1 PUSH2 0x5300 JUMP JUMPDEST SWAP3 POP POP DUP2 SWAP1 SSTORE POP PUSH0 PUSH1 0x40 MLOAD DUP1 PUSH1 0xC0 ADD PUSH1 0x40 MSTORE DUP1 PUSH32 0x0 PUSH1 0x1 PUSH1 0x1 PUSH1 0xA0 SHL SUB AND PUSH4 0x3408E470 PUSH1 0x40 MLOAD DUP2 PUSH4 0xFFFFFFFF AND PUSH1 0xE0 SHL DUP2 MSTORE PUSH1 0x4 ADD PUSH1 0x20 PUSH1 0x40 MLOAD DUP1 DUP4 SUB DUP2 DUP7 GAS STATICCALL ISZERO DUP1 ISZERO PUSH2 0x21CC JUMPI RETURNDATASIZE PUSH0 DUP1 RETURNDATACOPY RETURNDATASIZE PUSH0 REVERT JUMPDEST POP POP POP POP PUSH1 0x40 MLOAD RETURNDATASIZE PUSH1 0x1F NOT PUSH1 0x1F DUP3 ADD AND DUP3 ADD DUP1 PUSH1 0x40 MSTORE POP DUP2 ADD SWAP1 PUSH2 0x21F0 SWAP2 SWAP1 PUSH2 0x5686 JUMP JUMPDEST PUSH2 0xFFFF SWAP1 DUP2 AND DUP3 MSTORE DUP10 MLOAD AND PUSH1 0x20 DUP1 DUP4 ADD SWAP2 SWAP1 SWAP2 MSTORE PUSH1 0x40 DUP1 DUP4 ADD DUP11 SWAP1 MSTORE DUP11 DUP3 ADD MLOAD PUSH1 0x1 PUSH1 0x1 PUSH1 0xA0 SHL SUB AND PUSH1 0x60 DUP5 ADD MSTORE TIMESTAMP PUSH1 0x80 DUP5 ADD MSTORE PUSH1 0x1 PUSH1 0xA0 SWAP1 SWAP4 ADD SWAP3 SWAP1 SWAP3 MSTORE PUSH1 0x11 SLOAD CALLER PUSH0 SWAP1 DUP2 MSTORE PUSH1 0x16 SWAP1 SWAP3 MSTORE SWAP2 DUP2 KECCAK256 PUSH1 0x3 ADD DUP1 SLOAD SWAP4 SWAP5 POP SWAP2 SWAP3 PUSH2 0x2254 SWAP1 DUP5 SWAP1 PUSH2 0x5300 JUMP JUMPDEST SWAP1 SWAP2 SSTORE POP POP PUSH1 0x11 SLOAD PUSH1 0x12 DUP1 SLOAD PUSH0 SWAP1 PUSH2 0x226D SWAP1 DUP5 SWAP1 PUSH2 0x5300 JUMP JUMPDEST SWAP1 SWAP2 SSTORE POP POP CALLER PUSH0 DUP2 DUP2 MSTORE PUSH1 0x16 PUSH1 0x20 DUP2 DUP2 MSTORE PUSH1 0x40 DUP1 DUP5 KECCAK256 DUP9 DUP6 MSTORE PUSH1 0x9 DUP2 ADD DUP4 MSTORE DUP2 DUP6 KECCAK256 DUP14 MLOAD PUSH2 0xFFFF SWAP1 DUP2 AND DUP8 MSTORE SWAP1 DUP5 MSTORE DUP3 DUP7 KECCAK256 DUP9 MLOAD DUP2 SLOAD DUP11 DUP8 ADD MLOAD SWAP2 DUP5 AND PUSH4 0xFFFFFFFF NOT SWAP1 SWAP2 AND OR PUSH3 0x10000 SWAP2 DUP5 AND SWAP2 SWAP1 SWAP2 MUL OR DUP2 SSTORE DUP9 DUP5 ADD MLOAD PUSH1 0x1 DUP3 ADD SSTORE PUSH1 0x60 DUP10 ADD MLOAD PUSH1 0x2 DUP3 ADD DUP1 SLOAD PUSH1 0x1 PUSH1 0x1 PUSH1 0xA0 SHL SUB NOT AND PUSH1 0x1 PUSH1 0x1 PUSH1 0xA0 SHL SUB SWAP1 SWAP3 AND SWAP2 SWAP1 SWAP2 OR SWAP1 SSTORE PUSH1 0x80 DUP10 ADD MLOAD PUSH1 0x3 DUP3 ADD SSTORE PUSH1 0xA0 DUP10 ADD MLOAD PUSH1 0x4 SWAP2 DUP3 ADD DUP1 SLOAD PUSH1 0xFF NOT AND SWAP2 ISZERO ISZERO SWAP2 SWAP1 SWAP2 OR SWAP1 SSTORE SWAP7 DUP7 MSTORE SWAP4 DUP4 MSTORE DUP13 MLOAD SWAP1 SWAP4 AND DUP5 MSTORE SWAP4 SWAP1 SWAP2 ADD SWAP1 MSTORE SWAP1 DUP2 KECCAK256 DUP1 SLOAD DUP9 SWAP3 SWAP1 PUSH2 0x233A SWAP1 DUP5 SWAP1 PUSH2 0x5300 JUMP JUMPDEST SWAP3 POP POP DUP2 SWAP1 SSTORE POP PUSH2 0xF80 CALLER DUP9 PUSH1 0xC0 ADD MLOAD PUSH2 0x392C JUMP JUMPDEST PUSH2 0x2357 PUSH2 0x2E8A JUMP JUMPDEST PUSH1 0x1 PUSH1 0x1 PUSH1 0xA0 SHL SUB DUP3 AND PUSH0 SWAP1 DUP2 MSTORE PUSH1 0x17 PUSH1 0x20 MSTORE PUSH1 0x40 DUP2 KECCAK256 DUP1 SLOAD DUP4 SWAP3 SWAP1 PUSH2 0x237E SWAP1 DUP5 SWAP1 PUSH2 0x5808 JUMP JUMPDEST SWAP1 SWAP2 SSTORE POP POP PUSH1 0x40 MLOAD PUSH4 0xA9059CBB PUSH1 0xE0 SHL DUP2 MSTORE CALLER PUSH1 0x4 DUP3 ADD MSTORE PUSH1 0x24 DUP2 ADD DUP3 SWAP1 MSTORE PUSH1 0x1 PUSH1 0x1 PUSH1 0xA0 SHL SUB DUP4 AND SWAP1 PUSH4 0xA9059CBB SWAP1 PUSH1 0x44 ADD PUSH1 0x20 PUSH1 0x40 MLOAD DUP1 DUP4 SUB DUP2 PUSH0 DUP8 GAS CALL ISZERO DUP1 ISZERO PUSH2 0x23CD JUMPI RETURNDATASIZE PUSH0 DUP1 RETURNDATACOPY RETURNDATASIZE PUSH0 REVERT JUMPDEST POP POP POP POP PUSH1 0x40 MLOAD RETURNDATASIZE PUSH1 0x1F NOT PUSH1 0x1F DUP3 ADD AND DUP3 ADD DUP1 PUSH1 0x40 MSTORE POP DUP2 ADD SWAP1 PUSH2 0x23F1 SWAP2 SWAP1 PUSH2 0x581B JUMP JUMPDEST POP POP POP JUMP JUMPDEST PUSH2 0x23FE PUSH2 0x2E8A JUMP JUMPDEST PUSH1 0x40 MLOAD PUSH1 0x1 PUSH1 0x1 PUSH1 0x60 SHL SUB NOT PUSH1 0x60 DUP5 DUP2 SHL DUP3 AND PUSH1 0x20 DUP5 ADD MSTORE ADDRESS SWAP1 SHL AND PUSH1 0x34 DUP3 ADD MSTORE PUSH1 0x48 ADD PUSH1 0x40 DUP1 MLOAD PUSH1 0x1F NOT DUP2 DUP5 SUB ADD DUP2 MSTORE SWAP2 DUP2 MSTORE PUSH2 0xFFFF DUP4 AND PUSH0 SWAP1 DUP2 MSTORE PUSH1 0x9 PUSH1 0x20 MSTORE KECCAK256 SWAP1 PUSH2 0x23F1 SWAP1 DUP3 PUSH2 0x58C3 JUMP JUMPDEST PUSH1 0x14 SLOAD PUSH0 SWAP1 PUSH2 0x245B DUP5 DUP5 PUSH2 0x3B33 JUMP JUMPDEST PUSH2 0x2465 SWAP2 SWAP1 PUSH2 0x5300 JUMP JUMPDEST SWAP4 SWAP3 POP POP POP JUMP JUMPDEST PUSH2 0xFFFF DUP2 AND PUSH0 SWAP1 DUP2 MSTORE PUSH1 0x9 PUSH1 0x20 MSTORE PUSH1 0x40 DUP2 KECCAK256 DUP1 SLOAD PUSH1 0x60 SWAP3 SWAP2 SWAP1 PUSH2 0x248E SWAP1 PUSH2 0x52A5 JUMP JUMPDEST DUP1 PUSH1 0x1F ADD PUSH1 0x20 DUP1 SWAP2 DIV MUL PUSH1 0x20 ADD PUSH1 0x40 MLOAD SWAP1 DUP2 ADD PUSH1 0x40 MSTORE DUP1 SWAP3 SWAP2 SWAP1 DUP2 DUP2 MSTORE PUSH1 0x20 ADD DUP3 DUP1 SLOAD PUSH2 0x24BA SWAP1 PUSH2 0x52A5 JUMP JUMPDEST DUP1 ISZERO PUSH2 0x2505 JUMPI DUP1 PUSH1 0x1F LT PUSH2 0x24DC JUMPI PUSH2 0x100 DUP1 DUP4 SLOAD DIV MUL DUP4 MSTORE SWAP2 PUSH1 0x20 ADD SWAP2 PUSH2 0x2505 JUMP JUMPDEST DUP3 ADD SWAP2 SWAP1 PUSH0 MSTORE PUSH1 0x20 PUSH0 KECCAK256 SWAP1 JUMPDEST DUP2 SLOAD DUP2 MSTORE SWAP1 PUSH1 0x1 ADD SWAP1 PUSH1 0x20 ADD DUP1 DUP4 GT PUSH2 0x24E8 JUMPI DUP3 SWAP1 SUB PUSH1 0x1F AND DUP3 ADD SWAP2 JUMPDEST POP POP POP POP POP SWAP1 POP DUP1 MLOAD PUSH0 SUB PUSH2 0x255C JUMPI PUSH1 0x40 MLOAD PUSH3 0x461BCD PUSH1 0xE5 SHL DUP2 MSTORE PUSH1 0x20 PUSH1 0x4 DUP3 ADD MSTORE PUSH1 0x1D PUSH1 0x24 DUP3 ADD MSTORE PUSH32 0x4C7A4170703A206E6F20747275737465642070617468207265636F7264000000 PUSH1 0x44 DUP3 ADD MSTORE PUSH1 0x64 ADD PUSH2 0xDD2 JUMP JUMPDEST PUSH2 0x2465 PUSH0 PUSH1 0x14 DUP4 MLOAD PUSH2 0x256E SWAP2 SWAP1 PUSH2 0x5808 JUMP JUMPDEST DUP4 SWAP2 SWAP1 PUSH2 0x3C28 JUMP JUMPDEST PUSH2 0x257E PUSH2 0x2E8A JUMP JUMPDEST DUP2 DUP2 ADDRESS PUSH1 0x40 MLOAD PUSH1 0x20 ADD PUSH2 0x2593 SWAP4 SWAP3 SWAP2 SWAP1 PUSH2 0x597E JUMP JUMPDEST PUSH1 0x40 DUP1 MLOAD PUSH1 0x1F NOT DUP2 DUP5 SUB ADD DUP2 MSTORE SWAP2 DUP2 MSTORE PUSH2 0xFFFF DUP6 AND PUSH0 SWAP1 DUP2 MSTORE PUSH1 0x9 PUSH1 0x20 MSTORE KECCAK256 SWAP1 PUSH2 0x25BD SWAP1 DUP3 PUSH2 0x58C3 JUMP JUMPDEST POP PUSH32 0x8C0400CFE2D1199B1A725C78960BCC2A344D869B80590D0F2BD005DB15A572CE DUP4 DUP4 DUP4 PUSH1 0x40 MLOAD PUSH2 0x25F1 SWAP4 SWAP3 SWAP2 SWAP1 PUSH2 0x533B JUMP JUMPDEST PUSH1 0x40 MLOAD DUP1 SWAP2 SUB SWAP1 LOG1 POP POP POP JUMP JUMPDEST PUSH2 0x2606 PUSH2 0x2E8A JUMP JUMPDEST PUSH1 0xC DUP1 SLOAD PUSH1 0x1 PUSH1 0x1 PUSH1 0xA0 SHL SUB NOT AND PUSH1 0x1 PUSH1 0x1 PUSH1 0xA0 SHL SUB DUP4 AND SWAP1 DUP2 OR SWAP1 SWAP2 SSTORE PUSH1 0x40 MLOAD SWAP1 DUP2 MSTORE PUSH32 0x5DB758E995A17EC1AD84BDEF7E8C3293A0BD6179BCCE400DFF5D4C3D87DB726B SWAP1 PUSH1 0x20 ADD PUSH1 0x40 MLOAD DUP1 SWAP2 SUB SWAP1 LOG1 POP JUMP JUMPDEST PUSH2 0x2662 PUSH2 0x2E8A JUMP JUMPDEST PUSH1 0x40 MLOAD CALLER SWAP1 DUP3 ISZERO PUSH2 0x8FC MUL SWAP1 DUP4 SWAP1 PUSH0 DUP2 DUP2 DUP2 DUP6 DUP9 DUP9 CALL SWAP4 POP POP POP POP ISZERO DUP1 ISZERO PUSH2 0x1860 JUMPI RETURNDATASIZE PUSH0 DUP1 RETURNDATACOPY RETURNDATASIZE PUSH0 REVERT JUMPDEST PUSH2 0x2694 PUSH2 0x2E8A JUMP JUMPDEST PUSH2 0xFFFF SWAP1 SWAP2 AND PUSH0 DUP2 DUP2 MSTORE PUSH1 0x6 PUSH1 0x20 SWAP1 DUP2 MSTORE PUSH1 0x40 DUP1 DUP4 KECCAK256 PUSH1 0x1 PUSH1 0x1 PUSH1 0xA0 SHL SUB SWAP1 SWAP6 AND DUP1 DUP5 MSTORE SWAP5 DUP3 MSTORE DUP1 DUP4 KECCAK256 DUP1 SLOAD PUSH1 0xFF NOT AND PUSH1 0x1 OR SWAP1 SSTORE SWAP3 DUP3 MSTORE PUSH1 0x7 SWAP1 MSTORE KECCAK256 DUP1 SLOAD PUSH1 0x1 PUSH1 0x1 PUSH1 0xA0 SHL SUB NOT AND SWAP1 SWAP2 OR SWAP1 SSTORE JUMP JUMPDEST PUSH2 0x26EC PUSH2 0x2E8A JUMP JUMPDEST PUSH1 0x40 MLOAD PUSH4 0x32FB62E7 PUSH1 0xE2 SHL DUP2 MSTORE PUSH1 0x1 PUSH1 0x1 PUSH1 0xA0 SHL SUB PUSH32 0x0 AND SWAP1 PUSH4 0xCBED8B9C SWAP1 PUSH2 0x2740 SWAP1 DUP9 SWAP1 DUP9 SWAP1 DUP9 SWAP1 DUP9 SWAP1 DUP9 SWAP1 PUSH1 0x4 ADD PUSH2 0x599F JUMP JUMPDEST PUSH0 PUSH1 0x40 MLOAD DUP1 DUP4 SUB DUP2 PUSH0 DUP8 DUP1 EXTCODESIZE ISZERO DUP1 ISZERO PUSH2 0x2757 JUMPI PUSH0 DUP1 REVERT JUMPDEST POP GAS CALL ISZERO DUP1 ISZERO PUSH2 0x2769 JUMPI RETURNDATASIZE PUSH0 DUP1 RETURNDATACOPY RETURNDATASIZE PUSH0 REVERT JUMPDEST POP POP POP POP POP POP POP POP POP JUMP JUMPDEST PUSH2 0xFFFF DUP7 AND PUSH0 SWAP1 DUP2 MSTORE PUSH1 0xD PUSH1 0x20 MSTORE PUSH1 0x40 DUP1 DUP3 KECCAK256 SWAP1 MLOAD PUSH2 0x2796 SWAP1 DUP9 SWAP1 DUP9 SWAP1 PUSH2 0x52DD JUMP JUMPDEST SWAP1 DUP2 MSTORE PUSH1 0x40 DUP1 MLOAD PUSH1 0x20 SWAP3 DUP2 SWAP1 SUB DUP4 ADD SWAP1 KECCAK256 PUSH1 0x1 PUSH1 0x1 PUSH1 0x40 SHL SUB DUP8 AND PUSH0 SWAP1 DUP2 MSTORE SWAP3 MSTORE SWAP1 KECCAK256 SLOAD SWAP1 POP DUP1 PUSH2 0x2815 JUMPI PUSH1 0x40 MLOAD PUSH3 0x461BCD PUSH1 0xE5 SHL DUP2 MSTORE PUSH1 0x20 PUSH1 0x4 DUP3 ADD MSTORE PUSH1 0x23 PUSH1 0x24 DUP3 ADD MSTORE PUSH32 0x4E6F6E626C6F636B696E674C7A4170703A206E6F2073746F726564206D657373 PUSH1 0x44 DUP3 ADD MSTORE PUSH3 0x616765 PUSH1 0xE8 SHL PUSH1 0x64 DUP3 ADD MSTORE PUSH1 0x84 ADD PUSH2 0xDD2 JUMP JUMPDEST DUP1 DUP4 DUP4 PUSH1 0x40 MLOAD PUSH2 0x2826 SWAP3 SWAP2 SWAP1 PUSH2 0x52DD JUMP JUMPDEST PUSH1 0x40 MLOAD DUP1 SWAP2 SUB SWAP1 KECCAK256 EQ PUSH2 0x2885 JUMPI PUSH1 0x40 MLOAD PUSH3 0x461BCD PUSH1 0xE5 SHL DUP2 MSTORE PUSH1 0x20 PUSH1 0x4 DUP3 ADD MSTORE PUSH1 0x21 PUSH1 0x24 DUP3 ADD MSTORE PUSH32 0x4E6F6E626C6F636B696E674C7A4170703A20696E76616C6964207061796C6F61 PUSH1 0x44 DUP3 ADD MSTORE PUSH1 0x19 PUSH1 0xFA SHL PUSH1 0x64 DUP3 ADD MSTORE PUSH1 0x84 ADD PUSH2 0xDD2 JUMP JUMPDEST PUSH2 0xFFFF DUP8 AND PUSH0 SWAP1 DUP2 MSTORE PUSH1 0xD PUSH1 0x20 MSTORE PUSH1 0x40 DUP1 DUP3 KECCAK256 SWAP1 MLOAD PUSH2 0x28A7 SWAP1 DUP10 SWAP1 DUP10 SWAP1 PUSH2 0x52DD JUMP JUMPDEST SWAP1 DUP2 MSTORE PUSH1 0x40 DUP1 MLOAD PUSH1 0x20 SWAP3 DUP2 SWAP1 SUB DUP4 ADD DUP2 KECCAK256 PUSH1 0x1 PUSH1 0x1 PUSH1 0x40 SHL SUB DUP10 AND PUSH0 SWAP1 DUP2 MSTORE SWAP1 DUP5 MSTORE DUP3 SWAP1 KECCAK256 SWAP4 SWAP1 SWAP4 SSTORE PUSH1 0x1F DUP9 ADD DUP3 SWAP1 DIV DUP3 MUL DUP4 ADD DUP3 ADD SWAP1 MSTORE DUP7 DUP3 MSTORE PUSH2 0x293C SWAP2 DUP10 SWAP2 DUP10 SWAP1 DUP10 SWAP1 DUP2 SWAP1 DUP5 ADD DUP4 DUP3 DUP1 DUP3 DUP5 CALLDATACOPY PUSH0 SWAP3 ADD SWAP2 SWAP1 SWAP2 MSTORE POP POP PUSH1 0x40 DUP1 MLOAD PUSH1 0x20 PUSH1 0x1F DUP11 ADD DUP2 SWAP1 DIV DUP2 MUL DUP3 ADD DUP2 ADD SWAP1 SWAP3 MSTORE DUP9 DUP2 MSTORE DUP11 SWAP4 POP SWAP2 POP DUP9 SWAP1 DUP9 SWAP1 DUP2 SWAP1 DUP5 ADD DUP4 DUP3 DUP1 DUP3 DUP5 CALLDATACOPY PUSH0 SWAP3 ADD SWAP2 SWAP1 SWAP2 MSTORE POP PUSH2 0x3558 SWAP3 POP POP POP JUMP JUMPDEST PUSH32 0xC264D91F3ADC5588250E1551F547752CA0CFA8F6B530D243B9F9F4CAB10EA8E5 DUP8 DUP8 DUP8 DUP8 DUP6 PUSH1 0x40 MLOAD PUSH2 0x2973 SWAP6 SWAP5 SWAP4 SWAP3 SWAP2 SWAP1 PUSH2 0x59CC JUMP JUMPDEST PUSH1 0x40 MLOAD DUP1 SWAP2 SUB SWAP1 LOG1 POP POP POP POP POP POP POP JUMP JUMPDEST PUSH2 0x29B3 PUSH1 0x40 MLOAD DUP1 PUSH1 0xA0 ADD PUSH1 0x40 MSTORE DUP1 PUSH0 DUP2 MSTORE PUSH1 0x20 ADD PUSH0 DUP2 MSTORE PUSH1 0x20 ADD PUSH0 ISZERO ISZERO DUP2 MSTORE PUSH1 0x20 ADD PUSH0 DUP2 MSTORE PUSH1 0x20 ADD PUSH0 DUP2 MSTORE POP SWAP1 JUMP JUMPDEST POP PUSH1 0x40 DUP1 MLOAD PUSH1 0xA0 DUP2 ADD DUP3 MSTORE PUSH1 0x11 SLOAD DUP2 MSTORE PUSH1 0x12 SLOAD PUSH1 0x20 DUP3 ADD MSTORE PUSH1 0x13 SLOAD PUSH1 0xFF AND ISZERO ISZERO SWAP2 DUP2 ADD SWAP2 SWAP1 SWAP2 MSTORE PUSH1 0x14 SLOAD PUSH1 0x60 DUP3 ADD MSTORE PUSH1 0x15 SLOAD PUSH1 0x80 DUP3 ADD MSTORE SWAP1 JUMP JUMPDEST PUSH1 0x2 SLOAD PUSH1 0x1 PUSH1 0x1 PUSH1 0xA0 SHL SUB AND CALLER EQ PUSH2 0x2A53 JUMPI PUSH1 0x40 MLOAD PUSH3 0x461BCD PUSH1 0xE5 SHL DUP2 MSTORE PUSH1 0x20 PUSH1 0x4 DUP3 ADD MSTORE PUSH1 0x24 DUP1 DUP3 ADD MSTORE PUSH32 0x4E6F7420616C6C6F77656420746F207365742072656769737465726564207365 PUSH1 0x44 DUP3 ADD MSTORE PUSH4 0x373232B9 PUSH1 0xE1 SHL PUSH1 0x64 DUP3 ADD MSTORE PUSH1 0x84 ADD PUSH2 0xDD2 JUMP JUMPDEST PUSH2 0xFFFF SWAP1 SWAP2 AND PUSH0 SWAP1 DUP2 MSTORE PUSH1 0x3 PUSH1 0x20 MSTORE PUSH1 0x40 SWAP1 KECCAK256 SSTORE JUMP JUMPDEST PUSH1 0x40 DUP1 MLOAD PUSH1 0xC0 DUP2 ADD DUP3 MSTORE PUSH0 DUP1 DUP3 MSTORE PUSH1 0x20 DUP3 ADD DUP2 SWAP1 MSTORE SWAP2 DUP2 ADD DUP3 SWAP1 MSTORE PUSH1 0x60 DUP2 ADD DUP3 SWAP1 MSTORE PUSH1 0x80 DUP2 ADD DUP3 SWAP1 MSTORE PUSH1 0xA0 DUP2 ADD SWAP2 SWAP1 SWAP2 MSTORE DUP2 PUSH2 0x2B29 JUMPI POP PUSH1 0x1 PUSH1 0x1 PUSH1 0xA0 SHL SUB DUP5 DUP2 AND PUSH0 SWAP1 DUP2 MSTORE PUSH1 0x16 PUSH1 0x20 SWAP1 DUP2 MSTORE PUSH1 0x40 DUP1 DUP4 KECCAK256 DUP8 DUP5 MSTORE PUSH1 0x9 ADD DUP3 MSTORE DUP1 DUP4 KECCAK256 PUSH2 0xFFFF DUP8 DUP2 AND DUP6 MSTORE SWAP1 DUP4 MSTORE SWAP3 DUP2 SWAP1 KECCAK256 DUP2 MLOAD PUSH1 0xC0 DUP2 ADD DUP4 MSTORE DUP2 SLOAD DUP1 DUP7 AND DUP3 MSTORE PUSH3 0x10000 SWAP1 DIV SWAP1 SWAP5 AND SWAP3 DUP5 ADD SWAP3 SWAP1 SWAP3 MSTORE PUSH1 0x1 DUP3 ADD SLOAD SWAP1 DUP4 ADD MSTORE PUSH1 0x2 DUP2 ADD SLOAD SWAP1 SWAP3 AND PUSH1 0x60 DUP3 ADD MSTORE PUSH1 0x3 DUP3 ADD SLOAD PUSH1 0x80 DUP3 ADD MSTORE PUSH1 0x4 SWAP1 SWAP2 ADD SLOAD PUSH1 0xFF AND ISZERO ISZERO PUSH1 0xA0 DUP3 ADD MSTORE PUSH2 0x2BAF JUMP JUMPDEST POP PUSH1 0x1 PUSH1 0x1 PUSH1 0xA0 SHL SUB DUP5 DUP2 AND PUSH0 SWAP1 DUP2 MSTORE PUSH1 0x16 PUSH1 0x20 SWAP1 DUP2 MSTORE PUSH1 0x40 DUP1 DUP4 KECCAK256 DUP8 DUP5 MSTORE PUSH1 0xA ADD DUP3 MSTORE DUP1 DUP4 KECCAK256 PUSH2 0xFFFF DUP8 DUP2 AND DUP6 MSTORE SWAP1 DUP4 MSTORE SWAP3 DUP2 SWAP1 KECCAK256 DUP2 MLOAD PUSH1 0xC0 DUP2 ADD DUP4 MSTORE DUP2 SLOAD DUP1 DUP7 AND DUP3 MSTORE PUSH3 0x10000 SWAP1 DIV SWAP1 SWAP5 AND SWAP3 DUP5 ADD SWAP3 SWAP1 SWAP3 MSTORE PUSH1 0x1 DUP3 ADD SLOAD SWAP1 DUP4 ADD MSTORE PUSH1 0x2 DUP2 ADD SLOAD SWAP1 SWAP3 AND PUSH1 0x60 DUP3 ADD MSTORE PUSH1 0x3 DUP3 ADD SLOAD PUSH1 0x80 DUP3 ADD MSTORE PUSH1 0x4 SWAP1 SWAP2 ADD SLOAD PUSH1 0xFF AND ISZERO ISZERO PUSH1 0xA0 DUP3 ADD MSTORE JUMPDEST SWAP5 SWAP4 POP POP POP POP JUMP JUMPDEST PUSH2 0x2BBF PUSH2 0x2E8A JUMP JUMPDEST PUSH2 0xFFFF DUP4 DUP2 AND PUSH0 DUP2 DUP2 MSTORE PUSH1 0xA PUSH1 0x20 SWAP1 DUP2 MSTORE PUSH1 0x40 DUP1 DUP4 KECCAK256 SWAP5 DUP8 AND DUP1 DUP5 MSTORE SWAP5 DUP3 MSTORE SWAP2 DUP3 SWAP1 KECCAK256 DUP6 SWAP1 SSTORE DUP2 MLOAD SWAP3 DUP4 MSTORE DUP3 ADD SWAP3 SWAP1 SWAP3 MSTORE SWAP1 DUP2 ADD DUP3 SWAP1 MSTORE PUSH32 0x9D5C7C0B934DA8FEFA9C7760C98383778A12DFBFC0C3B3106518F43FB9508AC0 SWAP1 PUSH1 0x60 ADD PUSH2 0x25F1 JUMP JUMPDEST PUSH2 0x2C28 PUSH2 0x2E8A JUMP JUMPDEST PUSH2 0x23F1 DUP4 DUP4 DUP4 PUSH2 0x3D34 JUMP JUMPDEST PUSH2 0x2C3B PUSH2 0x2E8A JUMP JUMPDEST PUSH2 0xFFFF DUP4 AND PUSH0 SWAP1 DUP2 MSTORE PUSH1 0x9 PUSH1 0x20 MSTORE PUSH1 0x40 SWAP1 KECCAK256 PUSH2 0x2C58 DUP3 DUP5 DUP4 PUSH2 0x5A06 JUMP JUMPDEST POP PUSH32 0xFA41487AD5D6728F0B19276FA1EDDC16558578F5109FC39D2DC33C3230470DAB DUP4 DUP4 DUP4 PUSH1 0x40 MLOAD PUSH2 0x25F1 SWAP4 SWAP3 SWAP2 SWAP1 PUSH2 0x533B JUMP JUMPDEST PUSH2 0x2C94 PUSH2 0x2E8A JUMP JUMPDEST PUSH1 0x1 PUSH1 0x1 PUSH1 0xA0 SHL SUB DUP2 AND PUSH2 0x2CBD JUMPI PUSH1 0x40 MLOAD PUSH4 0x1E4FBDF7 PUSH1 0xE0 SHL DUP2 MSTORE PUSH0 PUSH1 0x4 DUP3 ADD MSTORE PUSH1 0x24 ADD PUSH2 0xDD2 JUMP JUMPDEST PUSH2 0x1344 DUP2 PUSH2 0x3A6A JUMP JUMPDEST PUSH1 0x40 MLOAD PUSH4 0x3D7B2F6F PUSH1 0xE2 SHL DUP2 MSTORE PUSH2 0xFFFF DUP1 DUP7 AND PUSH1 0x4 DUP4 ADD MSTORE DUP5 AND PUSH1 0x24 DUP3 ADD MSTORE ADDRESS PUSH1 0x44 DUP3 ADD MSTORE PUSH1 0x64 DUP2 ADD DUP3 SWAP1 MSTORE PUSH1 0x60 SWAP1 PUSH32 0x0 PUSH1 0x1 PUSH1 0x1 PUSH1 0xA0 SHL SUB AND SWAP1 PUSH4 0xF5ECBDBC SWAP1 PUSH1 0x84 ADD PUSH0 PUSH1 0x40 MLOAD DUP1 DUP4 SUB DUP2 DUP7 GAS STATICCALL ISZERO DUP1 ISZERO PUSH2 0x2D43 JUMPI RETURNDATASIZE PUSH0 DUP1 RETURNDATACOPY RETURNDATASIZE PUSH0 REVERT JUMPDEST POP POP POP POP PUSH1 0x40 MLOAD RETURNDATASIZE PUSH0 DUP3 RETURNDATACOPY PUSH1 0x1F RETURNDATASIZE SWAP1 DUP2 ADD PUSH1 0x1F NOT AND DUP3 ADD PUSH1 0x40 MSTORE PUSH2 0x2D6A SWAP2 SWAP1 DUP2 ADD SWAP1 PUSH2 0x56A1 JUMP JUMPDEST SWAP6 SWAP5 POP POP POP POP POP JUMP JUMPDEST PUSH2 0x2D9A PUSH1 0x40 MLOAD DUP1 PUSH1 0x80 ADD PUSH1 0x40 MSTORE DUP1 PUSH0 DUP2 MSTORE PUSH1 0x20 ADD PUSH0 DUP2 MSTORE PUSH1 0x20 ADD PUSH0 DUP2 MSTORE PUSH1 0x20 ADD PUSH0 DUP2 MSTORE POP SWAP1 JUMP JUMPDEST POP PUSH1 0x40 DUP1 MLOAD DUP1 DUP3 ADD DUP3 MSTORE PUSH0 DUP1 DUP3 MSTORE PUSH1 0x20 SWAP2 DUP3 ADD DUP2 SWAP1 MSTORE PUSH1 0x1 PUSH1 0x1 PUSH1 0xA0 SHL SUB SWAP4 DUP5 AND DUP2 MSTORE PUSH1 0x16 DUP3 MSTORE DUP3 SWAP1 KECCAK256 DUP3 MLOAD PUSH1 0x80 DUP2 ADD DUP5 MSTORE DUP2 SLOAD DUP2 MSTORE PUSH1 0x1 DUP3 ADD SLOAD DUP2 DUP5 ADD MSTORE PUSH1 0x2 DUP3 ADD SLOAD DUP2 DUP6 ADD MSTORE PUSH1 0x3 DUP3 ADD SLOAD PUSH1 0x60 DUP3 ADD MSTORE DUP4 MLOAD DUP1 DUP6 ADD SWAP1 SWAP5 MSTORE PUSH1 0xB SWAP1 SWAP2 ADD SLOAD PUSH1 0xFF DUP2 AND ISZERO ISZERO DUP5 MSTORE PUSH2 0x100 SWAP1 DIV SWAP1 SWAP4 AND SWAP1 DUP3 ADD MSTORE SWAP1 SWAP2 JUMP JUMPDEST PUSH0 DUP1 PUSH2 0x2E74 GAS PUSH1 0x96 PUSH4 0x66AD5C8A PUSH1 0xE0 SHL DUP10 DUP10 DUP10 DUP10 PUSH1 0x40 MLOAD PUSH1 0x24 ADD PUSH2 0x2E39 SWAP5 SWAP4 SWAP3 SWAP2 SWAP1 PUSH2 0x5AC0 JUMP JUMPDEST PUSH1 0x40 DUP1 MLOAD PUSH1 0x1F NOT DUP2 DUP5 SUB ADD DUP2 MSTORE SWAP2 SWAP1 MSTORE PUSH1 0x20 DUP2 ADD DUP1 MLOAD PUSH1 0x1 PUSH1 0x1 PUSH1 0xE0 SHL SUB AND PUSH1 0x1 PUSH1 0x1 PUSH1 0xE0 SHL SUB NOT SWAP1 SWAP4 AND SWAP3 SWAP1 SWAP3 OR SWAP1 SWAP2 MSTORE ADDRESS SWAP3 SWAP2 SWAP1 PUSH2 0x3D3F JUMP JUMPDEST SWAP2 POP SWAP2 POP DUP2 PUSH2 0x17E7 JUMPI PUSH2 0x17E7 DUP7 DUP7 DUP7 DUP7 DUP6 PUSH2 0x3DC3 JUMP JUMPDEST PUSH1 0x5 SLOAD PUSH1 0x1 PUSH1 0x1 PUSH1 0xA0 SHL SUB AND CALLER EQ PUSH2 0x1EE1 JUMPI PUSH1 0x40 MLOAD PUSH4 0x118CDAA7 PUSH1 0xE0 SHL DUP2 MSTORE CALLER PUSH1 0x4 DUP3 ADD MSTORE PUSH1 0x24 ADD PUSH2 0xDD2 JUMP JUMPDEST PUSH0 DUP1 PUSH0 PUSH1 0x2 DUP5 DUP8 DUP8 PUSH1 0x40 MLOAD PUSH1 0x20 ADD PUSH2 0x2ED2 SWAP5 SWAP4 SWAP3 SWAP2 SWAP1 PUSH2 0x5AFD JUMP JUMPDEST PUSH1 0x40 DUP1 MLOAD PUSH1 0x1F NOT DUP2 DUP5 SUB ADD DUP2 MSTORE DUP3 DUP3 MSTORE PUSH1 0x1 PUSH1 0x1 PUSH1 0xA0 SHL SUB DUP9 AND PUSH1 0x20 DUP5 ADD MSTORE SWAP1 DUP3 ADD DUP9 SWAP1 MSTORE SWAP2 POP PUSH0 SWAP1 PUSH1 0x60 ADD PUSH1 0x40 MLOAD PUSH1 0x20 DUP2 DUP4 SUB SUB DUP2 MSTORE SWAP1 PUSH1 0x40 MSTORE SWAP1 POP PUSH32 0x0 PUSH1 0x1 PUSH1 0x1 PUSH1 0xA0 SHL SUB AND PUSH4 0x3408E470 PUSH1 0x40 MLOAD DUP2 PUSH4 0xFFFFFFFF AND PUSH1 0xE0 SHL DUP2 MSTORE PUSH1 0x4 ADD PUSH1 0x20 PUSH1 0x40 MLOAD DUP1 DUP4 SUB DUP2 DUP7 GAS STATICCALL ISZERO DUP1 ISZERO PUSH2 0x2F6B JUMPI RETURNDATASIZE PUSH0 DUP1 RETURNDATACOPY RETURNDATASIZE PUSH0 REVERT JUMPDEST POP POP POP POP PUSH1 0x40 MLOAD RETURNDATASIZE PUSH1 0x1F NOT PUSH1 0x1F DUP3 ADD AND DUP3 ADD DUP1 PUSH1 0x40 MSTORE POP DUP2 ADD SWAP1 PUSH2 0x2F8F SWAP2 SWAP1 PUSH2 0x5686 JUMP JUMPDEST PUSH2 0xFFFF AND DUP10 PUSH2 0xFFFF AND EQ PUSH2 0x3035 JUMPI PUSH1 0x40 MLOAD PUSH4 0x40A7BB1 PUSH1 0xE4 SHL DUP2 MSTORE PUSH1 0x1 PUSH1 0x1 PUSH1 0xA0 SHL SUB PUSH32 0x0 AND SWAP1 PUSH4 0x40A7BB10 SWAP1 PUSH2 0x2FF1 SWAP1 DUP13 SWAP1 ADDRESS SWAP1 DUP7 SWAP1 DUP15 SWAP1 DUP10 SWAP1 PUSH1 0x4 ADD PUSH2 0x5B34 JUMP JUMPDEST PUSH1 0x40 DUP1 MLOAD DUP1 DUP4 SUB DUP2 DUP7 GAS STATICCALL ISZERO DUP1 ISZERO PUSH2 0x300B JUMPI RETURNDATASIZE PUSH0 DUP1 RETURNDATACOPY RETURNDATASIZE PUSH0 REVERT JUMPDEST POP POP POP POP PUSH1 0x40 MLOAD RETURNDATASIZE PUSH1 0x1F NOT PUSH1 0x1F DUP3 ADD AND DUP3 ADD DUP1 PUSH1 0x40 MSTORE POP DUP2 ADD SWAP1 PUSH2 0x302F SWAP2 SWAP1 PUSH2 0x5B87 JUMP JUMPDEST SWAP1 SWAP5 POP SWAP3 POP JUMPDEST PUSH2 0x303F DUP8 DUP6 PUSH2 0x5300 JUMP JUMPDEST SWAP4 POP POP POP SWAP6 POP SWAP6 SWAP4 POP POP POP POP JUMP JUMPDEST PUSH1 0x1 SLOAD PUSH1 0x40 DUP1 MLOAD PUSH4 0x4D4502C9 PUSH1 0xE1 SHL DUP2 MSTORE SWAP1 MLOAD PUSH0 SWAP3 PUSH1 0x1 PUSH1 0x1 PUSH1 0xA0 SHL SUB AND SWAP2 PUSH4 0x9A8A0592 SWAP2 PUSH1 0x4 DUP1 DUP4 ADD SWAP3 PUSH1 0x20 SWAP3 SWAP2 SWAP1 DUP3 SWAP1 SUB ADD DUP2 DUP7 GAS STATICCALL ISZERO DUP1 ISZERO PUSH2 0x3094 JUMPI RETURNDATASIZE PUSH0 DUP1 RETURNDATACOPY RETURNDATASIZE PUSH0 REVERT JUMPDEST POP POP POP POP PUSH1 0x40 MLOAD RETURNDATASIZE PUSH1 0x1F NOT PUSH1 0x1F DUP3 ADD AND DUP3 ADD DUP1 PUSH1 0x40 MSTORE POP DUP2 ADD SWAP1 PUSH2 0x30B8 SWAP2 SWAP1 PUSH2 0x5686 JUMP JUMPDEST PUSH2 0xFFFF AND DUP4 PUSH2 0xFFFF AND EQ PUSH2 0x3141 JUMPI PUSH1 0x4 DUP1 SLOAD PUSH1 0x40 MLOAD PUSH4 0xFF8F143 PUSH1 0xE1 SHL DUP2 MSTORE PUSH2 0xFFFF DUP7 AND SWAP3 DUP2 ADD SWAP3 SWAP1 SWAP3 MSTORE PUSH1 0x24 DUP3 ADD DUP5 SWAP1 MSTORE PUSH1 0x1 PUSH1 0x1 PUSH1 0xA0 SHL SUB AND SWAP1 PUSH4 0x1FF1E286 SWAP1 PUSH1 0x44 ADD PUSH1 0x20 PUSH1 0x40 MLOAD DUP1 DUP4 SUB DUP2 DUP7 GAS STATICCALL ISZERO DUP1 ISZERO PUSH2 0x3118 JUMPI RETURNDATASIZE PUSH0 DUP1 RETURNDATACOPY RETURNDATASIZE PUSH0 REVERT JUMPDEST POP POP POP POP PUSH1 0x40 MLOAD RETURNDATASIZE PUSH1 0x1F NOT PUSH1 0x1F DUP3 ADD AND DUP3 ADD DUP1 PUSH1 0x40 MSTORE POP DUP2 ADD SWAP1 PUSH2 0x313C SWAP2 SWAP1 PUSH2 0x5BA9 JUMP JUMPDEST PUSH2 0x2465 JUMP JUMPDEST PUSH2 0x2465 DUP3 PUSH2 0x3E5D JUMP JUMPDEST PUSH1 0x40 DUP1 MLOAD PUSH1 0x4 DUP2 MSTORE PUSH1 0x24 DUP2 ADD DUP3 MSTORE PUSH1 0x20 DUP2 ADD DUP1 MLOAD PUSH1 0x1 PUSH1 0x1 PUSH1 0xE0 SHL SUB AND PUSH4 0x313CE567 PUSH1 0xE0 SHL OR SWAP1 MSTORE SWAP1 MLOAD PUSH0 SWAP2 DUP3 SWAP2 PUSH1 0x1 PUSH1 0x1 PUSH1 0xA0 SHL SUB DUP6 AND SWAP2 PUSH2 0x318C SWAP2 PUSH2 0x5BC4 JUMP JUMPDEST PUSH0 PUSH1 0x40 MLOAD DUP1 DUP4 SUB DUP2 DUP6 GAS STATICCALL SWAP2 POP POP RETURNDATASIZE DUP1 PUSH0 DUP2 EQ PUSH2 0x31C4 JUMPI PUSH1 0x40 MLOAD SWAP2 POP PUSH1 0x1F NOT PUSH1 0x3F RETURNDATASIZE ADD AND DUP3 ADD PUSH1 0x40 MSTORE RETURNDATASIZE DUP3 MSTORE RETURNDATASIZE PUSH0 PUSH1 0x20 DUP5 ADD RETURNDATACOPY PUSH2 0x31C9 JUMP JUMPDEST PUSH1 0x60 SWAP2 POP JUMPDEST POP SWAP2 POP POP DUP1 DUP1 PUSH1 0x20 ADD SWAP1 MLOAD DUP2 ADD SWAP1 PUSH2 0x2465 SWAP2 SWAP1 PUSH2 0x5BDF JUMP JUMPDEST PUSH0 SLOAD PUSH1 0x1 PUSH1 0x1 PUSH1 0xA0 SHL SUB AND CALLER EQ PUSH2 0x3245 JUMPI PUSH1 0x40 MLOAD PUSH3 0x461BCD PUSH1 0xE5 SHL DUP2 MSTORE PUSH1 0x20 PUSH1 0x4 DUP3 ADD MSTORE PUSH1 0x22 PUSH1 0x24 DUP3 ADD MSTORE PUSH32 0x4D73672E73656E646572206973206E6F7420576F726D686F6C652052656C6179 PUSH1 0x44 DUP3 ADD MSTORE PUSH2 0x32B9 PUSH1 0xF1 SHL PUSH1 0x64 DUP3 ADD MSTORE PUSH1 0x84 ADD PUSH2 0xDD2 JUMP JUMPDEST CALLER PUSH0 SWAP1 DUP2 MSTORE PUSH1 0x16 PUSH1 0x20 MSTORE PUSH1 0x40 SWAP1 KECCAK256 PUSH1 0x1 SWAP1 DUP2 ADD SLOAD SWAP1 PUSH2 0x3265 SWAP1 DUP3 SWAP1 PUSH2 0x5300 JUMP JUMPDEST CALLER PUSH0 SWAP1 DUP2 MSTORE PUSH1 0x16 PUSH1 0x20 MSTORE PUSH1 0x40 SWAP1 KECCAK256 SSTORE PUSH2 0x3282 DUP8 DUP8 DUP8 DUP8 DUP8 DUP8 PUSH2 0x3E88 JUMP JUMPDEST PUSH0 DUP8 DUP1 PUSH1 0x20 ADD SWAP1 MLOAD DUP2 ADD SWAP1 PUSH2 0x3297 SWAP2 SWAP1 PUSH2 0x5BA9 JUMP JUMPDEST SWAP1 POP PUSH0 PUSH1 0x40 MLOAD DUP1 PUSH1 0xE0 ADD PUSH1 0x40 MSTORE DUP1 DUP8 PUSH2 0xFFFF AND DUP2 MSTORE PUSH1 0x20 ADD PUSH1 0x1 PUSH0 SWAP1 SLOAD SWAP1 PUSH2 0x100 EXP SWAP1 DIV PUSH1 0x1 PUSH1 0x1 PUSH1 0xA0 SHL SUB AND PUSH1 0x1 PUSH1 0x1 PUSH1 0xA0 SHL SUB AND PUSH4 0x9A8A0592 PUSH1 0x40 MLOAD DUP2 PUSH4 0xFFFFFFFF AND PUSH1 0xE0 SHL DUP2 MSTORE PUSH1 0x4 ADD PUSH1 0x20 PUSH1 0x40 MLOAD DUP1 DUP4 SUB DUP2 DUP7 GAS STATICCALL ISZERO DUP1 ISZERO PUSH2 0x32FF JUMPI RETURNDATASIZE PUSH0 DUP1 RETURNDATACOPY RETURNDATASIZE PUSH0 REVERT JUMPDEST POP POP POP POP PUSH1 0x40 MLOAD RETURNDATASIZE PUSH1 0x1F NOT PUSH1 0x1F DUP3 ADD AND DUP3 ADD DUP1 PUSH1 0x40 MSTORE POP DUP2 ADD SWAP1 PUSH2 0x3323 SWAP2 SWAP1 PUSH2 0x5686 JUMP JUMPDEST PUSH2 0xFFFF AND DUP2 MSTORE PUSH1 0x20 ADD DUP10 PUSH0 DUP2 MLOAD DUP2 LT PUSH2 0x333E JUMPI PUSH2 0x333E PUSH2 0x5358 JUMP JUMPDEST PUSH1 0x20 MUL PUSH1 0x20 ADD ADD MLOAD PUSH1 0x40 ADD MLOAD PUSH1 0x1 PUSH1 0x1 PUSH1 0xA0 SHL SUB AND DUP2 MSTORE PUSH1 0x20 ADD DUP10 PUSH0 DUP2 MLOAD DUP2 LT PUSH2 0x336A JUMPI PUSH2 0x336A PUSH2 0x5358 JUMP JUMPDEST PUSH1 0x20 SWAP1 DUP2 MUL SWAP2 SWAP1 SWAP2 ADD DUP2 ADD MLOAD PUSH1 0x60 SWAP1 DUP2 ADD MLOAD DUP4 MSTORE PUSH1 0x1 PUSH1 0x1 PUSH1 0xA0 SHL SUB DUP1 DUP8 AND DUP5 DUP5 ADD MSTORE TIMESTAMP PUSH1 0x40 DUP1 DUP7 ADD SWAP2 SWAP1 SWAP2 MSTORE PUSH1 0x1 SWAP5 DUP4 ADD DUP6 SWAP1 MSTORE PUSH1 0x10 SLOAD PUSH0 SWAP1 DUP2 MSTORE PUSH1 0x18 DUP6 MSTORE DUP2 SWAP1 KECCAK256 DUP1 SLOAD PUSH1 0xFF NOT SWAP1 DUP2 AND SWAP1 SWAP7 OR DUP2 SSTORE DUP7 MLOAD PUSH1 0x6 DUP3 ADD DUP1 SLOAD DUP10 DUP9 ADD MLOAD SWAP5 DUP11 ADD MLOAD DUP7 AND PUSH5 0x100000000 MUL PUSH5 0x100000000 PUSH1 0x1 PUSH1 0xC0 SHL SUB NOT PUSH2 0xFFFF SWAP7 DUP8 AND PUSH3 0x10000 MUL PUSH4 0xFFFFFFFF NOT SWAP1 SWAP4 AND SWAP7 SWAP1 SWAP5 AND SWAP6 SWAP1 SWAP6 OR OR SWAP2 SWAP1 SWAP2 AND SWAP3 SWAP1 SWAP3 OR SWAP1 SWAP2 SSTORE SWAP2 DUP6 ADD MLOAD PUSH1 0x7 DUP4 ADD SSTORE PUSH1 0x80 DUP6 ADD MLOAD PUSH1 0x8 DUP4 ADD DUP1 SLOAD SWAP2 SWAP1 SWAP3 AND PUSH1 0x1 PUSH1 0x1 PUSH1 0xA0 SHL SUB NOT SWAP1 SWAP2 AND OR SWAP1 SSTORE PUSH1 0xA0 DUP5 ADD MLOAD PUSH1 0x9 DUP3 ADD SSTORE PUSH1 0xC0 DUP5 ADD MLOAD PUSH1 0xA DUP3 ADD DUP1 SLOAD SWAP2 ISZERO ISZERO SWAP2 SWAP1 SWAP5 AND OR SWAP1 SWAP3 SSTORE DUP7 MLOAD SWAP3 SWAP4 POP SWAP1 SWAP2 PUSH2 0x3468 SWAP2 PUSH1 0xB DUP5 ADD SWAP2 SWAP1 DUP9 ADD SWAP1 PUSH2 0x47B8 JUMP JUMPDEST POP PUSH1 0x1 PUSH1 0x10 PUSH0 DUP3 DUP3 SLOAD PUSH2 0x347B SWAP2 SWAP1 PUSH2 0x5300 JUMP JUMPDEST SWAP1 SWAP2 SSTORE POP POP CALLER PUSH0 SWAP1 DUP2 MSTORE PUSH1 0x16 PUSH1 0x20 SWAP1 DUP2 MSTORE PUSH1 0x40 DUP1 DUP4 KECCAK256 DUP10 DUP5 MSTORE PUSH1 0x6 DUP2 ADD DUP4 MSTORE DUP2 DUP5 KECCAK256 DUP7 MLOAD DUP2 SLOAD DUP9 DUP7 ADD MLOAD DUP10 DUP7 ADD MLOAD PUSH2 0xFFFF SWAP4 DUP5 AND PUSH4 0xFFFFFFFF NOT SWAP1 SWAP4 AND SWAP3 SWAP1 SWAP3 OR PUSH3 0x10000 SWAP2 DUP5 AND SWAP2 SWAP1 SWAP2 MUL OR PUSH5 0x100000000 PUSH1 0x1 PUSH1 0xC0 SHL SUB NOT AND PUSH5 0x100000000 PUSH1 0x1 PUSH1 0x1 PUSH1 0xA0 SHL SUB SWAP3 DUP4 AND MUL OR DUP4 SSTORE PUSH1 0x60 DUP10 ADD MLOAD PUSH1 0x1 DUP5 ADD SSTORE PUSH1 0x80 DUP10 ADD MLOAD PUSH1 0x2 DUP5 ADD DUP1 SLOAD PUSH1 0x1 PUSH1 0x1 PUSH1 0xA0 SHL SUB NOT AND SWAP2 SWAP1 SWAP3 AND OR SWAP1 SSTORE PUSH1 0xA0 DUP9 ADD MLOAD PUSH1 0x3 DUP4 ADD SSTORE PUSH1 0xC0 SWAP1 SWAP8 ADD MLOAD PUSH1 0x4 SWAP1 SWAP2 ADD DUP1 SLOAD PUSH1 0xFF NOT AND SWAP2 ISZERO ISZERO SWAP2 SWAP1 SWAP2 OR SWAP1 SSTORE SWAP7 DUP4 MSTORE PUSH1 0x8 SWAP1 SWAP7 ADD DUP2 MSTORE DUP6 DUP3 KECCAK256 SWAP9 SWAP1 SWAP4 AND DUP2 MSTORE SWAP7 SWAP1 SWAP2 MSTORE POP POP SWAP1 SWAP3 KECCAK256 SSTORE POP POP POP POP JUMP JUMPDEST CALLER PUSH0 SWAP1 DUP2 MSTORE PUSH1 0x16 PUSH1 0x20 MSTORE PUSH1 0x40 SWAP1 KECCAK256 PUSH1 0x1 SWAP1 DUP2 ADD SLOAD SWAP1 PUSH2 0x3578 SWAP1 DUP3 SWAP1 PUSH2 0x5300 JUMP JUMPDEST CALLER PUSH0 SWAP1 DUP2 MSTORE PUSH1 0x16 PUSH1 0x20 SWAP1 DUP2 MSTORE PUSH1 0x40 DUP3 KECCAK256 SWAP3 SWAP1 SWAP3 SSTORE DUP4 MLOAD SWAP1 SWAP2 DUP3 SWAP2 PUSH2 0x35A3 SWAP2 SWAP1 DUP7 ADD DUP2 ADD SWAP1 DUP7 ADD PUSH2 0x5BFA JUMP JUMPDEST SWAP2 POP SWAP2 POP PUSH0 PUSH1 0x40 MLOAD DUP1 PUSH1 0xC0 ADD PUSH1 0x40 MSTORE DUP1 DUP10 PUSH2 0xFFFF AND DUP2 MSTORE PUSH1 0x20 ADD PUSH32 0x0 PUSH1 0x1 PUSH1 0x1 PUSH1 0xA0 SHL SUB AND PUSH4 0x3408E470 PUSH1 0x40 MLOAD DUP2 PUSH4 0xFFFFFFFF AND PUSH1 0xE0 SHL DUP2 MSTORE PUSH1 0x4 ADD PUSH1 0x20 PUSH1 0x40 MLOAD DUP1 DUP4 SUB DUP2 DUP7 GAS STATICCALL ISZERO DUP1 ISZERO PUSH2 0x3619 JUMPI RETURNDATASIZE PUSH0 DUP1 RETURNDATACOPY RETURNDATASIZE PUSH0 REVERT JUMPDEST POP POP POP POP PUSH1 0x40 MLOAD RETURNDATASIZE PUSH1 0x1F NOT PUSH1 0x1F DUP3 ADD AND DUP3 ADD DUP1 PUSH1 0x40 MSTORE POP DUP2 ADD SWAP1 PUSH2 0x363D SWAP2 SWAP1 PUSH2 0x5686 JUMP JUMPDEST PUSH2 0xFFFF SWAP1 DUP2 AND DUP3 MSTORE PUSH1 0x20 DUP1 DUP4 ADD DUP7 SWAP1 MSTORE PUSH1 0x1 PUSH1 0x1 PUSH1 0xA0 SHL SUB DUP1 DUP9 AND PUSH1 0x40 DUP1 DUP7 ADD SWAP2 SWAP1 SWAP2 MSTORE TIMESTAMP PUSH1 0x60 DUP1 DUP8 ADD SWAP2 SWAP1 SWAP2 MSTORE PUSH1 0x1 PUSH1 0x80 SWAP7 DUP8 ADD DUP2 SWAP1 MSTORE PUSH1 0x10 DUP1 SLOAD PUSH0 SWAP1 DUP2 MSTORE PUSH1 0x18 DUP8 MSTORE DUP5 DUP2 KECCAK256 DUP1 SLOAD PUSH1 0xFF NOT SWAP1 DUP2 AND DUP6 OR DUP3 SSTORE DUP12 MLOAD DUP3 DUP7 ADD DUP1 SLOAD SWAP11 DUP15 ADD MLOAD DUP13 AND PUSH3 0x10000 MUL PUSH4 0xFFFFFFFF NOT SWAP1 SWAP12 AND SWAP2 SWAP1 SWAP12 AND OR SWAP9 SWAP1 SWAP9 OR SWAP1 SWAP9 SSTORE SWAP4 DUP10 ADD MLOAD PUSH1 0x2 DUP9 ADD SSTORE SWAP2 DUP9 ADD MLOAD PUSH1 0x3 DUP8 ADD DUP1 SLOAD SWAP2 SWAP1 SWAP6 AND PUSH1 0x1 PUSH1 0x1 PUSH1 0xA0 SHL SUB NOT SWAP1 SWAP2 AND OR SWAP1 SWAP4 SSTORE SWAP5 DUP7 ADD MLOAD PUSH1 0x4 DUP6 ADD SSTORE PUSH1 0xA0 DUP7 ADD MLOAD PUSH1 0x5 DUP6 ADD DUP1 SLOAD SWAP2 ISZERO ISZERO SWAP2 SWAP1 SWAP5 AND OR SWAP1 SWAP3 SSTORE DUP4 SLOAD SWAP5 SWAP6 POP SWAP2 SWAP4 SWAP2 SWAP3 SWAP2 PUSH2 0x3712 SWAP1 DUP5 SWAP1 PUSH2 0x5300 JUMP JUMPDEST SWAP1 SWAP2 SSTORE POP POP CALLER PUSH0 SWAP1 DUP2 MSTORE PUSH1 0x16 PUSH1 0x20 SWAP1 DUP2 MSTORE PUSH1 0x40 DUP1 DUP4 KECCAK256 SWAP8 DUP4 MSTORE PUSH1 0xA SWAP1 SWAP8 ADD DUP2 MSTORE DUP7 DUP3 KECCAK256 PUSH2 0xFFFF SWAP12 DUP13 AND DUP4 MSTORE DUP2 MSTORE SWAP1 DUP7 SWAP1 KECCAK256 DUP4 MLOAD DUP2 SLOAD SWAP3 DUP6 ADD MLOAD DUP13 AND PUSH3 0x10000 MUL PUSH4 0xFFFFFFFF NOT SWAP1 SWAP4 AND SWAP12 AND SWAP11 SWAP1 SWAP11 OR OR DUP10 SSTORE POP SWAP3 DUP4 ADD MLOAD PUSH1 0x1 DUP9 ADD SSTORE POP POP PUSH1 0x60 DUP2 ADD MLOAD PUSH1 0x2 DUP7 ADD DUP1 SLOAD PUSH1 0x1 PUSH1 0x1 PUSH1 0xA0 SHL SUB SWAP3 SWAP1 SWAP3 AND PUSH1 0x1 PUSH1 0x1 PUSH1 0xA0 SHL SUB NOT SWAP1 SWAP3 AND SWAP2 SWAP1 SWAP2 OR SWAP1 SSTORE PUSH1 0x80 DUP2 ADD MLOAD PUSH1 0x3 DUP7 ADD SSTORE PUSH1 0xA0 ADD MLOAD PUSH1 0x4 SWAP5 SWAP1 SWAP5 ADD DUP1 SLOAD SWAP5 ISZERO ISZERO PUSH1 0xFF NOT SWAP1 SWAP6 AND SWAP5 SWAP1 SWAP5 OR SWAP1 SWAP4 SSTORE POP POP POP JUMP JUMPDEST PUSH1 0xE SLOAD PUSH0 SWAP1 DUP2 SWAP1 DUP2 SWAP1 PUSH1 0x64 SWAP1 PUSH2 0x37E4 SWAP1 PUSH1 0x1 PUSH1 0xA0 SHL SWAP1 DIV PUSH1 0xFF AND DUP7 PUSH2 0x57D9 JUMP JUMPDEST PUSH2 0x37EE SWAP2 SWAP1 PUSH2 0x584A JUMP JUMPDEST PUSH1 0xE SLOAD PUSH1 0x40 MLOAD SWAP2 SWAP3 POP PUSH1 0x1 PUSH1 0x1 PUSH1 0xA0 SHL SUB AND SWAP1 DUP3 ISZERO PUSH2 0x8FC MUL SWAP1 DUP4 SWAP1 PUSH0 DUP2 DUP2 DUP2 DUP6 DUP9 DUP9 CALL SWAP4 POP POP POP POP ISZERO DUP1 ISZERO PUSH2 0x3826 JUMPI RETURNDATASIZE PUSH0 DUP1 RETURNDATACOPY RETURNDATASIZE PUSH0 REVERT JUMPDEST POP PUSH2 0x3831 DUP2 DUP6 PUSH2 0x5808 JUMP JUMPDEST SWAP5 SWAP1 SWAP4 POP SWAP2 POP POP JUMP JUMPDEST PUSH0 DUP1 PUSH2 0x3846 DUP9 DUP5 PUSH2 0x3B33 JUMP JUMPDEST SWAP1 POP DUP1 CALLVALUE LT ISZERO PUSH2 0x3871 JUMPI PUSH1 0x40 MLOAD PUSH3 0x461BCD PUSH1 0xE5 SHL DUP2 MSTORE PUSH1 0x20 PUSH1 0x4 DUP3 ADD MSTORE PUSH0 PUSH1 0x24 DUP3 ADD MSTORE PUSH1 0x44 ADD PUSH2 0xDD2 JUMP JUMPDEST PUSH1 0x40 DUP1 MLOAD PUSH1 0x1 PUSH1 0x1 PUSH1 0xA0 SHL SUB DUP9 AND PUSH1 0x20 DUP3 ADD MSTORE PUSH0 SWAP2 ADD PUSH1 0x40 MLOAD PUSH1 0x20 DUP2 DUP4 SUB SUB DUP2 MSTORE SWAP1 PUSH1 0x40 MSTORE SWAP1 POP PUSH2 0x391C DUP10 DUP10 DUP4 PUSH0 DUP9 DUP11 DUP13 PUSH1 0x1 PUSH0 SWAP1 SLOAD SWAP1 PUSH2 0x100 EXP SWAP1 DIV PUSH1 0x1 PUSH1 0x1 PUSH1 0xA0 SHL SUB AND PUSH1 0x1 PUSH1 0x1 PUSH1 0xA0 SHL SUB AND PUSH4 0x9A8A0592 PUSH1 0x40 MLOAD DUP2 PUSH4 0xFFFFFFFF AND PUSH1 0xE0 SHL DUP2 MSTORE PUSH1 0x4 ADD PUSH1 0x20 PUSH1 0x40 MLOAD DUP1 DUP4 SUB DUP2 DUP7 GAS STATICCALL ISZERO DUP1 ISZERO PUSH2 0x38F2 JUMPI RETURNDATASIZE PUSH0 DUP1 RETURNDATACOPY RETURNDATASIZE PUSH0 REVERT JUMPDEST POP POP POP POP PUSH1 0x40 MLOAD RETURNDATASIZE PUSH1 0x1F NOT PUSH1 0x1F DUP3 ADD AND DUP3 ADD DUP1 PUSH1 0x40 MSTORE POP DUP2 ADD SWAP1 PUSH2 0x3916 SWAP2 SWAP1 PUSH2 0x5686 JUMP JUMPDEST CALLER PUSH2 0x4026 JUMP JUMPDEST POP PUSH1 0x1 SWAP10 SWAP9 POP POP POP POP POP POP POP POP POP JUMP JUMPDEST PUSH1 0x1 PUSH1 0x1 PUSH1 0xA0 SHL SUB DUP3 AND PUSH0 SWAP1 DUP2 MSTORE PUSH1 0x16 PUSH1 0x20 MSTORE PUSH1 0x40 SWAP1 KECCAK256 PUSH1 0x1 ADD SLOAD ISZERO DUP1 ISZERO PUSH2 0x3969 JUMPI POP PUSH1 0x1 PUSH1 0x1 PUSH1 0xA0 SHL SUB DUP3 AND PUSH0 SWAP1 DUP2 MSTORE PUSH1 0x16 PUSH1 0x20 MSTORE PUSH1 0x40 SWAP1 KECCAK256 SLOAD ISZERO JUMPDEST DUP1 ISZERO PUSH2 0x3990 JUMPI POP PUSH1 0x1 PUSH1 0x1 PUSH1 0xA0 SHL SUB DUP3 AND PUSH0 SWAP1 DUP2 MSTORE PUSH1 0x16 PUSH1 0x20 MSTORE PUSH1 0x40 SWAP1 KECCAK256 PUSH1 0xB ADD SLOAD PUSH1 0xFF AND ISZERO JUMPDEST ISZERO PUSH2 0x39EE JUMPI PUSH1 0x1 PUSH1 0x1 PUSH1 0xA0 SHL SUB DUP3 DUP2 AND PUSH0 SWAP1 DUP2 MSTORE PUSH1 0x16 PUSH1 0x20 MSTORE PUSH1 0x40 DUP1 DUP3 KECCAK256 PUSH1 0xB ADD DUP1 SLOAD PUSH1 0x1 PUSH1 0x1 PUSH1 0x1 PUSH1 0xA8 SHL SUB NOT SWAP1 SWAP2 AND PUSH2 0x100 SWAP6 DUP8 AND SWAP6 DUP7 MUL OR DUP2 OR SWAP1 SWAP2 SSTORE SWAP3 DUP3 MSTORE DUP2 KECCAK256 PUSH1 0x2 ADD DUP1 SLOAD SWAP1 SWAP2 SWAP1 PUSH2 0x39E8 SWAP1 DUP5 SWAP1 PUSH2 0x5300 JUMP JUMPDEST SWAP1 SWAP2 SSTORE POP POP JUMPDEST PUSH1 0x1 PUSH1 0x1 PUSH1 0xA0 SHL SUB DUP3 DUP2 AND PUSH0 SWAP1 DUP2 MSTORE PUSH1 0x16 PUSH1 0x20 MSTORE PUSH1 0x40 SWAP1 KECCAK256 PUSH1 0xB ADD SLOAD PUSH2 0x100 SWAP1 DIV AND ISZERO PUSH2 0x1860 JUMPI PUSH1 0x11 SLOAD PUSH2 0x3A24 SWAP1 PUSH1 0x2 SWAP1 PUSH2 0x584A JUMP JUMPDEST PUSH1 0x1 PUSH1 0x1 PUSH1 0xA0 SHL SUB DUP1 DUP5 AND PUSH0 SWAP1 DUP2 MSTORE PUSH1 0x16 PUSH1 0x20 MSTORE PUSH1 0x40 DUP1 DUP3 KECCAK256 PUSH1 0xB ADD SLOAD PUSH2 0x100 SWAP1 DIV SWAP1 SWAP3 AND DUP2 MSTORE SWAP1 DUP2 KECCAK256 PUSH1 0x3 ADD DUP1 SLOAD SWAP1 SWAP2 SWAP1 PUSH2 0x3A61 SWAP1 DUP5 SWAP1 PUSH2 0x5300 JUMP JUMPDEST SWAP1 SWAP2 SSTORE POP POP POP POP JUMP JUMPDEST PUSH1 0x5 DUP1 SLOAD PUSH1 0x1 PUSH1 0x1 PUSH1 0xA0 SHL SUB DUP4 DUP2 AND PUSH1 0x1 PUSH1 0x1 PUSH1 0xA0 SHL SUB NOT DUP4 AND DUP2 OR SWAP1 SWAP4 SSTORE PUSH1 0x40 MLOAD SWAP2 AND SWAP2 SWAP1 DUP3 SWAP1 PUSH32 0x8BE0079C531659141344CD1FD0A4F28419497F9722A3DAAFE3B4186F6B6457E0 SWAP1 PUSH0 SWAP1 LOG3 POP POP JUMP JUMPDEST PUSH0 DUP1 PUSH1 0x2 DUP6 DUP8 DUP10 PUSH1 0x40 MLOAD PUSH1 0x20 ADD PUSH2 0x3AD5 SWAP5 SWAP4 SWAP3 SWAP2 SWAP1 PUSH2 0x5AFD JUMP JUMPDEST PUSH1 0x40 DUP1 MLOAD DUP1 DUP4 SUB PUSH1 0x1F NOT ADD DUP2 MSTORE DUP3 DUP3 MSTORE PUSH1 0x1 PUSH1 0x1 PUSH1 0xA0 SHL SUB DUP11 AND PUSH1 0x20 DUP5 ADD MSTORE DUP3 DUP3 ADD DUP10 SWAP1 MSTORE DUP2 MLOAD DUP1 DUP5 SUB DUP4 ADD DUP2 MSTORE PUSH1 0x60 SWAP1 SWAP4 ADD SWAP1 SWAP2 MSTORE SWAP2 POP PUSH0 PUSH2 0x3B1A DUP11 DUP8 DUP6 DUP6 PUSH2 0x41C2 JUMP JUMPDEST SWAP1 POP PUSH2 0x391C DUP11 DUP4 CALLER DUP9 DUP8 PUSH2 0x3B2E DUP8 DUP16 PUSH2 0x5300 JUMP JUMPDEST PUSH2 0x42ED JUMP JUMPDEST PUSH0 DUP1 SLOAD PUSH1 0x40 MLOAD PUSH4 0xC23EE3C3 PUSH1 0xE0 SHL DUP2 MSTORE PUSH2 0xFFFF DUP6 AND PUSH1 0x4 DUP3 ADD MSTORE PUSH1 0x24 DUP2 ADD DUP4 SWAP1 MSTORE PUSH1 0x44 DUP2 ADD DUP5 SWAP1 MSTORE PUSH1 0x1 PUSH1 0x1 PUSH1 0xA0 SHL SUB SWAP1 SWAP2 AND SWAP1 PUSH4 0xC23EE3C3 SWAP1 PUSH1 0x64 ADD PUSH1 0x40 DUP1 MLOAD DUP1 DUP4 SUB DUP2 DUP7 GAS STATICCALL ISZERO DUP1 ISZERO PUSH2 0x3B8A JUMPI RETURNDATASIZE PUSH0 DUP1 RETURNDATACOPY RETURNDATASIZE PUSH0 REVERT JUMPDEST POP POP POP POP PUSH1 0x40 MLOAD RETURNDATASIZE PUSH1 0x1F NOT PUSH1 0x1F DUP3 ADD AND DUP3 ADD DUP1 PUSH1 0x40 MSTORE POP DUP2 ADD SWAP1 PUSH2 0x3BAE SWAP2 SWAP1 PUSH2 0x5B87 JUMP JUMPDEST POP PUSH1 0x1 SLOAD PUSH1 0x40 DUP1 MLOAD PUSH4 0x1A90A219 PUSH1 0xE0 SHL DUP2 MSTORE SWAP1 MLOAD SWAP3 SWAP4 POP PUSH1 0x1 PUSH1 0x1 PUSH1 0xA0 SHL SUB SWAP1 SWAP2 AND SWAP2 PUSH4 0x1A90A219 SWAP2 PUSH1 0x4 DUP1 DUP3 ADD SWAP3 PUSH1 0x20 SWAP3 SWAP1 SWAP2 SWAP1 DUP3 SWAP1 SUB ADD DUP2 DUP7 GAS STATICCALL ISZERO DUP1 ISZERO PUSH2 0x3BFA JUMPI RETURNDATASIZE PUSH0 DUP1 RETURNDATACOPY RETURNDATASIZE PUSH0 REVERT JUMPDEST POP POP POP POP PUSH1 0x40 MLOAD RETURNDATASIZE PUSH1 0x1F NOT PUSH1 0x1F DUP3 ADD AND DUP3 ADD DUP1 PUSH1 0x40 MSTORE POP DUP2 ADD SWAP1 PUSH2 0x3C1E SWAP2 SWAP1 PUSH2 0x55AC JUMP JUMPDEST PUSH2 0x2465 SWAP1 DUP3 PUSH2 0x5300 JUMP JUMPDEST PUSH1 0x60 DUP2 PUSH2 0x3C36 DUP2 PUSH1 0x1F PUSH2 0x5300 JUMP JUMPDEST LT ISZERO PUSH2 0x3C75 JUMPI PUSH1 0x40 MLOAD PUSH3 0x461BCD PUSH1 0xE5 SHL DUP2 MSTORE PUSH1 0x20 PUSH1 0x4 DUP3 ADD MSTORE PUSH1 0xE PUSH1 0x24 DUP3 ADD MSTORE PUSH14 0x736C6963655F6F766572666C6F77 PUSH1 0x90 SHL PUSH1 0x44 DUP3 ADD MSTORE PUSH1 0x64 ADD PUSH2 0xDD2 JUMP JUMPDEST PUSH2 0x3C7F DUP3 DUP5 PUSH2 0x5300 JUMP JUMPDEST DUP5 MLOAD LT ISZERO PUSH2 0x3CC3 JUMPI PUSH1 0x40 MLOAD PUSH3 0x461BCD PUSH1 0xE5 SHL DUP2 MSTORE PUSH1 0x20 PUSH1 0x4 DUP3 ADD MSTORE PUSH1 0x11 PUSH1 0x24 DUP3 ADD MSTORE PUSH17 0x736C6963655F6F75744F66426F756E6473 PUSH1 0x78 SHL PUSH1 0x44 DUP3 ADD MSTORE PUSH1 0x64 ADD PUSH2 0xDD2 JUMP JUMPDEST PUSH1 0x60 DUP3 ISZERO DUP1 ISZERO PUSH2 0x3CE1 JUMPI PUSH1 0x40 MLOAD SWAP2 POP PUSH0 DUP3 MSTORE PUSH1 0x20 DUP3 ADD PUSH1 0x40 MSTORE PUSH2 0x3D2B JUMP JUMPDEST PUSH1 0x40 MLOAD SWAP2 POP PUSH1 0x1F DUP5 AND DUP1 ISZERO PUSH1 0x20 MUL DUP2 DUP5 ADD ADD DUP6 DUP2 ADD DUP8 DUP4 ISZERO PUSH1 0x20 MUL DUP5 DUP12 ADD ADD ADD JUMPDEST DUP2 DUP4 LT ISZERO PUSH2 0x3D1A JUMPI DUP1 MLOAD DUP4 MSTORE PUSH1 0x20 SWAP3 DUP4 ADD SWAP3 ADD PUSH2 0x3D02 JUMP JUMPDEST POP POP DUP6 DUP5 MSTORE PUSH1 0x1F ADD PUSH1 0x1F NOT AND PUSH1 0x40 MSTORE POP JUMPDEST POP SWAP5 SWAP4 POP POP POP POP JUMP JUMPDEST PUSH2 0x23F1 DUP4 DUP4 DUP4 PUSH2 0x448A JUMP JUMPDEST PUSH0 PUSH1 0x60 PUSH0 DUP1 PUSH0 DUP7 PUSH2 0xFFFF AND PUSH1 0x1 PUSH1 0x1 PUSH1 0x40 SHL SUB DUP2 GT ISZERO PUSH2 0x3D61 JUMPI PUSH2 0x3D61 PUSH2 0x4B96 JUMP JUMPDEST PUSH1 0x40 MLOAD SWAP1 DUP1 DUP3 MSTORE DUP1 PUSH1 0x1F ADD PUSH1 0x1F NOT AND PUSH1 0x20 ADD DUP3 ADD PUSH1 0x40 MSTORE DUP1 ISZERO PUSH2 0x3D8B JUMPI PUSH1 0x20 DUP3 ADD DUP2 DUP1 CALLDATASIZE DUP4 CALLDATACOPY ADD SWAP1 POP JUMPDEST POP SWAP1 POP PUSH0 DUP1 DUP8 MLOAD PUSH1 0x20 DUP10 ADD PUSH0 DUP14 DUP14 CALL SWAP2 POP RETURNDATASIZE SWAP3 POP DUP7 DUP4 GT ISZERO PUSH2 0x3DAB JUMPI DUP7 SWAP3 POP JUMPDEST DUP3 DUP2 MSTORE DUP3 PUSH0 PUSH1 0x20 DUP4 ADD RETURNDATACOPY SWAP1 SWAP9 SWAP1 SWAP8 POP SWAP6 POP POP POP POP POP POP JUMP JUMPDEST DUP2 DUP1 MLOAD SWAP1 PUSH1 0x20 ADD KECCAK256 PUSH1 0xD PUSH0 DUP8 PUSH2 0xFFFF AND PUSH2 0xFFFF AND DUP2 MSTORE PUSH1 0x20 ADD SWAP1 DUP2 MSTORE PUSH1 0x20 ADD PUSH0 KECCAK256 DUP6 PUSH1 0x40 MLOAD PUSH2 0x3DF2 SWAP2 SWAP1 PUSH2 0x5BC4 JUMP JUMPDEST SWAP1 DUP2 MSTORE PUSH1 0x40 DUP1 MLOAD SWAP2 DUP3 SWAP1 SUB PUSH1 0x20 SWAP1 DUP2 ADD DUP4 KECCAK256 PUSH1 0x1 PUSH1 0x1 PUSH1 0x40 SHL SUB DUP9 AND PUSH0 SWAP1 DUP2 MSTORE SWAP2 MSTORE KECCAK256 SWAP2 SWAP1 SWAP2 SSTORE PUSH32 0xE183F33DE2837795525B4792CA4CD60535BD77C53B7E7030060BFCF5734D6B0C SWAP1 PUSH2 0x3E4E SWAP1 DUP8 SWAP1 DUP8 SWAP1 DUP8 SWAP1 DUP8 SWAP1 DUP8 SWAP1 PUSH2 0x5C26 JUMP JUMPDEST PUSH1 0x40 MLOAD DUP1 SWAP2 SUB SWAP1 LOG1 POP POP POP POP POP JUMP JUMPDEST PUSH0 PUSH1 0xA0 DUP3 SWAP1 SHR ISZERO PUSH2 0x3E84 JUMPI PUSH1 0x40 MLOAD PUSH4 0x33B960D PUSH1 0xE4 SHL DUP2 MSTORE PUSH1 0x4 DUP2 ADD DUP4 SWAP1 MSTORE PUSH1 0x24 ADD PUSH2 0xDD2 JUMP JUMPDEST POP SWAP1 JUMP JUMPDEST DUP5 MLOAD PUSH1 0x1 EQ PUSH2 0x3E95 JUMPI PUSH0 DUP1 REVERT JUMPDEST PUSH0 PUSH2 0x3E9F DUP6 PUSH2 0x3E5D JUMP JUMPDEST PUSH2 0xFFFF DUP6 AND PUSH0 SWAP1 DUP2 MSTORE PUSH1 0x6 PUSH1 0x20 SWAP1 DUP2 MSTORE PUSH1 0x40 DUP1 DUP4 KECCAK256 PUSH1 0x1 PUSH1 0x1 PUSH1 0xA0 SHL SUB DUP6 AND DUP5 MSTORE SWAP1 SWAP2 MSTORE SWAP1 KECCAK256 SLOAD SWAP1 SWAP2 POP PUSH1 0xFF AND ISZERO ISZERO PUSH1 0x1 EQ PUSH2 0x3ED9 JUMPI PUSH0 DUP1 REVERT JUMPDEST PUSH2 0xFFFF DUP5 AND PUSH0 SWAP1 DUP2 MSTORE PUSH1 0x8 PUSH1 0x20 SWAP1 DUP2 MSTORE PUSH1 0x40 DUP1 DUP4 KECCAK256 DUP7 DUP5 MSTORE SWAP1 SWAP2 MSTORE SWAP1 KECCAK256 SLOAD PUSH1 0xFF AND ISZERO PUSH2 0x3F03 JUMPI PUSH0 DUP1 REVERT JUMPDEST PUSH0 DUP8 DUP1 PUSH1 0x20 ADD SWAP1 MLOAD DUP2 ADD SWAP1 PUSH2 0x3F18 SWAP2 SWAP1 PUSH2 0x5BA9 JUMP JUMPDEST SWAP1 POP PUSH0 DUP8 PUSH0 DUP2 MLOAD DUP2 LT PUSH2 0x3F2D JUMPI PUSH2 0x3F2D PUSH2 0x5358 JUMP JUMPDEST PUSH1 0x20 MUL PUSH1 0x20 ADD ADD MLOAD PUSH1 0x60 ADD MLOAD SWAP1 POP PUSH0 DUP9 PUSH0 DUP2 MLOAD DUP2 LT PUSH2 0x3F4E JUMPI PUSH2 0x3F4E PUSH2 0x5358 JUMP JUMPDEST PUSH1 0x20 MUL PUSH1 0x20 ADD ADD MLOAD PUSH1 0x40 ADD MLOAD PUSH1 0x1 PUSH1 0x1 PUSH1 0xA0 SHL SUB AND PUSH4 0xA9059CBB DUP5 DUP5 PUSH1 0x40 MLOAD DUP4 PUSH4 0xFFFFFFFF AND PUSH1 0xE0 SHL DUP2 MSTORE PUSH1 0x4 ADD PUSH2 0x3F9B SWAP3 SWAP2 SWAP1 PUSH1 0x1 PUSH1 0x1 PUSH1 0xA0 SHL SUB SWAP3 SWAP1 SWAP3 AND DUP3 MSTORE PUSH1 0x20 DUP3 ADD MSTORE PUSH1 0x40 ADD SWAP1 JUMP JUMPDEST PUSH1 0x20 PUSH1 0x40 MLOAD DUP1 DUP4 SUB DUP2 PUSH0 DUP8 GAS CALL ISZERO DUP1 ISZERO PUSH2 0x3FB7 JUMPI RETURNDATASIZE PUSH0 DUP1 RETURNDATACOPY RETURNDATASIZE PUSH0 REVERT JUMPDEST POP POP POP POP PUSH1 0x40 MLOAD RETURNDATASIZE PUSH1 0x1F NOT PUSH1 0x1F DUP3 ADD AND DUP3 ADD DUP1 PUSH1 0x40 MSTORE POP DUP2 ADD SWAP1 PUSH2 0x3FDB SWAP2 SWAP1 PUSH2 0x581B JUMP JUMPDEST SWAP1 POP DUP1 PUSH2 0x3FE8 JUMPI PUSH0 PUSH2 0x3FEB JUMP JUMPDEST PUSH1 0x1 JUMPDEST PUSH2 0xFFFF SWAP8 SWAP1 SWAP8 AND PUSH0 SWAP1 DUP2 MSTORE PUSH1 0x8 PUSH1 0x20 SWAP1 DUP2 MSTORE PUSH1 0x40 DUP1 DUP4 KECCAK256 SWAP9 DUP4 MSTORE SWAP8 SWAP1 MSTORE SWAP6 SWAP1 SWAP6 KECCAK256 DUP1 SLOAD PUSH1 0xFF NOT AND SWAP7 ISZERO ISZERO SWAP7 SWAP1 SWAP7 OR SWAP1 SWAP6 SSTORE POP POP POP POP POP POP POP POP JUMP JUMPDEST PUSH1 0x40 DUP1 MLOAD PUSH1 0x1 DUP1 DUP3 MSTORE DUP2 DUP4 ADD SWAP1 SWAP3 MSTORE PUSH0 SWAP2 DUP3 SWAP2 SWAP1 DUP2 PUSH1 0x20 ADD JUMPDEST PUSH1 0x40 DUP1 MLOAD PUSH1 0x60 DUP2 ADD DUP3 MSTORE PUSH0 DUP1 DUP3 MSTORE PUSH1 0x20 DUP1 DUP4 ADD DUP3 SWAP1 MSTORE SWAP3 DUP3 ADD MSTORE DUP3 MSTORE PUSH0 NOT SWAP1 SWAP3 ADD SWAP2 ADD DUP2 PUSH2 0x403F JUMPI SWAP1 POP POP SWAP1 POP PUSH2 0x4087 DUP7 DUP7 DUP14 DUP14 PUSH1 0x40 MLOAD DUP1 PUSH1 0x20 ADD PUSH1 0x40 MSTORE DUP1 PUSH0 DUP2 MSTORE POP PUSH2 0x44F0 JUMP JUMPDEST DUP2 PUSH0 DUP2 MLOAD DUP2 LT PUSH2 0x4099 JUMPI PUSH2 0x4099 PUSH2 0x5358 JUMP JUMPDEST PUSH1 0x20 SWAP1 DUP2 MUL SWAP2 SWAP1 SWAP2 ADD ADD MSTORE PUSH0 DUP1 SLOAD PUSH1 0x40 MLOAD PUSH4 0xC23EE3C3 PUSH1 0xE0 SHL DUP2 MSTORE PUSH2 0xFFFF DUP15 AND PUSH1 0x4 DUP3 ADD MSTORE PUSH1 0x24 DUP2 ADD DUP12 SWAP1 MSTORE PUSH1 0x44 DUP2 ADD DUP11 SWAP1 MSTORE PUSH1 0x1 PUSH1 0x1 PUSH1 0xA0 SHL SUB SWAP1 SWAP2 AND SWAP1 PUSH4 0xC23EE3C3 SWAP1 PUSH1 0x64 ADD PUSH1 0x40 DUP1 MLOAD DUP1 DUP4 SUB DUP2 DUP7 GAS STATICCALL ISZERO DUP1 ISZERO PUSH2 0x40FB JUMPI RETURNDATASIZE PUSH0 DUP1 RETURNDATACOPY RETURNDATASIZE PUSH0 REVERT JUMPDEST POP POP POP POP PUSH1 0x40 MLOAD RETURNDATASIZE PUSH1 0x1F NOT PUSH1 0x1F DUP3 ADD AND DUP3 ADD DUP1 PUSH1 0x40 MSTORE POP DUP2 ADD SWAP1 PUSH2 0x411F SWAP2 SWAP1 PUSH2 0x5B87 JUMP JUMPDEST POP SWAP1 POP PUSH0 DUP1 SLOAD SWAP1 PUSH2 0x100 EXP SWAP1 DIV PUSH1 0x1 PUSH1 0x1 PUSH1 0xA0 SHL SUB AND PUSH1 0x1 PUSH1 0x1 PUSH1 0xA0 SHL SUB AND PUSH4 0x32B2FC0E DUP3 DUP15 DUP15 DUP15 DUP15 DUP15 DUP10 DUP14 DUP14 PUSH1 0x40 MLOAD DUP11 PUSH4 0xFFFFFFFF AND PUSH1 0xE0 SHL DUP2 MSTORE PUSH1 0x4 ADD PUSH2 0x416F SWAP9 SWAP8 SWAP7 SWAP6 SWAP5 SWAP4 SWAP3 SWAP2 SWAP1 PUSH2 0x5C77 JUMP JUMPDEST PUSH1 0x20 PUSH1 0x40 MLOAD DUP1 DUP4 SUB DUP2 DUP6 DUP9 GAS CALL ISZERO DUP1 ISZERO PUSH2 0x418B JUMPI RETURNDATASIZE PUSH0 DUP1 RETURNDATACOPY RETURNDATASIZE PUSH0 REVERT JUMPDEST POP POP POP POP POP PUSH1 0x40 MLOAD RETURNDATASIZE PUSH1 0x1F NOT PUSH1 0x1F DUP3 ADD AND DUP3 ADD DUP1 PUSH1 0x40 MSTORE POP DUP2 ADD SWAP1 PUSH2 0x41B0 SWAP2 SWAP1 PUSH2 0x5D32 JUMP JUMPDEST SWAP3 POP POP POP JUMPDEST SWAP10 SWAP9 POP POP POP POP POP POP POP POP POP JUMP JUMPDEST PUSH0 PUSH32 0x0 PUSH1 0x1 PUSH1 0x1 PUSH1 0xA0 SHL SUB AND PUSH4 0x3408E470 PUSH1 0x40 MLOAD DUP2 PUSH4 0xFFFFFFFF AND PUSH1 0xE0 SHL DUP2 MSTORE PUSH1 0x4 ADD PUSH1 0x20 PUSH1 0x40 MLOAD DUP1 DUP4 SUB DUP2 DUP7 GAS STATICCALL ISZERO DUP1 ISZERO PUSH2 0x421F JUMPI RETURNDATASIZE PUSH0 DUP1 RETURNDATACOPY RETURNDATASIZE PUSH0 REVERT JUMPDEST POP POP POP POP PUSH1 0x40 MLOAD RETURNDATASIZE PUSH1 0x1F NOT PUSH1 0x1F DUP3 ADD AND DUP3 ADD DUP1 PUSH1 0x40 MSTORE POP DUP2 ADD SWAP1 PUSH2 0x4243 SWAP2 SWAP1 PUSH2 0x5686 JUMP JUMPDEST PUSH2 0xFFFF AND DUP6 PUSH2 0xFFFF AND EQ PUSH2 0x2BAF JUMPI PUSH1 0x40 MLOAD PUSH4 0x40A7BB1 PUSH1 0xE4 SHL DUP2 MSTORE PUSH1 0x1 PUSH1 0x1 PUSH1 0xA0 SHL SUB PUSH32 0x0 AND SWAP1 PUSH4 0x40A7BB10 SWAP1 PUSH2 0x42A5 SWAP1 DUP9 SWAP1 ADDRESS SWAP1 DUP8 SWAP1 DUP11 SWAP1 DUP11 SWAP1 PUSH1 0x4 ADD PUSH2 0x5B34 JUMP JUMPDEST PUSH1 0x40 DUP1 MLOAD DUP1 DUP4 SUB DUP2 DUP7 GAS STATICCALL ISZERO DUP1 ISZERO PUSH2 0x42BF JUMPI RETURNDATASIZE PUSH0 DUP1 RETURNDATACOPY RETURNDATASIZE PUSH0 REVERT JUMPDEST POP POP POP POP PUSH1 0x40 MLOAD RETURNDATASIZE PUSH1 0x1F NOT PUSH1 0x1F DUP3 ADD AND DUP3 ADD DUP1 PUSH1 0x40 MSTORE POP DUP2 ADD SWAP1 PUSH2 0x42E3 SWAP2 SWAP1 PUSH2 0x5B87 JUMP JUMPDEST POP SWAP6 SWAP5 POP POP POP POP POP JUMP JUMPDEST PUSH2 0xFFFF DUP7 AND PUSH0 SWAP1 DUP2 MSTORE PUSH1 0x9 PUSH1 0x20 MSTORE PUSH1 0x40 DUP2 KECCAK256 DUP1 SLOAD PUSH2 0x430A SWAP1 PUSH2 0x52A5 JUMP JUMPDEST DUP1 PUSH1 0x1F ADD PUSH1 0x20 DUP1 SWAP2 DIV MUL PUSH1 0x20 ADD PUSH1 0x40 MLOAD SWAP1 DUP2 ADD PUSH1 0x40 MSTORE DUP1 SWAP3 SWAP2 SWAP1 DUP2 DUP2 MSTORE PUSH1 0x20 ADD DUP3 DUP1 SLOAD PUSH2 0x4336 SWAP1 PUSH2 0x52A5 JUMP JUMPDEST DUP1 ISZERO PUSH2 0x4381 JUMPI DUP1 PUSH1 0x1F LT PUSH2 0x4358 JUMPI PUSH2 0x100 DUP1 DUP4 SLOAD DIV MUL DUP4 MSTORE SWAP2 PUSH1 0x20 ADD SWAP2 PUSH2 0x4381 JUMP JUMPDEST DUP3 ADD SWAP2 SWAP1 PUSH0 MSTORE PUSH1 0x20 PUSH0 KECCAK256 SWAP1 JUMPDEST DUP2 SLOAD DUP2 MSTORE SWAP1 PUSH1 0x1 ADD SWAP1 PUSH1 0x20 ADD DUP1 DUP4 GT PUSH2 0x4364 JUMPI DUP3 SWAP1 SUB PUSH1 0x1F AND DUP3 ADD SWAP2 JUMPDEST POP POP POP POP POP SWAP1 POP DUP1 MLOAD PUSH0 SUB PUSH2 0x43F1 JUMPI PUSH1 0x40 MLOAD PUSH3 0x461BCD PUSH1 0xE5 SHL DUP2 MSTORE PUSH1 0x20 PUSH1 0x4 DUP3 ADD MSTORE PUSH1 0x30 PUSH1 0x24 DUP3 ADD MSTORE PUSH32 0x4C7A4170703A2064657374696E6174696F6E20636861696E206973206E6F7420 PUSH1 0x44 DUP3 ADD MSTORE PUSH16 0x61207472757374656420736F75726365 PUSH1 0x80 SHL PUSH1 0x64 DUP3 ADD MSTORE PUSH1 0x84 ADD PUSH2 0xDD2 JUMP JUMPDEST PUSH2 0x43FC DUP8 DUP8 MLOAD PUSH2 0x4711 JUMP JUMPDEST PUSH1 0x40 MLOAD PUSH3 0xC58031 PUSH1 0xE8 SHL DUP2 MSTORE PUSH1 0x1 PUSH1 0x1 PUSH1 0xA0 SHL SUB PUSH32 0x0 AND SWAP1 PUSH4 0xC5803100 SWAP1 DUP5 SWAP1 PUSH2 0x4453 SWAP1 DUP12 SWAP1 DUP7 SWAP1 DUP13 SWAP1 DUP13 SWAP1 DUP13 SWAP1 DUP13 SWAP1 PUSH1 0x4 ADD PUSH2 0x5D4D JUMP JUMPDEST PUSH0 PUSH1 0x40 MLOAD DUP1 DUP4 SUB DUP2 DUP6 DUP9 DUP1 EXTCODESIZE ISZERO DUP1 ISZERO PUSH2 0x446A JUMPI PUSH0 DUP1 REVERT JUMPDEST POP GAS CALL ISZERO DUP1 ISZERO PUSH2 0x447C JUMPI RETURNDATASIZE PUSH0 DUP1 RETURNDATACOPY RETURNDATASIZE PUSH0 REVERT JUMPDEST POP POP POP POP POP POP POP POP POP POP POP POP JUMP JUMPDEST PUSH2 0x44CC DUP4 DUP3 PUSH0 DUP1 SLOAD PUSH1 0x1 PUSH1 0x1 PUSH1 0xA0 SHL SUB SWAP4 DUP5 AND PUSH1 0x1 PUSH1 0x1 PUSH1 0xA0 SHL SUB NOT SWAP2 DUP3 AND OR SWAP1 SWAP2 SSTORE PUSH1 0x1 DUP1 SLOAD SWAP3 SWAP1 SWAP4 AND SWAP2 DUP2 AND SWAP2 SWAP1 SWAP2 OR SWAP1 SWAP2 SSTORE PUSH1 0x2 DUP1 SLOAD SWAP1 SWAP2 AND CALLER OR SWAP1 SSTORE JUMP JUMPDEST POP PUSH1 0x4 DUP1 SLOAD PUSH1 0x1 PUSH1 0x1 PUSH1 0xA0 SHL SUB NOT AND PUSH1 0x1 PUSH1 0x1 PUSH1 0xA0 SHL SUB SWAP3 SWAP1 SWAP3 AND SWAP2 SWAP1 SWAP2 OR SWAP1 SSTORE POP JUMP JUMPDEST PUSH1 0x40 DUP1 MLOAD PUSH1 0x60 DUP2 ADD DUP3 MSTORE PUSH0 DUP1 DUP3 MSTORE PUSH1 0x20 DUP3 ADD DUP2 SWAP1 MSTORE DUP2 DUP4 ADD MSTORE PUSH1 0x4 DUP1 SLOAD SWAP3 MLOAD PUSH4 0x95EA7B3 PUSH1 0xE0 SHL DUP2 MSTORE PUSH1 0x1 PUSH1 0x1 PUSH1 0xA0 SHL SUB SWAP4 DUP5 AND SWAP2 DUP2 ADD SWAP2 SWAP1 SWAP2 MSTORE PUSH1 0x24 DUP2 ADD DUP8 SWAP1 MSTORE SWAP1 SWAP2 DUP8 AND SWAP1 PUSH4 0x95EA7B3 SWAP1 PUSH1 0x44 ADD PUSH1 0x20 PUSH1 0x40 MLOAD DUP1 DUP4 SUB DUP2 PUSH0 DUP8 GAS CALL ISZERO DUP1 ISZERO PUSH2 0x455C JUMPI RETURNDATASIZE PUSH0 DUP1 RETURNDATACOPY RETURNDATASIZE PUSH0 REVERT JUMPDEST POP POP POP POP PUSH1 0x40 MLOAD RETURNDATASIZE PUSH1 0x1F NOT PUSH1 0x1F DUP3 ADD AND DUP3 ADD DUP1 PUSH1 0x40 MSTORE POP DUP2 ADD SWAP1 PUSH2 0x4580 SWAP2 SWAP1 PUSH2 0x581B JUMP JUMPDEST POP PUSH1 0x4 DUP1 SLOAD PUSH1 0x1 SLOAD PUSH1 0x40 DUP1 MLOAD PUSH4 0x1A90A219 PUSH1 0xE0 SHL DUP2 MSTORE SWAP1 MLOAD PUSH0 SWAP5 PUSH1 0x1 PUSH1 0x1 PUSH1 0xA0 SHL SUB SWAP5 DUP6 AND SWAP5 PUSH4 0xC5A5EBDA SWAP5 AND SWAP3 PUSH4 0x1A90A219 SWAP3 DUP2 DUP4 ADD SWAP3 PUSH1 0x20 SWAP3 DUP3 SWAP1 SUB ADD DUP2 DUP7 GAS STATICCALL ISZERO DUP1 ISZERO PUSH2 0x45D2 JUMPI RETURNDATASIZE PUSH0 DUP1 RETURNDATACOPY RETURNDATASIZE PUSH0 REVERT JUMPDEST POP POP POP POP PUSH1 0x40 MLOAD RETURNDATASIZE PUSH1 0x1F NOT PUSH1 0x1F DUP3 ADD AND DUP3 ADD DUP1 PUSH1 0x40 MSTORE POP DUP2 ADD SWAP1 PUSH2 0x45F6 SWAP2 SWAP1 PUSH2 0x55AC JUMP JUMPDEST DUP10 DUP10 DUP10 PUSH1 0x1 PUSH1 0x1 PUSH1 0xA0 SHL SUB DUP11 AND PUSH0 DUP11 PUSH1 0x40 MLOAD DUP9 PUSH4 0xFFFFFFFF AND PUSH1 0xE0 SHL DUP2 MSTORE PUSH1 0x4 ADD PUSH2 0x4626 SWAP7 SWAP6 SWAP5 SWAP4 SWAP3 SWAP2 SWAP1 PUSH2 0x5DA6 JUMP JUMPDEST PUSH1 0x20 PUSH1 0x40 MLOAD DUP1 DUP4 SUB DUP2 DUP6 DUP9 GAS CALL ISZERO DUP1 ISZERO PUSH2 0x4642 JUMPI RETURNDATASIZE PUSH0 DUP1 RETURNDATACOPY RETURNDATASIZE PUSH0 REVERT JUMPDEST POP POP POP POP POP PUSH1 0x40 MLOAD RETURNDATASIZE PUSH1 0x1F NOT PUSH1 0x1F DUP3 ADD AND DUP3 ADD DUP1 PUSH1 0x40 MSTORE POP DUP2 ADD SWAP1 PUSH2 0x4667 SWAP2 SWAP1 PUSH2 0x5D32 JUMP JUMPDEST PUSH1 0x40 DUP1 MLOAD PUSH1 0x60 DUP2 ADD DUP1 DUP4 MSTORE PUSH1 0x1 SLOAD PUSH4 0x4D4502C9 PUSH1 0xE1 SHL SWAP1 SWAP2 MSTORE SWAP2 MLOAD SWAP3 SWAP4 POP SWAP2 DUP3 SWAP2 PUSH1 0x1 PUSH1 0x1 PUSH1 0xA0 SHL SUB AND SWAP1 PUSH4 0x9A8A0592 SWAP1 PUSH1 0x64 DUP1 DUP6 ADD SWAP2 PUSH1 0x20 SWAP2 DUP2 DUP8 SUB ADD DUP2 DUP7 GAS STATICCALL ISZERO DUP1 ISZERO PUSH2 0x46B8 JUMPI RETURNDATASIZE PUSH0 DUP1 RETURNDATACOPY RETURNDATASIZE PUSH0 REVERT JUMPDEST POP POP POP POP PUSH1 0x40 MLOAD RETURNDATASIZE PUSH1 0x1F NOT PUSH1 0x1F DUP3 ADD AND DUP3 ADD DUP1 PUSH1 0x40 MSTORE POP DUP2 ADD SWAP1 PUSH2 0x46DC SWAP2 SWAP1 PUSH2 0x5686 JUMP JUMPDEST PUSH2 0xFFFF AND DUP2 MSTORE PUSH1 0x4 SLOAD PUSH1 0x1 PUSH1 0x1 PUSH1 0xA0 SHL SUB AND PUSH1 0x20 DUP3 ADD MSTORE PUSH1 0x1 PUSH1 0x1 PUSH1 0x40 SHL SUB SWAP1 SWAP3 AND PUSH1 0x40 SWAP1 SWAP3 ADD SWAP2 SWAP1 SWAP2 MSTORE SWAP7 SWAP6 POP POP POP POP POP POP JUMP JUMPDEST PUSH2 0xFFFF DUP3 AND PUSH0 SWAP1 DUP2 MSTORE PUSH1 0xB PUSH1 0x20 MSTORE PUSH1 0x40 DUP2 KECCAK256 SLOAD SWAP1 DUP2 SWAP1 SUB PUSH2 0x4731 JUMPI POP PUSH2 0x2710 JUMPDEST DUP1 DUP3 GT ISZERO PUSH2 0x23F1 JUMPI PUSH1 0x40 MLOAD PUSH3 0x461BCD PUSH1 0xE5 SHL DUP2 MSTORE PUSH1 0x20 PUSH1 0x4 DUP3 ADD DUP2 SWAP1 MSTORE PUSH1 0x24 DUP3 ADD MSTORE PUSH32 0x4C7A4170703A207061796C6F61642073697A6520697320746F6F206C61726765 PUSH1 0x44 DUP3 ADD MSTORE PUSH1 0x64 ADD PUSH2 0xDD2 JUMP JUMPDEST POP DUP1 SLOAD PUSH2 0x478D SWAP1 PUSH2 0x52A5 JUMP JUMPDEST PUSH0 DUP3 SSTORE DUP1 PUSH1 0x1F LT PUSH2 0x479C JUMPI POP POP JUMP JUMPDEST PUSH1 0x1F ADD PUSH1 0x20 SWAP1 DIV SWAP1 PUSH0 MSTORE PUSH1 0x20 PUSH0 KECCAK256 SWAP1 DUP2 ADD SWAP1 PUSH2 0x1344 SWAP2 SWAP1 PUSH2 0x4808 JUMP JUMPDEST DUP3 DUP1 SLOAD DUP3 DUP3 SSTORE SWAP1 PUSH0 MSTORE PUSH1 0x20 PUSH0 KECCAK256 SWAP1 DUP2 ADD SWAP3 DUP3 ISZERO PUSH2 0x47FC JUMPI SWAP2 PUSH1 0x20 MUL DUP3 ADD JUMPDEST DUP3 DUP2 GT ISZERO PUSH2 0x47FC JUMPI DUP3 MLOAD DUP3 SWAP1 PUSH2 0x47EC SWAP1 DUP3 PUSH2 0x58C3 JUMP JUMPDEST POP SWAP2 PUSH1 0x20 ADD SWAP2 SWAP1 PUSH1 0x1 ADD SWAP1 PUSH2 0x47D6 JUMP JUMPDEST POP PUSH2 0x3E84 SWAP3 SWAP2 POP PUSH2 0x481C JUMP JUMPDEST JUMPDEST DUP1 DUP3 GT ISZERO PUSH2 0x3E84 JUMPI PUSH0 DUP2 SSTORE PUSH1 0x1 ADD PUSH2 0x4809 JUMP JUMPDEST DUP1 DUP3 GT ISZERO PUSH2 0x3E84 JUMPI PUSH0 PUSH2 0x482F DUP3 DUP3 PUSH2 0x4781 JUMP JUMPDEST POP PUSH1 0x1 ADD PUSH2 0x481C JUMP JUMPDEST PUSH2 0xFFFF DUP2 AND DUP2 EQ PUSH2 0x1344 JUMPI PUSH0 DUP1 REVERT JUMPDEST DUP1 CALLDATALOAD PUSH2 0x4852 DUP2 PUSH2 0x4838 JUMP JUMPDEST SWAP2 SWAP1 POP JUMP JUMPDEST PUSH0 DUP1 DUP4 PUSH1 0x1F DUP5 ADD SLT PUSH2 0x4867 JUMPI PUSH0 DUP1 REVERT JUMPDEST POP DUP2 CALLDATALOAD PUSH1 0x1 PUSH1 0x1 PUSH1 0x40 SHL SUB DUP2 GT ISZERO PUSH2 0x487D JUMPI PUSH0 DUP1 REVERT JUMPDEST PUSH1 0x20 DUP4 ADD SWAP2 POP DUP4 PUSH1 0x20 DUP3 DUP6 ADD ADD GT ISZERO PUSH2 0x4894 JUMPI PUSH0 DUP1 REVERT JUMPDEST SWAP3 POP SWAP3 SWAP1 POP JUMP JUMPDEST PUSH1 0x1 PUSH1 0x1 PUSH1 0x40 SHL SUB DUP2 AND DUP2 EQ PUSH2 0x1344 JUMPI PUSH0 DUP1 REVERT JUMPDEST PUSH0 DUP1 PUSH0 DUP1 PUSH0 DUP1 PUSH1 0x80 DUP8 DUP10 SUB SLT ISZERO PUSH2 0x48C4 JUMPI PUSH0 DUP1 REVERT JUMPDEST DUP7 CALLDATALOAD PUSH2 0x48CF DUP2 PUSH2 0x4838 JUMP JUMPDEST SWAP6 POP PUSH1 0x20 DUP8 ADD CALLDATALOAD PUSH1 0x1 PUSH1 0x1 PUSH1 0x40 SHL SUB DUP1 DUP3 GT ISZERO PUSH2 0x48EA JUMPI PUSH0 DUP1 REVERT JUMPDEST PUSH2 0x48F6 DUP11 DUP4 DUP12 ADD PUSH2 0x4857 JUMP JUMPDEST SWAP1 SWAP8 POP SWAP6 POP PUSH1 0x40 DUP10 ADD CALLDATALOAD SWAP2 POP PUSH2 0x490B DUP3 PUSH2 0x489B JUMP JUMPDEST SWAP1 SWAP4 POP PUSH1 0x60 DUP9 ADD CALLDATALOAD SWAP1 DUP1 DUP3 GT ISZERO PUSH2 0x4920 JUMPI PUSH0 DUP1 REVERT JUMPDEST POP PUSH2 0x492D DUP10 DUP3 DUP11 ADD PUSH2 0x4857 JUMP JUMPDEST SWAP8 SWAP11 SWAP7 SWAP10 POP SWAP5 SWAP8 POP SWAP3 SWAP6 SWAP4 SWAP5 SWAP3 POP POP POP JUMP JUMPDEST PUSH1 0x1 PUSH1 0x1 PUSH1 0xA0 SHL SUB DUP2 AND DUP2 EQ PUSH2 0x1344 JUMPI PUSH0 DUP1 REVERT JUMPDEST DUP1 CALLDATALOAD PUSH2 0x4852 DUP2 PUSH2 0x493F JUMP JUMPDEST PUSH1 0xFF DUP2 AND DUP2 EQ PUSH2 0x1344 JUMPI PUSH0 DUP1 REVERT JUMPDEST PUSH0 DUP1 PUSH1 0x40 DUP4 DUP6 SUB SLT ISZERO PUSH2 0x497D JUMPI PUSH0 DUP1 REVERT JUMPDEST DUP3 CALLDATALOAD PUSH2 0x4988 DUP2 PUSH2 0x493F JUMP JUMPDEST SWAP2 POP PUSH1 0x20 DUP4 ADD CALLDATALOAD PUSH2 0x4998 DUP2 PUSH2 0x495E JUMP JUMPDEST DUP1 SWAP2 POP POP SWAP3 POP SWAP3 SWAP1 POP JUMP JUMPDEST PUSH0 PUSH1 0x20 DUP3 DUP5 SUB SLT ISZERO PUSH2 0x49B3 JUMPI PUSH0 DUP1 REVERT JUMPDEST DUP2 CALLDATALOAD PUSH2 0x2465 DUP2 PUSH2 0x4838 JUMP JUMPDEST PUSH0 DUP1 PUSH1 0x40 DUP4 DUP6 SUB SLT ISZERO PUSH2 0x49CF JUMPI PUSH0 DUP1 REVERT JUMPDEST DUP3 CALLDATALOAD PUSH2 0x49DA DUP2 PUSH2 0x4838 JUMP JUMPDEST SWAP5 PUSH1 0x20 SWAP4 SWAP1 SWAP4 ADD CALLDATALOAD SWAP4 POP POP POP JUMP JUMPDEST PUSH0 DUP1 PUSH1 0x40 DUP4 DUP6 SUB SLT ISZERO PUSH2 0x49F9 JUMPI PUSH0 DUP1 REVERT JUMPDEST DUP3 CALLDATALOAD PUSH2 0x49DA DUP2 PUSH2 0x493F JUMP JUMPDEST PUSH2 0xFFFF DUP1 DUP3 MLOAD AND DUP4 MSTORE DUP1 PUSH1 0x20 DUP4 ADD MLOAD AND PUSH1 0x20 DUP5 ADD MSTORE POP PUSH1 0x40 DUP2 ADD MLOAD PUSH1 0x1 DUP1 PUSH1 0xA0 SHL SUB DUP1 DUP3 AND PUSH1 0x40 DUP6 ADD MSTORE PUSH1 0x60 DUP4 ADD MLOAD PUSH1 0x60 DUP6 ADD MSTORE DUP1 PUSH1 0x80 DUP5 ADD MLOAD AND PUSH1 0x80 DUP6 ADD MSTORE POP POP PUSH1 0xA0 DUP2 ADD MLOAD PUSH1 0xA0 DUP4 ADD MSTORE PUSH1 0xC0 DUP2 ADD MLOAD ISZERO ISZERO PUSH1 0xC0 DUP4 ADD MSTORE POP POP JUMP JUMPDEST PUSH1 0xE0 DUP2 ADD PUSH2 0x11A6 DUP3 DUP5 PUSH2 0x4A04 JUMP JUMPDEST DUP1 ISZERO ISZERO DUP2 EQ PUSH2 0x1344 JUMPI PUSH0 DUP1 REVERT JUMPDEST PUSH0 DUP1 PUSH0 DUP1 PUSH0 PUSH1 0xA0 DUP7 DUP9 SUB SLT ISZERO PUSH2 0x4A8F JUMPI PUSH0 DUP1 REVERT JUMPDEST DUP6 CALLDATALOAD PUSH2 0x4A9A DUP2 PUSH2 0x4838 JUMP JUMPDEST SWAP5 POP PUSH1 0x20 DUP7 ADD CALLDATALOAD PUSH2 0x4AAA DUP2 PUSH2 0x4A6E JUMP JUMPDEST SWAP4 POP PUSH1 0x40 DUP7 ADD CALLDATALOAD SWAP3 POP PUSH1 0x60 DUP7 ADD CALLDATALOAD PUSH2 0x4AC1 DUP2 PUSH2 0x493F JUMP JUMPDEST SWAP5 SWAP8 SWAP4 SWAP7 POP SWAP2 SWAP5 PUSH1 0x80 ADD CALLDATALOAD SWAP3 SWAP2 POP POP JUMP JUMPDEST PUSH0 DUP1 PUSH0 PUSH1 0x60 DUP5 DUP7 SUB SLT ISZERO PUSH2 0x4AE4 JUMPI PUSH0 DUP1 REVERT JUMPDEST DUP4 CALLDATALOAD PUSH2 0x4AEF DUP2 PUSH2 0x493F JUMP JUMPDEST SWAP3 POP PUSH1 0x20 DUP5 ADD CALLDATALOAD PUSH2 0x4AFF DUP2 PUSH2 0x493F JUMP JUMPDEST SWAP2 POP PUSH1 0x40 DUP5 ADD CALLDATALOAD PUSH2 0x4B0F DUP2 PUSH2 0x4838 JUMP JUMPDEST DUP1 SWAP2 POP POP SWAP3 POP SWAP3 POP SWAP3 JUMP JUMPDEST PUSH0 DUP1 PUSH0 PUSH1 0x40 DUP5 DUP7 SUB SLT ISZERO PUSH2 0x4B2C JUMPI PUSH0 DUP1 REVERT JUMPDEST DUP4 CALLDATALOAD PUSH2 0x4B37 DUP2 PUSH2 0x4838 JUMP JUMPDEST SWAP3 POP PUSH1 0x20 DUP5 ADD CALLDATALOAD PUSH1 0x1 PUSH1 0x1 PUSH1 0x40 SHL SUB DUP2 GT ISZERO PUSH2 0x4B51 JUMPI PUSH0 DUP1 REVERT JUMPDEST PUSH2 0x4B5D DUP7 DUP3 DUP8 ADD PUSH2 0x4857 JUMP JUMPDEST SWAP5 SWAP8 SWAP1 SWAP7 POP SWAP4 SWAP5 POP POP POP POP JUMP JUMPDEST PUSH0 DUP1 PUSH1 0x40 DUP4 DUP6 SUB SLT ISZERO PUSH2 0x4B7B JUMPI PUSH0 DUP1 REVERT JUMPDEST DUP3 CALLDATALOAD PUSH2 0x4B86 DUP2 PUSH2 0x493F JUMP JUMPDEST SWAP2 POP PUSH1 0x20 DUP4 ADD CALLDATALOAD PUSH2 0x4998 DUP2 PUSH2 0x4838 JUMP JUMPDEST PUSH4 0x4E487B71 PUSH1 0xE0 SHL PUSH0 MSTORE PUSH1 0x41 PUSH1 0x4 MSTORE PUSH1 0x24 PUSH0 REVERT JUMPDEST PUSH1 0x40 MLOAD PUSH1 0x80 DUP2 ADD PUSH1 0x1 PUSH1 0x1 PUSH1 0x40 SHL SUB DUP2 GT DUP3 DUP3 LT OR ISZERO PUSH2 0x4BCC JUMPI PUSH2 0x4BCC PUSH2 0x4B96 JUMP JUMPDEST PUSH1 0x40 MSTORE SWAP1 JUMP JUMPDEST PUSH1 0x40 MLOAD PUSH2 0x160 DUP2 ADD PUSH1 0x1 PUSH1 0x1 PUSH1 0x40 SHL SUB DUP2 GT DUP3 DUP3 LT OR ISZERO PUSH2 0x4BCC JUMPI PUSH2 0x4BCC PUSH2 0x4B96 JUMP JUMPDEST PUSH1 0x40 MLOAD PUSH2 0x100 DUP2 ADD PUSH1 0x1 PUSH1 0x1 PUSH1 0x40 SHL SUB DUP2 GT DUP3 DUP3 LT OR ISZERO PUSH2 0x4BCC JUMPI PUSH2 0x4BCC PUSH2 0x4B96 JUMP JUMPDEST PUSH1 0x40 MLOAD PUSH1 0x1F DUP3 ADD PUSH1 0x1F NOT AND DUP2 ADD PUSH1 0x1 PUSH1 0x1 PUSH1 0x40 SHL SUB DUP2 GT DUP3 DUP3 LT OR ISZERO PUSH2 0x4C40 JUMPI PUSH2 0x4C40 PUSH2 0x4B96 JUMP JUMPDEST PUSH1 0x40 MSTORE SWAP2 SWAP1 POP JUMP JUMPDEST PUSH0 PUSH1 0x1 PUSH1 0x1 PUSH1 0x40 SHL SUB DUP3 GT ISZERO PUSH2 0x4C60 JUMPI PUSH2 0x4C60 PUSH2 0x4B96 JUMP JUMPDEST POP PUSH1 0x1F ADD PUSH1 0x1F NOT AND PUSH1 0x20 ADD SWAP1 JUMP JUMPDEST PUSH0 DUP3 PUSH1 0x1F DUP4 ADD SLT PUSH2 0x4C7D JUMPI PUSH0 DUP1 REVERT JUMPDEST DUP2 CALLDATALOAD PUSH2 0x4C90 PUSH2 0x4C8B DUP3 PUSH2 0x4C48 JUMP JUMPDEST PUSH2 0x4C18 JUMP JUMPDEST DUP2 DUP2 MSTORE DUP5 PUSH1 0x20 DUP4 DUP7 ADD ADD GT ISZERO PUSH2 0x4CA4 JUMPI PUSH0 DUP1 REVERT JUMPDEST DUP2 PUSH1 0x20 DUP6 ADD PUSH1 0x20 DUP4 ADD CALLDATACOPY PUSH0 SWAP2 DUP2 ADD PUSH1 0x20 ADD SWAP2 SWAP1 SWAP2 MSTORE SWAP4 SWAP3 POP POP POP JUMP JUMPDEST PUSH0 PUSH1 0x1 PUSH1 0x1 PUSH1 0x40 SHL SUB DUP3 GT ISZERO PUSH2 0x4CD8 JUMPI PUSH2 0x4CD8 PUSH2 0x4B96 JUMP JUMPDEST POP PUSH1 0x5 SHL PUSH1 0x20 ADD SWAP1 JUMP JUMPDEST PUSH0 DUP1 PUSH0 DUP1 PUSH0 PUSH1 0xA0 DUP7 DUP9 SUB SLT ISZERO PUSH2 0x4CF6 JUMPI PUSH0 DUP1 REVERT JUMPDEST DUP6 CALLDATALOAD PUSH1 0x1 PUSH1 0x1 PUSH1 0x40 SHL SUB DUP1 DUP3 GT ISZERO PUSH2 0x4D0C JUMPI PUSH0 DUP1 REVERT JUMPDEST PUSH2 0x4D18 DUP10 DUP4 DUP11 ADD PUSH2 0x4C6E JUMP JUMPDEST SWAP7 POP PUSH1 0x20 SWAP2 POP DUP2 DUP9 ADD CALLDATALOAD DUP2 DUP2 GT ISZERO PUSH2 0x4D2E JUMPI PUSH0 DUP1 REVERT JUMPDEST DUP9 ADD PUSH1 0x1F DUP2 ADD DUP11 SGT PUSH2 0x4D3E JUMPI PUSH0 DUP1 REVERT JUMPDEST DUP1 CALLDATALOAD PUSH2 0x4D4C PUSH2 0x4C8B DUP3 PUSH2 0x4CC0 JUMP JUMPDEST DUP2 DUP2 MSTORE PUSH1 0x5 SWAP2 SWAP1 SWAP2 SHL DUP3 ADD DUP5 ADD SWAP1 DUP5 DUP2 ADD SWAP1 DUP13 DUP4 GT ISZERO PUSH2 0x4D6A JUMPI PUSH0 DUP1 REVERT JUMPDEST DUP6 DUP5 ADD JUMPDEST DUP4 DUP2 LT ISZERO PUSH2 0x4DA1 JUMPI DUP1 CALLDATALOAD DUP7 DUP2 GT ISZERO PUSH2 0x4D85 JUMPI PUSH0 DUP1 DUP2 REVERT JUMPDEST PUSH2 0x4D93 DUP16 DUP10 DUP4 DUP10 ADD ADD PUSH2 0x4C6E JUMP JUMPDEST DUP5 MSTORE POP SWAP2 DUP7 ADD SWAP2 DUP7 ADD PUSH2 0x4D6E JUMP JUMPDEST POP SWAP9 POP POP POP POP PUSH1 0x40 DUP9 ADD CALLDATALOAD SWAP5 POP PUSH2 0x4AC1 SWAP2 POP POP PUSH1 0x60 DUP8 ADD PUSH2 0x4847 JUMP JUMPDEST PUSH0 PUSH1 0x20 DUP3 DUP5 SUB SLT ISZERO PUSH2 0x4DCD JUMPI PUSH0 DUP1 REVERT JUMPDEST POP CALLDATALOAD SWAP2 SWAP1 POP JUMP JUMPDEST PUSH0 DUP1 PUSH0 PUSH1 0x60 DUP5 DUP7 SUB SLT ISZERO PUSH2 0x4DE6 JUMPI PUSH0 DUP1 REVERT JUMPDEST DUP4 CALLDATALOAD PUSH2 0x4DF1 DUP2 PUSH2 0x4838 JUMP JUMPDEST SWAP3 POP PUSH1 0x20 DUP5 ADD CALLDATALOAD PUSH1 0x1 PUSH1 0x1 PUSH1 0x40 SHL SUB DUP2 GT ISZERO PUSH2 0x4E0B JUMPI PUSH0 DUP1 REVERT JUMPDEST PUSH2 0x4E17 DUP7 DUP3 DUP8 ADD PUSH2 0x4C6E JUMP JUMPDEST SWAP3 POP POP PUSH1 0x40 DUP5 ADD CALLDATALOAD PUSH2 0x4B0F DUP2 PUSH2 0x489B JUMP JUMPDEST PUSH0 DUP1 PUSH0 PUSH1 0x60 DUP5 DUP7 SUB SLT ISZERO PUSH2 0x4E3A JUMPI PUSH0 DUP1 REVERT JUMPDEST DUP4 CALLDATALOAD PUSH2 0x4E45 DUP2 PUSH2 0x493F JUMP JUMPDEST SWAP3 POP PUSH1 0x20 DUP5 ADD CALLDATALOAD SWAP2 POP PUSH1 0x40 DUP5 ADD CALLDATALOAD PUSH2 0x4B0F DUP2 PUSH2 0x4838 JUMP JUMPDEST PUSH0 PUSH1 0xC0 DUP3 DUP5 SUB SLT ISZERO PUSH2 0x4E6C JUMPI PUSH0 DUP1 REVERT JUMPDEST PUSH1 0x40 MLOAD PUSH1 0xC0 DUP2 ADD DUP2 DUP2 LT PUSH1 0x1 PUSH1 0x1 PUSH1 0x40 SHL SUB DUP3 GT OR ISZERO PUSH2 0x4E8E JUMPI PUSH2 0x4E8E PUSH2 0x4B96 JUMP JUMPDEST PUSH1 0x40 MSTORE DUP3 CALLDATALOAD PUSH2 0x4E9C DUP2 PUSH2 0x4838 JUMP JUMPDEST DUP2 MSTORE PUSH1 0x20 DUP4 ADD CALLDATALOAD PUSH2 0x4EAC DUP2 PUSH2 0x493F JUMP JUMPDEST PUSH1 0x20 DUP3 ADD MSTORE PUSH1 0x40 DUP4 DUP2 ADD CALLDATALOAD SWAP1 DUP3 ADD MSTORE PUSH1 0x60 DUP4 ADD CALLDATALOAD PUSH2 0x4EC9 DUP2 PUSH2 0x493F JUMP JUMPDEST PUSH1 0x60 DUP3 ADD MSTORE PUSH1 0x80 DUP4 DUP2 ADD CALLDATALOAD SWAP1 DUP3 ADD MSTORE PUSH1 0xA0 DUP4 ADD CALLDATALOAD PUSH2 0x4EE6 DUP2 PUSH2 0x493F JUMP JUMPDEST PUSH1 0xA0 DUP3 ADD MSTORE SWAP4 SWAP3 POP POP POP JUMP JUMPDEST PUSH0 DUP1 PUSH0 DUP1 PUSH0 PUSH1 0xA0 DUP7 DUP9 SUB SLT ISZERO PUSH2 0x4F06 JUMPI PUSH0 DUP1 REVERT JUMPDEST DUP6 CALLDATALOAD SWAP5 POP PUSH1 0x20 DUP7 ADD CALLDATALOAD SWAP4 POP PUSH1 0x40 DUP7 ADD CALLDATALOAD PUSH2 0x4F1F DUP2 PUSH2 0x4A6E JUMP JUMPDEST SWAP5 SWAP8 SWAP4 SWAP7 POP SWAP4 SWAP5 PUSH1 0x60 DUP2 ADD CALLDATALOAD SWAP5 POP PUSH1 0x80 ADD CALLDATALOAD SWAP3 SWAP2 POP POP JUMP JUMPDEST PUSH0 JUMPDEST DUP4 DUP2 LT ISZERO PUSH2 0x4F51 JUMPI DUP2 DUP2 ADD MLOAD DUP4 DUP3 ADD MSTORE PUSH1 0x20 ADD PUSH2 0x4F39 JUMP JUMPDEST POP POP PUSH0 SWAP2 ADD MSTORE JUMP JUMPDEST PUSH0 DUP2 MLOAD DUP1 DUP5 MSTORE PUSH2 0x4F70 DUP2 PUSH1 0x20 DUP7 ADD PUSH1 0x20 DUP7 ADD PUSH2 0x4F37 JUMP JUMPDEST PUSH1 0x1F ADD PUSH1 0x1F NOT AND SWAP3 SWAP1 SWAP3 ADD PUSH1 0x20 ADD SWAP3 SWAP2 POP POP JUMP JUMPDEST PUSH1 0x20 DUP2 MSTORE PUSH0 PUSH2 0x2465 PUSH1 0x20 DUP4 ADD DUP5 PUSH2 0x4F59 JUMP JUMPDEST PUSH0 DUP1 PUSH1 0x40 DUP4 DUP6 SUB SLT ISZERO PUSH2 0x4FA7 JUMPI PUSH0 DUP1 REVERT JUMPDEST DUP3 CALLDATALOAD PUSH2 0x4FB2 DUP2 PUSH2 0x4838 JUMP JUMPDEST SWAP2 POP PUSH1 0x20 DUP4 ADD CALLDATALOAD PUSH2 0x4998 DUP2 PUSH2 0x493F JUMP JUMPDEST PUSH0 PUSH1 0xE0 DUP3 DUP5 SUB SLT ISZERO PUSH2 0x4FD2 JUMPI PUSH0 DUP1 REVERT JUMPDEST PUSH1 0x40 MLOAD PUSH1 0xE0 DUP2 ADD DUP2 DUP2 LT PUSH1 0x1 PUSH1 0x1 PUSH1 0x40 SHL SUB DUP3 GT OR ISZERO PUSH2 0x4FF4 JUMPI PUSH2 0x4FF4 PUSH2 0x4B96 JUMP JUMPDEST PUSH1 0x40 MSTORE DUP3 CALLDATALOAD PUSH2 0x5002 DUP2 PUSH2 0x4838 JUMP JUMPDEST DUP2 MSTORE PUSH1 0x20 DUP4 ADD CALLDATALOAD PUSH2 0x5012 DUP2 PUSH2 0x493F JUMP JUMPDEST DUP1 PUSH1 0x20 DUP4 ADD MSTORE POP PUSH1 0x40 DUP4 ADD CALLDATALOAD PUSH1 0x40 DUP3 ADD MSTORE PUSH1 0x60 DUP4 ADD CALLDATALOAD PUSH1 0x60 DUP3 ADD MSTORE PUSH1 0x80 DUP4 ADD CALLDATALOAD PUSH2 0x503B DUP2 PUSH2 0x4A6E JUMP JUMPDEST PUSH1 0x80 DUP3 ADD MSTORE PUSH1 0xA0 DUP4 ADD CALLDATALOAD PUSH2 0x504E DUP2 PUSH2 0x493F JUMP JUMPDEST PUSH1 0xA0 DUP3 ADD MSTORE PUSH2 0x505F PUSH1 0xC0 DUP5 ADD PUSH2 0x4953 JUMP JUMPDEST PUSH1 0xC0 DUP3 ADD MSTORE SWAP4 SWAP3 POP POP POP JUMP JUMPDEST PUSH0 DUP1 PUSH1 0x40 DUP4 DUP6 SUB SLT ISZERO PUSH2 0x507C JUMPI PUSH0 DUP1 REVERT JUMPDEST DUP3 CALLDATALOAD PUSH2 0x4B86 DUP2 PUSH2 0x4838 JUMP JUMPDEST PUSH0 PUSH1 0x20 DUP3 DUP5 SUB SLT ISZERO PUSH2 0x5097 JUMPI PUSH0 DUP1 REVERT JUMPDEST DUP2 CALLDATALOAD PUSH2 0x2465 DUP2 PUSH2 0x493F JUMP JUMPDEST PUSH0 DUP1 PUSH0 DUP1 PUSH0 PUSH1 0x80 DUP7 DUP9 SUB SLT ISZERO PUSH2 0x50B6 JUMPI PUSH0 DUP1 REVERT JUMPDEST DUP6 CALLDATALOAD PUSH2 0x50C1 DUP2 PUSH2 0x4838 JUMP JUMPDEST SWAP5 POP PUSH1 0x20 DUP7 ADD CALLDATALOAD PUSH2 0x50D1 DUP2 PUSH2 0x4838 JUMP JUMPDEST SWAP4 POP PUSH1 0x40 DUP7 ADD CALLDATALOAD SWAP3 POP PUSH1 0x60 DUP7 ADD CALLDATALOAD PUSH1 0x1 PUSH1 0x1 PUSH1 0x40 SHL SUB DUP2 GT ISZERO PUSH2 0x50F2 JUMPI PUSH0 DUP1 REVERT JUMPDEST PUSH2 0x50FE DUP9 DUP3 DUP10 ADD PUSH2 0x4857 JUMP JUMPDEST SWAP7 SWAP10 SWAP6 SWAP9 POP SWAP4 SWAP7 POP SWAP3 SWAP5 SWAP4 SWAP3 POP POP POP JUMP JUMPDEST PUSH0 DUP1 PUSH0 DUP1 PUSH1 0x80 DUP6 DUP8 SUB SLT ISZERO PUSH2 0x5122 JUMPI PUSH0 DUP1 REVERT JUMPDEST DUP5 CALLDATALOAD PUSH2 0x512D DUP2 PUSH2 0x493F JUMP JUMPDEST SWAP4 POP PUSH1 0x20 DUP6 ADD CALLDATALOAD SWAP3 POP PUSH1 0x40 DUP6 ADD CALLDATALOAD PUSH2 0x5144 DUP2 PUSH2 0x4838 JUMP JUMPDEST SWAP2 POP PUSH1 0x60 DUP6 ADD CALLDATALOAD PUSH2 0x5154 DUP2 PUSH2 0x4A6E JUMP JUMPDEST SWAP4 SWAP7 SWAP3 SWAP6 POP SWAP1 SWAP4 POP POP JUMP JUMPDEST DUP1 MLOAD PUSH2 0xFFFF SWAP1 DUP2 AND DUP4 MSTORE PUSH1 0x20 DUP1 DUP4 ADD MLOAD SWAP1 SWAP2 AND SWAP1 DUP4 ADD MSTORE PUSH1 0x40 DUP1 DUP3 ADD MLOAD SWAP1 DUP4 ADD MSTORE PUSH1 0x60 DUP1 DUP3 ADD MLOAD PUSH1 0x1 PUSH1 0x1 PUSH1 0xA0 SHL SUB AND SWAP1 DUP4 ADD MSTORE PUSH1 0x80 DUP1 DUP3 ADD MLOAD SWAP1 DUP4 ADD MSTORE PUSH1 0xA0 SWAP1 DUP2 ADD MLOAD ISZERO ISZERO SWAP2 ADD MSTORE JUMP JUMPDEST PUSH1 0xC0 DUP2 ADD PUSH2 0x11A6 DUP3 DUP5 PUSH2 0x515F JUMP JUMPDEST PUSH0 DUP1 PUSH0 PUSH1 0x60 DUP5 DUP7 SUB SLT ISZERO PUSH2 0x51CA JUMPI PUSH0 DUP1 REVERT JUMPDEST DUP4 CALLDATALOAD PUSH2 0x51D5 DUP2 PUSH2 0x4838 JUMP JUMPDEST SWAP3 POP PUSH1 0x20 DUP5 ADD CALLDATALOAD PUSH2 0x51E5 DUP2 PUSH2 0x4838 JUMP JUMPDEST SWAP3 SWAP6 SWAP3 SWAP5 POP POP POP PUSH1 0x40 SWAP2 SWAP1 SWAP2 ADD CALLDATALOAD SWAP1 JUMP JUMPDEST PUSH0 DUP1 PUSH0 PUSH1 0x60 DUP5 DUP7 SUB SLT ISZERO PUSH2 0x5208 JUMPI PUSH0 DUP1 REVERT JUMPDEST DUP4 CALLDATALOAD PUSH2 0x5213 DUP2 PUSH2 0x493F JUMP JUMPDEST SWAP3 POP PUSH1 0x20 DUP5 ADD CALLDATALOAD PUSH2 0x5223 DUP2 PUSH2 0x493F JUMP JUMPDEST SWAP2 POP PUSH1 0x40 DUP5 ADD CALLDATALOAD PUSH2 0x4B0F DUP2 PUSH2 0x493F JUMP JUMPDEST DUP4 ISZERO ISZERO DUP2 MSTORE PUSH2 0x1C0 DUP2 ADD PUSH2 0x524A PUSH1 0x20 DUP4 ADD DUP6 PUSH2 0x515F JUMP JUMPDEST PUSH2 0x2BAF PUSH1 0xE0 DUP4 ADD DUP5 PUSH2 0x4A04 JUMP JUMPDEST PUSH0 DUP1 PUSH0 DUP1 PUSH1 0x80 DUP6 DUP8 SUB SLT ISZERO PUSH2 0x526A JUMPI PUSH0 DUP1 REVERT JUMPDEST DUP5 CALLDATALOAD PUSH2 0x5275 DUP2 PUSH2 0x4838 JUMP JUMPDEST SWAP4 POP PUSH1 0x20 DUP6 ADD CALLDATALOAD PUSH2 0x5285 DUP2 PUSH2 0x4838 JUMP JUMPDEST SWAP3 POP PUSH1 0x40 DUP6 ADD CALLDATALOAD PUSH2 0x5295 DUP2 PUSH2 0x493F JUMP JUMPDEST SWAP4 SWAP7 SWAP3 SWAP6 POP SWAP3 SWAP4 PUSH1 0x60 ADD CALLDATALOAD SWAP3 POP POP JUMP JUMPDEST PUSH1 0x1 DUP2 DUP2 SHR SWAP1 DUP3 AND DUP1 PUSH2 0x52B9 JUMPI PUSH1 0x7F DUP3 AND SWAP2 POP JUMPDEST PUSH1 0x20 DUP3 LT DUP2 SUB PUSH2 0x52D7 JUMPI PUSH4 0x4E487B71 PUSH1 0xE0 SHL PUSH0 MSTORE PUSH1 0x22 PUSH1 0x4 MSTORE PUSH1 0x24 PUSH0 REVERT JUMPDEST POP SWAP2 SWAP1 POP JUMP JUMPDEST DUP2 DUP4 DUP3 CALLDATACOPY PUSH0 SWAP2 ADD SWAP1 DUP2 MSTORE SWAP2 SWAP1 POP JUMP JUMPDEST PUSH4 0x4E487B71 PUSH1 0xE0 SHL PUSH0 MSTORE PUSH1 0x11 PUSH1 0x4 MSTORE PUSH1 0x24 PUSH0 REVERT JUMPDEST DUP1 DUP3 ADD DUP1 DUP3 GT ISZERO PUSH2 0x11A6 JUMPI PUSH2 0x11A6 PUSH2 0x52EC JUMP JUMPDEST DUP2 DUP4 MSTORE DUP2 DUP2 PUSH1 0x20 DUP6 ADD CALLDATACOPY POP PUSH0 DUP3 DUP3 ADD PUSH1 0x20 SWAP1 DUP2 ADD SWAP2 SWAP1 SWAP2 MSTORE PUSH1 0x1F SWAP1 SWAP2 ADD PUSH1 0x1F NOT AND SWAP1 SWAP2 ADD ADD SWAP1 JUMP JUMPDEST PUSH2 0xFFFF DUP5 AND DUP2 MSTORE PUSH1 0x40 PUSH1 0x20 DUP3 ADD MSTORE PUSH0 PUSH2 0x2D6A PUSH1 0x40 DUP4 ADD DUP5 DUP7 PUSH2 0x5313 JUMP JUMPDEST PUSH4 0x4E487B71 PUSH1 0xE0 SHL PUSH0 MSTORE PUSH1 0x32 PUSH1 0x4 MSTORE PUSH1 0x24 PUSH0 REVERT JUMPDEST DUP1 MLOAD PUSH2 0x4852 DUP2 PUSH2 0x495E JUMP JUMPDEST DUP1 MLOAD PUSH4 0xFFFFFFFF DUP2 AND DUP2 EQ PUSH2 0x4852 JUMPI PUSH0 DUP1 REVERT JUMPDEST DUP1 MLOAD PUSH2 0x4852 DUP2 PUSH2 0x4838 JUMP JUMPDEST DUP1 MLOAD PUSH2 0x4852 DUP2 PUSH2 0x489B JUMP JUMPDEST PUSH0 DUP3 PUSH1 0x1F DUP4 ADD SLT PUSH2 0x53AF JUMPI PUSH0 DUP1 REVERT JUMPDEST DUP2 MLOAD PUSH2 0x53BD PUSH2 0x4C8B DUP3 PUSH2 0x4C48 JUMP JUMPDEST DUP2 DUP2 MSTORE DUP5 PUSH1 0x20 DUP4 DUP7 ADD ADD GT ISZERO PUSH2 0x53D1 JUMPI PUSH0 DUP1 REVERT JUMPDEST PUSH2 0x2BAF DUP3 PUSH1 0x20 DUP4 ADD PUSH1 0x20 DUP8 ADD PUSH2 0x4F37 JUMP JUMPDEST PUSH0 DUP3 PUSH1 0x1F DUP4 ADD SLT PUSH2 0x53F1 JUMPI PUSH0 DUP1 REVERT JUMPDEST DUP2 MLOAD PUSH1 0x20 PUSH2 0x5401 PUSH2 0x4C8B DUP4 PUSH2 0x4CC0 JUMP JUMPDEST DUP3 DUP2 MSTORE PUSH1 0x7 SWAP3 SWAP1 SWAP3 SHL DUP5 ADD DUP2 ADD SWAP2 DUP2 DUP2 ADD SWAP1 DUP7 DUP5 GT ISZERO PUSH2 0x541F JUMPI PUSH0 DUP1 REVERT JUMPDEST DUP3 DUP7 ADD JUMPDEST DUP5 DUP2 LT ISZERO PUSH2 0x5483 JUMPI PUSH1 0x80 DUP2 DUP10 SUB SLT ISZERO PUSH2 0x543B JUMPI PUSH0 DUP1 DUP2 REVERT JUMPDEST PUSH2 0x5443 PUSH2 0x4BAA JUMP JUMPDEST DUP2 MLOAD DUP2 MSTORE DUP5 DUP3 ADD MLOAD DUP6 DUP3 ADD MSTORE PUSH1 0x40 DUP1 DUP4 ADD MLOAD PUSH2 0x545E DUP2 PUSH2 0x495E JUMP JUMPDEST SWAP1 DUP3 ADD MSTORE PUSH1 0x60 DUP3 DUP2 ADD MLOAD PUSH2 0x5471 DUP2 PUSH2 0x495E JUMP JUMPDEST SWAP1 DUP3 ADD MSTORE DUP4 MSTORE SWAP2 DUP4 ADD SWAP2 PUSH1 0x80 ADD PUSH2 0x5423 JUMP JUMPDEST POP SWAP7 SWAP6 POP POP POP POP POP POP JUMP JUMPDEST PUSH0 PUSH1 0x20 DUP3 DUP5 SUB SLT ISZERO PUSH2 0x549E JUMPI PUSH0 DUP1 REVERT JUMPDEST DUP2 MLOAD PUSH1 0x1 PUSH1 0x1 PUSH1 0x40 SHL SUB DUP1 DUP3 GT ISZERO PUSH2 0x54B4 JUMPI PUSH0 DUP1 REVERT JUMPDEST SWAP1 DUP4 ADD SWAP1 PUSH2 0x160 DUP3 DUP7 SUB SLT ISZERO PUSH2 0x54C8 JUMPI PUSH0 DUP1 REVERT JUMPDEST PUSH2 0x54D0 PUSH2 0x4BD2 JUMP JUMPDEST PUSH2 0x54D9 DUP4 PUSH2 0x536C JUMP JUMPDEST DUP2 MSTORE PUSH2 0x54E7 PUSH1 0x20 DUP5 ADD PUSH2 0x5377 JUMP JUMPDEST PUSH1 0x20 DUP3 ADD MSTORE PUSH2 0x54F8 PUSH1 0x40 DUP5 ADD PUSH2 0x5377 JUMP JUMPDEST PUSH1 0x40 DUP3 ADD MSTORE PUSH2 0x5509 PUSH1 0x60 DUP5 ADD PUSH2 0x538A JUMP JUMPDEST PUSH1 0x60 DUP3 ADD MSTORE PUSH1 0x80 DUP4 ADD MLOAD PUSH1 0x80 DUP3 ADD MSTORE PUSH2 0x5524 PUSH1 0xA0 DUP5 ADD PUSH2 0x5395 JUMP JUMPDEST PUSH1 0xA0 DUP3 ADD MSTORE PUSH2 0x5535 PUSH1 0xC0 DUP5 ADD PUSH2 0x536C JUMP JUMPDEST PUSH1 0xC0 DUP3 ADD MSTORE PUSH1 0xE0 DUP4 ADD MLOAD DUP3 DUP2 GT ISZERO PUSH2 0x554B JUMPI PUSH0 DUP1 REVERT JUMPDEST PUSH2 0x5557 DUP8 DUP3 DUP7 ADD PUSH2 0x53A0 JUMP JUMPDEST PUSH1 0xE0 DUP4 ADD MSTORE POP PUSH2 0x100 PUSH2 0x556B DUP2 DUP6 ADD PUSH2 0x5377 JUMP JUMPDEST SWAP1 DUP3 ADD MSTORE PUSH2 0x120 DUP4 DUP2 ADD MLOAD DUP4 DUP2 GT ISZERO PUSH2 0x5582 JUMPI PUSH0 DUP1 REVERT JUMPDEST PUSH2 0x558E DUP9 DUP3 DUP8 ADD PUSH2 0x53E2 JUMP JUMPDEST SWAP2 DUP4 ADD SWAP2 SWAP1 SWAP2 MSTORE POP PUSH2 0x140 SWAP3 DUP4 ADD MLOAD SWAP3 DUP2 ADD SWAP3 SWAP1 SWAP3 MSTORE POP SWAP4 SWAP3 POP POP POP JUMP JUMPDEST PUSH0 PUSH1 0x20 DUP3 DUP5 SUB SLT ISZERO PUSH2 0x55BC JUMPI PUSH0 DUP1 REVERT JUMPDEST POP MLOAD SWAP2 SWAP1 POP JUMP JUMPDEST PUSH0 PUSH1 0x20 DUP3 DUP5 SUB SLT ISZERO PUSH2 0x55D3 JUMPI PUSH0 DUP1 REVERT JUMPDEST DUP2 MLOAD PUSH1 0x1 PUSH1 0x1 PUSH1 0x40 SHL SUB DUP1 DUP3 GT ISZERO PUSH2 0x55E9 JUMPI PUSH0 DUP1 REVERT JUMPDEST SWAP1 DUP4 ADD SWAP1 PUSH2 0x100 DUP3 DUP7 SUB SLT ISZERO PUSH2 0x55FD JUMPI PUSH0 DUP1 REVERT JUMPDEST PUSH2 0x5605 PUSH2 0x4BF5 JUMP JUMPDEST PUSH2 0x560E DUP4 PUSH2 0x536C JUMP JUMPDEST DUP2 MSTORE PUSH1 0x20 DUP4 ADD MLOAD PUSH1 0x20 DUP3 ADD MSTORE PUSH1 0x40 DUP4 ADD MLOAD PUSH1 0x40 DUP3 ADD MSTORE PUSH2 0x5630 PUSH1 0x60 DUP5 ADD PUSH2 0x538A JUMP JUMPDEST PUSH1 0x60 DUP3 ADD MSTORE PUSH1 0x80 DUP4 ADD MLOAD PUSH1 0x80 DUP3 ADD MSTORE PUSH2 0x564B PUSH1 0xA0 DUP5 ADD PUSH2 0x538A JUMP JUMPDEST PUSH1 0xA0 DUP3 ADD MSTORE PUSH1 0xC0 DUP4 ADD MLOAD PUSH1 0xC0 DUP3 ADD MSTORE PUSH1 0xE0 DUP4 ADD MLOAD DUP3 DUP2 GT ISZERO PUSH2 0x566B JUMPI PUSH0 DUP1 REVERT JUMPDEST PUSH2 0x5677 DUP8 DUP3 DUP7 ADD PUSH2 0x53A0 JUMP JUMPDEST PUSH1 0xE0 DUP4 ADD MSTORE POP SWAP6 SWAP5 POP POP POP POP POP JUMP JUMPDEST PUSH0 PUSH1 0x20 DUP3 DUP5 SUB SLT ISZERO PUSH2 0x5696 JUMPI PUSH0 DUP1 REVERT JUMPDEST DUP2 MLOAD PUSH2 0x2465 DUP2 PUSH2 0x4838 JUMP JUMPDEST PUSH0 PUSH1 0x20 DUP3 DUP5 SUB SLT ISZERO PUSH2 0x56B1 JUMPI PUSH0 DUP1 REVERT JUMPDEST DUP2 MLOAD PUSH1 0x1 PUSH1 0x1 PUSH1 0x40 SHL SUB DUP2 GT ISZERO PUSH2 0x56C6 JUMPI PUSH0 DUP1 REVERT JUMPDEST PUSH2 0x2BAF DUP5 DUP3 DUP6 ADD PUSH2 0x53A0 JUMP JUMPDEST PUSH1 0xFF DUP3 DUP2 AND DUP3 DUP3 AND SUB SWAP1 DUP2 GT ISZERO PUSH2 0x11A6 JUMPI PUSH2 0x11A6 PUSH2 0x52EC JUMP JUMPDEST PUSH1 0x1 DUP2 DUP2 JUMPDEST DUP1 DUP6 GT ISZERO PUSH2 0x5725 JUMPI DUP2 PUSH0 NOT DIV DUP3 GT ISZERO PUSH2 0x570B JUMPI PUSH2 0x570B PUSH2 0x52EC JUMP JUMPDEST DUP1 DUP6 AND ISZERO PUSH2 0x5718 JUMPI SWAP2 DUP2 MUL SWAP2 JUMPDEST SWAP4 DUP5 SHR SWAP4 SWAP1 DUP1 MUL SWAP1 PUSH2 0x56F0 JUMP JUMPDEST POP SWAP3 POP SWAP3 SWAP1 POP JUMP JUMPDEST PUSH0 DUP3 PUSH2 0x573B JUMPI POP PUSH1 0x1 PUSH2 0x11A6 JUMP JUMPDEST DUP2 PUSH2 0x5747 JUMPI POP PUSH0 PUSH2 0x11A6 JUMP JUMPDEST DUP2 PUSH1 0x1 DUP2 EQ PUSH2 0x575D JUMPI PUSH1 0x2 DUP2 EQ PUSH2 0x5767 JUMPI PUSH2 0x5783 JUMP JUMPDEST PUSH1 0x1 SWAP2 POP POP PUSH2 0x11A6 JUMP JUMPDEST PUSH1 0xFF DUP5 GT ISZERO PUSH2 0x5778 JUMPI PUSH2 0x5778 PUSH2 0x52EC JUMP JUMPDEST POP POP PUSH1 0x1 DUP3 SHL PUSH2 0x11A6 JUMP JUMPDEST POP PUSH1 0x20 DUP4 LT PUSH2 0x133 DUP4 LT AND PUSH1 0x4E DUP5 LT PUSH1 0xB DUP5 LT AND OR ISZERO PUSH2 0x57A6 JUMPI POP DUP2 DUP2 EXP PUSH2 0x11A6 JUMP JUMPDEST PUSH2 0x57B0 DUP4 DUP4 PUSH2 0x56EB JUMP JUMPDEST DUP1 PUSH0 NOT DIV DUP3 GT ISZERO PUSH2 0x57C3 JUMPI PUSH2 0x57C3 PUSH2 0x52EC JUMP JUMPDEST MUL SWAP4 SWAP3 POP POP POP JUMP JUMPDEST PUSH0 PUSH2 0x2465 PUSH1 0xFF DUP5 AND DUP4 PUSH2 0x572D JUMP JUMPDEST DUP1 DUP3 MUL DUP2 ISZERO DUP3 DUP3 DIV DUP5 EQ OR PUSH2 0x11A6 JUMPI PUSH2 0x11A6 PUSH2 0x52EC JUMP JUMPDEST PUSH0 PUSH1 0x1 DUP3 ADD PUSH2 0x5801 JUMPI PUSH2 0x5801 PUSH2 0x52EC JUMP JUMPDEST POP PUSH1 0x1 ADD SWAP1 JUMP JUMPDEST DUP2 DUP2 SUB DUP2 DUP2 GT ISZERO PUSH2 0x11A6 JUMPI PUSH2 0x11A6 PUSH2 0x52EC JUMP JUMPDEST PUSH0 PUSH1 0x20 DUP3 DUP5 SUB SLT ISZERO PUSH2 0x582B JUMPI PUSH0 DUP1 REVERT JUMPDEST DUP2 MLOAD PUSH2 0x2465 DUP2 PUSH2 0x4A6E JUMP JUMPDEST PUSH4 0x4E487B71 PUSH1 0xE0 SHL PUSH0 MSTORE PUSH1 0x12 PUSH1 0x4 MSTORE PUSH1 0x24 PUSH0 REVERT JUMPDEST PUSH0 DUP3 PUSH2 0x5858 JUMPI PUSH2 0x5858 PUSH2 0x5836 JUMP JUMPDEST POP DIV SWAP1 JUMP JUMPDEST PUSH0 PUSH1 0xFF DUP4 AND DUP1 PUSH2 0x586F JUMPI PUSH2 0x586F PUSH2 0x5836 JUMP JUMPDEST DUP1 PUSH1 0xFF DUP5 AND DIV SWAP2 POP POP SWAP3 SWAP2 POP POP JUMP JUMPDEST PUSH1 0x1F DUP3 GT ISZERO PUSH2 0x23F1 JUMPI PUSH0 DUP2 DUP2 MSTORE PUSH1 0x20 DUP2 KECCAK256 PUSH1 0x1F DUP6 ADD PUSH1 0x5 SHR DUP2 ADD PUSH1 0x20 DUP7 LT ISZERO PUSH2 0x58A4 JUMPI POP DUP1 JUMPDEST PUSH1 0x1F DUP6 ADD PUSH1 0x5 SHR DUP3 ADD SWAP2 POP JUMPDEST DUP2 DUP2 LT ISZERO PUSH2 0x17E7 JUMPI DUP3 DUP2 SSTORE PUSH1 0x1 ADD PUSH2 0x58B0 JUMP JUMPDEST DUP2 MLOAD PUSH1 0x1 PUSH1 0x1 PUSH1 0x40 SHL SUB DUP2 GT ISZERO PUSH2 0x58DC JUMPI PUSH2 0x58DC PUSH2 0x4B96 JUMP JUMPDEST PUSH2 0x58F0 DUP2 PUSH2 0x58EA DUP5 SLOAD PUSH2 0x52A5 JUMP JUMPDEST DUP5 PUSH2 0x587E JUMP JUMPDEST PUSH1 0x20 DUP1 PUSH1 0x1F DUP4 GT PUSH1 0x1 DUP2 EQ PUSH2 0x5923 JUMPI PUSH0 DUP5 ISZERO PUSH2 0x590C JUMPI POP DUP6 DUP4 ADD MLOAD JUMPDEST PUSH0 NOT PUSH1 0x3 DUP7 SWAP1 SHL SHR NOT AND PUSH1 0x1 DUP6 SWAP1 SHL OR DUP6 SSTORE PUSH2 0x17E7 JUMP JUMPDEST PUSH0 DUP6 DUP2 MSTORE PUSH1 0x20 DUP2 KECCAK256 PUSH1 0x1F NOT DUP7 AND SWAP2 JUMPDEST DUP3 DUP2 LT ISZERO PUSH2 0x5951 JUMPI DUP9 DUP7 ADD MLOAD DUP3 SSTORE SWAP5 DUP5 ADD SWAP5 PUSH1 0x1 SWAP1 SWAP2 ADD SWAP1 DUP5 ADD PUSH2 0x5932 JUMP JUMPDEST POP DUP6 DUP3 LT ISZERO PUSH2 0x596E JUMPI DUP8 DUP6 ADD MLOAD PUSH0 NOT PUSH1 0x3 DUP9 SWAP1 SHL PUSH1 0xF8 AND SHR NOT AND DUP2 SSTORE JUMPDEST POP POP POP POP POP PUSH1 0x1 SWAP1 DUP2 SHL ADD SWAP1 SSTORE POP JUMP JUMPDEST DUP3 DUP5 DUP3 CALLDATACOPY PUSH1 0x60 SWAP2 SWAP1 SWAP2 SHL PUSH1 0x1 PUSH1 0x1 PUSH1 0x60 SHL SUB NOT AND SWAP2 ADD SWAP1 DUP2 MSTORE PUSH1 0x14 ADD SWAP2 SWAP1 POP JUMP JUMPDEST PUSH0 PUSH2 0xFFFF DUP1 DUP9 AND DUP4 MSTORE DUP1 DUP8 AND PUSH1 0x20 DUP5 ADD MSTORE POP DUP5 PUSH1 0x40 DUP4 ADD MSTORE PUSH1 0x80 PUSH1 0x60 DUP4 ADD MSTORE PUSH2 0x11CC PUSH1 0x80 DUP4 ADD DUP5 DUP7 PUSH2 0x5313 JUMP JUMPDEST PUSH2 0xFFFF DUP7 AND DUP2 MSTORE PUSH1 0x80 PUSH1 0x20 DUP3 ADD MSTORE PUSH0 PUSH2 0x59E9 PUSH1 0x80 DUP4 ADD DUP7 DUP9 PUSH2 0x5313 JUMP JUMPDEST PUSH1 0x1 PUSH1 0x1 PUSH1 0x40 SHL SUB SWAP5 SWAP1 SWAP5 AND PUSH1 0x40 DUP4 ADD MSTORE POP PUSH1 0x60 ADD MSTORE SWAP4 SWAP3 POP POP POP JUMP JUMPDEST PUSH1 0x1 PUSH1 0x1 PUSH1 0x40 SHL SUB DUP4 GT ISZERO PUSH2 0x5A1D JUMPI PUSH2 0x5A1D PUSH2 0x4B96 JUMP JUMPDEST PUSH2 0x5A31 DUP4 PUSH2 0x5A2B DUP4 SLOAD PUSH2 0x52A5 JUMP JUMPDEST DUP4 PUSH2 0x587E JUMP JUMPDEST PUSH0 PUSH1 0x1F DUP5 GT PUSH1 0x1 DUP2 EQ PUSH2 0x5A62 JUMPI PUSH0 DUP6 ISZERO PUSH2 0x5A4B JUMPI POP DUP4 DUP3 ADD CALLDATALOAD JUMPDEST PUSH0 NOT PUSH1 0x3 DUP8 SWAP1 SHL SHR NOT AND PUSH1 0x1 DUP7 SWAP1 SHL OR DUP4 SSTORE PUSH2 0x1067 JUMP JUMPDEST PUSH0 DUP4 DUP2 MSTORE PUSH1 0x20 SWAP1 KECCAK256 PUSH1 0x1F NOT DUP7 AND SWAP1 DUP4 JUMPDEST DUP3 DUP2 LT ISZERO PUSH2 0x5A92 JUMPI DUP7 DUP6 ADD CALLDATALOAD DUP3 SSTORE PUSH1 0x20 SWAP5 DUP6 ADD SWAP5 PUSH1 0x1 SWAP1 SWAP3 ADD SWAP2 ADD PUSH2 0x5A72 JUMP JUMPDEST POP DUP7 DUP3 LT ISZERO PUSH2 0x5AAE JUMPI PUSH0 NOT PUSH1 0xF8 DUP9 PUSH1 0x3 SHL AND SHR NOT DUP5 DUP8 ADD CALLDATALOAD AND DUP2 SSTORE JUMPDEST POP POP PUSH1 0x1 DUP6 PUSH1 0x1 SHL ADD DUP4 SSTORE POP POP POP POP POP JUMP JUMPDEST PUSH2 0xFFFF DUP6 AND DUP2 MSTORE PUSH1 0x80 PUSH1 0x20 DUP3 ADD MSTORE PUSH0 PUSH2 0x5ADC PUSH1 0x80 DUP4 ADD DUP7 PUSH2 0x4F59 JUMP JUMPDEST PUSH1 0x1 PUSH1 0x1 PUSH1 0x40 SHL SUB DUP6 AND PUSH1 0x40 DUP5 ADD MSTORE DUP3 DUP2 SUB PUSH1 0x60 DUP5 ADD MSTORE PUSH2 0x11CC DUP2 DUP6 PUSH2 0x4F59 JUMP JUMPDEST PUSH1 0xF0 SWAP5 SWAP1 SWAP5 SHL PUSH1 0x1 PUSH1 0x1 PUSH1 0xF0 SHL SUB NOT AND DUP5 MSTORE PUSH1 0x2 DUP5 ADD SWAP3 SWAP1 SWAP3 MSTORE PUSH1 0x22 DUP4 ADD MSTORE PUSH1 0x60 SHL PUSH1 0x1 PUSH1 0x1 PUSH1 0x60 SHL SUB NOT AND PUSH1 0x42 DUP3 ADD MSTORE PUSH1 0x56 ADD SWAP1 JUMP JUMPDEST PUSH2 0xFFFF DUP7 AND DUP2 MSTORE PUSH1 0x1 PUSH1 0x1 PUSH1 0xA0 SHL SUB DUP6 AND PUSH1 0x20 DUP3 ADD MSTORE PUSH1 0xA0 PUSH1 0x40 DUP3 ADD DUP2 SWAP1 MSTORE PUSH0 SWAP1 PUSH2 0x5B61 SWAP1 DUP4 ADD DUP7 PUSH2 0x4F59 JUMP JUMPDEST DUP5 ISZERO ISZERO PUSH1 0x60 DUP5 ADD MSTORE DUP3 DUP2 SUB PUSH1 0x80 DUP5 ADD MSTORE PUSH2 0x5B7B DUP2 DUP6 PUSH2 0x4F59 JUMP JUMPDEST SWAP9 SWAP8 POP POP POP POP POP POP POP POP JUMP JUMPDEST PUSH0 DUP1 PUSH1 0x40 DUP4 DUP6 SUB SLT ISZERO PUSH2 0x5B98 JUMPI PUSH0 DUP1 REVERT JUMPDEST POP POP DUP1 MLOAD PUSH1 0x20 SWAP1 SWAP2 ADD MLOAD SWAP1 SWAP3 SWAP1 SWAP2 POP JUMP JUMPDEST PUSH0 PUSH1 0x20 DUP3 DUP5 SUB SLT ISZERO PUSH2 0x5BB9 JUMPI PUSH0 DUP1 REVERT JUMPDEST DUP2 MLOAD PUSH2 0x2465 DUP2 PUSH2 0x493F JUMP JUMPDEST PUSH0 DUP3 MLOAD PUSH2 0x5BD5 DUP2 DUP5 PUSH1 0x20 DUP8 ADD PUSH2 0x4F37 JUMP JUMPDEST SWAP2 SWAP1 SWAP2 ADD SWAP3 SWAP2 POP POP JUMP JUMPDEST PUSH0 PUSH1 0x20 DUP3 DUP5 SUB SLT ISZERO PUSH2 0x5BEF JUMPI PUSH0 DUP1 REVERT JUMPDEST DUP2 MLOAD PUSH2 0x2465 DUP2 PUSH2 0x495E JUMP JUMPDEST PUSH0 DUP1 PUSH1 0x40 DUP4 DUP6 SUB SLT ISZERO PUSH2 0x5C0B JUMPI PUSH0 DUP1 REVERT JUMPDEST DUP3 MLOAD PUSH2 0x5C16 DUP2 PUSH2 0x493F JUMP JUMPDEST PUSH1 0x20 SWAP4 SWAP1 SWAP4 ADD MLOAD SWAP3 SWAP5 SWAP3 SWAP4 POP POP POP JUMP JUMPDEST PUSH2 0xFFFF DUP7 AND DUP2 MSTORE PUSH1 0xA0 PUSH1 0x20 DUP3 ADD MSTORE PUSH0 PUSH2 0x5C42 PUSH1 0xA0 DUP4 ADD DUP8 PUSH2 0x4F59 JUMP JUMPDEST PUSH1 0x1 PUSH1 0x1 PUSH1 0x40 SHL SUB DUP7 AND PUSH1 0x40 DUP5 ADD MSTORE DUP3 DUP2 SUB PUSH1 0x60 DUP5 ADD MSTORE PUSH2 0x5C63 DUP2 DUP7 PUSH2 0x4F59 JUMP JUMPDEST SWAP1 POP DUP3 DUP2 SUB PUSH1 0x80 DUP5 ADD MSTORE PUSH2 0x5B7B DUP2 DUP6 PUSH2 0x4F59 JUMP JUMPDEST PUSH0 PUSH2 0x100 PUSH2 0xFFFF DUP1 DUP13 AND DUP5 MSTORE PUSH1 0x20 PUSH1 0x1 DUP1 PUSH1 0xA0 SHL SUB DUP13 AND DUP2 DUP7 ADD MSTORE PUSH1 0x40 DUP4 DUP2 DUP8 ADD MSTORE PUSH2 0x5CA5 DUP5 DUP8 ADD DUP14 PUSH2 0x4F59 JUMP JUMPDEST PUSH1 0x60 DUP8 DUP2 ADD DUP14 SWAP1 MSTORE PUSH1 0x80 DUP9 ADD DUP13 SWAP1 MSTORE DUP8 DUP3 SUB PUSH1 0xA0 DUP10 ADD MSTORE DUP11 MLOAD DUP1 DUP4 MSTORE DUP5 DUP13 ADD SWAP7 POP SWAP1 SWAP2 DUP5 ADD SWAP1 PUSH0 JUMPDEST DUP2 DUP2 LT ISZERO PUSH2 0x5D05 JUMPI DUP8 MLOAD DUP1 MLOAD DUP9 AND DUP5 MSTORE DUP7 DUP2 ADD MLOAD DUP8 DUP6 ADD MSTORE DUP6 ADD MLOAD PUSH1 0x1 PUSH1 0x1 PUSH1 0x40 SHL SUB AND DUP6 DUP5 ADD MSTORE SWAP7 DUP6 ADD SWAP7 SWAP2 DUP4 ADD SWAP2 PUSH1 0x1 ADD PUSH2 0x5CCD JUMP JUMPDEST POP POP PUSH2 0xFFFF DUP11 AND PUSH1 0xC0 DUP10 ADD MSTORE SWAP6 POP PUSH2 0x5D1E SWAP5 POP POP POP POP POP JUMP JUMPDEST PUSH1 0x1 PUSH1 0x1 PUSH1 0xA0 SHL SUB DUP4 AND PUSH1 0xE0 DUP4 ADD MSTORE PUSH2 0x41B5 JUMP JUMPDEST PUSH0 PUSH1 0x20 DUP3 DUP5 SUB SLT ISZERO PUSH2 0x5D42 JUMPI PUSH0 DUP1 REVERT JUMPDEST DUP2 MLOAD PUSH2 0x2465 DUP2 PUSH2 0x489B JUMP JUMPDEST PUSH2 0xFFFF DUP8 AND DUP2 MSTORE PUSH1 0xC0 PUSH1 0x20 DUP3 ADD MSTORE PUSH0 PUSH2 0x5D69 PUSH1 0xC0 DUP4 ADD DUP9 PUSH2 0x4F59 JUMP JUMPDEST DUP3 DUP2 SUB PUSH1 0x40 DUP5 ADD MSTORE PUSH2 0x5D7B DUP2 DUP9 PUSH2 0x4F59 JUMP JUMPDEST PUSH1 0x1 PUSH1 0x1 PUSH1 0xA0 SHL SUB DUP8 DUP2 AND PUSH1 0x60 DUP7 ADD MSTORE DUP7 AND PUSH1 0x80 DUP6 ADD MSTORE DUP4 DUP2 SUB PUSH1 0xA0 DUP6 ADD MSTORE SWAP1 POP PUSH2 0x41B5 DUP2 DUP6 PUSH2 0x4F59 JUMP JUMPDEST PUSH1 0x1 DUP1 PUSH1 0xA0 SHL SUB DUP8 AND DUP2 MSTORE DUP6 PUSH1 0x20 DUP3 ADD MSTORE PUSH2 0xFFFF DUP6 AND PUSH1 0x40 DUP3 ADD MSTORE DUP4 PUSH1 0x60 DUP3 ADD MSTORE PUSH4 0xFFFFFFFF DUP4 AND PUSH1 0x80 DUP3 ADD MSTORE PUSH1 0xC0 PUSH1 0xA0 DUP3 ADD MSTORE PUSH0 PUSH2 0x5B7B PUSH1 0xC0 DUP4 ADD DUP5 PUSH2 0x4F59 JUMP INVALID LOG2 PUSH5 0x6970667358 0x22 SLT KECCAK256 SHR 0xD8 0xA9 PUSH22 0x72447C829450D02A3D4AC97DB1535D5BC54269B42D5F 0xE 0xEA 0xF 0xD9 PREVRANDAO SWAP3 PUSH5 0x736F6C6343 STOP ADDMOD EQ STOP CALLER "
		},
		"gasEstimates": {
			"creation": {
				"codeDepositCost": "4818800",
				"executionCost": "infinite",
				"totalCost": "infinite"
			},
			"external": {
				"DEFAULT_PAYLOAD_SIZE_LIMIT()": "261",
				"LatestBridges(uint256)": "24684",
				"_distrustAddress(uint16)": "infinite",
				"_removeWormholeEndpoint(uint16,address)": "infinite",
				"_setWormholeEndpoint(uint16,address)": "infinite",
				"_set_States_(uint256,uint256,bool,uint256,uint256)": "115460",
				"_trustAddress(address,uint16)": "infinite",
				"bridgeErc20((uint16,address,uint256,address,uint256,address))": "infinite",
				"bridgeEth((uint16,address,uint256,uint256,bool,address,address))": "infinite",
				"failedMessages(uint16,bytes,uint64)": "infinite",
				"forceResumeReceive(uint16,bytes)": "infinite",
				"getAccruedFee(address)": "2640",
				"getConfig(uint16,uint16,address,uint256)": "infinite",
				"getErc20Cost(uint16,uint256)": "infinite",
				"getEthBridge(address,uint256,uint16,bool)": "infinite",
				"getEthCost(uint16,bool,uint256,address,uint256)": "infinite",
				"getStates()": "11215",
				"getTKNBridgeIn(address,bytes32)": "infinite",
				"getTKNBridgeOut(address,uint256,uint16)": "infinite",
				"getTKNDelivHash(address,uint256,uint16)": "infinite",
				"getTrustedRemoteAddress(uint16)": "infinite",
				"getUserData(address)": "11620",
				"getUserEthVol(address,uint16)": "infinite",
				"getUserTknVol(address,address,uint16)": "infinite",
				"initWorm(address,address,address)": "infinite",
				"isTrustedRemote(uint16,bytes)": "infinite",
				"lzEndpoint()": "infinite",
				"lzReceive(uint16,bytes,uint64,bytes)": "infinite",
				"minDstGasLookup(uint16,uint16)": "infinite",
				"nonblockingLzReceive(uint16,bytes,uint64,bytes)": "infinite",
				"owner()": "2399",
				"payloadSizeLimitLookup(uint16)": "2566",
				"precrime()": "2427",
				"receiveWormholeMessages(bytes,bytes[],bytes32,uint16,bytes32)": "infinite",
				"renounceOwnership()": "infinite",
				"retryMessage(uint16,bytes,uint64,bytes)": "infinite",
				"setConfig(uint16,uint16,uint256,bytes)": "infinite",
				"setGrayzoneAddr(address,uint8)": "infinite",
				"setMinDstGas(uint16,uint16,uint256)": "infinite",
				"setPayloadSizeLimit(uint16,uint256)": "24760",
				"setPrecrime(address)": "27848",
				"setReceiveVersion(uint16)": "infinite",
				"setRegisteredSender(uint16,bytes32)": "24734",
				"setSendVersion(uint16)": "infinite",
				"setTrustedRemote(uint16,bytes)": "infinite",
				"setTrustedRemoteAddress(uint16,bytes)": "infinite",
				"tBridgeIndex()": "2427",
				"tokenBridge()": "2425",
				"transferOwnership(address)": "infinite",
				"trustedRemoteLookup(uint16)": "infinite",
				"withdrawAccruedFee(address,uint256)": "infinite",
				"withdrawAccruedFeeEth(uint256)": "infinite",
				"withdrawFee(uint256)": "infinite",
				"wormhole()": "2403",
				"wormholeRelayer()": "2402"
			},
			"internal": {
				"_nonblockingLzReceive(uint16,bytes memory,uint64,bytes memory)": "infinite",
				"_processPartner(uint256)": "infinite",
				"_processRef(address,address)": "infinite",
				"receivePayloadAndTokens(bytes memory,struct Structs.TokenReceived memory[] memory,bytes32,uint16,bytes32,bytes memory[] memory)": "infinite"
			}
		},
		"methodIdentifiers": {
			"DEFAULT_PAYLOAD_SIZE_LIMIT()": "c4461834",
			"LatestBridges(uint256)": "e574ffb4",
			"_distrustAddress(uint16)": "4ca68b96",
			"_removeWormholeEndpoint(uint16,address)": "7e63e29d",
			"_setWormholeEndpoint(uint16,address)": "c8fbaf72",
			"_set_States_(uint256,uint256,bool,uint256,uint256)": "6f536504",
			"_trustAddress(address,uint16)": "9c6467c7",
			"bridgeErc20((uint16,address,uint256,address,uint256,address))": "6ab0db6a",
			"bridgeEth((uint16,address,uint256,uint256,bool,address,address))": "8b8e3d14",
			"failedMessages(uint16,bytes,uint64)": "5b8c41e6",
			"forceResumeReceive(uint16,bytes)": "42d65a8d",
			"getAccruedFee(address)": "c2455273",
			"getConfig(uint16,uint16,address,uint256)": "f5ecbdbc",
			"getErc20Cost(uint16,uint256)": "9cd4fd65",
			"getEthBridge(address,uint256,uint16,bool)": "dd6abadd",
			"getEthCost(uint16,bool,uint256,address,uint256)": "2beacf88",
			"getStates()": "d8ab8274",
			"getTKNBridgeIn(address,bytes32)": "242c38d7",
			"getTKNBridgeOut(address,uint256,uint16)": "db0f4de2",
			"getTKNDelivHash(address,uint256,uint16)": "69511ba4",
			"getTrustedRemoteAddress(uint16)": "9f38369a",
			"getUserData(address)": "ffc9896b",
			"getUserEthVol(address,uint16)": "52444592",
			"getUserTknVol(address,address,uint16)": "38aca11b",
			"initWorm(address,address,address)": "e0e10842",
			"isTrustedRemote(uint16,bytes)": "3d8b38f6",
			"lzEndpoint()": "b353aaa7",
			"lzReceive(uint16,bytes,uint64,bytes)": "001d3567",
			"minDstGasLookup(uint16,uint16)": "8cfd8f5c",
			"nonblockingLzReceive(uint16,bytes,uint64,bytes)": "66ad5c8a",
			"owner()": "8da5cb5b",
			"payloadSizeLimitLookup(uint16)": "3f1f4fa4",
			"precrime()": "950c8a74",
			"receiveWormholeMessages(bytes,bytes[],bytes32,uint16,bytes32)": "529dca32",
			"renounceOwnership()": "715018a6",
			"retryMessage(uint16,bytes,uint64,bytes)": "d1deba1f",
			"setConfig(uint16,uint16,uint256,bytes)": "cbed8b9c",
			"setGrayzoneAddr(address,uint8)": "01009b10",
			"setMinDstGas(uint16,uint16,uint256)": "df2a5b3b",
			"setPayloadSizeLimit(uint16,uint256)": "0df37483",
			"setPrecrime(address)": "baf3292d",
			"setReceiveVersion(uint16)": "10ddb137",
			"setRegisteredSender(uint16,bytes32)": "dd12d68b",
			"setSendVersion(uint16)": "07e0db17",
			"setTrustedRemote(uint16,bytes)": "eb8d72b7",
			"setTrustedRemoteAddress(uint16,bytes)": "a6c3d165",
			"tBridgeIndex()": "c9b5ab2b",
			"tokenBridge()": "c6328a46",
			"transferOwnership(address)": "f2fde38b",
			"trustedRemoteLookup(uint16)": "7533d788",
			"withdrawAccruedFee(address,uint256)": "8b8eb98f",
			"withdrawAccruedFeeEth(uint256)": "556bca73",
			"withdrawFee(uint256)": "be357616",
			"wormhole()": "84acd1bb",
			"wormholeRelayer()": "da25b725"
		}
	},
	"abi": [
		{
			"inputs": [
				{
					"internalType": "address",
					"name": "_layerZroEndPoint",
					"type": "address"
				},
				{
					"internalType": "address",
					"name": "_owner",
					"type": "address"
				},
				{
					"internalType": "address",
					"name": "_grayzone",
					"type": "address"
				}
			],
			"stateMutability": "nonpayable",
			"type": "constructor"
		},
		{
			"inputs": [
				{
					"internalType": "bytes32",
					"name": "",
					"type": "bytes32"
				}
			],
			"name": "NotAnEvmAddress",
			"type": "error"
		},
		{
			"inputs": [
				{
					"internalType": "address",
					"name": "owner",
					"type": "address"
				}
			],
			"name": "OwnableInvalidOwner",
			"type": "error"
		},
		{
			"inputs": [
				{
					"internalType": "address",
					"name": "account",
					"type": "address"
				}
			],
			"name": "OwnableUnauthorizedAccount",
			"type": "error"
		},
		{
			"inputs": [],
			"name": "WrongFeeOrParams",
			"type": "error"
		},
		{
			"anonymous": false,
			"inputs": [
				{
					"indexed": false,
					"internalType": "uint16",
					"name": "_srcChainId",
					"type": "uint16"
				},
				{
					"indexed": false,
					"internalType": "bytes",
					"name": "_srcAddress",
					"type": "bytes"
				},
				{
					"indexed": false,
					"internalType": "uint64",
					"name": "_nonce",
					"type": "uint64"
				},
				{
					"indexed": false,
					"internalType": "bytes",
					"name": "_payload",
					"type": "bytes"
				},
				{
					"indexed": false,
					"internalType": "bytes",
					"name": "_reason",
					"type": "bytes"
				}
			],
			"name": "MessageFailed",
			"type": "event"
		},
		{
			"anonymous": false,
			"inputs": [
				{
					"indexed": true,
					"internalType": "address",
					"name": "previousOwner",
					"type": "address"
				},
				{
					"indexed": true,
					"internalType": "address",
					"name": "newOwner",
					"type": "address"
				}
			],
			"name": "OwnershipTransferred",
			"type": "event"
		},
		{
			"anonymous": false,
			"inputs": [
				{
					"indexed": false,
					"internalType": "uint16",
					"name": "_srcChainId",
					"type": "uint16"
				},
				{
					"indexed": false,
					"internalType": "bytes",
					"name": "_srcAddress",
					"type": "bytes"
				},
				{
					"indexed": false,
					"internalType": "uint64",
					"name": "_nonce",
					"type": "uint64"
				},
				{
					"indexed": false,
					"internalType": "bytes32",
					"name": "_payloadHash",
					"type": "bytes32"
				}
			],
			"name": "RetryMessageSuccess",
			"type": "event"
		},
		{
			"anonymous": false,
			"inputs": [
				{
					"indexed": false,
					"internalType": "uint16",
					"name": "_dstChainId",
					"type": "uint16"
				},
				{
					"indexed": false,
					"internalType": "uint16",
					"name": "_type",
					"type": "uint16"
				},
				{
					"indexed": false,
					"internalType": "uint256",
					"name": "_minDstGas",
					"type": "uint256"
				}
			],
			"name": "SetMinDstGas",
			"type": "event"
		},
		{
			"anonymous": false,
			"inputs": [
				{
					"indexed": false,
					"internalType": "address",
					"name": "precrime",
					"type": "address"
				}
			],
			"name": "SetPrecrime",
			"type": "event"
		},
		{
			"anonymous": false,
			"inputs": [
				{
					"indexed": false,
					"internalType": "uint16",
					"name": "_remoteChainId",
					"type": "uint16"
				},
				{
					"indexed": false,
					"internalType": "bytes",
					"name": "_path",
					"type": "bytes"
				}
			],
			"name": "SetTrustedRemote",
			"type": "event"
		},
		{
			"anonymous": false,
			"inputs": [
				{
					"indexed": false,
					"internalType": "uint16",
					"name": "_remoteChainId",
					"type": "uint16"
				},
				{
					"indexed": false,
					"internalType": "bytes",
					"name": "_remoteAddress",
					"type": "bytes"
				}
			],
			"name": "SetTrustedRemoteAddress",
			"type": "event"
		},
		{
			"inputs": [],
			"name": "DEFAULT_PAYLOAD_SIZE_LIMIT",
			"outputs": [
				{
					"internalType": "uint256",
					"name": "",
					"type": "uint256"
				}
			],
			"stateMutability": "view",
			"type": "function"
		},
		{
			"inputs": [
				{
					"internalType": "uint256",
					"name": "",
					"type": "uint256"
				}
			],
			"name": "LatestBridges",
			"outputs": [
				{
					"internalType": "bool",
					"name": "isEth",
					"type": "bool"
				},
				{
					"components": [
						{
							"internalType": "uint16",
							"name": "_lzSrcCh",
							"type": "uint16"
						},
						{
							"internalType": "uint16",
							"name": "_lzDstChId",
							"type": "uint16"
						},
						{
							"internalType": "uint256",
							"name": "amount",
							"type": "uint256"
						},
						{
							"internalType": "address",
							"name": "dstReciver",
							"type": "address"
						},
						{
							"internalType": "uint256",
							"name": "timeStamp",
							"type": "uint256"
						},
						{
							"internalType": "bool",
							"name": "delivered",
							"type": "bool"
						}
					],
					"internalType": "struct Structs.EthBridge",
					"name": "ethbridge",
					"type": "tuple"
				},
				{
					"components": [
						{
							"internalType": "uint16",
							"name": "_wormSrcCh",
							"type": "uint16"
						},
						{
							"internalType": "uint16",
							"name": "_wormDstChId",
							"type": "uint16"
						},
						{
							"internalType": "address",
							"name": "token",
							"type": "address"
						},
						{
							"internalType": "uint256",
							"name": "amount",
							"type": "uint256"
						},
						{
							"internalType": "address",
							"name": "dstReciver",
							"type": "address"
						},
						{
							"internalType": "uint256",
							"name": "timeStamp",
							"type": "uint256"
						},
						{
							"internalType": "bool",
							"name": "delivered",
							"type": "bool"
						}
					],
					"internalType": "struct Structs.TokenBridge",
					"name": "tokenbridge",
					"type": "tuple"
				}
			],
			"stateMutability": "view",
			"type": "function"
		},
		{
			"inputs": [
				{
					"internalType": "uint16",
					"name": "chainId",
					"type": "uint16"
				}
			],
			"name": "_distrustAddress",
			"outputs": [],
			"stateMutability": "nonpayable",
			"type": "function"
		},
		{
			"inputs": [
				{
					"internalType": "uint16",
					"name": "wormholeId",
					"type": "uint16"
				},
				{
					"internalType": "address",
					"name": "contractAddress",
					"type": "address"
				}
			],
			"name": "_removeWormholeEndpoint",
			"outputs": [],
			"stateMutability": "nonpayable",
			"type": "function"
		},
		{
			"inputs": [
				{
					"internalType": "uint16",
					"name": "wormholeId",
					"type": "uint16"
				},
				{
					"internalType": "address",
					"name": "contractAddress",
					"type": "address"
				}
			],
			"name": "_setWormholeEndpoint",
			"outputs": [],
			"stateMutability": "nonpayable",
			"type": "function"
		},
		{
			"inputs": [
				{
					"internalType": "uint256",
					"name": "pointPerTx",
					"type": "uint256"
				},
				{
					"internalType": "uint256",
					"name": "totalPoints",
					"type": "uint256"
				},
				{
					"internalType": "bool",
					"name": "isActive",
					"type": "bool"
				},
				{
					"internalType": "uint256",
					"name": "bridgeFeeEther",
					"type": "uint256"
				},
				{
					"internalType": "uint256",
					"name": "percentFee",
					"type": "uint256"
				}
			],
			"name": "_set_States_",
			"outputs": [],
			"stateMutability": "nonpayable",
			"type": "function"
		},
		{
			"inputs": [
				{
					"internalType": "address",
					"name": "remoteAddress",
					"type": "address"
				},
				{
					"internalType": "uint16",
					"name": "chainId",
					"type": "uint16"
				}
			],
			"name": "_trustAddress",
			"outputs": [],
			"stateMutability": "nonpayable",
			"type": "function"
		},
		{
			"inputs": [
				{
					"components": [
						{
							"internalType": "uint16",
							"name": "targetChain",
							"type": "uint16"
						},
						{
							"internalType": "address",
							"name": "recipient",
							"type": "address"
						},
						{
							"internalType": "uint256",
							"name": "amt",
							"type": "uint256"
						},
						{
							"internalType": "address",
							"name": "token",
							"type": "address"
						},
						{
							"internalType": "uint256",
							"name": "dstGas",
							"type": "uint256"
						},
						{
							"internalType": "address",
							"name": "referal",
							"type": "address"
						}
					],
					"internalType": "struct Inputs.ERC20INPUT",
					"name": "params",
					"type": "tuple"
				}
			],
			"name": "bridgeErc20",
			"outputs": [
				{
					"internalType": "bool",
					"name": "z",
					"type": "bool"
				}
			],
			"stateMutability": "payable",
			"type": "function"
		},
		{
			"inputs": [
				{
					"components": [
						{
							"internalType": "uint16",
							"name": "toChainId",
							"type": "uint16"
						},
						{
							"internalType": "address",
							"name": "to",
							"type": "address"
						},
						{
							"internalType": "uint256",
							"name": "amt",
							"type": "uint256"
						},
						{
							"internalType": "uint256",
							"name": "dstGas",
							"type": "uint256"
						},
						{
							"internalType": "bool",
							"name": "useZro",
							"type": "bool"
						},
						{
							"internalType": "address",
							"name": "zroPAddr",
							"type": "address"
						},
						{
							"internalType": "address",
							"name": "referal",
							"type": "address"
						}
					],
					"internalType": "struct Inputs.ETHINPUT",
					"name": "params",
					"type": "tuple"
				}
			],
			"name": "bridgeEth",
			"outputs": [],
			"stateMutability": "payable",
			"type": "function"
		},
		{
			"inputs": [
				{
					"internalType": "uint16",
					"name": "",
					"type": "uint16"
				},
				{
					"internalType": "bytes",
					"name": "",
					"type": "bytes"
				},
				{
					"internalType": "uint64",
					"name": "",
					"type": "uint64"
				}
			],
			"name": "failedMessages",
			"outputs": [
				{
					"internalType": "bytes32",
					"name": "",
					"type": "bytes32"
				}
			],
			"stateMutability": "view",
			"type": "function"
		},
		{
			"inputs": [
				{
					"internalType": "uint16",
					"name": "_srcChainId",
					"type": "uint16"
				},
				{
					"internalType": "bytes",
					"name": "_srcAddress",
					"type": "bytes"
				}
			],
			"name": "forceResumeReceive",
			"outputs": [],
			"stateMutability": "nonpayable",
			"type": "function"
		},
		{
			"inputs": [
				{
					"internalType": "address",
					"name": "token",
					"type": "address"
				}
			],
			"name": "getAccruedFee",
			"outputs": [
				{
					"internalType": "uint256",
					"name": "",
					"type": "uint256"
				}
			],
			"stateMutability": "view",
			"type": "function"
		},
		{
			"inputs": [
				{
					"internalType": "uint16",
					"name": "_version",
					"type": "uint16"
				},
				{
					"internalType": "uint16",
					"name": "_chainId",
					"type": "uint16"
				},
				{
					"internalType": "address",
					"name": "",
					"type": "address"
				},
				{
					"internalType": "uint256",
					"name": "_configType",
					"type": "uint256"
				}
			],
			"name": "getConfig",
			"outputs": [
				{
					"internalType": "bytes",
					"name": "",
					"type": "bytes"
				}
			],
			"stateMutability": "view",
			"type": "function"
		},
		{
			"inputs": [
				{
					"internalType": "uint16",
					"name": "wormholeId",
					"type": "uint16"
				},
				{
					"internalType": "uint256",
					"name": "gasUnits",
					"type": "uint256"
				}
			],
			"name": "getErc20Cost",
			"outputs": [
				{
					"internalType": "uint256",
					"name": "cost",
					"type": "uint256"
				}
			],
			"stateMutability": "view",
			"type": "function"
		},
		{
			"inputs": [
				{
					"internalType": "address",
					"name": "user",
					"type": "address"
				},
				{
					"internalType": "uint256",
					"name": "Nonce",
					"type": "uint256"
				},
				{
					"internalType": "uint16",
					"name": "LzChain",
					"type": "uint16"
				},
				{
					"internalType": "bool",
					"name": "inOrOut",
					"type": "bool"
				}
			],
			"name": "getEthBridge",
			"outputs": [
				{
					"components": [
						{
							"internalType": "uint16",
							"name": "_lzSrcCh",
							"type": "uint16"
						},
						{
							"internalType": "uint16",
							"name": "_lzDstChId",
							"type": "uint16"
						},
						{
							"internalType": "uint256",
							"name": "amount",
							"type": "uint256"
						},
						{
							"internalType": "address",
							"name": "dstReciver",
							"type": "address"
						},
						{
							"internalType": "uint256",
							"name": "timeStamp",
							"type": "uint256"
						},
						{
							"internalType": "bool",
							"name": "delivered",
							"type": "bool"
						}
					],
					"internalType": "struct Structs.EthBridge",
					"name": "",
					"type": "tuple"
				}
			],
			"stateMutability": "view",
			"type": "function"
		},
		{
			"inputs": [
				{
					"internalType": "uint16",
					"name": "_dstLzId",
					"type": "uint16"
				},
				{
					"internalType": "bool",
					"name": "_useZro",
					"type": "bool"
				},
				{
					"internalType": "uint256",
					"name": "amount",
					"type": "uint256"
				},
				{
					"internalType": "address",
					"name": "sendTo",
					"type": "address"
				},
				{
					"internalType": "uint256",
					"name": "gasUnits",
					"type": "uint256"
				}
			],
			"name": "getEthCost",
			"outputs": [
				{
					"internalType": "uint256",
					"name": "cost",
					"type": "uint256"
				}
			],
			"stateMutability": "view",
			"type": "function"
		},
		{
			"inputs": [],
			"name": "getStates",
			"outputs": [
				{
					"components": [
						{
							"internalType": "uint256",
							"name": "pointPerTx",
							"type": "uint256"
						},
						{
							"internalType": "uint256",
							"name": "totalPoints",
							"type": "uint256"
						},
						{
							"internalType": "bool",
							"name": "isActive",
							"type": "bool"
						},
						{
							"internalType": "uint256",
							"name": "bridgeFeeEther",
							"type": "uint256"
						},
						{
							"internalType": "uint256",
							"name": "percentFee",
							"type": "uint256"
						}
					],
					"internalType": "struct Structs.BridgeData",
					"name": "",
					"type": "tuple"
				}
			],
			"stateMutability": "view",
			"type": "function"
		},
		{
			"inputs": [
				{
					"internalType": "address",
					"name": "user",
					"type": "address"
				},
				{
					"internalType": "bytes32",
					"name": "deliveryHash",
					"type": "bytes32"
				}
			],
			"name": "getTKNBridgeIn",
			"outputs": [
				{
					"components": [
						{
							"internalType": "uint16",
							"name": "_wormSrcCh",
							"type": "uint16"
						},
						{
							"internalType": "uint16",
							"name": "_wormDstChId",
							"type": "uint16"
						},
						{
							"internalType": "address",
							"name": "token",
							"type": "address"
						},
						{
							"internalType": "uint256",
							"name": "amount",
							"type": "uint256"
						},
						{
							"internalType": "address",
							"name": "dstReciver",
							"type": "address"
						},
						{
							"internalType": "uint256",
							"name": "timeStamp",
							"type": "uint256"
						},
						{
							"internalType": "bool",
							"name": "delivered",
							"type": "bool"
						}
					],
					"internalType": "struct Structs.TokenBridge",
					"name": "",
					"type": "tuple"
				}
			],
			"stateMutability": "view",
			"type": "function"
		},
		{
			"inputs": [
				{
					"internalType": "address",
					"name": "user",
					"type": "address"
				},
				{
					"internalType": "uint256",
					"name": "outNonce",
					"type": "uint256"
				},
				{
					"internalType": "uint16",
					"name": "toWormChain",
					"type": "uint16"
				}
			],
			"name": "getTKNBridgeOut",
			"outputs": [
				{
					"components": [
						{
							"internalType": "uint16",
							"name": "_wormSrcCh",
							"type": "uint16"
						},
						{
							"internalType": "uint16",
							"name": "_wormDstChId",
							"type": "uint16"
						},
						{
							"internalType": "address",
							"name": "token",
							"type": "address"
						},
						{
							"internalType": "uint256",
							"name": "amount",
							"type": "uint256"
						},
						{
							"internalType": "address",
							"name": "dstReciver",
							"type": "address"
						},
						{
							"internalType": "uint256",
							"name": "timeStamp",
							"type": "uint256"
						},
						{
							"internalType": "bool",
							"name": "delivered",
							"type": "bool"
						}
					],
					"internalType": "struct Structs.TokenBridge",
					"name": "",
					"type": "tuple"
				}
			],
			"stateMutability": "view",
			"type": "function"
		},
		{
			"inputs": [
				{
					"internalType": "address",
					"name": "user",
					"type": "address"
				},
				{
					"internalType": "uint256",
					"name": "bridgeInNonce",
					"type": "uint256"
				},
				{
					"internalType": "uint16",
					"name": "frmWormChain",
					"type": "uint16"
				}
			],
			"name": "getTKNDelivHash",
			"outputs": [
				{
					"internalType": "bytes32",
					"name": "",
					"type": "bytes32"
				}
			],
			"stateMutability": "view",
			"type": "function"
		},
		{
			"inputs": [
				{
					"internalType": "uint16",
					"name": "_remoteChainId",
					"type": "uint16"
				}
			],
			"name": "getTrustedRemoteAddress",
			"outputs": [
				{
					"internalType": "bytes",
					"name": "",
					"type": "bytes"
				}
			],
			"stateMutability": "view",
			"type": "function"
		},
		{
			"inputs": [
				{
					"internalType": "address",
					"name": "user",
					"type": "address"
				}
			],
			"name": "getUserData",
			"outputs": [
				{
					"components": [
						{
							"internalType": "uint256",
							"name": "bridgeOut",
							"type": "uint256"
						},
						{
							"internalType": "uint256",
							"name": "bridgeIn",
							"type": "uint256"
						},
						{
							"internalType": "uint256",
							"name": "totalRef",
							"type": "uint256"
						},
						{
							"internalType": "uint256",
							"name": "points",
							"type": "uint256"
						}
					],
					"internalType": "struct Structs.UserData",
					"name": "",
					"type": "tuple"
				},
				{
					"components": [
						{
							"internalType": "bool",
							"name": "refered",
							"type": "bool"
						},
						{
							"internalType": "address",
							"name": "referer",
							"type": "address"
						}
					],
					"internalType": "struct Structs.Referals",
					"name": "",
					"type": "tuple"
				}
			],
			"stateMutability": "view",
			"type": "function"
		},
		{
			"inputs": [
				{
					"internalType": "address",
					"name": "user",
					"type": "address"
				},
				{
					"internalType": "uint16",
					"name": "toLzChain",
					"type": "uint16"
				}
			],
			"name": "getUserEthVol",
			"outputs": [
				{
					"internalType": "uint256",
					"name": "",
					"type": "uint256"
				}
			],
			"stateMutability": "view",
			"type": "function"
		},
		{
			"inputs": [
				{
					"internalType": "address",
					"name": "user",
					"type": "address"
				},
				{
					"internalType": "address",
					"name": "token",
					"type": "address"
				},
				{
					"internalType": "uint16",
					"name": "toWormId",
					"type": "uint16"
				}
			],
			"name": "getUserTknVol",
			"outputs": [
				{
					"internalType": "uint256",
					"name": "",
					"type": "uint256"
				}
			],
			"stateMutability": "view",
			"type": "function"
		},
		{
			"inputs": [
				{
					"internalType": "address",
					"name": "_wormholeRelayer",
					"type": "address"
				},
				{
					"internalType": "address",
					"name": "_wormholeTokenBridge",
					"type": "address"
				},
				{
					"internalType": "address",
					"name": "_wormholeCore",
					"type": "address"
				}
			],
			"name": "initWorm",
			"outputs": [],
			"stateMutability": "nonpayable",
			"type": "function"
		},
		{
			"inputs": [
				{
					"internalType": "uint16",
					"name": "_srcChainId",
					"type": "uint16"
				},
				{
					"internalType": "bytes",
					"name": "_srcAddress",
					"type": "bytes"
				}
			],
			"name": "isTrustedRemote",
			"outputs": [
				{
					"internalType": "bool",
					"name": "",
					"type": "bool"
				}
			],
			"stateMutability": "view",
			"type": "function"
		},
		{
			"inputs": [],
			"name": "lzEndpoint",
			"outputs": [
				{
					"internalType": "contract ILayerZeroEndpoint",
					"name": "",
					"type": "address"
				}
			],
			"stateMutability": "view",
			"type": "function"
		},
		{
			"inputs": [
				{
					"internalType": "uint16",
					"name": "_srcChainId",
					"type": "uint16"
				},
				{
					"internalType": "bytes",
					"name": "_srcAddress",
					"type": "bytes"
				},
				{
					"internalType": "uint64",
					"name": "_nonce",
					"type": "uint64"
				},
				{
					"internalType": "bytes",
					"name": "_payload",
					"type": "bytes"
				}
			],
			"name": "lzReceive",
			"outputs": [],
			"stateMutability": "nonpayable",
			"type": "function"
		},
		{
			"inputs": [
				{
					"internalType": "uint16",
					"name": "",
					"type": "uint16"
				},
				{
					"internalType": "uint16",
					"name": "",
					"type": "uint16"
				}
			],
			"name": "minDstGasLookup",
			"outputs": [
				{
					"internalType": "uint256",
					"name": "",
					"type": "uint256"
				}
			],
			"stateMutability": "view",
			"type": "function"
		},
		{
			"inputs": [
				{
					"internalType": "uint16",
					"name": "_srcChainId",
					"type": "uint16"
				},
				{
					"internalType": "bytes",
					"name": "_srcAddress",
					"type": "bytes"
				},
				{
					"internalType": "uint64",
					"name": "_nonce",
					"type": "uint64"
				},
				{
					"internalType": "bytes",
					"name": "_payload",
					"type": "bytes"
				}
			],
			"name": "nonblockingLzReceive",
			"outputs": [],
			"stateMutability": "nonpayable",
			"type": "function"
		},
		{
			"inputs": [],
			"name": "owner",
			"outputs": [
				{
					"internalType": "address",
					"name": "",
					"type": "address"
				}
			],
			"stateMutability": "view",
			"type": "function"
		},
		{
			"inputs": [
				{
					"internalType": "uint16",
					"name": "",
					"type": "uint16"
				}
			],
			"name": "payloadSizeLimitLookup",
			"outputs": [
				{
					"internalType": "uint256",
					"name": "",
					"type": "uint256"
				}
			],
			"stateMutability": "view",
			"type": "function"
		},
		{
			"inputs": [],
			"name": "precrime",
			"outputs": [
				{
					"internalType": "address",
					"name": "",
					"type": "address"
				}
			],
			"stateMutability": "view",
			"type": "function"
		},
		{
			"inputs": [
				{
					"internalType": "bytes",
					"name": "payload",
					"type": "bytes"
				},
				{
					"internalType": "bytes[]",
					"name": "additionalVaas",
					"type": "bytes[]"
				},
				{
					"internalType": "bytes32",
					"name": "sourceAddress",
					"type": "bytes32"
				},
				{
					"internalType": "uint16",
					"name": "sourceChain",
					"type": "uint16"
				},
				{
					"internalType": "bytes32",
					"name": "deliveryHash",
					"type": "bytes32"
				}
			],
			"name": "receiveWormholeMessages",
			"outputs": [],
			"stateMutability": "payable",
			"type": "function"
		},
		{
			"inputs": [],
			"name": "renounceOwnership",
			"outputs": [],
			"stateMutability": "nonpayable",
			"type": "function"
		},
		{
			"inputs": [
				{
					"internalType": "uint16",
					"name": "_srcChainId",
					"type": "uint16"
				},
				{
					"internalType": "bytes",
					"name": "_srcAddress",
					"type": "bytes"
				},
				{
					"internalType": "uint64",
					"name": "_nonce",
					"type": "uint64"
				},
				{
					"internalType": "bytes",
					"name": "_payload",
					"type": "bytes"
				}
			],
			"name": "retryMessage",
			"outputs": [],
			"stateMutability": "payable",
			"type": "function"
		},
		{
			"inputs": [
				{
					"internalType": "uint16",
					"name": "_version",
					"type": "uint16"
				},
				{
					"internalType": "uint16",
					"name": "_chainId",
					"type": "uint16"
				},
				{
					"internalType": "uint256",
					"name": "_configType",
					"type": "uint256"
				},
				{
					"internalType": "bytes",
					"name": "_config",
					"type": "bytes"
				}
			],
			"name": "setConfig",
			"outputs": [],
			"stateMutability": "nonpayable",
			"type": "function"
		},
		{
			"inputs": [
				{
					"internalType": "address",
					"name": "addr",
					"type": "address"
				},
				{
					"internalType": "uint8",
					"name": "num",
					"type": "uint8"
				}
			],
			"name": "setGrayzoneAddr",
			"outputs": [],
			"stateMutability": "nonpayable",
			"type": "function"
		},
		{
			"inputs": [
				{
					"internalType": "uint16",
					"name": "_dstChainId",
					"type": "uint16"
				},
				{
					"internalType": "uint16",
					"name": "_packetType",
					"type": "uint16"
				},
				{
					"internalType": "uint256",
					"name": "_minGas",
					"type": "uint256"
				}
			],
			"name": "setMinDstGas",
			"outputs": [],
			"stateMutability": "nonpayable",
			"type": "function"
		},
		{
			"inputs": [
				{
					"internalType": "uint16",
					"name": "_dstChainId",
					"type": "uint16"
				},
				{
					"internalType": "uint256",
					"name": "_size",
					"type": "uint256"
				}
			],
			"name": "setPayloadSizeLimit",
			"outputs": [],
			"stateMutability": "nonpayable",
			"type": "function"
		},
		{
			"inputs": [
				{
					"internalType": "address",
					"name": "_precrime",
					"type": "address"
				}
			],
			"name": "setPrecrime",
			"outputs": [],
			"stateMutability": "nonpayable",
			"type": "function"
		},
		{
			"inputs": [
				{
					"internalType": "uint16",
					"name": "_version",
					"type": "uint16"
				}
			],
			"name": "setReceiveVersion",
			"outputs": [],
			"stateMutability": "nonpayable",
			"type": "function"
		},
		{
			"inputs": [
				{
					"internalType": "uint16",
					"name": "sourceChain",
					"type": "uint16"
				},
				{
					"internalType": "bytes32",
					"name": "sourceAddress",
					"type": "bytes32"
				}
			],
			"name": "setRegisteredSender",
			"outputs": [],
			"stateMutability": "nonpayable",
			"type": "function"
		},
		{
			"inputs": [
				{
					"internalType": "uint16",
					"name": "_version",
					"type": "uint16"
				}
			],
			"name": "setSendVersion",
			"outputs": [],
			"stateMutability": "nonpayable",
			"type": "function"
		},
		{
			"inputs": [
				{
					"internalType": "uint16",
					"name": "_remoteChainId",
					"type": "uint16"
				},
				{
					"internalType": "bytes",
					"name": "_path",
					"type": "bytes"
				}
			],
			"name": "setTrustedRemote",
			"outputs": [],
			"stateMutability": "nonpayable",
			"type": "function"
		},
		{
			"inputs": [
				{
					"internalType": "uint16",
					"name": "_remoteChainId",
					"type": "uint16"
				},
				{
					"internalType": "bytes",
					"name": "_remoteAddress",
					"type": "bytes"
				}
			],
			"name": "setTrustedRemoteAddress",
			"outputs": [],
			"stateMutability": "nonpayable",
			"type": "function"
		},
		{
			"inputs": [],
			"name": "tBridgeIndex",
			"outputs": [
				{
					"internalType": "uint256",
					"name": "",
					"type": "uint256"
				}
			],
			"stateMutability": "view",
			"type": "function"
		},
		{
			"inputs": [],
			"name": "tokenBridge",
			"outputs": [
				{
					"internalType": "contract ITokenBridge",
					"name": "",
					"type": "address"
				}
			],
			"stateMutability": "view",
			"type": "function"
		},
		{
			"inputs": [
				{
					"internalType": "address",
					"name": "newOwner",
					"type": "address"
				}
			],
			"name": "transferOwnership",
			"outputs": [],
			"stateMutability": "nonpayable",
			"type": "function"
		},
		{
			"inputs": [
				{
					"internalType": "uint16",
					"name": "",
					"type": "uint16"
				}
			],
			"name": "trustedRemoteLookup",
			"outputs": [
				{
					"internalType": "bytes",
					"name": "",
					"type": "bytes"
				}
			],
			"stateMutability": "view",
			"type": "function"
		},
		{
			"inputs": [
				{
					"internalType": "address",
					"name": "token",
					"type": "address"
				},
				{
					"internalType": "uint256",
					"name": "amount",
					"type": "uint256"
				}
			],
			"name": "withdrawAccruedFee",
			"outputs": [],
			"stateMutability": "nonpayable",
			"type": "function"
		},
		{
			"inputs": [
				{
					"internalType": "uint256",
					"name": "amount",
					"type": "uint256"
				}
			],
			"name": "withdrawAccruedFeeEth",
			"outputs": [],
			"stateMutability": "nonpayable",
			"type": "function"
		},
		{
			"inputs": [
				{
					"internalType": "uint256",
					"name": "amount",
					"type": "uint256"
				}
			],
			"name": "withdrawFee",
			"outputs": [],
			"stateMutability": "nonpayable",
			"type": "function"
		},
		{
			"inputs": [],
			"name": "wormhole",
			"outputs": [
				{
					"internalType": "contract IWormhole",
					"name": "",
					"type": "address"
				}
			],
			"stateMutability": "view",
			"type": "function"
		},
		{
			"inputs": [],
			"name": "wormholeRelayer",
			"outputs": [
				{
					"internalType": "contract IWormholeRelayer",
					"name": "",
					"type": "address"
				}
			],
			"stateMutability": "view",
			"type": "function"
		},
		{
			"stateMutability": "payable",
			"type": "receive"
		}
	]
}